{
  "address": "0xBB669FAe86b02D2517Bc2A7098071dC49e03B23A",
  "abi": [
    {
      "inputs": [
        {
          "internalType": "uint256",
          "name": "_gateId",
          "type": "uint256"
        },
        {
          "internalType": "string",
          "name": "_baseUri",
          "type": "string"
        },
        {
          "internalType": "uint256",
          "name": "updateInterval",
          "type": "uint256"
        }
      ],
      "stateMutability": "nonpayable",
      "type": "constructor"
    },
    {
      "anonymous": false,
      "inputs": [
        {
          "indexed": true,
          "internalType": "address",
          "name": "owner",
          "type": "address"
        },
        {
          "indexed": true,
          "internalType": "address",
          "name": "approved",
          "type": "address"
        },
        {
          "indexed": true,
          "internalType": "uint256",
          "name": "tokenId",
          "type": "uint256"
        }
      ],
      "name": "Approval",
      "type": "event"
    },
    {
      "anonymous": false,
      "inputs": [
        {
          "indexed": true,
          "internalType": "address",
          "name": "owner",
          "type": "address"
        },
        {
          "indexed": true,
          "internalType": "address",
          "name": "operator",
          "type": "address"
        },
        {
          "indexed": false,
          "internalType": "bool",
          "name": "approved",
          "type": "bool"
        }
      ],
      "name": "ApprovalForAll",
      "type": "event"
    },
    {
      "anonymous": false,
      "inputs": [
        {
          "indexed": true,
          "internalType": "bytes32",
          "name": "id",
          "type": "bytes32"
        }
      ],
      "name": "ChainlinkCancelled",
      "type": "event"
    },
    {
      "anonymous": false,
      "inputs": [
        {
          "indexed": true,
          "internalType": "bytes32",
          "name": "id",
          "type": "bytes32"
        }
      ],
      "name": "ChainlinkFulfilled",
      "type": "event"
    },
    {
      "anonymous": false,
      "inputs": [
        {
          "indexed": true,
          "internalType": "bytes32",
          "name": "id",
          "type": "bytes32"
        }
      ],
      "name": "ChainlinkRequested",
      "type": "event"
    },
    {
      "anonymous": false,
      "inputs": [
        {
          "indexed": true,
          "internalType": "address",
          "name": "from",
          "type": "address"
        },
        {
          "indexed": true,
          "internalType": "address",
          "name": "to",
          "type": "address"
        }
      ],
      "name": "OwnershipTransferRequested",
      "type": "event"
    },
    {
      "anonymous": false,
      "inputs": [
        {
          "indexed": true,
          "internalType": "address",
          "name": "from",
          "type": "address"
        },
        {
          "indexed": true,
          "internalType": "address",
          "name": "to",
          "type": "address"
        }
      ],
      "name": "OwnershipTransferred",
      "type": "event"
    },
    {
      "anonymous": false,
      "inputs": [
        {
          "indexed": true,
          "internalType": "bytes32",
          "name": "requestId",
          "type": "bytes32"
        },
        {
          "indexed": false,
          "internalType": "bool",
          "name": "approved",
          "type": "bool"
        },
        {
          "indexed": false,
          "internalType": "string",
          "name": "lastChecked",
          "type": "string"
        }
      ],
      "name": "RequestVolume",
      "type": "event"
    },
    {
      "anonymous": false,
      "inputs": [
        {
          "indexed": true,
          "internalType": "bytes32",
          "name": "role",
          "type": "bytes32"
        },
        {
          "indexed": true,
          "internalType": "bytes32",
          "name": "previousAdminRole",
          "type": "bytes32"
        },
        {
          "indexed": true,
          "internalType": "bytes32",
          "name": "newAdminRole",
          "type": "bytes32"
        }
      ],
      "name": "RoleAdminChanged",
      "type": "event"
    },
    {
      "anonymous": false,
      "inputs": [
        {
          "indexed": true,
          "internalType": "bytes32",
          "name": "role",
          "type": "bytes32"
        },
        {
          "indexed": true,
          "internalType": "address",
          "name": "account",
          "type": "address"
        },
        {
          "indexed": true,
          "internalType": "address",
          "name": "sender",
          "type": "address"
        }
      ],
      "name": "RoleGranted",
      "type": "event"
    },
    {
      "anonymous": false,
      "inputs": [
        {
          "indexed": true,
          "internalType": "bytes32",
          "name": "role",
          "type": "bytes32"
        },
        {
          "indexed": true,
          "internalType": "address",
          "name": "account",
          "type": "address"
        },
        {
          "indexed": true,
          "internalType": "address",
          "name": "sender",
          "type": "address"
        }
      ],
      "name": "RoleRevoked",
      "type": "event"
    },
    {
      "anonymous": false,
      "inputs": [
        {
          "indexed": true,
          "internalType": "address",
          "name": "from",
          "type": "address"
        },
        {
          "indexed": true,
          "internalType": "address",
          "name": "to",
          "type": "address"
        },
        {
          "indexed": true,
          "internalType": "uint256",
          "name": "tokenId",
          "type": "uint256"
        }
      ],
      "name": "Transfer",
      "type": "event"
    },
    {
      "inputs": [],
      "name": "DEFAULT_ADMIN_ROLE",
      "outputs": [
        {
          "internalType": "bytes32",
          "name": "",
          "type": "bytes32"
        }
      ],
      "stateMutability": "view",
      "type": "function"
    },
    {
      "inputs": [],
      "name": "MAX_TOKENS",
      "outputs": [
        {
          "internalType": "uint256",
          "name": "",
          "type": "uint256"
        }
      ],
      "stateMutability": "view",
      "type": "function"
    },
    {
      "inputs": [],
      "name": "acceptOwnership",
      "outputs": [],
      "stateMutability": "nonpayable",
      "type": "function"
    },
    {
      "inputs": [
        {
          "internalType": "address",
          "name": "_newAddress",
          "type": "address"
        }
      ],
      "name": "addAddress",
      "outputs": [],
      "stateMutability": "nonpayable",
      "type": "function"
    },
    {
      "inputs": [
        {
          "internalType": "uint256",
          "name": "",
          "type": "uint256"
        }
      ],
      "name": "addressesToVerify",
      "outputs": [
        {
          "internalType": "address",
          "name": "",
          "type": "address"
        }
      ],
      "stateMutability": "view",
      "type": "function"
    },
    {
      "inputs": [
        {
          "internalType": "address",
          "name": "to",
          "type": "address"
        },
        {
          "internalType": "uint256",
          "name": "tokenId",
          "type": "uint256"
        }
      ],
      "name": "approve",
      "outputs": [],
      "stateMutability": "nonpayable",
      "type": "function"
    },
    {
      "inputs": [],
      "name": "approved",
      "outputs": [
        {
          "internalType": "bool",
          "name": "",
          "type": "bool"
        }
      ],
      "stateMutability": "view",
      "type": "function"
    },
    {
      "inputs": [
        {
          "internalType": "address",
          "name": "owner",
          "type": "address"
        }
      ],
      "name": "balanceOf",
      "outputs": [
        {
          "internalType": "uint256",
          "name": "",
          "type": "uint256"
        }
      ],
      "stateMutability": "view",
      "type": "function"
    },
    {
      "inputs": [],
      "name": "batchVerify",
      "outputs": [],
      "stateMutability": "nonpayable",
      "type": "function"
    },
    {
      "inputs": [
        {
          "internalType": "address",
          "name": "_wallet",
          "type": "address"
        },
        {
          "internalType": "uint256",
          "name": "_gateId",
          "type": "uint256"
        }
      ],
      "name": "buildUrl",
      "outputs": [
        {
          "internalType": "string",
          "name": "",
          "type": "string"
        }
      ],
      "stateMutability": "view",
      "type": "function"
    },
    {
      "inputs": [
        {
          "internalType": "bytes",
          "name": "",
          "type": "bytes"
        }
      ],
      "name": "checkUpkeep",
      "outputs": [
        {
          "internalType": "bool",
          "name": "upkeepNeeded",
          "type": "bool"
        },
        {
          "internalType": "bytes",
          "name": "",
          "type": "bytes"
        }
      ],
      "stateMutability": "view",
      "type": "function"
    },
    {
      "inputs": [],
      "name": "counter",
      "outputs": [
        {
          "internalType": "uint256",
          "name": "",
          "type": "uint256"
        }
      ],
      "stateMutability": "view",
      "type": "function"
    },
    {
      "inputs": [
        {
          "internalType": "bytes32",
          "name": "_requestId",
          "type": "bytes32"
        },
        {
          "internalType": "bool",
          "name": "_approved",
          "type": "bool"
        }
      ],
      "name": "fulfill",
      "outputs": [],
      "stateMutability": "nonpayable",
      "type": "function"
    },
    {
      "inputs": [
        {
          "internalType": "address",
          "name": "_newMemb",
          "type": "address"
        }
      ],
      "name": "gainAccess",
      "outputs": [],
      "stateMutability": "nonpayable",
      "type": "function"
    },
    {
      "inputs": [
        {
          "internalType": "uint256",
          "name": "tokenId",
          "type": "uint256"
        }
      ],
      "name": "getApproved",
      "outputs": [
        {
          "internalType": "address",
          "name": "",
          "type": "address"
        }
      ],
      "stateMutability": "view",
      "type": "function"
    },
    {
      "inputs": [
        {
          "internalType": "bytes32",
          "name": "role",
          "type": "bytes32"
        }
      ],
      "name": "getRoleAdmin",
      "outputs": [
        {
          "internalType": "bytes32",
          "name": "",
          "type": "bytes32"
        }
      ],
      "stateMutability": "view",
      "type": "function"
    },
    {
      "inputs": [
        {
          "internalType": "bytes32",
          "name": "role",
          "type": "bytes32"
        },
        {
          "internalType": "address",
          "name": "account",
          "type": "address"
        }
      ],
      "name": "grantRole",
      "outputs": [],
      "stateMutability": "nonpayable",
      "type": "function"
    },
    {
      "inputs": [
        {
          "internalType": "bytes32",
          "name": "role",
          "type": "bytes32"
        },
        {
          "internalType": "address",
          "name": "account",
          "type": "address"
        }
      ],
      "name": "hasRole",
      "outputs": [
        {
          "internalType": "bool",
          "name": "",
          "type": "bool"
        }
      ],
      "stateMutability": "view",
      "type": "function"
    },
    {
      "inputs": [],
      "name": "interval",
      "outputs": [
        {
          "internalType": "uint256",
          "name": "",
          "type": "uint256"
        }
      ],
      "stateMutability": "view",
      "type": "function"
    },
    {
      "inputs": [
        {
          "internalType": "address",
          "name": "owner",
          "type": "address"
        },
        {
          "internalType": "address",
          "name": "operator",
          "type": "address"
        }
      ],
      "name": "isApprovedForAll",
      "outputs": [
        {
          "internalType": "bool",
          "name": "",
          "type": "bool"
        }
      ],
      "stateMutability": "view",
      "type": "function"
    },
    {
      "inputs": [],
      "name": "lastChecked",
      "outputs": [
        {
          "internalType": "string",
          "name": "",
          "type": "string"
        }
      ],
      "stateMutability": "view",
      "type": "function"
    },
    {
      "inputs": [],
      "name": "lastTimeStamp",
      "outputs": [
        {
          "internalType": "uint256",
          "name": "",
          "type": "uint256"
        }
      ],
      "stateMutability": "view",
      "type": "function"
    },
    {
      "inputs": [],
      "name": "name",
      "outputs": [
        {
          "internalType": "string",
          "name": "",
          "type": "string"
        }
      ],
      "stateMutability": "view",
      "type": "function"
    },
    {
      "inputs": [],
      "name": "owner",
      "outputs": [
        {
          "internalType": "address",
          "name": "",
          "type": "address"
        }
      ],
      "stateMutability": "view",
      "type": "function"
    },
    {
      "inputs": [
        {
          "internalType": "uint256",
          "name": "tokenId",
          "type": "uint256"
        }
      ],
      "name": "ownerOf",
      "outputs": [
        {
          "internalType": "address",
          "name": "",
          "type": "address"
        }
      ],
      "stateMutability": "view",
      "type": "function"
    },
    {
      "inputs": [
        {
          "internalType": "bytes",
          "name": "",
          "type": "bytes"
        }
      ],
      "name": "performUpkeep",
      "outputs": [],
      "stateMutability": "nonpayable",
      "type": "function"
    },
    {
      "inputs": [
        {
          "internalType": "bytes32",
          "name": "role",
          "type": "bytes32"
        },
        {
          "internalType": "address",
          "name": "account",
          "type": "address"
        }
      ],
      "name": "renounceRole",
      "outputs": [],
      "stateMutability": "nonpayable",
      "type": "function"
    },
    {
      "inputs": [
        {
          "internalType": "address",
          "name": "_wallet",
          "type": "address"
        },
        {
          "internalType": "uint256",
          "name": "_gateId",
          "type": "uint256"
        }
      ],
      "name": "requestVolumeData",
      "outputs": [
        {
          "internalType": "bytes32",
          "name": "requestId",
          "type": "bytes32"
        }
      ],
      "stateMutability": "nonpayable",
      "type": "function"
    },
    {
      "inputs": [
        {
          "internalType": "bytes32",
          "name": "role",
          "type": "bytes32"
        },
        {
          "internalType": "address",
          "name": "account",
          "type": "address"
        }
      ],
      "name": "revokeRole",
      "outputs": [],
      "stateMutability": "nonpayable",
      "type": "function"
    },
    {
      "inputs": [
        {
          "internalType": "address",
          "name": "user",
          "type": "address"
        }
      ],
      "name": "safeMint",
      "outputs": [],
      "stateMutability": "nonpayable",
      "type": "function"
    },
    {
      "inputs": [
        {
          "internalType": "address",
          "name": "from",
          "type": "address"
        },
        {
          "internalType": "address",
          "name": "to",
          "type": "address"
        },
        {
          "internalType": "uint256",
          "name": "tokenId",
          "type": "uint256"
        }
      ],
      "name": "safeTransferFrom",
      "outputs": [],
      "stateMutability": "nonpayable",
      "type": "function"
    },
    {
      "inputs": [
        {
          "internalType": "address",
          "name": "from",
          "type": "address"
        },
        {
          "internalType": "address",
          "name": "to",
          "type": "address"
        },
        {
          "internalType": "uint256",
          "name": "tokenId",
          "type": "uint256"
        },
        {
          "internalType": "bytes",
          "name": "data",
          "type": "bytes"
        }
      ],
      "name": "safeTransferFrom",
      "outputs": [],
      "stateMutability": "nonpayable",
      "type": "function"
    },
    {
      "inputs": [
        {
          "internalType": "address",
          "name": "operator",
          "type": "address"
        },
        {
          "internalType": "bool",
          "name": "approved",
          "type": "bool"
        }
      ],
      "name": "setApprovalForAll",
      "outputs": [],
      "stateMutability": "nonpayable",
      "type": "function"
    },
    {
      "inputs": [
        {
          "internalType": "string",
          "name": "_newBaseURI",
          "type": "string"
        }
      ],
      "name": "setBaseURI",
      "outputs": [],
      "stateMutability": "nonpayable",
      "type": "function"
    },
    {
      "inputs": [
        {
          "internalType": "uint256",
          "name": "_gateId",
          "type": "uint256"
        }
      ],
      "name": "setGate",
      "outputs": [],
      "stateMutability": "nonpayable",
      "type": "function"
    },
    {
      "inputs": [
        {
          "internalType": "address",
          "name": "_newContract",
          "type": "address"
        }
      ],
      "name": "setMintingContract",
      "outputs": [],
      "stateMutability": "nonpayable",
      "type": "function"
    },
    {
      "inputs": [
        {
          "internalType": "bytes4",
          "name": "interfaceId",
          "type": "bytes4"
        }
      ],
      "name": "supportsInterface",
      "outputs": [
        {
          "internalType": "bool",
          "name": "",
          "type": "bool"
        }
      ],
      "stateMutability": "view",
      "type": "function"
    },
    {
      "inputs": [],
      "name": "symbol",
      "outputs": [
        {
          "internalType": "string",
          "name": "",
          "type": "string"
        }
      ],
      "stateMutability": "view",
      "type": "function"
    },
    {
      "inputs": [
        {
          "internalType": "uint256",
          "name": "tokenId",
          "type": "uint256"
        }
      ],
      "name": "tokenURI",
      "outputs": [
        {
          "internalType": "string",
          "name": "",
          "type": "string"
        }
      ],
      "stateMutability": "view",
      "type": "function"
    },
    {
      "inputs": [
        {
          "internalType": "address",
          "name": "from",
          "type": "address"
        },
        {
          "internalType": "address",
          "name": "to",
          "type": "address"
        },
        {
          "internalType": "uint256",
          "name": "tokenId",
          "type": "uint256"
        }
      ],
      "name": "transferFrom",
      "outputs": [],
      "stateMutability": "nonpayable",
      "type": "function"
    },
    {
      "inputs": [
        {
          "internalType": "address",
          "name": "to",
          "type": "address"
        }
      ],
      "name": "transferOwnership",
      "outputs": [],
      "stateMutability": "nonpayable",
      "type": "function"
    },
    {
      "inputs": [
        {
          "internalType": "uint256",
          "name": "_value",
          "type": "uint256"
        }
      ],
      "name": "uintToString",
      "outputs": [
        {
          "internalType": "string",
          "name": "",
          "type": "string"
        }
      ],
      "stateMutability": "pure",
      "type": "function"
    },
    {
      "inputs": [],
      "name": "volume",
      "outputs": [
        {
          "internalType": "uint256",
          "name": "",
          "type": "uint256"
        }
      ],
      "stateMutability": "view",
      "type": "function"
    },
    {
      "inputs": [],
      "name": "withdrawAll",
      "outputs": [],
      "stateMutability": "nonpayable",
      "type": "function"
    },
    {
      "inputs": [],
      "name": "withdrawLink",
      "outputs": [],
      "stateMutability": "nonpayable",
      "type": "function"
    }
  ],
  "transactionHash": "0xa7c39bb79b6b9d8315e06ee16afa20a4743866ebc842bc8b5ac04ff5a3d89727",
  "args": [
    4,
    "https://gateway.pinata.cloud/ipfs/QmfK4jMsx5qZ3fBiixfYawRQsrCGrGjgMXKbYzkovF7Qwg/",
    60000
  ],
  "numDeployments": 3,
  "solcInputHash": "7dd34ff9cf2ff55d7a5e9cdc1107c4c8",
  "bytecode": "0x60a06040526001600b55735cb675e6e9e947a1c40b3f83b673c6a8f803f3b7601360016101000a81548173ffffffffffffffffffffffffffffffffffffffff021916908373ffffffffffffffffffffffffffffffffffffffff1602179055506018601a553480156200007057600080fd5b50604051620068e7380380620068e78339818101604052810190620000969190620008d2565b8281338060006040518060400160405280600981526020017f41726269676174657300000000000000000000000000000000000000000000008152506040518060400160405280600481526020017f41475453000000000000000000000000000000000000000000000000000000008152508160009080519060200190620001209291906200064a565b508060019080519060200190620001399291906200064a565b505050600073ffffffffffffffffffffffffffffffffffffffff168273ffffffffffffffffffffffffffffffffffffffff1603620001ae576040517f08c379a0000000000000000000000000000000000000000000000000000000008152600401620001a590620009ae565b60405180910390fd5b81600d60006101000a81548173ffffffffffffffffffffffffffffffffffffffff021916908373ffffffffffffffffffffffffffffffffffffffff160217905550600073ffffffffffffffffffffffffffffffffffffffff168173ffffffffffffffffffffffffffffffffffffffff1614620002365762000235816200032c60201b60201c565b5b5050506200025e73326c977e6efc84e512bb9c30f76e30c160ed06fb6200045d60201b60201c565b6200028373cc79157eb46f5624204f47ab42b3906caa40eab7620004a160201b60201c565b7f6331633565393238383038393465623662323764336361653139363730616133601081905550600a670de0b6b3a76400006001620002c39190620009ff565b620002cf919062000a8f565b601181905550806080818152505042601581905550816012819055506000601481905550505081601990805190602001906200030d9291906200064a565b50620003236000801b33620004e560201b60201c565b50505062000b9d565b3373ffffffffffffffffffffffffffffffffffffffff168173ffffffffffffffffffffffffffffffffffffffff16036200039d576040517f08c379a0000000000000000000000000000000000000000000000000000000008152600401620003949062000b17565b60405180910390fd5b80600e60006101000a81548173ffffffffffffffffffffffffffffffffffffffff021916908373ffffffffffffffffffffffffffffffffffffffff1602179055508073ffffffffffffffffffffffffffffffffffffffff16600d60009054906101000a900473ffffffffffffffffffffffffffffffffffffffff1673ffffffffffffffffffffffffffffffffffffffff167fed8889f560326eb138920d842192f0eb3dd22b4f139c87a2c57538e05bae127860405160405180910390a350565b80600960006101000a81548173ffffffffffffffffffffffffffffffffffffffff021916908373ffffffffffffffffffffffffffffffffffffffff16021790555050565b80600a60006101000a81548173ffffffffffffffffffffffffffffffffffffffff021916908373ffffffffffffffffffffffffffffffffffffffff16021790555050565b620004f78282620005d760201b60201c565b620005d35760016006600084815260200190815260200160002060000160008373ffffffffffffffffffffffffffffffffffffffff1673ffffffffffffffffffffffffffffffffffffffff16815260200190815260200160002060006101000a81548160ff021916908315150217905550620005786200064260201b60201c565b73ffffffffffffffffffffffffffffffffffffffff168173ffffffffffffffffffffffffffffffffffffffff16837f2f8788117e7eff1d82e926ec794901d17c78024a50270940304540a733656f0d60405160405180910390a45b5050565b60006006600084815260200190815260200160002060000160008373ffffffffffffffffffffffffffffffffffffffff1673ffffffffffffffffffffffffffffffffffffffff16815260200190815260200160002060009054906101000a900460ff16905092915050565b600033905090565b828054620006589062000b68565b90600052602060002090601f0160209004810192826200067c5760008555620006c8565b82601f106200069757805160ff1916838001178555620006c8565b82800160010185558215620006c8579182015b82811115620006c7578251825591602001919060010190620006aa565b5b509050620006d79190620006db565b5090565b5b80821115620006f6576000816000905550600101620006dc565b5090565b6000604051905090565b600080fd5b600080fd5b6000819050919050565b62000723816200070e565b81146200072f57600080fd5b50565b600081519050620007438162000718565b92915050565b600080fd5b600080fd5b6000601f19601f8301169050919050565b7f4e487b7100000000000000000000000000000000000000000000000000000000600052604160045260246000fd5b6200079e8262000753565b810181811067ffffffffffffffff82111715620007c057620007bf62000764565b5b80604052505050565b6000620007d5620006fa565b9050620007e3828262000793565b919050565b600067ffffffffffffffff82111562000806576200080562000764565b5b620008118262000753565b9050602081019050919050565b60005b838110156200083e57808201518184015260208101905062000821565b838111156200084e576000848401525b50505050565b60006200086b6200086584620007e8565b620007c9565b9050828152602081018484840111156200088a57620008896200074e565b5b620008978482856200081e565b509392505050565b600082601f830112620008b757620008b662000749565b5b8151620008c984826020860162000854565b91505092915050565b600080600060608486031215620008ee57620008ed62000704565b5b6000620008fe8682870162000732565b935050602084015167ffffffffffffffff81111562000922576200092162000709565b5b62000930868287016200089f565b9250506040620009438682870162000732565b9150509250925092565b600082825260208201905092915050565b7f43616e6e6f7420736574206f776e657220746f207a65726f0000000000000000600082015250565b6000620009966018836200094d565b9150620009a3826200095e565b602082019050919050565b60006020820190508181036000830152620009c98162000987565b9050919050565b7f4e487b7100000000000000000000000000000000000000000000000000000000600052601160045260246000fd5b600062000a0c826200070e565b915062000a19836200070e565b9250817fffffffffffffffffffffffffffffffffffffffffffffffffffffffffffffffff048311821515161562000a555762000a54620009d0565b5b828202905092915050565b7f4e487b7100000000000000000000000000000000000000000000000000000000600052601260045260246000fd5b600062000a9c826200070e565b915062000aa9836200070e565b92508262000abc5762000abb62000a60565b5b828204905092915050565b7f43616e6e6f74207472616e7366657220746f2073656c66000000000000000000600082015250565b600062000aff6017836200094d565b915062000b0c8262000ac7565b602082019050919050565b6000602082019050818103600083015262000b328162000af0565b9050919050565b7f4e487b7100000000000000000000000000000000000000000000000000000000600052602260045260246000fd5b6000600282049050600182168062000b8157607f821691505b60208210810362000b975762000b9662000b39565b5b50919050565b608051615d2062000bc760003960008181610e1b01528181610f8e01526114470152615d206000f3fe608060405234801561001057600080fd5b506004361061027f5760003560e01c806379ba50971161015c578063c56e1375116100ce578063e985e9c511610087578063e985e9c514610771578063f2fde38b146107a1578063f47c84c5146107bd578063f5ea9ad0146107db578063f84c183e1461080b578063fd68990a146108275761027f565b8063c56e13751461069d578063c618a1e4146106b9578063c87b56dd146106d7578063d547741f14610707578063e5ada13e14610723578063e9395679146107415761027f565b8063947a36fb11610120578063947a36fb146105ef57806395d89b411461060d5780639b63a11a1461062b578063a217fddf14610647578063a22cb46514610665578063b88d4fde146106815761027f565b806379ba509714610583578063853828b61461058d5780638da5cb5b146105975780638dc654a2146105b557806391d14854146105bf5761027f565b806338eada1c116101f55780635475e90b116101b95780635475e90b1461048857806355f804b3146104b857806361bc221a146104d45780636352211e146104f25780636e04ff0d1461052257806370a08231146105535761027f565b806338eada1c146103fa5780633f3b3b271461041657806340d097c31461043457806342842e0e146104505780634585e33b1461046c5761027f565b806319d40b081161024757806319d40b08146103285780632002a0c01461034657806323b872dd14610376578063248a9ca3146103925780632f2ff15d146103c257806336568abe146103de5761027f565b806301ffc9a71461028457806306fdde03146102b4578063081812fc146102d2578063095ea7b3146103025780630f6cee491461031e575b600080fd5b61029e60048036038101906102999190613e36565b610843565b6040516102ab9190613e7e565b60405180910390f35b6102bc610855565b6040516102c99190613f32565b60405180910390f35b6102ec60048036038101906102e79190613f8a565b6108e7565b6040516102f99190613ff8565b60405180910390f35b61031c6004803603810190610317919061403f565b61092d565b005b610326610a44565b005b610330610abb565b60405161033d9190613e7e565b60405180910390f35b610360600480360381019061035b9190613f8a565b610ace565b60405161036d9190613ff8565b60405180910390f35b610390600480360381019061038b919061407f565b610b0d565b005b6103ac60048036038101906103a79190614108565b610b6d565b6040516103b99190614144565b60405180910390f35b6103dc60048036038101906103d7919061415f565b610b8d565b005b6103f860048036038101906103f3919061415f565b610bae565b005b610414600480360381019061040f919061419f565b610c31565b005b61041e610c97565b60405161042b91906141db565b60405180910390f35b61044e6004803603810190610449919061419f565b610c9d565b005b61046a6004803603810190610465919061407f565b610df9565b005b6104866004803603810190610481919061425b565b610e19565b005b6104a2600480360381019061049d919061403f565b610e77565b6040516104af9190613f32565b60405180910390f35b6104d260048036038101906104cd91906142fe565b610eb3565b005b6104dc610ed1565b6040516104e991906141db565b60405180910390f35b61050c60048036038101906105079190613f8a565b610ed7565b6040516105199190613ff8565b60405180910390f35b61053c6004803603810190610537919061425b565b610f88565b60405161054a9291906143a0565b60405180910390f35b61056d6004803603810190610568919061419f565b610fc5565b60405161057a91906141db565b60405180910390f35b61058b61107c565b005b610595611213565b005b61059f611263565b6040516105ac9190613ff8565b60405180910390f35b6105bd61128d565b005b6105d960048036038101906105d4919061415f565b6113da565b6040516105e69190613e7e565b60405180910390f35b6105f7611445565b60405161060491906141db565b60405180910390f35b610615611469565b6040516106229190613f32565b60405180910390f35b6106456004803603810190610640919061419f565b6114fb565b005b61064f61158b565b60405161065c9190614144565b60405180910390f35b61067f600480360381019061067a91906143fc565b611592565b005b61069b6004803603810190610696919061456c565b6115a8565b005b6106b760048036038101906106b2919061419f565b61160a565b005b6106c1611656565b6040516106ce91906141db565b60405180910390f35b6106f160048036038101906106ec9190613f8a565b61165c565b6040516106fe9190613f32565b60405180910390f35b610721600480360381019061071c919061415f565b6116c4565b005b61072b6116e5565b6040516107389190613f32565b60405180910390f35b61075b60048036038101906107569190613f8a565b611773565b6040516107689190613f32565b60405180910390f35b61078b600480360381019061078691906145ef565b611a68565b6040516107989190613e7e565b60405180910390f35b6107bb60048036038101906107b6919061419f565b611afc565b005b6107c5611b10565b6040516107d291906141db565b60405180910390f35b6107f560048036038101906107f0919061403f565b611b16565b6040516108029190614144565b60405180910390f35b61082560048036038101906108209190613f8a565b611c74565b005b610841600480360381019061083c919061462f565b611c86565b005b600061084e82611e18565b9050919050565b6060600080546108649061469e565b80601f01602080910402602001604051908101604052809291908181526020018280546108909061469e565b80156108dd5780601f106108b2576101008083540402835291602001916108dd565b820191906000526020600020905b8154815290600101906020018083116108c057829003601f168201915b5050505050905090565b60006108f282611e92565b6004600083815260200190815260200160002060009054906101000a900473ffffffffffffffffffffffffffffffffffffffff169050919050565b600061093882610ed7565b90508073ffffffffffffffffffffffffffffffffffffffff168373ffffffffffffffffffffffffffffffffffffffff16036109a8576040517f08c379a000000000000000000000000000000000000000000000000000000000815260040161099f90614741565b60405180910390fd5b8073ffffffffffffffffffffffffffffffffffffffff166109c7611edd565b73ffffffffffffffffffffffffffffffffffffffff1614806109f657506109f5816109f0611edd565b611a68565b5b610a35576040517f08c379a0000000000000000000000000000000000000000000000000000000008152600401610a2c906147d3565b60405180910390fd5b610a3f8383611ee5565b505050565b60005b601680549050811015610ab857600060168281548110610a6a57610a696147f3565b5b9060005260206000200160009054906101000a900473ffffffffffffffffffffffffffffffffffffffff169050610aa381601254611b16565b50508080610ab090614851565b915050610a47565b50565b601360009054906101000a900460ff1681565b60168181548110610ade57600080fd5b906000526020600020016000915054906101000a900473ffffffffffffffffffffffffffffffffffffffff1681565b610b1e610b18611edd565b82611f9e565b610b5d576040517f08c379a0000000000000000000000000000000000000000000000000000000008152600401610b549061490b565b60405180910390fd5b610b68838383612033565b505050565b600060066000838152602001908152602001600020600101549050919050565b610b9682610b6d565b610b9f81612299565b610ba983836122ad565b505050565b610bb6611edd565b73ffffffffffffffffffffffffffffffffffffffff168173ffffffffffffffffffffffffffffffffffffffff1614610c23576040517f08c379a0000000000000000000000000000000000000000000000000000000008152600401610c1a9061499d565b60405180910390fd5b610c2d828261238e565b5050565b6016819080600181540180825580915050600190039060005260206000200160009091909190916101000a81548173ffffffffffffffffffffffffffffffffffffffff021916908373ffffffffffffffffffffffffffffffffffffffff16021790555050565b60155481565b601b60008273ffffffffffffffffffffffffffffffffffffffff1673ffffffffffffffffffffffffffffffffffffffff16815260200190815260200160002060009054906101000a900460ff1615610d2a576040517f08c379a0000000000000000000000000000000000000000000000000000000008152600401610d2190614a09565b60405180910390fd5b6000610d36601c612470565b9050601a54600182610d489190614a29565b1115610d89576040517f08c379a0000000000000000000000000000000000000000000000000000000008152600401610d8090614af1565b60405180910390fd5b610d93828261247e565b610d9d601c61249c565b6001601b60008473ffffffffffffffffffffffffffffffffffffffff1673ffffffffffffffffffffffffffffffffffffffff16815260200190815260200160002060006101000a81548160ff0219169083151502179055505050565b610e14838383604051806020016040528060008152506115a8565b505050565b7f000000000000000000000000000000000000000000000000000000000000000060155442610e489190614b11565b1115610e7357426015819055506001601454610e649190614a29565b601481905550610e72610a44565b5b5050565b6060610e82836124b2565b610e8b83612675565b604051602001610e9c929190614c19565b604051602081830303815290604052905092915050565b610ebb6127d5565b818160199190610ecc929190613ca0565b505050565b60145481565b6000806002600084815260200190815260200160002060009054906101000a900473ffffffffffffffffffffffffffffffffffffffff169050600073ffffffffffffffffffffffffffffffffffffffff168173ffffffffffffffffffffffffffffffffffffffff1603610f7f576040517f08c379a0000000000000000000000000000000000000000000000000000000008152600401610f7690614ca3565b60405180910390fd5b80915050919050565b600060607f000000000000000000000000000000000000000000000000000000000000000060155442610fbb9190614b11565b1191509250929050565b60008073ffffffffffffffffffffffffffffffffffffffff168273ffffffffffffffffffffffffffffffffffffffff1603611035576040517f08c379a000000000000000000000000000000000000000000000000000000000815260040161102c90614d35565b60405180910390fd5b600360008373ffffffffffffffffffffffffffffffffffffffff1673ffffffffffffffffffffffffffffffffffffffff168152602001908152602001600020549050919050565b600e60009054906101000a900473ffffffffffffffffffffffffffffffffffffffff1673ffffffffffffffffffffffffffffffffffffffff163373ffffffffffffffffffffffffffffffffffffffff161461110c576040517f08c379a000000000000000000000000000000000000000000000000000000000815260040161110390614da1565b60405180910390fd5b6000600d60009054906101000a900473ffffffffffffffffffffffffffffffffffffffff16905033600d60006101000a81548173ffffffffffffffffffffffffffffffffffffffff021916908373ffffffffffffffffffffffffffffffffffffffff1602179055506000600e60006101000a81548173ffffffffffffffffffffffffffffffffffffffff021916908373ffffffffffffffffffffffffffffffffffffffff1602179055503373ffffffffffffffffffffffffffffffffffffffff168173ffffffffffffffffffffffffffffffffffffffff167f8be0079c531659141344cd1fd0a4f28419497f9722a3daafe3b4186f6b6457e060405160405180910390a350565b61121b611263565b73ffffffffffffffffffffffffffffffffffffffff166108fc479081150290604051600060405180830381858888f19350505050158015611260573d6000803e3d6000fd5b50565b6000600d60009054906101000a900473ffffffffffffffffffffffffffffffffffffffff16905090565b6112956127d5565b600061129f612867565b90508073ffffffffffffffffffffffffffffffffffffffff1663a9059cbb338373ffffffffffffffffffffffffffffffffffffffff166370a08231306040518263ffffffff1660e01b81526004016112f79190613ff8565b602060405180830381865afa158015611314573d6000803e3d6000fd5b505050506040513d601f19601f820116820180604052508101906113389190614dd6565b6040518363ffffffff1660e01b8152600401611355929190614e03565b6020604051808303816000875af1158015611374573d6000803e3d6000fd5b505050506040513d601f19601f820116820180604052508101906113989190614e41565b6113d7576040517f08c379a00000000000000000000000000000000000000000000000000000000081526004016113ce90614eba565b60405180910390fd5b50565b60006006600084815260200190815260200160002060000160008373ffffffffffffffffffffffffffffffffffffffff1673ffffffffffffffffffffffffffffffffffffffff16815260200190815260200160002060009054906101000a900460ff16905092915050565b7f000000000000000000000000000000000000000000000000000000000000000081565b6060600180546114789061469e565b80601f01602080910402602001604051908101604052809291908181526020018280546114a49061469e565b80156114f15780601f106114c6576101008083540402835291602001916114f1565b820191906000526020600020905b8154815290600101906020018083116114d457829003601f168201915b5050505050905090565b601360019054906101000a900473ffffffffffffffffffffffffffffffffffffffff1673ffffffffffffffffffffffffffffffffffffffff1663d204c45e826040518263ffffffff1660e01b81526004016115569190614fe4565b600060405180830381600087803b15801561157057600080fd5b505af1158015611584573d6000803e3d6000fd5b5050505050565b6000801b81565b6115a461159d611edd565b8383612891565b5050565b6115b96115b3611edd565b83611f9e565b6115f8576040517f08c379a00000000000000000000000000000000000000000000000000000000081526004016115ef9061490b565b60405180910390fd5b611604848484846129fd565b50505050565b6116126127d5565b80601360016101000a81548173ffffffffffffffffffffffffffffffffffffffff021916908373ffffffffffffffffffffffffffffffffffffffff16021790555050565b600f5481565b606061166782611e92565b6000611671612a59565b9050600081511161169157604051806020016040528060008152506116bc565b8061169b84612675565b6040516020016116ac929190615012565b6040516020818303038152906040525b915050919050565b6116cd82610b6d565b6116d681612299565b6116e0838361238e565b505050565b601880546116f29061469e565b80601f016020809104026020016040519081016040528092919081815260200182805461171e9061469e565b801561176b5780601f106117405761010080835404028352916020019161176b565b820191906000526020600020905b81548152906001019060200180831161174e57829003601f168201915b505050505081565b606060008260001b905060006040518060400160405280601081526020017f303132333435363738396162636465660000000000000000000000000000000081525090506000602a67ffffffffffffffff8111156117d4576117d3614441565b5b6040519080825280601f01601f1916602001820160405280156118065781602001600182028036833780820191505090505b5090507f30000000000000000000000000000000000000000000000000000000000000008160008151811061183e5761183d6147f3565b5b60200101907effffffffffffffffffffffffffffffffffffffffffffffffffffffffffffff1916908160001a9053507f7800000000000000000000000000000000000000000000000000000000000000816001815181106118a2576118a16147f3565b5b60200101907effffffffffffffffffffffffffffffffffffffffffffffffffffffffffffff1916908160001a90535060005b6014811015611a5c5782600485600c846118ee9190614a29565b602081106118ff576118fe6147f3565b5b1a60f81b7effffffffffffffffffffffffffffffffffffffffffffffffffffffffffffff1916901c60f81c60ff168151811061193e5761193d6147f3565b5b602001015160f81c60f81b826002836119579190615036565b60026119639190614a29565b81518110611974576119736147f3565b5b60200101907effffffffffffffffffffffffffffffffffffffffffffffffffffffffffffff1916908160001a90535082600f60f81b85600c846119b79190614a29565b602081106119c8576119c76147f3565b5b1a60f81b1660f81c60ff16815181106119e4576119e36147f3565b5b602001015160f81c60f81b826002836119fd9190615036565b6003611a099190614a29565b81518110611a1a57611a196147f3565b5b60200101907effffffffffffffffffffffffffffffffffffffffffffffffffffffffffffff1916908160001a9053508080611a5490614851565b9150506118d4565b50809350505050919050565b6000600560008473ffffffffffffffffffffffffffffffffffffffff1673ffffffffffffffffffffffffffffffffffffffff16815260200190815260200160002060008373ffffffffffffffffffffffffffffffffffffffff1673ffffffffffffffffffffffffffffffffffffffff16815260200190815260200160002060009054906101000a900460ff16905092915050565b611b046127d5565b611b0d81612a70565b50565b601a5481565b600080611b2d6010543063fd68990a60e01b612b9e565b90506000611b3b8585610e77565b9050611b876040518060400160405280600381526020017f67657400000000000000000000000000000000000000000000000000000000008152508284612bcf9092919063ffffffff16565b611c066040518060400160405280600481526020017f70617468000000000000000000000000000000000000000000000000000000008152506040518060400160405280600781526020017f737563636573730000000000000000000000000000000000000000000000000081525084612bcf9092919063ffffffff16565b6000611c1483601154612c02565b9050856017600083815260200190815260200160002060006101000a81548173ffffffffffffffffffffffffffffffffffffffff021916908373ffffffffffffffffffffffffffffffffffffffff16021790555080935050505092915050565b611c7c6127d5565b8060128190555050565b81600c600082815260200190815260200160002060009054906101000a900473ffffffffffffffffffffffffffffffffffffffff1673ffffffffffffffffffffffffffffffffffffffff163373ffffffffffffffffffffffffffffffffffffffff1614611d28576040517f08c379a0000000000000000000000000000000000000000000000000000000008152600401611d1f90615102565b60405180910390fd5b600c600082815260200190815260200160002060006101000a81549073ffffffffffffffffffffffffffffffffffffffff0219169055807f7cc135e0cebb02c3480ae5d74d377283180a2601f8f644edf7987b009316c63a60405160405180910390a260006017600085815260200190815260200160002060009054906101000a900473ffffffffffffffffffffffffffffffffffffffff169050600192508215611dd757611dd681612c39565b5b837f2a59adc454390ac082968c8c50e27a9901b5266815783beaea3e73e7cf992d4f846018604051611e0a9291906151b7565b60405180910390a250505050565b60007f7965db0b000000000000000000000000000000000000000000000000000000007bffffffffffffffffffffffffffffffffffffffffffffffffffffffff1916827bffffffffffffffffffffffffffffffffffffffffffffffffffffffff19161480611e8b5750611e8a82612c45565b5b9050919050565b611e9b81612d27565b611eda576040517f08c379a0000000000000000000000000000000000000000000000000000000008152600401611ed190614ca3565b60405180910390fd5b50565b600033905090565b816004600083815260200190815260200160002060006101000a81548173ffffffffffffffffffffffffffffffffffffffff021916908373ffffffffffffffffffffffffffffffffffffffff160217905550808273ffffffffffffffffffffffffffffffffffffffff16611f5883610ed7565b73ffffffffffffffffffffffffffffffffffffffff167f8c5be1e5ebec7d5bd14f71427d1e84f3dd0314c0f7b2291e5b200ac8c7c3b92560405160405180910390a45050565b600080611faa83610ed7565b90508073ffffffffffffffffffffffffffffffffffffffff168473ffffffffffffffffffffffffffffffffffffffff161480611fec5750611feb8185611a68565b5b8061202a57508373ffffffffffffffffffffffffffffffffffffffff16612012846108e7565b73ffffffffffffffffffffffffffffffffffffffff16145b91505092915050565b8273ffffffffffffffffffffffffffffffffffffffff1661205382610ed7565b73ffffffffffffffffffffffffffffffffffffffff16146120a9576040517f08c379a00000000000000000000000000000000000000000000000000000000081526004016120a090615259565b60405180910390fd5b600073ffffffffffffffffffffffffffffffffffffffff168273ffffffffffffffffffffffffffffffffffffffff1603612118576040517f08c379a000000000000000000000000000000000000000000000000000000000815260040161210f906152eb565b60405180910390fd5b612123838383612d93565b61212e600082611ee5565b6001600360008573ffffffffffffffffffffffffffffffffffffffff1673ffffffffffffffffffffffffffffffffffffffff168152602001908152602001600020600082825461217e9190614b11565b925050819055506001600360008473ffffffffffffffffffffffffffffffffffffffff1673ffffffffffffffffffffffffffffffffffffffff16815260200190815260200160002060008282546121d59190614a29565b92505081905550816002600083815260200190815260200160002060006101000a81548173ffffffffffffffffffffffffffffffffffffffff021916908373ffffffffffffffffffffffffffffffffffffffff160217905550808273ffffffffffffffffffffffffffffffffffffffff168473ffffffffffffffffffffffffffffffffffffffff167fddf252ad1be2c89b69c2b068fc378daa952ba7f163c4a11628f55a4df523b3ef60405160405180910390a4612294838383612d98565b505050565b6122aa816122a5611edd565b612d9d565b50565b6122b782826113da565b61238a5760016006600084815260200190815260200160002060000160008373ffffffffffffffffffffffffffffffffffffffff1673ffffffffffffffffffffffffffffffffffffffff16815260200190815260200160002060006101000a81548160ff02191690831515021790555061232f611edd565b73ffffffffffffffffffffffffffffffffffffffff168173ffffffffffffffffffffffffffffffffffffffff16837f2f8788117e7eff1d82e926ec794901d17c78024a50270940304540a733656f0d60405160405180910390a45b5050565b61239882826113da565b1561246c5760006006600084815260200190815260200160002060000160008373ffffffffffffffffffffffffffffffffffffffff1673ffffffffffffffffffffffffffffffffffffffff16815260200190815260200160002060006101000a81548160ff021916908315150217905550612411611edd565b73ffffffffffffffffffffffffffffffffffffffff168173ffffffffffffffffffffffffffffffffffffffff16837ff6391f5c32d9c69d2a47ea670b442974b53935d1edc7fd64eb21e047a839171b60405160405180910390a45b5050565b600081600001549050919050565b612498828260405180602001604052806000815250612e3a565b5050565b6001816000016000828254019250508190555050565b60606000602867ffffffffffffffff8111156124d1576124d0614441565b5b6040519080825280601f01601f1916602001820160405280156125035781602001600182028036833780820191505090505b50905060005b601481101561266b5760008160136125219190614b11565b600861252d9190615036565b6002612539919061543e565b8573ffffffffffffffffffffffffffffffffffffffff1661255a91906154b8565b60f81b9050600060108260f81c61257191906154f6565b60f81b905060008160f81c60106125889190615527565b8360f81c6125969190615562565b60f81b90506125a482612e95565b858560026125b29190615036565b815181106125c3576125c26147f3565b5b60200101907effffffffffffffffffffffffffffffffffffffffffffffffffffffffffffff1916908160001a9053506125fb81612e95565b85600186600261260b9190615036565b6126159190614a29565b81518110612626576126256147f3565b5b60200101907effffffffffffffffffffffffffffffffffffffffffffffffffffffffffffff1916908160001a905350505050808061266390614851565b915050612509565b5080915050919050565b6060600082036126bc576040518060400160405280600181526020017f300000000000000000000000000000000000000000000000000000000000000081525090506127d0565b600082905060005b600082146126ee5780806126d790614851565b915050600a826126e791906154b8565b91506126c4565b60008167ffffffffffffffff81111561270a57612709614441565b5b6040519080825280601f01601f19166020018201604052801561273c5781602001600182028036833780820191505090505b5090505b600085146127c9576001826127559190614b11565b9150600a856127649190615596565b60306127709190614a29565b60f81b818381518110612786576127856147f3565b5b60200101907effffffffffffffffffffffffffffffffffffffffffffffffffffffffffffff1916908160001a905350600a856127c291906154b8565b9450612740565b8093505050505b919050565b600d60009054906101000a900473ffffffffffffffffffffffffffffffffffffffff1673ffffffffffffffffffffffffffffffffffffffff163373ffffffffffffffffffffffffffffffffffffffff1614612865576040517f08c379a000000000000000000000000000000000000000000000000000000000815260040161285c90615613565b60405180910390fd5b565b6000600960009054906101000a900473ffffffffffffffffffffffffffffffffffffffff16905090565b8173ffffffffffffffffffffffffffffffffffffffff168373ffffffffffffffffffffffffffffffffffffffff16036128ff576040517f08c379a00000000000000000000000000000000000000000000000000000000081526004016128f69061567f565b60405180910390fd5b80600560008573ffffffffffffffffffffffffffffffffffffffff1673ffffffffffffffffffffffffffffffffffffffff16815260200190815260200160002060008473ffffffffffffffffffffffffffffffffffffffff1673ffffffffffffffffffffffffffffffffffffffff16815260200190815260200160002060006101000a81548160ff0219169083151502179055508173ffffffffffffffffffffffffffffffffffffffff168373ffffffffffffffffffffffffffffffffffffffff167f17307eab39ab6107e8899845ad3d59bd9653f200f220920489ca2b5937696c31836040516129f09190613e7e565b60405180910390a3505050565b612a08848484612033565b612a1484848484612edb565b612a53576040517f08c379a0000000000000000000000000000000000000000000000000000000008152600401612a4a90615711565b60405180910390fd5b50505050565b606060405180602001604052806000815250905090565b3373ffffffffffffffffffffffffffffffffffffffff168173ffffffffffffffffffffffffffffffffffffffff1603612ade576040517f08c379a0000000000000000000000000000000000000000000000000000000008152600401612ad59061577d565b60405180910390fd5b80600e60006101000a81548173ffffffffffffffffffffffffffffffffffffffff021916908373ffffffffffffffffffffffffffffffffffffffff1602179055508073ffffffffffffffffffffffffffffffffffffffff16600d60009054906101000a900473ffffffffffffffffffffffffffffffffffffffff1673ffffffffffffffffffffffffffffffffffffffff167fed8889f560326eb138920d842192f0eb3dd22b4f139c87a2c57538e05bae127860405160405180910390a350565b612ba6613d26565b612bae613d26565b612bc585858584613062909392919063ffffffff16565b9150509392505050565b612be682846080015161311290919063ffffffff16565b612bfd81846080015161311290919063ffffffff16565b505050565b6000612c31600a60009054906101000a900473ffffffffffffffffffffffffffffffffffffffff168484613137565b905092915050565b612c42816114fb565b50565b60007f80ac58cd000000000000000000000000000000000000000000000000000000007bffffffffffffffffffffffffffffffffffffffffffffffffffffffff1916827bffffffffffffffffffffffffffffffffffffffffffffffffffffffff19161480612d1057507f5b5e139f000000000000000000000000000000000000000000000000000000007bffffffffffffffffffffffffffffffffffffffffffffffffffffffff1916827bffffffffffffffffffffffffffffffffffffffffffffffffffffffff1916145b80612d205750612d1f82613203565b5b9050919050565b60008073ffffffffffffffffffffffffffffffffffffffff166002600084815260200190815260200160002060009054906101000a900473ffffffffffffffffffffffffffffffffffffffff1673ffffffffffffffffffffffffffffffffffffffff1614159050919050565b505050565b505050565b612da782826113da565b612e3657612dcc8173ffffffffffffffffffffffffffffffffffffffff16601461326d565b612dda8360001c602061326d565b604051602001612deb929190615835565b6040516020818303038152906040526040517f08c379a0000000000000000000000000000000000000000000000000000000008152600401612e2d9190613f32565b60405180910390fd5b5050565b612e4483836134a9565b612e516000848484612edb565b612e90576040517f08c379a0000000000000000000000000000000000000000000000000000000008152600401612e8790615711565b60405180910390fd5b505050565b6000600a8260f81c60ff161015612ec05760308260f81c612eb6919061586f565b60f81b9050612ed6565b60578260f81c612ed0919061586f565b60f81b90505b919050565b6000612efc8473ffffffffffffffffffffffffffffffffffffffff16613682565b15613055578373ffffffffffffffffffffffffffffffffffffffff1663150b7a02612f25611edd565b8786866040518563ffffffff1660e01b8152600401612f4794939291906158a6565b6020604051808303816000875af1925050508015612f8357506040513d601f19601f82011682018060405250810190612f809190615907565b60015b613005573d8060008114612fb3576040519150601f19603f3d011682016040523d82523d6000602084013e612fb8565b606091505b506000815103612ffd576040517f08c379a0000000000000000000000000000000000000000000000000000000008152600401612ff490615711565b60405180910390fd5b805181602001fd5b63150b7a0260e01b7bffffffffffffffffffffffffffffffffffffffffffffffffffffffff1916817bffffffffffffffffffffffffffffffffffffffffffffffffffffffff19161491505061305a565b600190505b949350505050565b61306a613d26565b61307a85608001516101006136a5565b508385600001818152505082856020019073ffffffffffffffffffffffffffffffffffffffff16908173ffffffffffffffffffffffffffffffffffffffff16815250508185604001907bffffffffffffffffffffffffffffffffffffffffffffffffffffffff191690817bffffffffffffffffffffffffffffffffffffffffffffffffffffffff191681525050849050949350505050565b61311f826003835161370f565b613132818361389490919063ffffffff16565b505050565b600080600b54905060018161314c9190614a29565b600b819055506000634042994660e01b60008087600001513089604001518760018c608001516000015160405160240161318d989796959493929190615943565b604051602081830303815290604052907bffffffffffffffffffffffffffffffffffffffffffffffffffffffff19166020820180517bffffffffffffffffffffffffffffffffffffffffffffffffffffffff838183161783525050505090506131f8868386846138b6565b925050509392505050565b60007f01ffc9a7000000000000000000000000000000000000000000000000000000007bffffffffffffffffffffffffffffffffffffffffffffffffffffffff1916827bffffffffffffffffffffffffffffffffffffffffffffffffffffffff1916149050919050565b6060600060028360026132809190615036565b61328a9190614a29565b67ffffffffffffffff8111156132a3576132a2614441565b5b6040519080825280601f01601f1916602001820160405280156132d55781602001600182028036833780820191505090505b5090507f30000000000000000000000000000000000000000000000000000000000000008160008151811061330d5761330c6147f3565b5b60200101907effffffffffffffffffffffffffffffffffffffffffffffffffffffffffffff1916908160001a9053507f780000000000000000000000000000000000000000000000000000000000000081600181518110613371576133706147f3565b5b60200101907effffffffffffffffffffffffffffffffffffffffffffffffffffffffffffff1916908160001a905350600060018460026133b19190615036565b6133bb9190614a29565b90505b600181111561345b577f3031323334353637383961626364656600000000000000000000000000000000600f8616601081106133fd576133fc6147f3565b5b1a60f81b828281518110613414576134136147f3565b5b60200101907effffffffffffffffffffffffffffffffffffffffffffffffffffffffffffff1916908160001a905350600485901c945080613454906159c8565b90506133be565b506000841461349f576040517f08c379a000000000000000000000000000000000000000000000000000000000815260040161349690615a3d565b60405180910390fd5b8091505092915050565b600073ffffffffffffffffffffffffffffffffffffffff168273ffffffffffffffffffffffffffffffffffffffff1603613518576040517f08c379a000000000000000000000000000000000000000000000000000000000815260040161350f90615aa9565b60405180910390fd5b61352181612d27565b15613561576040517f08c379a000000000000000000000000000000000000000000000000000000000815260040161355890615b15565b60405180910390fd5b61356d60008383612d93565b6001600360008473ffffffffffffffffffffffffffffffffffffffff1673ffffffffffffffffffffffffffffffffffffffff16815260200190815260200160002060008282546135bd9190614a29565b92505081905550816002600083815260200190815260200160002060006101000a81548173ffffffffffffffffffffffffffffffffffffffff021916908373ffffffffffffffffffffffffffffffffffffffff160217905550808273ffffffffffffffffffffffffffffffffffffffff16600073ffffffffffffffffffffffffffffffffffffffff167fddf252ad1be2c89b69c2b068fc378daa952ba7f163c4a11628f55a4df523b3ef60405160405180910390a461367e60008383612d98565b5050565b6000808273ffffffffffffffffffffffffffffffffffffffff163b119050919050565b6136ad613d93565b60006020836136bc9190615596565b146136e8576020826136ce9190615596565b60206136da9190614b11565b826136e59190614a29565b91505b81836020018181525050604051808452600081528281016020016040525082905092915050565b60178167ffffffffffffffff1611613746576137408160058460ff16901b60ff161784613a4b90919063ffffffff16565b5061388f565b60ff8167ffffffffffffffff161161379c57613775601860058460ff16901b1784613a4b90919063ffffffff16565b506137968167ffffffffffffffff16600185613a6b9092919063ffffffff16565b5061388e565b61ffff8167ffffffffffffffff16116137f3576137cc601960058460ff16901b1784613a4b90919063ffffffff16565b506137ed8167ffffffffffffffff16600285613a6b9092919063ffffffff16565b5061388d565b63ffffffff8167ffffffffffffffff161161384c57613825601a60058460ff16901b1784613a4b90919063ffffffff16565b506138468167ffffffffffffffff16600485613a6b9092919063ffffffff16565b5061388c565b613869601b60058460ff16901b1784613a4b90919063ffffffff16565b5061388a8167ffffffffffffffff16600885613a6b9092919063ffffffff16565b505b5b5b5b505050565b61389c613d93565b6138ae83846000015151848551613a8d565b905092915050565b600030846040516020016138cb929190615bee565b60405160208183030381529060405280519060200120905084600c600083815260200190815260200160002060006101000a81548173ffffffffffffffffffffffffffffffffffffffff021916908373ffffffffffffffffffffffffffffffffffffffff160217905550807fb5e6e01e79f91267dc17b4e6314d5d4d03593d2ceee0fbb452b750bd70ea5af960405160405180910390a2600960009054906101000a900473ffffffffffffffffffffffffffffffffffffffff1673ffffffffffffffffffffffffffffffffffffffff16634000aea08685856040518463ffffffff1660e01b81526004016139c193929190615c1a565b6020604051808303816000875af11580156139e0573d6000803e3d6000fd5b505050506040513d601f19601f82011682018060405250810190613a049190614e41565b613a43576040517f08c379a0000000000000000000000000000000000000000000000000000000008152600401613a3a90615cca565b60405180910390fd5b949350505050565b613a53613d93565b613a638384600001515184613b7c565b905092915050565b613a73613d93565b613a84848560000151518585613bd2565b90509392505050565b613a95613d93565b8251821115613aa357600080fd5b84602001518285613ab49190614a29565b1115613ae957613ae8856002613ad988602001518887613ad49190614a29565b613c60565b613ae39190615036565b613c7c565b5b600080865180518760208301019350808887011115613b085787860182525b60208701925050505b60208410613b4f5780518252602082613b2a9190614a29565b9150602081613b399190614a29565b9050602084613b489190614b11565b9350613b11565b60006001856020036101000a03905080198251168184511681811785525050508692505050949350505050565b613b84613d93565b83602001518310613baa57613ba98460028660200151613ba49190615036565b613c7c565b5b83518051602085830101848153818603613bc5576001820183525b5050508390509392505050565b613bda613d93565b84602001518483613beb9190614a29565b1115613c1357613c128560028685613c039190614a29565b613c0d9190615036565b613c7c565b5b6000600183610100613c25919061543e565b613c2f9190614b11565b90508551838682010185831982511617815281518588011115613c525784870182525b505085915050949350505050565b600081831115613c7257829050613c76565b8190505b92915050565b600082600001519050613c8f83836136a5565b50613c9a8382613894565b50505050565b828054613cac9061469e565b90600052602060002090601f016020900481019282613cce5760008555613d15565b82601f10613ce757803560ff1916838001178555613d15565b82800160010185558215613d15579182015b82811115613d14578235825591602001919060010190613cf9565b5b509050613d229190613dad565b5090565b6040518060a0016040528060008019168152602001600073ffffffffffffffffffffffffffffffffffffffff16815260200160007bffffffffffffffffffffffffffffffffffffffffffffffffffffffff1916815260200160008152602001613d8d613d93565b81525090565b604051806040016040528060608152602001600081525090565b5b80821115613dc6576000816000905550600101613dae565b5090565b6000604051905090565b600080fd5b600080fd5b60007fffffffff0000000000000000000000000000000000000000000000000000000082169050919050565b613e1381613dde565b8114613e1e57600080fd5b50565b600081359050613e3081613e0a565b92915050565b600060208284031215613e4c57613e4b613dd4565b5b6000613e5a84828501613e21565b91505092915050565b60008115159050919050565b613e7881613e63565b82525050565b6000602082019050613e936000830184613e6f565b92915050565b600081519050919050565b600082825260208201905092915050565b60005b83811015613ed3578082015181840152602081019050613eb8565b83811115613ee2576000848401525b50505050565b6000601f19601f8301169050919050565b6000613f0482613e99565b613f0e8185613ea4565b9350613f1e818560208601613eb5565b613f2781613ee8565b840191505092915050565b60006020820190508181036000830152613f4c8184613ef9565b905092915050565b6000819050919050565b613f6781613f54565b8114613f7257600080fd5b50565b600081359050613f8481613f5e565b92915050565b600060208284031215613fa057613f9f613dd4565b5b6000613fae84828501613f75565b91505092915050565b600073ffffffffffffffffffffffffffffffffffffffff82169050919050565b6000613fe282613fb7565b9050919050565b613ff281613fd7565b82525050565b600060208201905061400d6000830184613fe9565b92915050565b61401c81613fd7565b811461402757600080fd5b50565b60008135905061403981614013565b92915050565b6000806040838503121561405657614055613dd4565b5b60006140648582860161402a565b925050602061407585828601613f75565b9150509250929050565b60008060006060848603121561409857614097613dd4565b5b60006140a68682870161402a565b93505060206140b78682870161402a565b92505060406140c886828701613f75565b9150509250925092565b6000819050919050565b6140e5816140d2565b81146140f057600080fd5b50565b600081359050614102816140dc565b92915050565b60006020828403121561411e5761411d613dd4565b5b600061412c848285016140f3565b91505092915050565b61413e816140d2565b82525050565b60006020820190506141596000830184614135565b92915050565b6000806040838503121561417657614175613dd4565b5b6000614184858286016140f3565b92505060206141958582860161402a565b9150509250929050565b6000602082840312156141b5576141b4613dd4565b5b60006141c38482850161402a565b91505092915050565b6141d581613f54565b82525050565b60006020820190506141f060008301846141cc565b92915050565b600080fd5b600080fd5b600080fd5b60008083601f84011261421b5761421a6141f6565b5b8235905067ffffffffffffffff811115614238576142376141fb565b5b60208301915083600182028301111561425457614253614200565b5b9250929050565b6000806020838503121561427257614271613dd4565b5b600083013567ffffffffffffffff8111156142905761428f613dd9565b5b61429c85828601614205565b92509250509250929050565b60008083601f8401126142be576142bd6141f6565b5b8235905067ffffffffffffffff8111156142db576142da6141fb565b5b6020830191508360018202830111156142f7576142f6614200565b5b9250929050565b6000806020838503121561431557614314613dd4565b5b600083013567ffffffffffffffff81111561433357614332613dd9565b5b61433f858286016142a8565b92509250509250929050565b600081519050919050565b600082825260208201905092915050565b60006143728261434b565b61437c8185614356565b935061438c818560208601613eb5565b61439581613ee8565b840191505092915050565b60006040820190506143b56000830185613e6f565b81810360208301526143c78184614367565b90509392505050565b6143d981613e63565b81146143e457600080fd5b50565b6000813590506143f6816143d0565b92915050565b6000806040838503121561441357614412613dd4565b5b60006144218582860161402a565b9250506020614432858286016143e7565b9150509250929050565b600080fd5b7f4e487b7100000000000000000000000000000000000000000000000000000000600052604160045260246000fd5b61447982613ee8565b810181811067ffffffffffffffff8211171561449857614497614441565b5b80604052505050565b60006144ab613dca565b90506144b78282614470565b919050565b600067ffffffffffffffff8211156144d7576144d6614441565b5b6144e082613ee8565b9050602081019050919050565b82818337600083830152505050565b600061450f61450a846144bc565b6144a1565b90508281526020810184848401111561452b5761452a61443c565b5b6145368482856144ed565b509392505050565b600082601f830112614553576145526141f6565b5b81356145638482602086016144fc565b91505092915050565b6000806000806080858703121561458657614585613dd4565b5b60006145948782880161402a565b94505060206145a58782880161402a565b93505060406145b687828801613f75565b925050606085013567ffffffffffffffff8111156145d7576145d6613dd9565b5b6145e38782880161453e565b91505092959194509250565b6000806040838503121561460657614605613dd4565b5b60006146148582860161402a565b92505060206146258582860161402a565b9150509250929050565b6000806040838503121561464657614645613dd4565b5b6000614654858286016140f3565b9250506020614665858286016143e7565b9150509250929050565b7f4e487b7100000000000000000000000000000000000000000000000000000000600052602260045260246000fd5b600060028204905060018216806146b657607f821691505b6020821081036146c9576146c861466f565b5b50919050565b7f4552433732313a20617070726f76616c20746f2063757272656e74206f776e6560008201527f7200000000000000000000000000000000000000000000000000000000000000602082015250565b600061472b602183613ea4565b9150614736826146cf565b604082019050919050565b6000602082019050818103600083015261475a8161471e565b9050919050565b7f4552433732313a20617070726f76652063616c6c6572206973206e6f7420746f60008201527f6b656e206f776e6572206e6f7220617070726f76656420666f7220616c6c0000602082015250565b60006147bd603e83613ea4565b91506147c882614761565b604082019050919050565b600060208201905081810360008301526147ec816147b0565b9050919050565b7f4e487b7100000000000000000000000000000000000000000000000000000000600052603260045260246000fd5b7f4e487b7100000000000000000000000000000000000000000000000000000000600052601160045260246000fd5b600061485c82613f54565b91507fffffffffffffffffffffffffffffffffffffffffffffffffffffffffffffffff820361488e5761488d614822565b5b600182019050919050565b7f4552433732313a2063616c6c6572206973206e6f7420746f6b656e206f776e6560008201527f72206e6f7220617070726f766564000000000000000000000000000000000000602082015250565b60006148f5602e83613ea4565b915061490082614899565b604082019050919050565b60006020820190508181036000830152614924816148e8565b9050919050565b7f416363657373436f6e74726f6c3a2063616e206f6e6c792072656e6f756e636560008201527f20726f6c657320666f722073656c660000000000000000000000000000000000602082015250565b6000614987602f83613ea4565b91506149928261492b565b604082019050919050565b600060208201905081810360008301526149b68161497a565b9050919050565b7f5573657220616c7265616479206d696e74656400000000000000000000000000600082015250565b60006149f3601383613ea4565b91506149fe826149bd565b602082019050919050565b60006020820190508181036000830152614a22816149e6565b9050919050565b6000614a3482613f54565b9150614a3f83613f54565b9250827fffffffffffffffffffffffffffffffffffffffffffffffffffffffffffffffff03821115614a7457614a73614822565b5b828201905092915050565b7f507572636861736520776f756c6420657863656564206d617820737570706c7960008201527f206f6620746f6b656e7300000000000000000000000000000000000000000000602082015250565b6000614adb602a83613ea4565b9150614ae682614a7f565b604082019050919050565b60006020820190508181036000830152614b0a81614ace565b9050919050565b6000614b1c82613f54565b9150614b2783613f54565b925082821015614b3a57614b39614822565b5b828203905092915050565b600081905092915050565b7f68747470733a2f2f617262692e67617465732e7774662f6170692f766572696660008201527f793f616464726573733d00000000000000000000000000000000000000000000602082015250565b6000614bac602a83614b45565b9150614bb782614b50565b602a82019050919050565b6000614bcd82613e99565b614bd78185614b45565b9350614be7818560208601613eb5565b80840191505092915050565b7f266761746549643d000000000000000000000000000000000000000000000000815250565b6000614c2482614b9f565b9150614c308285614bc2565b9150614c3b82614bf3565b600882019150614c4b8284614bc2565b91508190509392505050565b7f4552433732313a20696e76616c696420746f6b656e2049440000000000000000600082015250565b6000614c8d601883613ea4565b9150614c9882614c57565b602082019050919050565b60006020820190508181036000830152614cbc81614c80565b9050919050565b7f4552433732313a2061646472657373207a65726f206973206e6f74206120766160008201527f6c6964206f776e65720000000000000000000000000000000000000000000000602082015250565b6000614d1f602983613ea4565b9150614d2a82614cc3565b604082019050919050565b60006020820190508181036000830152614d4e81614d12565b9050919050565b7f4d7573742062652070726f706f736564206f776e657200000000000000000000600082015250565b6000614d8b601683613ea4565b9150614d9682614d55565b602082019050919050565b60006020820190508181036000830152614dba81614d7e565b9050919050565b600081519050614dd081613f5e565b92915050565b600060208284031215614dec57614deb613dd4565b5b6000614dfa84828501614dc1565b91505092915050565b6000604082019050614e186000830185613fe9565b614e2560208301846141cc565b9392505050565b600081519050614e3b816143d0565b92915050565b600060208284031215614e5757614e56613dd4565b5b6000614e6584828501614e2c565b91505092915050565b7f556e61626c6520746f207472616e736665720000000000000000000000000000600082015250565b6000614ea4601283613ea4565b9150614eaf82614e6e565b602082019050919050565b60006020820190508181036000830152614ed381614e97565b9050919050565b7f68747470733a2f2f6d656469612e6973746f636b70686f746f2e636f6d2f706860008201527f6f746f732f79656c6c6f772d7275626265722d6475636b2d666f722d6261746860208201527f2d74696d652d706963747572652d69643138353539303936353f6b3d3230266d60408201527f3d31383535393039363526733d3631327836313226773d3026683d745844694e60608201527f3737767a647647794375494e3374443849366b556a4132664e712d644b61566d60808201527f6f64587554413d0000000000000000000000000000000000000000000000000060a082015250565b6000614fce60a783613ea4565b9150614fd982614eda565b60c082019050919050565b6000604082019050614ff96000830184613fe9565b818103602083015261500a81614fc1565b905092915050565b600061501e8285614bc2565b915061502a8284614bc2565b91508190509392505050565b600061504182613f54565b915061504c83613f54565b9250817fffffffffffffffffffffffffffffffffffffffffffffffffffffffffffffffff048311821515161561508557615084614822565b5b828202905092915050565b7f536f75726365206d75737420626520746865206f7261636c65206f662074686560008201527f2072657175657374000000000000000000000000000000000000000000000000602082015250565b60006150ec602883613ea4565b91506150f782615090565b604082019050919050565b6000602082019050818103600083015261511b816150df565b9050919050565b60008190508160005260206000209050919050565b600081546151448161469e565b61514e8186613ea4565b94506001821660008114615169576001811461517b576151ae565b60ff19831686526020860193506151ae565b61518485615122565b60005b838110156151a657815481890152600182019150602081019050615187565b808801955050505b50505092915050565b60006040820190506151cc6000830185613e6f565b81810360208301526151de8184615137565b90509392505050565b7f4552433732313a207472616e736665722066726f6d20696e636f72726563742060008201527f6f776e6572000000000000000000000000000000000000000000000000000000602082015250565b6000615243602583613ea4565b915061524e826151e7565b604082019050919050565b6000602082019050818103600083015261527281615236565b9050919050565b7f4552433732313a207472616e7366657220746f20746865207a65726f2061646460008201527f7265737300000000000000000000000000000000000000000000000000000000602082015250565b60006152d5602483613ea4565b91506152e082615279565b604082019050919050565b60006020820190508181036000830152615304816152c8565b9050919050565b60008160011c9050919050565b6000808291508390505b60018511156153625780860481111561533e5761533d614822565b5b600185161561534d5780820291505b808102905061535b8561530b565b9450615322565b94509492505050565b60008261537b5760019050615437565b816153895760009050615437565b816001811461539f57600281146153a9576153d8565b6001915050615437565b60ff8411156153bb576153ba614822565b5b8360020a9150848211156153d2576153d1614822565b5b50615437565b5060208310610133831016604e8410600b841016171561540d5782820a90508381111561540857615407614822565b5b615437565b61541a8484846001615318565b9250905081840481111561543157615430614822565b5b81810290505b9392505050565b600061544982613f54565b915061545483613f54565b92506154817fffffffffffffffffffffffffffffffffffffffffffffffffffffffffffffffff848461536b565b905092915050565b7f4e487b7100000000000000000000000000000000000000000000000000000000600052601260045260246000fd5b60006154c382613f54565b91506154ce83613f54565b9250826154de576154dd615489565b5b828204905092915050565b600060ff82169050919050565b6000615501826154e9565b915061550c836154e9565b92508261551c5761551b615489565b5b828204905092915050565b6000615532826154e9565b915061553d836154e9565b92508160ff048311821515161561555757615556614822565b5b828202905092915050565b600061556d826154e9565b9150615578836154e9565b92508282101561558b5761558a614822565b5b828203905092915050565b60006155a182613f54565b91506155ac83613f54565b9250826155bc576155bb615489565b5b828206905092915050565b7f4f6e6c792063616c6c61626c65206279206f776e657200000000000000000000600082015250565b60006155fd601683613ea4565b9150615608826155c7565b602082019050919050565b6000602082019050818103600083015261562c816155f0565b9050919050565b7f4552433732313a20617070726f766520746f2063616c6c657200000000000000600082015250565b6000615669601983613ea4565b915061567482615633565b602082019050919050565b600060208201905081810360008301526156988161565c565b9050919050565b7f4552433732313a207472616e7366657220746f206e6f6e20455243373231526560008201527f63656976657220696d706c656d656e7465720000000000000000000000000000602082015250565b60006156fb603283613ea4565b91506157068261569f565b604082019050919050565b6000602082019050818103600083015261572a816156ee565b9050919050565b7f43616e6e6f74207472616e7366657220746f2073656c66000000000000000000600082015250565b6000615767601783613ea4565b915061577282615731565b602082019050919050565b600060208201905081810360008301526157968161575a565b9050919050565b7f416363657373436f6e74726f6c3a206163636f756e7420000000000000000000600082015250565b60006157d3601783614b45565b91506157de8261579d565b601782019050919050565b7f206973206d697373696e6720726f6c6520000000000000000000000000000000600082015250565b600061581f601183614b45565b915061582a826157e9565b601182019050919050565b6000615840826157c6565b915061584c8285614bc2565b915061585782615812565b91506158638284614bc2565b91508190509392505050565b600061587a826154e9565b9150615885836154e9565b92508260ff0382111561589b5761589a614822565b5b828201905092915050565b60006080820190506158bb6000830187613fe9565b6158c86020830186613fe9565b6158d560408301856141cc565b81810360608301526158e78184614367565b905095945050505050565b60008151905061590181613e0a565b92915050565b60006020828403121561591d5761591c613dd4565b5b600061592b848285016158f2565b91505092915050565b61593d81613dde565b82525050565b600061010082019050615959600083018b613fe9565b615966602083018a6141cc565b6159736040830189614135565b6159806060830188613fe9565b61598d6080830187615934565b61599a60a08301866141cc565b6159a760c08301856141cc565b81810360e08301526159b98184614367565b90509998505050505050505050565b60006159d382613f54565b9150600082036159e6576159e5614822565b5b600182039050919050565b7f537472696e67733a20686578206c656e67746820696e73756666696369656e74600082015250565b6000615a27602083613ea4565b9150615a32826159f1565b602082019050919050565b60006020820190508181036000830152615a5681615a1a565b9050919050565b7f4552433732313a206d696e7420746f20746865207a65726f2061646472657373600082015250565b6000615a93602083613ea4565b9150615a9e82615a5d565b602082019050919050565b60006020820190508181036000830152615ac281615a86565b9050919050565b7f4552433732313a20746f6b656e20616c7265616479206d696e74656400000000600082015250565b6000615aff601c83613ea4565b9150615b0a82615ac9565b602082019050919050565b60006020820190508181036000830152615b2e81615af2565b9050919050565b6000819050919050565b6000615b5a615b55615b5084613fb7565b615b35565b613fb7565b9050919050565b6000615b6c82615b3f565b9050919050565b6000615b7e82615b61565b9050919050565b60008160601b9050919050565b6000615b9d82615b85565b9050919050565b6000615baf82615b92565b9050919050565b615bc7615bc282615b73565b615ba4565b82525050565b6000819050919050565b615be8615be382613f54565b615bcd565b82525050565b6000615bfa8285615bb6565b601482019150615c0a8284615bd7565b6020820191508190509392505050565b6000606082019050615c2f6000830186613fe9565b615c3c60208301856141cc565b8181036040830152615c4e8184614367565b9050949350505050565b7f756e61626c6520746f207472616e73666572416e6443616c6c20746f206f726160008201527f636c650000000000000000000000000000000000000000000000000000000000602082015250565b6000615cb4602383613ea4565b9150615cbf82615c58565b604082019050919050565b60006020820190508181036000830152615ce381615ca7565b905091905056fea2646970667358221220e17016fa3c1859e9ea1f2d9d9611acade24900d71ae0e0f7914447b492f4c0bf64736f6c634300080e0033",
  "devdoc": {
    "kind": "dev",
    "methods": {
      "approve(address,uint256)": {
        "details": "See {IERC721-approve}."
      },
      "balanceOf(address)": {
        "details": "See {IERC721-balanceOf}."
      },
      "getApproved(uint256)": {
        "details": "See {IERC721-getApproved}."
      },
      "getRoleAdmin(bytes32)": {
        "details": "Returns the admin role that controls `role`. See {grantRole} and {revokeRole}. To change a role's admin, use {_setRoleAdmin}."
      },
      "grantRole(bytes32,address)": {
        "details": "Grants `role` to `account`. If `account` had not been already granted `role`, emits a {RoleGranted} event. Requirements: - the caller must have ``role``'s admin role. May emit a {RoleGranted} event."
      },
      "hasRole(bytes32,address)": {
        "details": "Returns `true` if `account` has been granted `role`."
      },
      "isApprovedForAll(address,address)": {
        "details": "See {IERC721-isApprovedForAll}."
      },
      "name()": {
        "details": "See {IERC721Metadata-name}."
      },
      "ownerOf(uint256)": {
        "details": "See {IERC721-ownerOf}."
      },
      "renounceRole(bytes32,address)": {
        "details": "Revokes `role` from the calling account. Roles are often managed via {grantRole} and {revokeRole}: this function's purpose is to provide a mechanism for accounts to lose their privileges if they are compromised (such as when a trusted device is misplaced). If the calling account had been revoked `role`, emits a {RoleRevoked} event. Requirements: - the caller must be `account`. May emit a {RoleRevoked} event."
      },
      "revokeRole(bytes32,address)": {
        "details": "Revokes `role` from `account`. If `account` had been granted `role`, emits a {RoleRevoked} event. Requirements: - the caller must have ``role``'s admin role. May emit a {RoleRevoked} event."
      },
      "safeTransferFrom(address,address,uint256)": {
        "details": "See {IERC721-safeTransferFrom}."
      },
      "safeTransferFrom(address,address,uint256,bytes)": {
        "details": "See {IERC721-safeTransferFrom}."
      },
      "setApprovalForAll(address,bool)": {
        "details": "See {IERC721-setApprovalForAll}."
      },
      "symbol()": {
        "details": "See {IERC721Metadata-symbol}."
      },
      "tokenURI(uint256)": {
        "details": "See {IERC721Metadata-tokenURI}."
      },
      "transferFrom(address,address,uint256)": {
        "details": "See {IERC721-transferFrom}."
      }
    },
    "version": 1
  },
  "userdoc": {
    "kind": "user",
    "methods": {
      "acceptOwnership()": {
        "notice": "Allows an ownership transfer to be completed by the recipient."
      },
      "interval()": {
        "notice": "Use an interval in seconds and a timestamp to slow execution of Upkeep"
      },
      "owner()": {
        "notice": "Get the current owner"
      },
      "transferOwnership(address)": {
        "notice": "Allows an owner to begin transferring ownership to a new address, pending."
      },
      "withdrawLink()": {
        "notice": "Allow withdraw of Link tokens from the contract"
      }
    },
    "version": 1
  },
  "storageLayout": {
    "storage": [
      {
        "astId": 2963,
        "contract": "contracts/Arbigates.sol:Arbigates",
        "label": "_name",
        "offset": 0,
        "slot": "0",
        "type": "t_string_storage"
      },
      {
        "astId": 2965,
        "contract": "contracts/Arbigates.sol:Arbigates",
        "label": "_symbol",
        "offset": 0,
        "slot": "1",
        "type": "t_string_storage"
      },
      {
        "astId": 2969,
        "contract": "contracts/Arbigates.sol:Arbigates",
        "label": "_owners",
        "offset": 0,
        "slot": "2",
        "type": "t_mapping(t_uint256,t_address)"
      },
      {
        "astId": 2973,
        "contract": "contracts/Arbigates.sol:Arbigates",
        "label": "_balances",
        "offset": 0,
        "slot": "3",
        "type": "t_mapping(t_address,t_uint256)"
      },
      {
        "astId": 2977,
        "contract": "contracts/Arbigates.sol:Arbigates",
        "label": "_tokenApprovals",
        "offset": 0,
        "slot": "4",
        "type": "t_mapping(t_uint256,t_address)"
      },
      {
        "astId": 2983,
        "contract": "contracts/Arbigates.sol:Arbigates",
        "label": "_operatorApprovals",
        "offset": 0,
        "slot": "5",
        "type": "t_mapping(t_address,t_mapping(t_address,t_bool))"
      },
      {
        "astId": 2456,
        "contract": "contracts/Arbigates.sol:Arbigates",
        "label": "_roles",
        "offset": 0,
        "slot": "6",
        "type": "t_mapping(t_bytes32,t_struct(RoleData)2451_storage)"
      },
      {
        "astId": 358,
        "contract": "contracts/Arbigates.sol:Arbigates",
        "label": "s_ens",
        "offset": 0,
        "slot": "7",
        "type": "t_contract(ENSInterface)1214"
      },
      {
        "astId": 360,
        "contract": "contracts/Arbigates.sol:Arbigates",
        "label": "s_ensNode",
        "offset": 0,
        "slot": "8",
        "type": "t_bytes32"
      },
      {
        "astId": 363,
        "contract": "contracts/Arbigates.sol:Arbigates",
        "label": "s_link",
        "offset": 0,
        "slot": "9",
        "type": "t_contract(LinkTokenInterface)1309"
      },
      {
        "astId": 366,
        "contract": "contracts/Arbigates.sol:Arbigates",
        "label": "s_oracle",
        "offset": 0,
        "slot": "10",
        "type": "t_contract(OperatorInterface)1389"
      },
      {
        "astId": 369,
        "contract": "contracts/Arbigates.sol:Arbigates",
        "label": "s_requestCount",
        "offset": 0,
        "slot": "11",
        "type": "t_uint256"
      },
      {
        "astId": 373,
        "contract": "contracts/Arbigates.sol:Arbigates",
        "label": "s_pendingRequests",
        "offset": 0,
        "slot": "12",
        "type": "t_mapping(t_bytes32,t_address)"
      },
      {
        "astId": 928,
        "contract": "contracts/Arbigates.sol:Arbigates",
        "label": "s_owner",
        "offset": 0,
        "slot": "13",
        "type": "t_address"
      },
      {
        "astId": 930,
        "contract": "contracts/Arbigates.sol:Arbigates",
        "label": "s_pendingOwner",
        "offset": 0,
        "slot": "14",
        "type": "t_address"
      },
      {
        "astId": 4793,
        "contract": "contracts/Arbigates.sol:Arbigates",
        "label": "volume",
        "offset": 0,
        "slot": "15",
        "type": "t_uint256"
      },
      {
        "astId": 4795,
        "contract": "contracts/Arbigates.sol:Arbigates",
        "label": "jobId",
        "offset": 0,
        "slot": "16",
        "type": "t_bytes32"
      },
      {
        "astId": 4797,
        "contract": "contracts/Arbigates.sol:Arbigates",
        "label": "fee",
        "offset": 0,
        "slot": "17",
        "type": "t_uint256"
      },
      {
        "astId": 4799,
        "contract": "contracts/Arbigates.sol:Arbigates",
        "label": "gateID",
        "offset": 0,
        "slot": "18",
        "type": "t_uint256"
      },
      {
        "astId": 4801,
        "contract": "contracts/Arbigates.sol:Arbigates",
        "label": "approved",
        "offset": 0,
        "slot": "19",
        "type": "t_bool"
      },
      {
        "astId": 4812,
        "contract": "contracts/Arbigates.sol:Arbigates",
        "label": "MintingContractAddress",
        "offset": 1,
        "slot": "19",
        "type": "t_address"
      },
      {
        "astId": 4814,
        "contract": "contracts/Arbigates.sol:Arbigates",
        "label": "counter",
        "offset": 0,
        "slot": "20",
        "type": "t_uint256"
      },
      {
        "astId": 4819,
        "contract": "contracts/Arbigates.sol:Arbigates",
        "label": "lastTimeStamp",
        "offset": 0,
        "slot": "21",
        "type": "t_uint256"
      },
      {
        "astId": 4822,
        "contract": "contracts/Arbigates.sol:Arbigates",
        "label": "addressesToVerify",
        "offset": 0,
        "slot": "22",
        "type": "t_array(t_address)dyn_storage"
      },
      {
        "astId": 4826,
        "contract": "contracts/Arbigates.sol:Arbigates",
        "label": "responseID",
        "offset": 0,
        "slot": "23",
        "type": "t_mapping(t_bytes32,t_address)"
      },
      {
        "astId": 4965,
        "contract": "contracts/Arbigates.sol:Arbigates",
        "label": "lastChecked",
        "offset": 0,
        "slot": "24",
        "type": "t_string_storage"
      },
      {
        "astId": 4633,
        "contract": "contracts/Arbigates.sol:Arbigates",
        "label": "baseTokenURI",
        "offset": 0,
        "slot": "25",
        "type": "t_string_storage"
      },
      {
        "astId": 4636,
        "contract": "contracts/Arbigates.sol:Arbigates",
        "label": "MAX_TOKENS",
        "offset": 0,
        "slot": "26",
        "type": "t_uint256"
      },
      {
        "astId": 4640,
        "contract": "contracts/Arbigates.sol:Arbigates",
        "label": "minted",
        "offset": 0,
        "slot": "27",
        "type": "t_mapping(t_address,t_bool)"
      },
      {
        "astId": 4647,
        "contract": "contracts/Arbigates.sol:Arbigates",
        "label": "_tokenIdCounter",
        "offset": 0,
        "slot": "28",
        "type": "t_struct(Counter)4288_storage"
      }
    ],
    "types": {
      "t_address": {
        "encoding": "inplace",
        "label": "address",
        "numberOfBytes": "20"
      },
      "t_array(t_address)dyn_storage": {
        "base": "t_address",
        "encoding": "dynamic_array",
        "label": "address[]",
        "numberOfBytes": "32"
      },
      "t_bool": {
        "encoding": "inplace",
        "label": "bool",
        "numberOfBytes": "1"
      },
      "t_bytes32": {
        "encoding": "inplace",
        "label": "bytes32",
        "numberOfBytes": "32"
      },
      "t_contract(ENSInterface)1214": {
        "encoding": "inplace",
        "label": "contract ENSInterface",
        "numberOfBytes": "20"
      },
      "t_contract(LinkTokenInterface)1309": {
        "encoding": "inplace",
        "label": "contract LinkTokenInterface",
        "numberOfBytes": "20"
      },
      "t_contract(OperatorInterface)1389": {
        "encoding": "inplace",
        "label": "contract OperatorInterface",
        "numberOfBytes": "20"
      },
      "t_mapping(t_address,t_bool)": {
        "encoding": "mapping",
        "key": "t_address",
        "label": "mapping(address => bool)",
        "numberOfBytes": "32",
        "value": "t_bool"
      },
      "t_mapping(t_address,t_mapping(t_address,t_bool))": {
        "encoding": "mapping",
        "key": "t_address",
        "label": "mapping(address => mapping(address => bool))",
        "numberOfBytes": "32",
        "value": "t_mapping(t_address,t_bool)"
      },
      "t_mapping(t_address,t_uint256)": {
        "encoding": "mapping",
        "key": "t_address",
        "label": "mapping(address => uint256)",
        "numberOfBytes": "32",
        "value": "t_uint256"
      },
      "t_mapping(t_bytes32,t_address)": {
        "encoding": "mapping",
        "key": "t_bytes32",
        "label": "mapping(bytes32 => address)",
        "numberOfBytes": "32",
        "value": "t_address"
      },
      "t_mapping(t_bytes32,t_struct(RoleData)2451_storage)": {
        "encoding": "mapping",
        "key": "t_bytes32",
        "label": "mapping(bytes32 => struct AccessControl.RoleData)",
        "numberOfBytes": "32",
        "value": "t_struct(RoleData)2451_storage"
      },
      "t_mapping(t_uint256,t_address)": {
        "encoding": "mapping",
        "key": "t_uint256",
        "label": "mapping(uint256 => address)",
        "numberOfBytes": "32",
        "value": "t_address"
      },
      "t_string_storage": {
        "encoding": "bytes",
        "label": "string",
        "numberOfBytes": "32"
      },
      "t_struct(Counter)4288_storage": {
        "encoding": "inplace",
        "label": "struct Counters.Counter",
        "members": [
          {
            "astId": 4287,
            "contract": "contracts/Arbigates.sol:Arbigates",
            "label": "_value",
            "offset": 0,
            "slot": "0",
            "type": "t_uint256"
          }
        ],
        "numberOfBytes": "32"
      },
      "t_struct(RoleData)2451_storage": {
        "encoding": "inplace",
        "label": "struct AccessControl.RoleData",
        "members": [
          {
            "astId": 2448,
            "contract": "contracts/Arbigates.sol:Arbigates",
            "label": "members",
            "offset": 0,
            "slot": "0",
            "type": "t_mapping(t_address,t_bool)"
          },
          {
            "astId": 2450,
            "contract": "contracts/Arbigates.sol:Arbigates",
            "label": "adminRole",
            "offset": 0,
            "slot": "1",
            "type": "t_bytes32"
          }
        ],
        "numberOfBytes": "64"
      },
      "t_uint256": {
        "encoding": "inplace",
        "label": "uint256",
        "numberOfBytes": "32"
      }
    }
  }
}