{
  "address": "0x5aB482089897430F3C8d2e208234605459133Df6",
  "abi": [
    {
      "inputs": [
        {
          "internalType": "uint256",
          "name": "_gateId",
          "type": "uint256"
        },
        {
          "internalType": "string",
          "name": "_baseUri",
          "type": "string"
        },
        {
          "internalType": "uint256",
          "name": "updateInterval",
          "type": "uint256"
        }
      ],
      "stateMutability": "nonpayable",
      "type": "constructor"
    },
    {
      "anonymous": false,
      "inputs": [
        {
          "indexed": true,
          "internalType": "address",
          "name": "owner",
          "type": "address"
        },
        {
          "indexed": true,
          "internalType": "address",
          "name": "approved",
          "type": "address"
        },
        {
          "indexed": true,
          "internalType": "uint256",
          "name": "tokenId",
          "type": "uint256"
        }
      ],
      "name": "Approval",
      "type": "event"
    },
    {
      "anonymous": false,
      "inputs": [
        {
          "indexed": true,
          "internalType": "address",
          "name": "owner",
          "type": "address"
        },
        {
          "indexed": true,
          "internalType": "address",
          "name": "operator",
          "type": "address"
        },
        {
          "indexed": false,
          "internalType": "bool",
          "name": "approved",
          "type": "bool"
        }
      ],
      "name": "ApprovalForAll",
      "type": "event"
    },
    {
      "anonymous": false,
      "inputs": [
        {
          "indexed": true,
          "internalType": "bytes32",
          "name": "id",
          "type": "bytes32"
        }
      ],
      "name": "ChainlinkCancelled",
      "type": "event"
    },
    {
      "anonymous": false,
      "inputs": [
        {
          "indexed": true,
          "internalType": "bytes32",
          "name": "id",
          "type": "bytes32"
        }
      ],
      "name": "ChainlinkFulfilled",
      "type": "event"
    },
    {
      "anonymous": false,
      "inputs": [
        {
          "indexed": true,
          "internalType": "bytes32",
          "name": "id",
          "type": "bytes32"
        }
      ],
      "name": "ChainlinkRequested",
      "type": "event"
    },
    {
      "anonymous": false,
      "inputs": [
        {
          "indexed": true,
          "internalType": "address",
          "name": "from",
          "type": "address"
        },
        {
          "indexed": true,
          "internalType": "address",
          "name": "to",
          "type": "address"
        }
      ],
      "name": "OwnershipTransferRequested",
      "type": "event"
    },
    {
      "anonymous": false,
      "inputs": [
        {
          "indexed": true,
          "internalType": "address",
          "name": "from",
          "type": "address"
        },
        {
          "indexed": true,
          "internalType": "address",
          "name": "to",
          "type": "address"
        }
      ],
      "name": "OwnershipTransferred",
      "type": "event"
    },
    {
      "anonymous": false,
      "inputs": [
        {
          "indexed": true,
          "internalType": "bytes32",
          "name": "requestId",
          "type": "bytes32"
        },
        {
          "indexed": false,
          "internalType": "bool",
          "name": "approved",
          "type": "bool"
        },
        {
          "indexed": false,
          "internalType": "string",
          "name": "lastChecked",
          "type": "string"
        }
      ],
      "name": "RequestVolume",
      "type": "event"
    },
    {
      "anonymous": false,
      "inputs": [
        {
          "indexed": true,
          "internalType": "bytes32",
          "name": "role",
          "type": "bytes32"
        },
        {
          "indexed": true,
          "internalType": "bytes32",
          "name": "previousAdminRole",
          "type": "bytes32"
        },
        {
          "indexed": true,
          "internalType": "bytes32",
          "name": "newAdminRole",
          "type": "bytes32"
        }
      ],
      "name": "RoleAdminChanged",
      "type": "event"
    },
    {
      "anonymous": false,
      "inputs": [
        {
          "indexed": true,
          "internalType": "bytes32",
          "name": "role",
          "type": "bytes32"
        },
        {
          "indexed": true,
          "internalType": "address",
          "name": "account",
          "type": "address"
        },
        {
          "indexed": true,
          "internalType": "address",
          "name": "sender",
          "type": "address"
        }
      ],
      "name": "RoleGranted",
      "type": "event"
    },
    {
      "anonymous": false,
      "inputs": [
        {
          "indexed": true,
          "internalType": "bytes32",
          "name": "role",
          "type": "bytes32"
        },
        {
          "indexed": true,
          "internalType": "address",
          "name": "account",
          "type": "address"
        },
        {
          "indexed": true,
          "internalType": "address",
          "name": "sender",
          "type": "address"
        }
      ],
      "name": "RoleRevoked",
      "type": "event"
    },
    {
      "anonymous": false,
      "inputs": [
        {
          "indexed": true,
          "internalType": "address",
          "name": "from",
          "type": "address"
        },
        {
          "indexed": true,
          "internalType": "address",
          "name": "to",
          "type": "address"
        },
        {
          "indexed": true,
          "internalType": "uint256",
          "name": "tokenId",
          "type": "uint256"
        }
      ],
      "name": "Transfer",
      "type": "event"
    },
    {
      "inputs": [],
      "name": "DEFAULT_ADMIN_ROLE",
      "outputs": [
        {
          "internalType": "bytes32",
          "name": "",
          "type": "bytes32"
        }
      ],
      "stateMutability": "view",
      "type": "function"
    },
    {
      "inputs": [],
      "name": "MAX_TOKENS",
      "outputs": [
        {
          "internalType": "uint256",
          "name": "",
          "type": "uint256"
        }
      ],
      "stateMutability": "view",
      "type": "function"
    },
    {
      "inputs": [],
      "name": "acceptOwnership",
      "outputs": [],
      "stateMutability": "nonpayable",
      "type": "function"
    },
    {
      "inputs": [
        {
          "internalType": "address",
          "name": "_newAddress",
          "type": "address"
        }
      ],
      "name": "addAddress",
      "outputs": [],
      "stateMutability": "nonpayable",
      "type": "function"
    },
    {
      "inputs": [
        {
          "internalType": "uint256",
          "name": "",
          "type": "uint256"
        }
      ],
      "name": "addressesToVerify",
      "outputs": [
        {
          "internalType": "address",
          "name": "",
          "type": "address"
        }
      ],
      "stateMutability": "view",
      "type": "function"
    },
    {
      "inputs": [
        {
          "internalType": "address",
          "name": "to",
          "type": "address"
        },
        {
          "internalType": "uint256",
          "name": "tokenId",
          "type": "uint256"
        }
      ],
      "name": "approve",
      "outputs": [],
      "stateMutability": "nonpayable",
      "type": "function"
    },
    {
      "inputs": [],
      "name": "approved",
      "outputs": [
        {
          "internalType": "bool",
          "name": "",
          "type": "bool"
        }
      ],
      "stateMutability": "view",
      "type": "function"
    },
    {
      "inputs": [
        {
          "internalType": "address",
          "name": "owner",
          "type": "address"
        }
      ],
      "name": "balanceOf",
      "outputs": [
        {
          "internalType": "uint256",
          "name": "",
          "type": "uint256"
        }
      ],
      "stateMutability": "view",
      "type": "function"
    },
    {
      "inputs": [],
      "name": "batchVerify",
      "outputs": [],
      "stateMutability": "nonpayable",
      "type": "function"
    },
    {
      "inputs": [
        {
          "internalType": "address",
          "name": "_wallet",
          "type": "address"
        },
        {
          "internalType": "uint256",
          "name": "_gateId",
          "type": "uint256"
        }
      ],
      "name": "buildUrl",
      "outputs": [
        {
          "internalType": "string",
          "name": "",
          "type": "string"
        }
      ],
      "stateMutability": "view",
      "type": "function"
    },
    {
      "inputs": [
        {
          "internalType": "bytes",
          "name": "",
          "type": "bytes"
        }
      ],
      "name": "checkUpkeep",
      "outputs": [
        {
          "internalType": "bool",
          "name": "upkeepNeeded",
          "type": "bool"
        },
        {
          "internalType": "bytes",
          "name": "",
          "type": "bytes"
        }
      ],
      "stateMutability": "view",
      "type": "function"
    },
    {
      "inputs": [],
      "name": "counter",
      "outputs": [
        {
          "internalType": "uint256",
          "name": "",
          "type": "uint256"
        }
      ],
      "stateMutability": "view",
      "type": "function"
    },
    {
      "inputs": [
        {
          "internalType": "bytes32",
          "name": "_requestId",
          "type": "bytes32"
        },
        {
          "internalType": "bool",
          "name": "_approved",
          "type": "bool"
        }
      ],
      "name": "fulfill",
      "outputs": [],
      "stateMutability": "nonpayable",
      "type": "function"
    },
    {
      "inputs": [
        {
          "internalType": "address",
          "name": "_newMemb",
          "type": "address"
        }
      ],
      "name": "gainAccess",
      "outputs": [],
      "stateMutability": "nonpayable",
      "type": "function"
    },
    {
      "inputs": [
        {
          "internalType": "uint256",
          "name": "tokenId",
          "type": "uint256"
        }
      ],
      "name": "getApproved",
      "outputs": [
        {
          "internalType": "address",
          "name": "",
          "type": "address"
        }
      ],
      "stateMutability": "view",
      "type": "function"
    },
    {
      "inputs": [
        {
          "internalType": "bytes32",
          "name": "role",
          "type": "bytes32"
        }
      ],
      "name": "getRoleAdmin",
      "outputs": [
        {
          "internalType": "bytes32",
          "name": "",
          "type": "bytes32"
        }
      ],
      "stateMutability": "view",
      "type": "function"
    },
    {
      "inputs": [
        {
          "internalType": "bytes32",
          "name": "role",
          "type": "bytes32"
        },
        {
          "internalType": "address",
          "name": "account",
          "type": "address"
        }
      ],
      "name": "grantRole",
      "outputs": [],
      "stateMutability": "nonpayable",
      "type": "function"
    },
    {
      "inputs": [
        {
          "internalType": "bytes32",
          "name": "role",
          "type": "bytes32"
        },
        {
          "internalType": "address",
          "name": "account",
          "type": "address"
        }
      ],
      "name": "hasRole",
      "outputs": [
        {
          "internalType": "bool",
          "name": "",
          "type": "bool"
        }
      ],
      "stateMutability": "view",
      "type": "function"
    },
    {
      "inputs": [],
      "name": "interval",
      "outputs": [
        {
          "internalType": "uint256",
          "name": "",
          "type": "uint256"
        }
      ],
      "stateMutability": "view",
      "type": "function"
    },
    {
      "inputs": [
        {
          "internalType": "address",
          "name": "owner",
          "type": "address"
        },
        {
          "internalType": "address",
          "name": "operator",
          "type": "address"
        }
      ],
      "name": "isApprovedForAll",
      "outputs": [
        {
          "internalType": "bool",
          "name": "",
          "type": "bool"
        }
      ],
      "stateMutability": "view",
      "type": "function"
    },
    {
      "inputs": [],
      "name": "lastChecked",
      "outputs": [
        {
          "internalType": "string",
          "name": "",
          "type": "string"
        }
      ],
      "stateMutability": "view",
      "type": "function"
    },
    {
      "inputs": [],
      "name": "lastTimeStamp",
      "outputs": [
        {
          "internalType": "uint256",
          "name": "",
          "type": "uint256"
        }
      ],
      "stateMutability": "view",
      "type": "function"
    },
    {
      "inputs": [],
      "name": "name",
      "outputs": [
        {
          "internalType": "string",
          "name": "",
          "type": "string"
        }
      ],
      "stateMutability": "view",
      "type": "function"
    },
    {
      "inputs": [],
      "name": "owner",
      "outputs": [
        {
          "internalType": "address",
          "name": "",
          "type": "address"
        }
      ],
      "stateMutability": "view",
      "type": "function"
    },
    {
      "inputs": [
        {
          "internalType": "uint256",
          "name": "tokenId",
          "type": "uint256"
        }
      ],
      "name": "ownerOf",
      "outputs": [
        {
          "internalType": "address",
          "name": "",
          "type": "address"
        }
      ],
      "stateMutability": "view",
      "type": "function"
    },
    {
      "inputs": [
        {
          "internalType": "bytes",
          "name": "",
          "type": "bytes"
        }
      ],
      "name": "performUpkeep",
      "outputs": [],
      "stateMutability": "nonpayable",
      "type": "function"
    },
    {
      "inputs": [
        {
          "internalType": "bytes32",
          "name": "role",
          "type": "bytes32"
        },
        {
          "internalType": "address",
          "name": "account",
          "type": "address"
        }
      ],
      "name": "renounceRole",
      "outputs": [],
      "stateMutability": "nonpayable",
      "type": "function"
    },
    {
      "inputs": [
        {
          "internalType": "address",
          "name": "_wallet",
          "type": "address"
        },
        {
          "internalType": "uint256",
          "name": "_gateId",
          "type": "uint256"
        }
      ],
      "name": "requestVolumeData",
      "outputs": [
        {
          "internalType": "bytes32",
          "name": "requestId",
          "type": "bytes32"
        }
      ],
      "stateMutability": "nonpayable",
      "type": "function"
    },
    {
      "inputs": [
        {
          "internalType": "bytes32",
          "name": "role",
          "type": "bytes32"
        },
        {
          "internalType": "address",
          "name": "account",
          "type": "address"
        }
      ],
      "name": "revokeRole",
      "outputs": [],
      "stateMutability": "nonpayable",
      "type": "function"
    },
    {
      "inputs": [
        {
          "internalType": "address",
          "name": "user",
          "type": "address"
        }
      ],
      "name": "safeMint",
      "outputs": [],
      "stateMutability": "nonpayable",
      "type": "function"
    },
    {
      "inputs": [
        {
          "internalType": "address",
          "name": "from",
          "type": "address"
        },
        {
          "internalType": "address",
          "name": "to",
          "type": "address"
        },
        {
          "internalType": "uint256",
          "name": "tokenId",
          "type": "uint256"
        }
      ],
      "name": "safeTransferFrom",
      "outputs": [],
      "stateMutability": "nonpayable",
      "type": "function"
    },
    {
      "inputs": [
        {
          "internalType": "address",
          "name": "from",
          "type": "address"
        },
        {
          "internalType": "address",
          "name": "to",
          "type": "address"
        },
        {
          "internalType": "uint256",
          "name": "tokenId",
          "type": "uint256"
        },
        {
          "internalType": "bytes",
          "name": "data",
          "type": "bytes"
        }
      ],
      "name": "safeTransferFrom",
      "outputs": [],
      "stateMutability": "nonpayable",
      "type": "function"
    },
    {
      "inputs": [
        {
          "internalType": "address",
          "name": "operator",
          "type": "address"
        },
        {
          "internalType": "bool",
          "name": "approved",
          "type": "bool"
        }
      ],
      "name": "setApprovalForAll",
      "outputs": [],
      "stateMutability": "nonpayable",
      "type": "function"
    },
    {
      "inputs": [
        {
          "internalType": "string",
          "name": "_newBaseURI",
          "type": "string"
        }
      ],
      "name": "setBaseURI",
      "outputs": [],
      "stateMutability": "nonpayable",
      "type": "function"
    },
    {
      "inputs": [
        {
          "internalType": "uint256",
          "name": "_gateId",
          "type": "uint256"
        }
      ],
      "name": "setGate",
      "outputs": [],
      "stateMutability": "nonpayable",
      "type": "function"
    },
    {
      "inputs": [
        {
          "internalType": "address",
          "name": "_newContract",
          "type": "address"
        }
      ],
      "name": "setMintingContract",
      "outputs": [],
      "stateMutability": "nonpayable",
      "type": "function"
    },
    {
      "inputs": [
        {
          "internalType": "bytes4",
          "name": "interfaceId",
          "type": "bytes4"
        }
      ],
      "name": "supportsInterface",
      "outputs": [
        {
          "internalType": "bool",
          "name": "",
          "type": "bool"
        }
      ],
      "stateMutability": "view",
      "type": "function"
    },
    {
      "inputs": [],
      "name": "symbol",
      "outputs": [
        {
          "internalType": "string",
          "name": "",
          "type": "string"
        }
      ],
      "stateMutability": "view",
      "type": "function"
    },
    {
      "inputs": [
        {
          "internalType": "uint256",
          "name": "tokenId",
          "type": "uint256"
        }
      ],
      "name": "tokenURI",
      "outputs": [
        {
          "internalType": "string",
          "name": "",
          "type": "string"
        }
      ],
      "stateMutability": "view",
      "type": "function"
    },
    {
      "inputs": [
        {
          "internalType": "address",
          "name": "from",
          "type": "address"
        },
        {
          "internalType": "address",
          "name": "to",
          "type": "address"
        },
        {
          "internalType": "uint256",
          "name": "tokenId",
          "type": "uint256"
        }
      ],
      "name": "transferFrom",
      "outputs": [],
      "stateMutability": "nonpayable",
      "type": "function"
    },
    {
      "inputs": [
        {
          "internalType": "address",
          "name": "to",
          "type": "address"
        }
      ],
      "name": "transferOwnership",
      "outputs": [],
      "stateMutability": "nonpayable",
      "type": "function"
    },
    {
      "inputs": [
        {
          "internalType": "uint256",
          "name": "_value",
          "type": "uint256"
        }
      ],
      "name": "uintToString",
      "outputs": [
        {
          "internalType": "string",
          "name": "",
          "type": "string"
        }
      ],
      "stateMutability": "pure",
      "type": "function"
    },
    {
      "inputs": [],
      "name": "volume",
      "outputs": [
        {
          "internalType": "uint256",
          "name": "",
          "type": "uint256"
        }
      ],
      "stateMutability": "view",
      "type": "function"
    },
    {
      "inputs": [],
      "name": "withdrawAll",
      "outputs": [],
      "stateMutability": "nonpayable",
      "type": "function"
    },
    {
      "inputs": [],
      "name": "withdrawLink",
      "outputs": [],
      "stateMutability": "nonpayable",
      "type": "function"
    }
  ],
  "transactionHash": "0xd926a32fa43050174e5a28e72e50560565f29f2d897f3b38705c3a7fd985605d",
  "args": [
    4,
    "https://gateway.pinata.cloud/ipfs/QmfK4jMsx5qZ3fBiixfYawRQsrCGrGjgMXKbYzkovF7Qwg/",
    60000
  ],
  "numDeployments": 4,
  "solcInputHash": "45773f179888299efd2cf0902a75ac0f",
  "bytecode": "0x60a06040526001600b55735cb675e6e9e947a1c40b3f83b673c6a8f803f3b7601360016101000a81548173ffffffffffffffffffffffffffffffffffffffff021916908373ffffffffffffffffffffffffffffffffffffffff1602179055506018601a553480156200007057600080fd5b5060405162006962380380620069628339818101604052810190620000969190620008d2565b8281338060006040518060400160405280600981526020017f41726269676174657300000000000000000000000000000000000000000000008152506040518060400160405280600481526020017f41475453000000000000000000000000000000000000000000000000000000008152508160009080519060200190620001209291906200064a565b508060019080519060200190620001399291906200064a565b505050600073ffffffffffffffffffffffffffffffffffffffff168273ffffffffffffffffffffffffffffffffffffffff1603620001ae576040517f08c379a0000000000000000000000000000000000000000000000000000000008152600401620001a590620009ae565b60405180910390fd5b81600d60006101000a81548173ffffffffffffffffffffffffffffffffffffffff021916908373ffffffffffffffffffffffffffffffffffffffff160217905550600073ffffffffffffffffffffffffffffffffffffffff168173ffffffffffffffffffffffffffffffffffffffff1614620002365762000235816200032c60201b60201c565b5b5050506200025e73326c977e6efc84e512bb9c30f76e30c160ed06fb6200045d60201b60201c565b6200028373cc79157eb46f5624204f47ab42b3906caa40eab7620004a160201b60201c565b7f6331633565393238383038393465623662323764336361653139363730616133601081905550600a670de0b6b3a76400006001620002c39190620009ff565b620002cf919062000a8f565b601181905550806080818152505042601581905550816012819055506000601481905550505081601990805190602001906200030d9291906200064a565b50620003236000801b33620004e560201b60201c565b50505062000b9d565b3373ffffffffffffffffffffffffffffffffffffffff168173ffffffffffffffffffffffffffffffffffffffff16036200039d576040517f08c379a0000000000000000000000000000000000000000000000000000000008152600401620003949062000b17565b60405180910390fd5b80600e60006101000a81548173ffffffffffffffffffffffffffffffffffffffff021916908373ffffffffffffffffffffffffffffffffffffffff1602179055508073ffffffffffffffffffffffffffffffffffffffff16600d60009054906101000a900473ffffffffffffffffffffffffffffffffffffffff1673ffffffffffffffffffffffffffffffffffffffff167fed8889f560326eb138920d842192f0eb3dd22b4f139c87a2c57538e05bae127860405160405180910390a350565b80600960006101000a81548173ffffffffffffffffffffffffffffffffffffffff021916908373ffffffffffffffffffffffffffffffffffffffff16021790555050565b80600a60006101000a81548173ffffffffffffffffffffffffffffffffffffffff021916908373ffffffffffffffffffffffffffffffffffffffff16021790555050565b620004f78282620005d760201b60201c565b620005d35760016006600084815260200190815260200160002060000160008373ffffffffffffffffffffffffffffffffffffffff1673ffffffffffffffffffffffffffffffffffffffff16815260200190815260200160002060006101000a81548160ff021916908315150217905550620005786200064260201b60201c565b73ffffffffffffffffffffffffffffffffffffffff168173ffffffffffffffffffffffffffffffffffffffff16837f2f8788117e7eff1d82e926ec794901d17c78024a50270940304540a733656f0d60405160405180910390a45b5050565b60006006600084815260200190815260200160002060000160008373ffffffffffffffffffffffffffffffffffffffff1673ffffffffffffffffffffffffffffffffffffffff16815260200190815260200160002060009054906101000a900460ff16905092915050565b600033905090565b828054620006589062000b68565b90600052602060002090601f0160209004810192826200067c5760008555620006c8565b82601f106200069757805160ff1916838001178555620006c8565b82800160010185558215620006c8579182015b82811115620006c7578251825591602001919060010190620006aa565b5b509050620006d79190620006db565b5090565b5b80821115620006f6576000816000905550600101620006dc565b5090565b6000604051905090565b600080fd5b600080fd5b6000819050919050565b62000723816200070e565b81146200072f57600080fd5b50565b600081519050620007438162000718565b92915050565b600080fd5b600080fd5b6000601f19601f8301169050919050565b7f4e487b7100000000000000000000000000000000000000000000000000000000600052604160045260246000fd5b6200079e8262000753565b810181811067ffffffffffffffff82111715620007c057620007bf62000764565b5b80604052505050565b6000620007d5620006fa565b9050620007e3828262000793565b919050565b600067ffffffffffffffff82111562000806576200080562000764565b5b620008118262000753565b9050602081019050919050565b60005b838110156200083e57808201518184015260208101905062000821565b838111156200084e576000848401525b50505050565b60006200086b6200086584620007e8565b620007c9565b9050828152602081018484840111156200088a57620008896200074e565b5b620008978482856200081e565b509392505050565b600082601f830112620008b757620008b662000749565b5b8151620008c984826020860162000854565b91505092915050565b600080600060608486031215620008ee57620008ed62000704565b5b6000620008fe8682870162000732565b935050602084015167ffffffffffffffff81111562000922576200092162000709565b5b62000930868287016200089f565b9250506040620009438682870162000732565b9150509250925092565b600082825260208201905092915050565b7f43616e6e6f7420736574206f776e657220746f207a65726f0000000000000000600082015250565b6000620009966018836200094d565b9150620009a3826200095e565b602082019050919050565b60006020820190508181036000830152620009c98162000987565b9050919050565b7f4e487b7100000000000000000000000000000000000000000000000000000000600052601160045260246000fd5b600062000a0c826200070e565b915062000a19836200070e565b9250817fffffffffffffffffffffffffffffffffffffffffffffffffffffffffffffffff048311821515161562000a555762000a54620009d0565b5b828202905092915050565b7f4e487b7100000000000000000000000000000000000000000000000000000000600052601260045260246000fd5b600062000a9c826200070e565b915062000aa9836200070e565b92508262000abc5762000abb62000a60565b5b828204905092915050565b7f43616e6e6f74207472616e7366657220746f2073656c66000000000000000000600082015250565b600062000aff6017836200094d565b915062000b0c8262000ac7565b602082019050919050565b6000602082019050818103600083015262000b328162000af0565b9050919050565b7f4e487b7100000000000000000000000000000000000000000000000000000000600052602260045260246000fd5b6000600282049050600182168062000b8157607f821691505b60208210810362000b975762000b9662000b39565b5b50919050565b608051615d9b62000bc760003960008181610e1b01528181610f8e01526114470152615d9b6000f3fe608060405234801561001057600080fd5b506004361061027f5760003560e01c806379ba50971161015c578063c56e1375116100ce578063e985e9c511610087578063e985e9c514610771578063f2fde38b146107a1578063f47c84c5146107bd578063f5ea9ad0146107db578063f84c183e1461080b578063fd68990a146108275761027f565b8063c56e13751461069d578063c618a1e4146106b9578063c87b56dd146106d7578063d547741f14610707578063e5ada13e14610723578063e9395679146107415761027f565b8063947a36fb11610120578063947a36fb146105ef57806395d89b411461060d5780639b63a11a1461062b578063a217fddf14610647578063a22cb46514610665578063b88d4fde146106815761027f565b806379ba509714610583578063853828b61461058d5780638da5cb5b146105975780638dc654a2146105b557806391d14854146105bf5761027f565b806338eada1c116101f55780635475e90b116101b95780635475e90b1461048857806355f804b3146104b857806361bc221a146104d45780636352211e146104f25780636e04ff0d1461052257806370a08231146105535761027f565b806338eada1c146103fa5780633f3b3b271461041657806340d097c31461043457806342842e0e146104505780634585e33b1461046c5761027f565b806319d40b081161024757806319d40b08146103285780632002a0c01461034657806323b872dd14610376578063248a9ca3146103925780632f2ff15d146103c257806336568abe146103de5761027f565b806301ffc9a71461028457806306fdde03146102b4578063081812fc146102d2578063095ea7b3146103025780630f6cee491461031e575b600080fd5b61029e60048036038101906102999190613eb1565b610843565b6040516102ab9190613ef9565b60405180910390f35b6102bc610855565b6040516102c99190613fad565b60405180910390f35b6102ec60048036038101906102e79190614005565b6108e7565b6040516102f99190614073565b60405180910390f35b61031c600480360381019061031791906140ba565b61092d565b005b610326610a44565b005b610330610abb565b60405161033d9190613ef9565b60405180910390f35b610360600480360381019061035b9190614005565b610ace565b60405161036d9190614073565b60405180910390f35b610390600480360381019061038b91906140fa565b610b0d565b005b6103ac60048036038101906103a79190614183565b610b6d565b6040516103b991906141bf565b60405180910390f35b6103dc60048036038101906103d791906141da565b610b8d565b005b6103f860048036038101906103f391906141da565b610bae565b005b610414600480360381019061040f919061421a565b610c31565b005b61041e610c97565b60405161042b9190614256565b60405180910390f35b61044e6004803603810190610449919061421a565b610c9d565b005b61046a600480360381019061046591906140fa565b610df9565b005b610486600480360381019061048191906142d6565b610e19565b005b6104a2600480360381019061049d91906140ba565b610e77565b6040516104af9190613fad565b60405180910390f35b6104d260048036038101906104cd9190614379565b610eb3565b005b6104dc610ed1565b6040516104e99190614256565b60405180910390f35b61050c60048036038101906105079190614005565b610ed7565b6040516105199190614073565b60405180910390f35b61053c600480360381019061053791906142d6565b610f88565b60405161054a92919061441b565b60405180910390f35b61056d6004803603810190610568919061421a565b610fc5565b60405161057a9190614256565b60405180910390f35b61058b61107c565b005b610595611213565b005b61059f611263565b6040516105ac9190614073565b60405180910390f35b6105bd61128d565b005b6105d960048036038101906105d491906141da565b6113da565b6040516105e69190613ef9565b60405180910390f35b6105f7611445565b6040516106049190614256565b60405180910390f35b610615611469565b6040516106229190613fad565b60405180910390f35b6106456004803603810190610640919061421a565b6114fb565b005b61064f61158b565b60405161065c91906141bf565b60405180910390f35b61067f600480360381019061067a9190614477565b611592565b005b61069b600480360381019061069691906145e7565b6115a8565b005b6106b760048036038101906106b2919061421a565b61160a565b005b6106c1611656565b6040516106ce9190614256565b60405180910390f35b6106f160048036038101906106ec9190614005565b61165c565b6040516106fe9190613fad565b60405180910390f35b610721600480360381019061071c91906141da565b6116c4565b005b61072b6116e5565b6040516107389190613fad565b60405180910390f35b61075b60048036038101906107569190614005565b611773565b6040516107689190613fad565b60405180910390f35b61078b6004803603810190610786919061466a565b611a68565b6040516107989190613ef9565b60405180910390f35b6107bb60048036038101906107b6919061421a565b611afc565b005b6107c5611b10565b6040516107d29190614256565b60405180910390f35b6107f560048036038101906107f091906140ba565b611b16565b60405161080291906141bf565b60405180910390f35b61082560048036038101906108209190614005565b611c74565b005b610841600480360381019061083c91906146aa565b611c86565b005b600061084e82611e18565b9050919050565b60606000805461086490614719565b80601f016020809104026020016040519081016040528092919081815260200182805461089090614719565b80156108dd5780601f106108b2576101008083540402835291602001916108dd565b820191906000526020600020905b8154815290600101906020018083116108c057829003601f168201915b5050505050905090565b60006108f282611e92565b6004600083815260200190815260200160002060009054906101000a900473ffffffffffffffffffffffffffffffffffffffff169050919050565b600061093882610ed7565b90508073ffffffffffffffffffffffffffffffffffffffff168373ffffffffffffffffffffffffffffffffffffffff16036109a8576040517f08c379a000000000000000000000000000000000000000000000000000000000815260040161099f906147bc565b60405180910390fd5b8073ffffffffffffffffffffffffffffffffffffffff166109c7611edd565b73ffffffffffffffffffffffffffffffffffffffff1614806109f657506109f5816109f0611edd565b611a68565b5b610a35576040517f08c379a0000000000000000000000000000000000000000000000000000000008152600401610a2c9061484e565b60405180910390fd5b610a3f8383611ee5565b505050565b60005b601680549050811015610ab857600060168281548110610a6a57610a6961486e565b5b9060005260206000200160009054906101000a900473ffffffffffffffffffffffffffffffffffffffff169050610aa381601254611b16565b50508080610ab0906148cc565b915050610a47565b50565b601360009054906101000a900460ff1681565b60168181548110610ade57600080fd5b906000526020600020016000915054906101000a900473ffffffffffffffffffffffffffffffffffffffff1681565b610b1e610b18611edd565b82611f9e565b610b5d576040517f08c379a0000000000000000000000000000000000000000000000000000000008152600401610b5490614986565b60405180910390fd5b610b68838383612033565b505050565b600060066000838152602001908152602001600020600101549050919050565b610b9682610b6d565b610b9f81612299565b610ba983836122ad565b505050565b610bb6611edd565b73ffffffffffffffffffffffffffffffffffffffff168173ffffffffffffffffffffffffffffffffffffffff1614610c23576040517f08c379a0000000000000000000000000000000000000000000000000000000008152600401610c1a90614a18565b60405180910390fd5b610c2d828261238e565b5050565b6016819080600181540180825580915050600190039060005260206000200160009091909190916101000a81548173ffffffffffffffffffffffffffffffffffffffff021916908373ffffffffffffffffffffffffffffffffffffffff16021790555050565b60155481565b601b60008273ffffffffffffffffffffffffffffffffffffffff1673ffffffffffffffffffffffffffffffffffffffff16815260200190815260200160002060009054906101000a900460ff1615610d2a576040517f08c379a0000000000000000000000000000000000000000000000000000000008152600401610d2190614a84565b60405180910390fd5b6000610d36601c612470565b9050601a54600182610d489190614aa4565b1115610d89576040517f08c379a0000000000000000000000000000000000000000000000000000000008152600401610d8090614b6c565b60405180910390fd5b610d93828261247e565b610d9d601c61249c565b6001601b60008473ffffffffffffffffffffffffffffffffffffffff1673ffffffffffffffffffffffffffffffffffffffff16815260200190815260200160002060006101000a81548160ff0219169083151502179055505050565b610e14838383604051806020016040528060008152506115a8565b505050565b7f000000000000000000000000000000000000000000000000000000000000000060155442610e489190614b8c565b1115610e7357426015819055506001601454610e649190614aa4565b601481905550610e72610a44565b5b5050565b6060610e82836124b2565b610e8b83612675565b604051602001610e9c929190614c94565b604051602081830303815290604052905092915050565b610ebb6127d5565b818160199190610ecc929190613d1b565b505050565b60145481565b6000806002600084815260200190815260200160002060009054906101000a900473ffffffffffffffffffffffffffffffffffffffff169050600073ffffffffffffffffffffffffffffffffffffffff168173ffffffffffffffffffffffffffffffffffffffff1603610f7f576040517f08c379a0000000000000000000000000000000000000000000000000000000008152600401610f7690614d1e565b60405180910390fd5b80915050919050565b600060607f000000000000000000000000000000000000000000000000000000000000000060155442610fbb9190614b8c565b1191509250929050565b60008073ffffffffffffffffffffffffffffffffffffffff168273ffffffffffffffffffffffffffffffffffffffff1603611035576040517f08c379a000000000000000000000000000000000000000000000000000000000815260040161102c90614db0565b60405180910390fd5b600360008373ffffffffffffffffffffffffffffffffffffffff1673ffffffffffffffffffffffffffffffffffffffff168152602001908152602001600020549050919050565b600e60009054906101000a900473ffffffffffffffffffffffffffffffffffffffff1673ffffffffffffffffffffffffffffffffffffffff163373ffffffffffffffffffffffffffffffffffffffff161461110c576040517f08c379a000000000000000000000000000000000000000000000000000000000815260040161110390614e1c565b60405180910390fd5b6000600d60009054906101000a900473ffffffffffffffffffffffffffffffffffffffff16905033600d60006101000a81548173ffffffffffffffffffffffffffffffffffffffff021916908373ffffffffffffffffffffffffffffffffffffffff1602179055506000600e60006101000a81548173ffffffffffffffffffffffffffffffffffffffff021916908373ffffffffffffffffffffffffffffffffffffffff1602179055503373ffffffffffffffffffffffffffffffffffffffff168173ffffffffffffffffffffffffffffffffffffffff167f8be0079c531659141344cd1fd0a4f28419497f9722a3daafe3b4186f6b6457e060405160405180910390a350565b61121b611263565b73ffffffffffffffffffffffffffffffffffffffff166108fc479081150290604051600060405180830381858888f19350505050158015611260573d6000803e3d6000fd5b50565b6000600d60009054906101000a900473ffffffffffffffffffffffffffffffffffffffff16905090565b6112956127d5565b600061129f612867565b90508073ffffffffffffffffffffffffffffffffffffffff1663a9059cbb338373ffffffffffffffffffffffffffffffffffffffff166370a08231306040518263ffffffff1660e01b81526004016112f79190614073565b602060405180830381865afa158015611314573d6000803e3d6000fd5b505050506040513d601f19601f820116820180604052508101906113389190614e51565b6040518363ffffffff1660e01b8152600401611355929190614e7e565b6020604051808303816000875af1158015611374573d6000803e3d6000fd5b505050506040513d601f19601f820116820180604052508101906113989190614ebc565b6113d7576040517f08c379a00000000000000000000000000000000000000000000000000000000081526004016113ce90614f35565b60405180910390fd5b50565b60006006600084815260200190815260200160002060000160008373ffffffffffffffffffffffffffffffffffffffff1673ffffffffffffffffffffffffffffffffffffffff16815260200190815260200160002060009054906101000a900460ff16905092915050565b7f000000000000000000000000000000000000000000000000000000000000000081565b60606001805461147890614719565b80601f01602080910402602001604051908101604052809291908181526020018280546114a490614719565b80156114f15780601f106114c6576101008083540402835291602001916114f1565b820191906000526020600020905b8154815290600101906020018083116114d457829003601f168201915b5050505050905090565b601360019054906101000a900473ffffffffffffffffffffffffffffffffffffffff1673ffffffffffffffffffffffffffffffffffffffff1663d204c45e826040518263ffffffff1660e01b8152600401611556919061505f565b600060405180830381600087803b15801561157057600080fd5b505af1158015611584573d6000803e3d6000fd5b5050505050565b6000801b81565b6115a461159d611edd565b8383612891565b5050565b6115b96115b3611edd565b83611f9e565b6115f8576040517f08c379a00000000000000000000000000000000000000000000000000000000081526004016115ef90614986565b60405180910390fd5b611604848484846129fd565b50505050565b6116126127d5565b80601360016101000a81548173ffffffffffffffffffffffffffffffffffffffff021916908373ffffffffffffffffffffffffffffffffffffffff16021790555050565b600f5481565b606061166782611e92565b6000611671612a59565b9050600081511161169157604051806020016040528060008152506116bc565b8061169b84612675565b6040516020016116ac92919061508d565b6040516020818303038152906040525b915050919050565b6116cd82610b6d565b6116d681612299565b6116e0838361238e565b505050565b601880546116f290614719565b80601f016020809104026020016040519081016040528092919081815260200182805461171e90614719565b801561176b5780601f106117405761010080835404028352916020019161176b565b820191906000526020600020905b81548152906001019060200180831161174e57829003601f168201915b505050505081565b606060008260001b905060006040518060400160405280601081526020017f303132333435363738396162636465660000000000000000000000000000000081525090506000602a67ffffffffffffffff8111156117d4576117d36144bc565b5b6040519080825280601f01601f1916602001820160405280156118065781602001600182028036833780820191505090505b5090507f30000000000000000000000000000000000000000000000000000000000000008160008151811061183e5761183d61486e565b5b60200101907effffffffffffffffffffffffffffffffffffffffffffffffffffffffffffff1916908160001a9053507f7800000000000000000000000000000000000000000000000000000000000000816001815181106118a2576118a161486e565b5b60200101907effffffffffffffffffffffffffffffffffffffffffffffffffffffffffffff1916908160001a90535060005b6014811015611a5c5782600485600c846118ee9190614aa4565b602081106118ff576118fe61486e565b5b1a60f81b7effffffffffffffffffffffffffffffffffffffffffffffffffffffffffffff1916901c60f81c60ff168151811061193e5761193d61486e565b5b602001015160f81c60f81b8260028361195791906150b1565b60026119639190614aa4565b815181106119745761197361486e565b5b60200101907effffffffffffffffffffffffffffffffffffffffffffffffffffffffffffff1916908160001a90535082600f60f81b85600c846119b79190614aa4565b602081106119c8576119c761486e565b5b1a60f81b1660f81c60ff16815181106119e4576119e361486e565b5b602001015160f81c60f81b826002836119fd91906150b1565b6003611a099190614aa4565b81518110611a1a57611a1961486e565b5b60200101907effffffffffffffffffffffffffffffffffffffffffffffffffffffffffffff1916908160001a9053508080611a54906148cc565b9150506118d4565b50809350505050919050565b6000600560008473ffffffffffffffffffffffffffffffffffffffff1673ffffffffffffffffffffffffffffffffffffffff16815260200190815260200160002060008373ffffffffffffffffffffffffffffffffffffffff1673ffffffffffffffffffffffffffffffffffffffff16815260200190815260200160002060009054906101000a900460ff16905092915050565b611b046127d5565b611b0d81612aeb565b50565b601a5481565b600080611b2d6010543063fd68990a60e01b612c19565b90506000611b3b8585610e77565b9050611b876040518060400160405280600381526020017f67657400000000000000000000000000000000000000000000000000000000008152508284612c4a9092919063ffffffff16565b611c066040518060400160405280600481526020017f70617468000000000000000000000000000000000000000000000000000000008152506040518060400160405280600781526020017f737563636573730000000000000000000000000000000000000000000000000081525084612c4a9092919063ffffffff16565b6000611c1483601154612c7d565b9050856017600083815260200190815260200160002060006101000a81548173ffffffffffffffffffffffffffffffffffffffff021916908373ffffffffffffffffffffffffffffffffffffffff16021790555080935050505092915050565b611c7c6127d5565b8060128190555050565b81600c600082815260200190815260200160002060009054906101000a900473ffffffffffffffffffffffffffffffffffffffff1673ffffffffffffffffffffffffffffffffffffffff163373ffffffffffffffffffffffffffffffffffffffff1614611d28576040517f08c379a0000000000000000000000000000000000000000000000000000000008152600401611d1f9061517d565b60405180910390fd5b600c600082815260200190815260200160002060006101000a81549073ffffffffffffffffffffffffffffffffffffffff0219169055807f7cc135e0cebb02c3480ae5d74d377283180a2601f8f644edf7987b009316c63a60405160405180910390a260006017600085815260200190815260200160002060009054906101000a900473ffffffffffffffffffffffffffffffffffffffff169050600192508215611dd757611dd681612cb4565b5b837f2a59adc454390ac082968c8c50e27a9901b5266815783beaea3e73e7cf992d4f846018604051611e0a929190615232565b60405180910390a250505050565b60007f7965db0b000000000000000000000000000000000000000000000000000000007bffffffffffffffffffffffffffffffffffffffffffffffffffffffff1916827bffffffffffffffffffffffffffffffffffffffffffffffffffffffff19161480611e8b5750611e8a82612cc0565b5b9050919050565b611e9b81612da2565b611eda576040517f08c379a0000000000000000000000000000000000000000000000000000000008152600401611ed190614d1e565b60405180910390fd5b50565b600033905090565b816004600083815260200190815260200160002060006101000a81548173ffffffffffffffffffffffffffffffffffffffff021916908373ffffffffffffffffffffffffffffffffffffffff160217905550808273ffffffffffffffffffffffffffffffffffffffff16611f5883610ed7565b73ffffffffffffffffffffffffffffffffffffffff167f8c5be1e5ebec7d5bd14f71427d1e84f3dd0314c0f7b2291e5b200ac8c7c3b92560405160405180910390a45050565b600080611faa83610ed7565b90508073ffffffffffffffffffffffffffffffffffffffff168473ffffffffffffffffffffffffffffffffffffffff161480611fec5750611feb8185611a68565b5b8061202a57508373ffffffffffffffffffffffffffffffffffffffff16612012846108e7565b73ffffffffffffffffffffffffffffffffffffffff16145b91505092915050565b8273ffffffffffffffffffffffffffffffffffffffff1661205382610ed7565b73ffffffffffffffffffffffffffffffffffffffff16146120a9576040517f08c379a00000000000000000000000000000000000000000000000000000000081526004016120a0906152d4565b60405180910390fd5b600073ffffffffffffffffffffffffffffffffffffffff168273ffffffffffffffffffffffffffffffffffffffff1603612118576040517f08c379a000000000000000000000000000000000000000000000000000000000815260040161210f90615366565b60405180910390fd5b612123838383612e0e565b61212e600082611ee5565b6001600360008573ffffffffffffffffffffffffffffffffffffffff1673ffffffffffffffffffffffffffffffffffffffff168152602001908152602001600020600082825461217e9190614b8c565b925050819055506001600360008473ffffffffffffffffffffffffffffffffffffffff1673ffffffffffffffffffffffffffffffffffffffff16815260200190815260200160002060008282546121d59190614aa4565b92505081905550816002600083815260200190815260200160002060006101000a81548173ffffffffffffffffffffffffffffffffffffffff021916908373ffffffffffffffffffffffffffffffffffffffff160217905550808273ffffffffffffffffffffffffffffffffffffffff168473ffffffffffffffffffffffffffffffffffffffff167fddf252ad1be2c89b69c2b068fc378daa952ba7f163c4a11628f55a4df523b3ef60405160405180910390a4612294838383612e13565b505050565b6122aa816122a5611edd565b612e18565b50565b6122b782826113da565b61238a5760016006600084815260200190815260200160002060000160008373ffffffffffffffffffffffffffffffffffffffff1673ffffffffffffffffffffffffffffffffffffffff16815260200190815260200160002060006101000a81548160ff02191690831515021790555061232f611edd565b73ffffffffffffffffffffffffffffffffffffffff168173ffffffffffffffffffffffffffffffffffffffff16837f2f8788117e7eff1d82e926ec794901d17c78024a50270940304540a733656f0d60405160405180910390a45b5050565b61239882826113da565b1561246c5760006006600084815260200190815260200160002060000160008373ffffffffffffffffffffffffffffffffffffffff1673ffffffffffffffffffffffffffffffffffffffff16815260200190815260200160002060006101000a81548160ff021916908315150217905550612411611edd565b73ffffffffffffffffffffffffffffffffffffffff168173ffffffffffffffffffffffffffffffffffffffff16837ff6391f5c32d9c69d2a47ea670b442974b53935d1edc7fd64eb21e047a839171b60405160405180910390a45b5050565b600081600001549050919050565b612498828260405180602001604052806000815250612eb5565b5050565b6001816000016000828254019250508190555050565b60606000602867ffffffffffffffff8111156124d1576124d06144bc565b5b6040519080825280601f01601f1916602001820160405280156125035781602001600182028036833780820191505090505b50905060005b601481101561266b5760008160136125219190614b8c565b600861252d91906150b1565b600261253991906154b9565b8573ffffffffffffffffffffffffffffffffffffffff1661255a9190615533565b60f81b9050600060108260f81c6125719190615571565b60f81b905060008160f81c601061258891906155a2565b8360f81c61259691906155dd565b60f81b90506125a482612f10565b858560026125b291906150b1565b815181106125c3576125c261486e565b5b60200101907effffffffffffffffffffffffffffffffffffffffffffffffffffffffffffff1916908160001a9053506125fb81612f10565b85600186600261260b91906150b1565b6126159190614aa4565b815181106126265761262561486e565b5b60200101907effffffffffffffffffffffffffffffffffffffffffffffffffffffffffffff1916908160001a9053505050508080612663906148cc565b915050612509565b5080915050919050565b6060600082036126bc576040518060400160405280600181526020017f300000000000000000000000000000000000000000000000000000000000000081525090506127d0565b600082905060005b600082146126ee5780806126d7906148cc565b915050600a826126e79190615533565b91506126c4565b60008167ffffffffffffffff81111561270a576127096144bc565b5b6040519080825280601f01601f19166020018201604052801561273c5781602001600182028036833780820191505090505b5090505b600085146127c9576001826127559190614b8c565b9150600a856127649190615611565b60306127709190614aa4565b60f81b8183815181106127865761278561486e565b5b60200101907effffffffffffffffffffffffffffffffffffffffffffffffffffffffffffff1916908160001a905350600a856127c29190615533565b9450612740565b8093505050505b919050565b600d60009054906101000a900473ffffffffffffffffffffffffffffffffffffffff1673ffffffffffffffffffffffffffffffffffffffff163373ffffffffffffffffffffffffffffffffffffffff1614612865576040517f08c379a000000000000000000000000000000000000000000000000000000000815260040161285c9061568e565b60405180910390fd5b565b6000600960009054906101000a900473ffffffffffffffffffffffffffffffffffffffff16905090565b8173ffffffffffffffffffffffffffffffffffffffff168373ffffffffffffffffffffffffffffffffffffffff16036128ff576040517f08c379a00000000000000000000000000000000000000000000000000000000081526004016128f6906156fa565b60405180910390fd5b80600560008573ffffffffffffffffffffffffffffffffffffffff1673ffffffffffffffffffffffffffffffffffffffff16815260200190815260200160002060008473ffffffffffffffffffffffffffffffffffffffff1673ffffffffffffffffffffffffffffffffffffffff16815260200190815260200160002060006101000a81548160ff0219169083151502179055508173ffffffffffffffffffffffffffffffffffffffff168373ffffffffffffffffffffffffffffffffffffffff167f17307eab39ab6107e8899845ad3d59bd9653f200f220920489ca2b5937696c31836040516129f09190613ef9565b60405180910390a3505050565b612a08848484612033565b612a1484848484612f56565b612a53576040517f08c379a0000000000000000000000000000000000000000000000000000000008152600401612a4a9061578c565b60405180910390fd5b50505050565b606060198054612a6890614719565b80601f0160208091040260200160405190810160405280929190818152602001828054612a9490614719565b8015612ae15780601f10612ab657610100808354040283529160200191612ae1565b820191906000526020600020905b815481529060010190602001808311612ac457829003601f168201915b5050505050905090565b3373ffffffffffffffffffffffffffffffffffffffff168173ffffffffffffffffffffffffffffffffffffffff1603612b59576040517f08c379a0000000000000000000000000000000000000000000000000000000008152600401612b50906157f8565b60405180910390fd5b80600e60006101000a81548173ffffffffffffffffffffffffffffffffffffffff021916908373ffffffffffffffffffffffffffffffffffffffff1602179055508073ffffffffffffffffffffffffffffffffffffffff16600d60009054906101000a900473ffffffffffffffffffffffffffffffffffffffff1673ffffffffffffffffffffffffffffffffffffffff167fed8889f560326eb138920d842192f0eb3dd22b4f139c87a2c57538e05bae127860405160405180910390a350565b612c21613da1565b612c29613da1565b612c40858585846130dd909392919063ffffffff16565b9150509392505050565b612c6182846080015161318d90919063ffffffff16565b612c7881846080015161318d90919063ffffffff16565b505050565b6000612cac600a60009054906101000a900473ffffffffffffffffffffffffffffffffffffffff1684846131b2565b905092915050565b612cbd816114fb565b50565b60007f80ac58cd000000000000000000000000000000000000000000000000000000007bffffffffffffffffffffffffffffffffffffffffffffffffffffffff1916827bffffffffffffffffffffffffffffffffffffffffffffffffffffffff19161480612d8b57507f5b5e139f000000000000000000000000000000000000000000000000000000007bffffffffffffffffffffffffffffffffffffffffffffffffffffffff1916827bffffffffffffffffffffffffffffffffffffffffffffffffffffffff1916145b80612d9b5750612d9a8261327e565b5b9050919050565b60008073ffffffffffffffffffffffffffffffffffffffff166002600084815260200190815260200160002060009054906101000a900473ffffffffffffffffffffffffffffffffffffffff1673ffffffffffffffffffffffffffffffffffffffff1614159050919050565b505050565b505050565b612e2282826113da565b612eb157612e478173ffffffffffffffffffffffffffffffffffffffff1660146132e8565b612e558360001c60206132e8565b604051602001612e669291906158b0565b6040516020818303038152906040526040517f08c379a0000000000000000000000000000000000000000000000000000000008152600401612ea89190613fad565b60405180910390fd5b5050565b612ebf8383613524565b612ecc6000848484612f56565b612f0b576040517f08c379a0000000000000000000000000000000000000000000000000000000008152600401612f029061578c565b60405180910390fd5b505050565b6000600a8260f81c60ff161015612f3b5760308260f81c612f3191906158ea565b60f81b9050612f51565b60578260f81c612f4b91906158ea565b60f81b90505b919050565b6000612f778473ffffffffffffffffffffffffffffffffffffffff166136fd565b156130d0578373ffffffffffffffffffffffffffffffffffffffff1663150b7a02612fa0611edd565b8786866040518563ffffffff1660e01b8152600401612fc29493929190615921565b6020604051808303816000875af1925050508015612ffe57506040513d601f19601f82011682018060405250810190612ffb9190615982565b60015b613080573d806000811461302e576040519150601f19603f3d011682016040523d82523d6000602084013e613033565b606091505b506000815103613078576040517f08c379a000000000000000000000000000000000000000000000000000000000815260040161306f9061578c565b60405180910390fd5b805181602001fd5b63150b7a0260e01b7bffffffffffffffffffffffffffffffffffffffffffffffffffffffff1916817bffffffffffffffffffffffffffffffffffffffffffffffffffffffff1916149150506130d5565b600190505b949350505050565b6130e5613da1565b6130f58560800151610100613720565b508385600001818152505082856020019073ffffffffffffffffffffffffffffffffffffffff16908173ffffffffffffffffffffffffffffffffffffffff16815250508185604001907bffffffffffffffffffffffffffffffffffffffffffffffffffffffff191690817bffffffffffffffffffffffffffffffffffffffffffffffffffffffff191681525050849050949350505050565b61319a826003835161378a565b6131ad818361390f90919063ffffffff16565b505050565b600080600b5490506001816131c79190614aa4565b600b819055506000634042994660e01b60008087600001513089604001518760018c60800151600001516040516024016132089897969594939291906159be565b604051602081830303815290604052907bffffffffffffffffffffffffffffffffffffffffffffffffffffffff19166020820180517bffffffffffffffffffffffffffffffffffffffffffffffffffffffff8381831617835250505050905061327386838684613931565b925050509392505050565b60007f01ffc9a7000000000000000000000000000000000000000000000000000000007bffffffffffffffffffffffffffffffffffffffffffffffffffffffff1916827bffffffffffffffffffffffffffffffffffffffffffffffffffffffff1916149050919050565b6060600060028360026132fb91906150b1565b6133059190614aa4565b67ffffffffffffffff81111561331e5761331d6144bc565b5b6040519080825280601f01601f1916602001820160405280156133505781602001600182028036833780820191505090505b5090507f3000000000000000000000000000000000000000000000000000000000000000816000815181106133885761338761486e565b5b60200101907effffffffffffffffffffffffffffffffffffffffffffffffffffffffffffff1916908160001a9053507f7800000000000000000000000000000000000000000000000000000000000000816001815181106133ec576133eb61486e565b5b60200101907effffffffffffffffffffffffffffffffffffffffffffffffffffffffffffff1916908160001a9053506000600184600261342c91906150b1565b6134369190614aa4565b90505b60018111156134d6577f3031323334353637383961626364656600000000000000000000000000000000600f8616601081106134785761347761486e565b5b1a60f81b82828151811061348f5761348e61486e565b5b60200101907effffffffffffffffffffffffffffffffffffffffffffffffffffffffffffff1916908160001a905350600485901c9450806134cf90615a43565b9050613439565b506000841461351a576040517f08c379a000000000000000000000000000000000000000000000000000000000815260040161351190615ab8565b60405180910390fd5b8091505092915050565b600073ffffffffffffffffffffffffffffffffffffffff168273ffffffffffffffffffffffffffffffffffffffff1603613593576040517f08c379a000000000000000000000000000000000000000000000000000000000815260040161358a90615b24565b60405180910390fd5b61359c81612da2565b156135dc576040517f08c379a00000000000000000000000000000000000000000000000000000000081526004016135d390615b90565b60405180910390fd5b6135e860008383612e0e565b6001600360008473ffffffffffffffffffffffffffffffffffffffff1673ffffffffffffffffffffffffffffffffffffffff16815260200190815260200160002060008282546136389190614aa4565b92505081905550816002600083815260200190815260200160002060006101000a81548173ffffffffffffffffffffffffffffffffffffffff021916908373ffffffffffffffffffffffffffffffffffffffff160217905550808273ffffffffffffffffffffffffffffffffffffffff16600073ffffffffffffffffffffffffffffffffffffffff167fddf252ad1be2c89b69c2b068fc378daa952ba7f163c4a11628f55a4df523b3ef60405160405180910390a46136f960008383612e13565b5050565b6000808273ffffffffffffffffffffffffffffffffffffffff163b119050919050565b613728613e0e565b60006020836137379190615611565b14613763576020826137499190615611565b60206137559190614b8c565b826137609190614aa4565b91505b81836020018181525050604051808452600081528281016020016040525082905092915050565b60178167ffffffffffffffff16116137c1576137bb8160058460ff16901b60ff161784613ac690919063ffffffff16565b5061390a565b60ff8167ffffffffffffffff1611613817576137f0601860058460ff16901b1784613ac690919063ffffffff16565b506138118167ffffffffffffffff16600185613ae69092919063ffffffff16565b50613909565b61ffff8167ffffffffffffffff161161386e57613847601960058460ff16901b1784613ac690919063ffffffff16565b506138688167ffffffffffffffff16600285613ae69092919063ffffffff16565b50613908565b63ffffffff8167ffffffffffffffff16116138c7576138a0601a60058460ff16901b1784613ac690919063ffffffff16565b506138c18167ffffffffffffffff16600485613ae69092919063ffffffff16565b50613907565b6138e4601b60058460ff16901b1784613ac690919063ffffffff16565b506139058167ffffffffffffffff16600885613ae69092919063ffffffff16565b505b5b5b5b505050565b613917613e0e565b61392983846000015151848551613b08565b905092915050565b60003084604051602001613946929190615c69565b60405160208183030381529060405280519060200120905084600c600083815260200190815260200160002060006101000a81548173ffffffffffffffffffffffffffffffffffffffff021916908373ffffffffffffffffffffffffffffffffffffffff160217905550807fb5e6e01e79f91267dc17b4e6314d5d4d03593d2ceee0fbb452b750bd70ea5af960405160405180910390a2600960009054906101000a900473ffffffffffffffffffffffffffffffffffffffff1673ffffffffffffffffffffffffffffffffffffffff16634000aea08685856040518463ffffffff1660e01b8152600401613a3c93929190615c95565b6020604051808303816000875af1158015613a5b573d6000803e3d6000fd5b505050506040513d601f19601f82011682018060405250810190613a7f9190614ebc565b613abe576040517f08c379a0000000000000000000000000000000000000000000000000000000008152600401613ab590615d45565b60405180910390fd5b949350505050565b613ace613e0e565b613ade8384600001515184613bf7565b905092915050565b613aee613e0e565b613aff848560000151518585613c4d565b90509392505050565b613b10613e0e565b8251821115613b1e57600080fd5b84602001518285613b2f9190614aa4565b1115613b6457613b63856002613b5488602001518887613b4f9190614aa4565b613cdb565b613b5e91906150b1565b613cf7565b5b600080865180518760208301019350808887011115613b835787860182525b60208701925050505b60208410613bca5780518252602082613ba59190614aa4565b9150602081613bb49190614aa4565b9050602084613bc39190614b8c565b9350613b8c565b60006001856020036101000a03905080198251168184511681811785525050508692505050949350505050565b613bff613e0e565b83602001518310613c2557613c248460028660200151613c1f91906150b1565b613cf7565b5b83518051602085830101848153818603613c40576001820183525b5050508390509392505050565b613c55613e0e565b84602001518483613c669190614aa4565b1115613c8e57613c8d8560028685613c7e9190614aa4565b613c8891906150b1565b613cf7565b5b6000600183610100613ca091906154b9565b613caa9190614b8c565b90508551838682010185831982511617815281518588011115613ccd5784870182525b505085915050949350505050565b600081831115613ced57829050613cf1565b8190505b92915050565b600082600001519050613d0a8383613720565b50613d15838261390f565b50505050565b828054613d2790614719565b90600052602060002090601f016020900481019282613d495760008555613d90565b82601f10613d6257803560ff1916838001178555613d90565b82800160010185558215613d90579182015b82811115613d8f578235825591602001919060010190613d74565b5b509050613d9d9190613e28565b5090565b6040518060a0016040528060008019168152602001600073ffffffffffffffffffffffffffffffffffffffff16815260200160007bffffffffffffffffffffffffffffffffffffffffffffffffffffffff1916815260200160008152602001613e08613e0e565b81525090565b604051806040016040528060608152602001600081525090565b5b80821115613e41576000816000905550600101613e29565b5090565b6000604051905090565b600080fd5b600080fd5b60007fffffffff0000000000000000000000000000000000000000000000000000000082169050919050565b613e8e81613e59565b8114613e9957600080fd5b50565b600081359050613eab81613e85565b92915050565b600060208284031215613ec757613ec6613e4f565b5b6000613ed584828501613e9c565b91505092915050565b60008115159050919050565b613ef381613ede565b82525050565b6000602082019050613f0e6000830184613eea565b92915050565b600081519050919050565b600082825260208201905092915050565b60005b83811015613f4e578082015181840152602081019050613f33565b83811115613f5d576000848401525b50505050565b6000601f19601f8301169050919050565b6000613f7f82613f14565b613f898185613f1f565b9350613f99818560208601613f30565b613fa281613f63565b840191505092915050565b60006020820190508181036000830152613fc78184613f74565b905092915050565b6000819050919050565b613fe281613fcf565b8114613fed57600080fd5b50565b600081359050613fff81613fd9565b92915050565b60006020828403121561401b5761401a613e4f565b5b600061402984828501613ff0565b91505092915050565b600073ffffffffffffffffffffffffffffffffffffffff82169050919050565b600061405d82614032565b9050919050565b61406d81614052565b82525050565b60006020820190506140886000830184614064565b92915050565b61409781614052565b81146140a257600080fd5b50565b6000813590506140b48161408e565b92915050565b600080604083850312156140d1576140d0613e4f565b5b60006140df858286016140a5565b92505060206140f085828601613ff0565b9150509250929050565b60008060006060848603121561411357614112613e4f565b5b6000614121868287016140a5565b9350506020614132868287016140a5565b925050604061414386828701613ff0565b9150509250925092565b6000819050919050565b6141608161414d565b811461416b57600080fd5b50565b60008135905061417d81614157565b92915050565b60006020828403121561419957614198613e4f565b5b60006141a78482850161416e565b91505092915050565b6141b98161414d565b82525050565b60006020820190506141d460008301846141b0565b92915050565b600080604083850312156141f1576141f0613e4f565b5b60006141ff8582860161416e565b9250506020614210858286016140a5565b9150509250929050565b6000602082840312156142305761422f613e4f565b5b600061423e848285016140a5565b91505092915050565b61425081613fcf565b82525050565b600060208201905061426b6000830184614247565b92915050565b600080fd5b600080fd5b600080fd5b60008083601f84011261429657614295614271565b5b8235905067ffffffffffffffff8111156142b3576142b2614276565b5b6020830191508360018202830111156142cf576142ce61427b565b5b9250929050565b600080602083850312156142ed576142ec613e4f565b5b600083013567ffffffffffffffff81111561430b5761430a613e54565b5b61431785828601614280565b92509250509250929050565b60008083601f84011261433957614338614271565b5b8235905067ffffffffffffffff81111561435657614355614276565b5b6020830191508360018202830111156143725761437161427b565b5b9250929050565b600080602083850312156143905761438f613e4f565b5b600083013567ffffffffffffffff8111156143ae576143ad613e54565b5b6143ba85828601614323565b92509250509250929050565b600081519050919050565b600082825260208201905092915050565b60006143ed826143c6565b6143f781856143d1565b9350614407818560208601613f30565b61441081613f63565b840191505092915050565b60006040820190506144306000830185613eea565b818103602083015261444281846143e2565b90509392505050565b61445481613ede565b811461445f57600080fd5b50565b6000813590506144718161444b565b92915050565b6000806040838503121561448e5761448d613e4f565b5b600061449c858286016140a5565b92505060206144ad85828601614462565b9150509250929050565b600080fd5b7f4e487b7100000000000000000000000000000000000000000000000000000000600052604160045260246000fd5b6144f482613f63565b810181811067ffffffffffffffff82111715614513576145126144bc565b5b80604052505050565b6000614526613e45565b905061453282826144eb565b919050565b600067ffffffffffffffff821115614552576145516144bc565b5b61455b82613f63565b9050602081019050919050565b82818337600083830152505050565b600061458a61458584614537565b61451c565b9050828152602081018484840111156145a6576145a56144b7565b5b6145b1848285614568565b509392505050565b600082601f8301126145ce576145cd614271565b5b81356145de848260208601614577565b91505092915050565b6000806000806080858703121561460157614600613e4f565b5b600061460f878288016140a5565b9450506020614620878288016140a5565b935050604061463187828801613ff0565b925050606085013567ffffffffffffffff81111561465257614651613e54565b5b61465e878288016145b9565b91505092959194509250565b6000806040838503121561468157614680613e4f565b5b600061468f858286016140a5565b92505060206146a0858286016140a5565b9150509250929050565b600080604083850312156146c1576146c0613e4f565b5b60006146cf8582860161416e565b92505060206146e085828601614462565b9150509250929050565b7f4e487b7100000000000000000000000000000000000000000000000000000000600052602260045260246000fd5b6000600282049050600182168061473157607f821691505b602082108103614744576147436146ea565b5b50919050565b7f4552433732313a20617070726f76616c20746f2063757272656e74206f776e6560008201527f7200000000000000000000000000000000000000000000000000000000000000602082015250565b60006147a6602183613f1f565b91506147b18261474a565b604082019050919050565b600060208201905081810360008301526147d581614799565b9050919050565b7f4552433732313a20617070726f76652063616c6c6572206973206e6f7420746f60008201527f6b656e206f776e6572206e6f7220617070726f76656420666f7220616c6c0000602082015250565b6000614838603e83613f1f565b9150614843826147dc565b604082019050919050565b600060208201905081810360008301526148678161482b565b9050919050565b7f4e487b7100000000000000000000000000000000000000000000000000000000600052603260045260246000fd5b7f4e487b7100000000000000000000000000000000000000000000000000000000600052601160045260246000fd5b60006148d782613fcf565b91507fffffffffffffffffffffffffffffffffffffffffffffffffffffffffffffffff82036149095761490861489d565b5b600182019050919050565b7f4552433732313a2063616c6c6572206973206e6f7420746f6b656e206f776e6560008201527f72206e6f7220617070726f766564000000000000000000000000000000000000602082015250565b6000614970602e83613f1f565b915061497b82614914565b604082019050919050565b6000602082019050818103600083015261499f81614963565b9050919050565b7f416363657373436f6e74726f6c3a2063616e206f6e6c792072656e6f756e636560008201527f20726f6c657320666f722073656c660000000000000000000000000000000000602082015250565b6000614a02602f83613f1f565b9150614a0d826149a6565b604082019050919050565b60006020820190508181036000830152614a31816149f5565b9050919050565b7f5573657220616c7265616479206d696e74656400000000000000000000000000600082015250565b6000614a6e601383613f1f565b9150614a7982614a38565b602082019050919050565b60006020820190508181036000830152614a9d81614a61565b9050919050565b6000614aaf82613fcf565b9150614aba83613fcf565b9250827fffffffffffffffffffffffffffffffffffffffffffffffffffffffffffffffff03821115614aef57614aee61489d565b5b828201905092915050565b7f507572636861736520776f756c6420657863656564206d617820737570706c7960008201527f206f6620746f6b656e7300000000000000000000000000000000000000000000602082015250565b6000614b56602a83613f1f565b9150614b6182614afa565b604082019050919050565b60006020820190508181036000830152614b8581614b49565b9050919050565b6000614b9782613fcf565b9150614ba283613fcf565b925082821015614bb557614bb461489d565b5b828203905092915050565b600081905092915050565b7f68747470733a2f2f617262692e67617465732e7774662f6170692f766572696660008201527f793f616464726573733d00000000000000000000000000000000000000000000602082015250565b6000614c27602a83614bc0565b9150614c3282614bcb565b602a82019050919050565b6000614c4882613f14565b614c528185614bc0565b9350614c62818560208601613f30565b80840191505092915050565b7f266761746549643d000000000000000000000000000000000000000000000000815250565b6000614c9f82614c1a565b9150614cab8285614c3d565b9150614cb682614c6e565b600882019150614cc68284614c3d565b91508190509392505050565b7f4552433732313a20696e76616c696420746f6b656e2049440000000000000000600082015250565b6000614d08601883613f1f565b9150614d1382614cd2565b602082019050919050565b60006020820190508181036000830152614d3781614cfb565b9050919050565b7f4552433732313a2061646472657373207a65726f206973206e6f74206120766160008201527f6c6964206f776e65720000000000000000000000000000000000000000000000602082015250565b6000614d9a602983613f1f565b9150614da582614d3e565b604082019050919050565b60006020820190508181036000830152614dc981614d8d565b9050919050565b7f4d7573742062652070726f706f736564206f776e657200000000000000000000600082015250565b6000614e06601683613f1f565b9150614e1182614dd0565b602082019050919050565b60006020820190508181036000830152614e3581614df9565b9050919050565b600081519050614e4b81613fd9565b92915050565b600060208284031215614e6757614e66613e4f565b5b6000614e7584828501614e3c565b91505092915050565b6000604082019050614e936000830185614064565b614ea06020830184614247565b9392505050565b600081519050614eb68161444b565b92915050565b600060208284031215614ed257614ed1613e4f565b5b6000614ee084828501614ea7565b91505092915050565b7f556e61626c6520746f207472616e736665720000000000000000000000000000600082015250565b6000614f1f601283613f1f565b9150614f2a82614ee9565b602082019050919050565b60006020820190508181036000830152614f4e81614f12565b9050919050565b7f68747470733a2f2f6d656469612e6973746f636b70686f746f2e636f6d2f706860008201527f6f746f732f79656c6c6f772d7275626265722d6475636b2d666f722d6261746860208201527f2d74696d652d706963747572652d69643138353539303936353f6b3d3230266d60408201527f3d31383535393039363526733d3631327836313226773d3026683d745844694e60608201527f3737767a647647794375494e3374443849366b556a4132664e712d644b61566d60808201527f6f64587554413d0000000000000000000000000000000000000000000000000060a082015250565b600061504960a783613f1f565b915061505482614f55565b60c082019050919050565b60006040820190506150746000830184614064565b81810360208301526150858161503c565b905092915050565b60006150998285614c3d565b91506150a58284614c3d565b91508190509392505050565b60006150bc82613fcf565b91506150c783613fcf565b9250817fffffffffffffffffffffffffffffffffffffffffffffffffffffffffffffffff0483118215151615615100576150ff61489d565b5b828202905092915050565b7f536f75726365206d75737420626520746865206f7261636c65206f662074686560008201527f2072657175657374000000000000000000000000000000000000000000000000602082015250565b6000615167602883613f1f565b91506151728261510b565b604082019050919050565b600060208201905081810360008301526151968161515a565b9050919050565b60008190508160005260206000209050919050565b600081546151bf81614719565b6151c98186613f1f565b945060018216600081146151e457600181146151f657615229565b60ff1983168652602086019350615229565b6151ff8561519d565b60005b8381101561522157815481890152600182019150602081019050615202565b808801955050505b50505092915050565b60006040820190506152476000830185613eea565b818103602083015261525981846151b2565b90509392505050565b7f4552433732313a207472616e736665722066726f6d20696e636f72726563742060008201527f6f776e6572000000000000000000000000000000000000000000000000000000602082015250565b60006152be602583613f1f565b91506152c982615262565b604082019050919050565b600060208201905081810360008301526152ed816152b1565b9050919050565b7f4552433732313a207472616e7366657220746f20746865207a65726f2061646460008201527f7265737300000000000000000000000000000000000000000000000000000000602082015250565b6000615350602483613f1f565b915061535b826152f4565b604082019050919050565b6000602082019050818103600083015261537f81615343565b9050919050565b60008160011c9050919050565b6000808291508390505b60018511156153dd578086048111156153b9576153b861489d565b5b60018516156153c85780820291505b80810290506153d685615386565b945061539d565b94509492505050565b6000826153f657600190506154b2565b8161540457600090506154b2565b816001811461541a576002811461542457615453565b60019150506154b2565b60ff8411156154365761543561489d565b5b8360020a91508482111561544d5761544c61489d565b5b506154b2565b5060208310610133831016604e8410600b84101617156154885782820a9050838111156154835761548261489d565b5b6154b2565b6154958484846001615393565b925090508184048111156154ac576154ab61489d565b5b81810290505b9392505050565b60006154c482613fcf565b91506154cf83613fcf565b92506154fc7fffffffffffffffffffffffffffffffffffffffffffffffffffffffffffffffff84846153e6565b905092915050565b7f4e487b7100000000000000000000000000000000000000000000000000000000600052601260045260246000fd5b600061553e82613fcf565b915061554983613fcf565b92508261555957615558615504565b5b828204905092915050565b600060ff82169050919050565b600061557c82615564565b915061558783615564565b92508261559757615596615504565b5b828204905092915050565b60006155ad82615564565b91506155b883615564565b92508160ff04831182151516156155d2576155d161489d565b5b828202905092915050565b60006155e882615564565b91506155f383615564565b9250828210156156065761560561489d565b5b828203905092915050565b600061561c82613fcf565b915061562783613fcf565b92508261563757615636615504565b5b828206905092915050565b7f4f6e6c792063616c6c61626c65206279206f776e657200000000000000000000600082015250565b6000615678601683613f1f565b915061568382615642565b602082019050919050565b600060208201905081810360008301526156a78161566b565b9050919050565b7f4552433732313a20617070726f766520746f2063616c6c657200000000000000600082015250565b60006156e4601983613f1f565b91506156ef826156ae565b602082019050919050565b60006020820190508181036000830152615713816156d7565b9050919050565b7f4552433732313a207472616e7366657220746f206e6f6e20455243373231526560008201527f63656976657220696d706c656d656e7465720000000000000000000000000000602082015250565b6000615776603283613f1f565b91506157818261571a565b604082019050919050565b600060208201905081810360008301526157a581615769565b9050919050565b7f43616e6e6f74207472616e7366657220746f2073656c66000000000000000000600082015250565b60006157e2601783613f1f565b91506157ed826157ac565b602082019050919050565b60006020820190508181036000830152615811816157d5565b9050919050565b7f416363657373436f6e74726f6c3a206163636f756e7420000000000000000000600082015250565b600061584e601783614bc0565b915061585982615818565b601782019050919050565b7f206973206d697373696e6720726f6c6520000000000000000000000000000000600082015250565b600061589a601183614bc0565b91506158a582615864565b601182019050919050565b60006158bb82615841565b91506158c78285614c3d565b91506158d28261588d565b91506158de8284614c3d565b91508190509392505050565b60006158f582615564565b915061590083615564565b92508260ff038211156159165761591561489d565b5b828201905092915050565b60006080820190506159366000830187614064565b6159436020830186614064565b6159506040830185614247565b818103606083015261596281846143e2565b905095945050505050565b60008151905061597c81613e85565b92915050565b60006020828403121561599857615997613e4f565b5b60006159a68482850161596d565b91505092915050565b6159b881613e59565b82525050565b6000610100820190506159d4600083018b614064565b6159e1602083018a614247565b6159ee60408301896141b0565b6159fb6060830188614064565b615a0860808301876159af565b615a1560a0830186614247565b615a2260c0830185614247565b81810360e0830152615a3481846143e2565b90509998505050505050505050565b6000615a4e82613fcf565b915060008203615a6157615a6061489d565b5b600182039050919050565b7f537472696e67733a20686578206c656e67746820696e73756666696369656e74600082015250565b6000615aa2602083613f1f565b9150615aad82615a6c565b602082019050919050565b60006020820190508181036000830152615ad181615a95565b9050919050565b7f4552433732313a206d696e7420746f20746865207a65726f2061646472657373600082015250565b6000615b0e602083613f1f565b9150615b1982615ad8565b602082019050919050565b60006020820190508181036000830152615b3d81615b01565b9050919050565b7f4552433732313a20746f6b656e20616c7265616479206d696e74656400000000600082015250565b6000615b7a601c83613f1f565b9150615b8582615b44565b602082019050919050565b60006020820190508181036000830152615ba981615b6d565b9050919050565b6000819050919050565b6000615bd5615bd0615bcb84614032565b615bb0565b614032565b9050919050565b6000615be782615bba565b9050919050565b6000615bf982615bdc565b9050919050565b60008160601b9050919050565b6000615c1882615c00565b9050919050565b6000615c2a82615c0d565b9050919050565b615c42615c3d82615bee565b615c1f565b82525050565b6000819050919050565b615c63615c5e82613fcf565b615c48565b82525050565b6000615c758285615c31565b601482019150615c858284615c52565b6020820191508190509392505050565b6000606082019050615caa6000830186614064565b615cb76020830185614247565b8181036040830152615cc981846143e2565b9050949350505050565b7f756e61626c6520746f207472616e73666572416e6443616c6c20746f206f726160008201527f636c650000000000000000000000000000000000000000000000000000000000602082015250565b6000615d2f602383613f1f565b9150615d3a82615cd3565b604082019050919050565b60006020820190508181036000830152615d5e81615d22565b905091905056fea2646970667358221220efe363b0ebe21b0638785d2fa66323ad03c2eebf22e4cecdca20c66786ffd21964736f6c634300080e0033",
  "devdoc": {
    "kind": "dev",
    "methods": {
      "approve(address,uint256)": {
        "details": "See {IERC721-approve}."
      },
      "balanceOf(address)": {
        "details": "See {IERC721-balanceOf}."
      },
      "getApproved(uint256)": {
        "details": "See {IERC721-getApproved}."
      },
      "getRoleAdmin(bytes32)": {
        "details": "Returns the admin role that controls `role`. See {grantRole} and {revokeRole}. To change a role's admin, use {_setRoleAdmin}."
      },
      "grantRole(bytes32,address)": {
        "details": "Grants `role` to `account`. If `account` had not been already granted `role`, emits a {RoleGranted} event. Requirements: - the caller must have ``role``'s admin role. May emit a {RoleGranted} event."
      },
      "hasRole(bytes32,address)": {
        "details": "Returns `true` if `account` has been granted `role`."
      },
      "isApprovedForAll(address,address)": {
        "details": "See {IERC721-isApprovedForAll}."
      },
      "name()": {
        "details": "See {IERC721Metadata-name}."
      },
      "ownerOf(uint256)": {
        "details": "See {IERC721-ownerOf}."
      },
      "renounceRole(bytes32,address)": {
        "details": "Revokes `role` from the calling account. Roles are often managed via {grantRole} and {revokeRole}: this function's purpose is to provide a mechanism for accounts to lose their privileges if they are compromised (such as when a trusted device is misplaced). If the calling account had been revoked `role`, emits a {RoleRevoked} event. Requirements: - the caller must be `account`. May emit a {RoleRevoked} event."
      },
      "revokeRole(bytes32,address)": {
        "details": "Revokes `role` from `account`. If `account` had been granted `role`, emits a {RoleRevoked} event. Requirements: - the caller must have ``role``'s admin role. May emit a {RoleRevoked} event."
      },
      "safeTransferFrom(address,address,uint256)": {
        "details": "See {IERC721-safeTransferFrom}."
      },
      "safeTransferFrom(address,address,uint256,bytes)": {
        "details": "See {IERC721-safeTransferFrom}."
      },
      "setApprovalForAll(address,bool)": {
        "details": "See {IERC721-setApprovalForAll}."
      },
      "symbol()": {
        "details": "See {IERC721Metadata-symbol}."
      },
      "tokenURI(uint256)": {
        "details": "See {IERC721Metadata-tokenURI}."
      },
      "transferFrom(address,address,uint256)": {
        "details": "See {IERC721-transferFrom}."
      }
    },
    "version": 1
  },
  "userdoc": {
    "kind": "user",
    "methods": {
      "acceptOwnership()": {
        "notice": "Allows an ownership transfer to be completed by the recipient."
      },
      "interval()": {
        "notice": "Use an interval in seconds and a timestamp to slow execution of Upkeep"
      },
      "owner()": {
        "notice": "Get the current owner"
      },
      "transferOwnership(address)": {
        "notice": "Allows an owner to begin transferring ownership to a new address, pending."
      },
      "withdrawLink()": {
        "notice": "Allow withdraw of Link tokens from the contract"
      }
    },
    "version": 1
  },
  "storageLayout": {
    "storage": [
      {
        "astId": 2963,
        "contract": "contracts/Arbigates.sol:Arbigates",
        "label": "_name",
        "offset": 0,
        "slot": "0",
        "type": "t_string_storage"
      },
      {
        "astId": 2965,
        "contract": "contracts/Arbigates.sol:Arbigates",
        "label": "_symbol",
        "offset": 0,
        "slot": "1",
        "type": "t_string_storage"
      },
      {
        "astId": 2969,
        "contract": "contracts/Arbigates.sol:Arbigates",
        "label": "_owners",
        "offset": 0,
        "slot": "2",
        "type": "t_mapping(t_uint256,t_address)"
      },
      {
        "astId": 2973,
        "contract": "contracts/Arbigates.sol:Arbigates",
        "label": "_balances",
        "offset": 0,
        "slot": "3",
        "type": "t_mapping(t_address,t_uint256)"
      },
      {
        "astId": 2977,
        "contract": "contracts/Arbigates.sol:Arbigates",
        "label": "_tokenApprovals",
        "offset": 0,
        "slot": "4",
        "type": "t_mapping(t_uint256,t_address)"
      },
      {
        "astId": 2983,
        "contract": "contracts/Arbigates.sol:Arbigates",
        "label": "_operatorApprovals",
        "offset": 0,
        "slot": "5",
        "type": "t_mapping(t_address,t_mapping(t_address,t_bool))"
      },
      {
        "astId": 2456,
        "contract": "contracts/Arbigates.sol:Arbigates",
        "label": "_roles",
        "offset": 0,
        "slot": "6",
        "type": "t_mapping(t_bytes32,t_struct(RoleData)2451_storage)"
      },
      {
        "astId": 358,
        "contract": "contracts/Arbigates.sol:Arbigates",
        "label": "s_ens",
        "offset": 0,
        "slot": "7",
        "type": "t_contract(ENSInterface)1214"
      },
      {
        "astId": 360,
        "contract": "contracts/Arbigates.sol:Arbigates",
        "label": "s_ensNode",
        "offset": 0,
        "slot": "8",
        "type": "t_bytes32"
      },
      {
        "astId": 363,
        "contract": "contracts/Arbigates.sol:Arbigates",
        "label": "s_link",
        "offset": 0,
        "slot": "9",
        "type": "t_contract(LinkTokenInterface)1309"
      },
      {
        "astId": 366,
        "contract": "contracts/Arbigates.sol:Arbigates",
        "label": "s_oracle",
        "offset": 0,
        "slot": "10",
        "type": "t_contract(OperatorInterface)1389"
      },
      {
        "astId": 369,
        "contract": "contracts/Arbigates.sol:Arbigates",
        "label": "s_requestCount",
        "offset": 0,
        "slot": "11",
        "type": "t_uint256"
      },
      {
        "astId": 373,
        "contract": "contracts/Arbigates.sol:Arbigates",
        "label": "s_pendingRequests",
        "offset": 0,
        "slot": "12",
        "type": "t_mapping(t_bytes32,t_address)"
      },
      {
        "astId": 928,
        "contract": "contracts/Arbigates.sol:Arbigates",
        "label": "s_owner",
        "offset": 0,
        "slot": "13",
        "type": "t_address"
      },
      {
        "astId": 930,
        "contract": "contracts/Arbigates.sol:Arbigates",
        "label": "s_pendingOwner",
        "offset": 0,
        "slot": "14",
        "type": "t_address"
      },
      {
        "astId": 4802,
        "contract": "contracts/Arbigates.sol:Arbigates",
        "label": "volume",
        "offset": 0,
        "slot": "15",
        "type": "t_uint256"
      },
      {
        "astId": 4804,
        "contract": "contracts/Arbigates.sol:Arbigates",
        "label": "jobId",
        "offset": 0,
        "slot": "16",
        "type": "t_bytes32"
      },
      {
        "astId": 4806,
        "contract": "contracts/Arbigates.sol:Arbigates",
        "label": "fee",
        "offset": 0,
        "slot": "17",
        "type": "t_uint256"
      },
      {
        "astId": 4808,
        "contract": "contracts/Arbigates.sol:Arbigates",
        "label": "gateID",
        "offset": 0,
        "slot": "18",
        "type": "t_uint256"
      },
      {
        "astId": 4810,
        "contract": "contracts/Arbigates.sol:Arbigates",
        "label": "approved",
        "offset": 0,
        "slot": "19",
        "type": "t_bool"
      },
      {
        "astId": 4821,
        "contract": "contracts/Arbigates.sol:Arbigates",
        "label": "MintingContractAddress",
        "offset": 1,
        "slot": "19",
        "type": "t_address"
      },
      {
        "astId": 4823,
        "contract": "contracts/Arbigates.sol:Arbigates",
        "label": "counter",
        "offset": 0,
        "slot": "20",
        "type": "t_uint256"
      },
      {
        "astId": 4828,
        "contract": "contracts/Arbigates.sol:Arbigates",
        "label": "lastTimeStamp",
        "offset": 0,
        "slot": "21",
        "type": "t_uint256"
      },
      {
        "astId": 4831,
        "contract": "contracts/Arbigates.sol:Arbigates",
        "label": "addressesToVerify",
        "offset": 0,
        "slot": "22",
        "type": "t_array(t_address)dyn_storage"
      },
      {
        "astId": 4835,
        "contract": "contracts/Arbigates.sol:Arbigates",
        "label": "responseID",
        "offset": 0,
        "slot": "23",
        "type": "t_mapping(t_bytes32,t_address)"
      },
      {
        "astId": 4974,
        "contract": "contracts/Arbigates.sol:Arbigates",
        "label": "lastChecked",
        "offset": 0,
        "slot": "24",
        "type": "t_string_storage"
      },
      {
        "astId": 4633,
        "contract": "contracts/Arbigates.sol:Arbigates",
        "label": "baseTokenURI",
        "offset": 0,
        "slot": "25",
        "type": "t_string_storage"
      },
      {
        "astId": 4636,
        "contract": "contracts/Arbigates.sol:Arbigates",
        "label": "MAX_TOKENS",
        "offset": 0,
        "slot": "26",
        "type": "t_uint256"
      },
      {
        "astId": 4640,
        "contract": "contracts/Arbigates.sol:Arbigates",
        "label": "minted",
        "offset": 0,
        "slot": "27",
        "type": "t_mapping(t_address,t_bool)"
      },
      {
        "astId": 4647,
        "contract": "contracts/Arbigates.sol:Arbigates",
        "label": "_tokenIdCounter",
        "offset": 0,
        "slot": "28",
        "type": "t_struct(Counter)4288_storage"
      }
    ],
    "types": {
      "t_address": {
        "encoding": "inplace",
        "label": "address",
        "numberOfBytes": "20"
      },
      "t_array(t_address)dyn_storage": {
        "base": "t_address",
        "encoding": "dynamic_array",
        "label": "address[]",
        "numberOfBytes": "32"
      },
      "t_bool": {
        "encoding": "inplace",
        "label": "bool",
        "numberOfBytes": "1"
      },
      "t_bytes32": {
        "encoding": "inplace",
        "label": "bytes32",
        "numberOfBytes": "32"
      },
      "t_contract(ENSInterface)1214": {
        "encoding": "inplace",
        "label": "contract ENSInterface",
        "numberOfBytes": "20"
      },
      "t_contract(LinkTokenInterface)1309": {
        "encoding": "inplace",
        "label": "contract LinkTokenInterface",
        "numberOfBytes": "20"
      },
      "t_contract(OperatorInterface)1389": {
        "encoding": "inplace",
        "label": "contract OperatorInterface",
        "numberOfBytes": "20"
      },
      "t_mapping(t_address,t_bool)": {
        "encoding": "mapping",
        "key": "t_address",
        "label": "mapping(address => bool)",
        "numberOfBytes": "32",
        "value": "t_bool"
      },
      "t_mapping(t_address,t_mapping(t_address,t_bool))": {
        "encoding": "mapping",
        "key": "t_address",
        "label": "mapping(address => mapping(address => bool))",
        "numberOfBytes": "32",
        "value": "t_mapping(t_address,t_bool)"
      },
      "t_mapping(t_address,t_uint256)": {
        "encoding": "mapping",
        "key": "t_address",
        "label": "mapping(address => uint256)",
        "numberOfBytes": "32",
        "value": "t_uint256"
      },
      "t_mapping(t_bytes32,t_address)": {
        "encoding": "mapping",
        "key": "t_bytes32",
        "label": "mapping(bytes32 => address)",
        "numberOfBytes": "32",
        "value": "t_address"
      },
      "t_mapping(t_bytes32,t_struct(RoleData)2451_storage)": {
        "encoding": "mapping",
        "key": "t_bytes32",
        "label": "mapping(bytes32 => struct AccessControl.RoleData)",
        "numberOfBytes": "32",
        "value": "t_struct(RoleData)2451_storage"
      },
      "t_mapping(t_uint256,t_address)": {
        "encoding": "mapping",
        "key": "t_uint256",
        "label": "mapping(uint256 => address)",
        "numberOfBytes": "32",
        "value": "t_address"
      },
      "t_string_storage": {
        "encoding": "bytes",
        "label": "string",
        "numberOfBytes": "32"
      },
      "t_struct(Counter)4288_storage": {
        "encoding": "inplace",
        "label": "struct Counters.Counter",
        "members": [
          {
            "astId": 4287,
            "contract": "contracts/Arbigates.sol:Arbigates",
            "label": "_value",
            "offset": 0,
            "slot": "0",
            "type": "t_uint256"
          }
        ],
        "numberOfBytes": "32"
      },
      "t_struct(RoleData)2451_storage": {
        "encoding": "inplace",
        "label": "struct AccessControl.RoleData",
        "members": [
          {
            "astId": 2448,
            "contract": "contracts/Arbigates.sol:Arbigates",
            "label": "members",
            "offset": 0,
            "slot": "0",
            "type": "t_mapping(t_address,t_bool)"
          },
          {
            "astId": 2450,
            "contract": "contracts/Arbigates.sol:Arbigates",
            "label": "adminRole",
            "offset": 0,
            "slot": "1",
            "type": "t_bytes32"
          }
        ],
        "numberOfBytes": "64"
      },
      "t_uint256": {
        "encoding": "inplace",
        "label": "uint256",
        "numberOfBytes": "32"
      }
    }
  }
}