{
  "address": "0xef20c41f9a71742568329Cc43494f0cD7ec8d122",
  "abi": [
    {
      "inputs": [
        {
          "internalType": "uint256",
          "name": "_gateId",
          "type": "uint256"
        },
        {
          "internalType": "string",
          "name": "_baseUri",
          "type": "string"
        },
        {
          "internalType": "uint256",
          "name": "updateInterval",
          "type": "uint256"
        }
      ],
      "stateMutability": "nonpayable",
      "type": "constructor"
    },
    {
      "anonymous": false,
      "inputs": [
        {
          "indexed": true,
          "internalType": "address",
          "name": "owner",
          "type": "address"
        },
        {
          "indexed": true,
          "internalType": "address",
          "name": "approved",
          "type": "address"
        },
        {
          "indexed": true,
          "internalType": "uint256",
          "name": "tokenId",
          "type": "uint256"
        }
      ],
      "name": "Approval",
      "type": "event"
    },
    {
      "anonymous": false,
      "inputs": [
        {
          "indexed": true,
          "internalType": "address",
          "name": "owner",
          "type": "address"
        },
        {
          "indexed": true,
          "internalType": "address",
          "name": "operator",
          "type": "address"
        },
        {
          "indexed": false,
          "internalType": "bool",
          "name": "approved",
          "type": "bool"
        }
      ],
      "name": "ApprovalForAll",
      "type": "event"
    },
    {
      "anonymous": false,
      "inputs": [
        {
          "indexed": true,
          "internalType": "bytes32",
          "name": "id",
          "type": "bytes32"
        }
      ],
      "name": "ChainlinkCancelled",
      "type": "event"
    },
    {
      "anonymous": false,
      "inputs": [
        {
          "indexed": true,
          "internalType": "bytes32",
          "name": "id",
          "type": "bytes32"
        }
      ],
      "name": "ChainlinkFulfilled",
      "type": "event"
    },
    {
      "anonymous": false,
      "inputs": [
        {
          "indexed": true,
          "internalType": "bytes32",
          "name": "id",
          "type": "bytes32"
        }
      ],
      "name": "ChainlinkRequested",
      "type": "event"
    },
    {
      "anonymous": false,
      "inputs": [
        {
          "indexed": true,
          "internalType": "address",
          "name": "from",
          "type": "address"
        },
        {
          "indexed": true,
          "internalType": "address",
          "name": "to",
          "type": "address"
        }
      ],
      "name": "OwnershipTransferRequested",
      "type": "event"
    },
    {
      "anonymous": false,
      "inputs": [
        {
          "indexed": true,
          "internalType": "address",
          "name": "from",
          "type": "address"
        },
        {
          "indexed": true,
          "internalType": "address",
          "name": "to",
          "type": "address"
        }
      ],
      "name": "OwnershipTransferred",
      "type": "event"
    },
    {
      "anonymous": false,
      "inputs": [
        {
          "indexed": true,
          "internalType": "bytes32",
          "name": "requestId",
          "type": "bytes32"
        },
        {
          "indexed": false,
          "internalType": "bool",
          "name": "approved",
          "type": "bool"
        },
        {
          "indexed": false,
          "internalType": "string",
          "name": "lastChecked",
          "type": "string"
        }
      ],
      "name": "RequestVolume",
      "type": "event"
    },
    {
      "anonymous": false,
      "inputs": [
        {
          "indexed": true,
          "internalType": "bytes32",
          "name": "role",
          "type": "bytes32"
        },
        {
          "indexed": true,
          "internalType": "bytes32",
          "name": "previousAdminRole",
          "type": "bytes32"
        },
        {
          "indexed": true,
          "internalType": "bytes32",
          "name": "newAdminRole",
          "type": "bytes32"
        }
      ],
      "name": "RoleAdminChanged",
      "type": "event"
    },
    {
      "anonymous": false,
      "inputs": [
        {
          "indexed": true,
          "internalType": "bytes32",
          "name": "role",
          "type": "bytes32"
        },
        {
          "indexed": true,
          "internalType": "address",
          "name": "account",
          "type": "address"
        },
        {
          "indexed": true,
          "internalType": "address",
          "name": "sender",
          "type": "address"
        }
      ],
      "name": "RoleGranted",
      "type": "event"
    },
    {
      "anonymous": false,
      "inputs": [
        {
          "indexed": true,
          "internalType": "bytes32",
          "name": "role",
          "type": "bytes32"
        },
        {
          "indexed": true,
          "internalType": "address",
          "name": "account",
          "type": "address"
        },
        {
          "indexed": true,
          "internalType": "address",
          "name": "sender",
          "type": "address"
        }
      ],
      "name": "RoleRevoked",
      "type": "event"
    },
    {
      "anonymous": false,
      "inputs": [
        {
          "indexed": true,
          "internalType": "address",
          "name": "from",
          "type": "address"
        },
        {
          "indexed": true,
          "internalType": "address",
          "name": "to",
          "type": "address"
        },
        {
          "indexed": true,
          "internalType": "uint256",
          "name": "tokenId",
          "type": "uint256"
        }
      ],
      "name": "Transfer",
      "type": "event"
    },
    {
      "inputs": [],
      "name": "DEFAULT_ADMIN_ROLE",
      "outputs": [
        {
          "internalType": "bytes32",
          "name": "",
          "type": "bytes32"
        }
      ],
      "stateMutability": "view",
      "type": "function"
    },
    {
      "inputs": [],
      "name": "MAX_TOKENS",
      "outputs": [
        {
          "internalType": "uint256",
          "name": "",
          "type": "uint256"
        }
      ],
      "stateMutability": "view",
      "type": "function"
    },
    {
      "inputs": [],
      "name": "acceptOwnership",
      "outputs": [],
      "stateMutability": "nonpayable",
      "type": "function"
    },
    {
      "inputs": [
        {
          "internalType": "address",
          "name": "_newAddress",
          "type": "address"
        }
      ],
      "name": "addAddress",
      "outputs": [],
      "stateMutability": "nonpayable",
      "type": "function"
    },
    {
      "inputs": [
        {
          "internalType": "uint256",
          "name": "",
          "type": "uint256"
        }
      ],
      "name": "addressesToVerify",
      "outputs": [
        {
          "internalType": "address",
          "name": "",
          "type": "address"
        }
      ],
      "stateMutability": "view",
      "type": "function"
    },
    {
      "inputs": [
        {
          "internalType": "address",
          "name": "to",
          "type": "address"
        },
        {
          "internalType": "uint256",
          "name": "tokenId",
          "type": "uint256"
        }
      ],
      "name": "approve",
      "outputs": [],
      "stateMutability": "nonpayable",
      "type": "function"
    },
    {
      "inputs": [],
      "name": "approved",
      "outputs": [
        {
          "internalType": "bool",
          "name": "",
          "type": "bool"
        }
      ],
      "stateMutability": "view",
      "type": "function"
    },
    {
      "inputs": [
        {
          "internalType": "address",
          "name": "owner",
          "type": "address"
        }
      ],
      "name": "balanceOf",
      "outputs": [
        {
          "internalType": "uint256",
          "name": "",
          "type": "uint256"
        }
      ],
      "stateMutability": "view",
      "type": "function"
    },
    {
      "inputs": [],
      "name": "batchVerify",
      "outputs": [],
      "stateMutability": "nonpayable",
      "type": "function"
    },
    {
      "inputs": [
        {
          "internalType": "address",
          "name": "_wallet",
          "type": "address"
        },
        {
          "internalType": "uint256",
          "name": "_gateId",
          "type": "uint256"
        }
      ],
      "name": "buildUrl",
      "outputs": [
        {
          "internalType": "string",
          "name": "",
          "type": "string"
        }
      ],
      "stateMutability": "view",
      "type": "function"
    },
    {
      "inputs": [
        {
          "internalType": "bytes",
          "name": "",
          "type": "bytes"
        }
      ],
      "name": "checkUpkeep",
      "outputs": [
        {
          "internalType": "bool",
          "name": "upkeepNeeded",
          "type": "bool"
        },
        {
          "internalType": "bytes",
          "name": "",
          "type": "bytes"
        }
      ],
      "stateMutability": "view",
      "type": "function"
    },
    {
      "inputs": [],
      "name": "counter",
      "outputs": [
        {
          "internalType": "uint256",
          "name": "",
          "type": "uint256"
        }
      ],
      "stateMutability": "view",
      "type": "function"
    },
    {
      "inputs": [
        {
          "internalType": "bytes32",
          "name": "_requestId",
          "type": "bytes32"
        },
        {
          "internalType": "bool",
          "name": "_approved",
          "type": "bool"
        }
      ],
      "name": "fulfill",
      "outputs": [],
      "stateMutability": "nonpayable",
      "type": "function"
    },
    {
      "inputs": [
        {
          "internalType": "uint256",
          "name": "tokenId",
          "type": "uint256"
        }
      ],
      "name": "getApproved",
      "outputs": [
        {
          "internalType": "address",
          "name": "",
          "type": "address"
        }
      ],
      "stateMutability": "view",
      "type": "function"
    },
    {
      "inputs": [
        {
          "internalType": "bytes32",
          "name": "role",
          "type": "bytes32"
        }
      ],
      "name": "getRoleAdmin",
      "outputs": [
        {
          "internalType": "bytes32",
          "name": "",
          "type": "bytes32"
        }
      ],
      "stateMutability": "view",
      "type": "function"
    },
    {
      "inputs": [
        {
          "internalType": "bytes32",
          "name": "role",
          "type": "bytes32"
        },
        {
          "internalType": "address",
          "name": "account",
          "type": "address"
        }
      ],
      "name": "grantRole",
      "outputs": [],
      "stateMutability": "nonpayable",
      "type": "function"
    },
    {
      "inputs": [
        {
          "internalType": "bytes32",
          "name": "role",
          "type": "bytes32"
        },
        {
          "internalType": "address",
          "name": "account",
          "type": "address"
        }
      ],
      "name": "hasRole",
      "outputs": [
        {
          "internalType": "bool",
          "name": "",
          "type": "bool"
        }
      ],
      "stateMutability": "view",
      "type": "function"
    },
    {
      "inputs": [],
      "name": "interval",
      "outputs": [
        {
          "internalType": "uint256",
          "name": "",
          "type": "uint256"
        }
      ],
      "stateMutability": "view",
      "type": "function"
    },
    {
      "inputs": [
        {
          "internalType": "address",
          "name": "owner",
          "type": "address"
        },
        {
          "internalType": "address",
          "name": "operator",
          "type": "address"
        }
      ],
      "name": "isApprovedForAll",
      "outputs": [
        {
          "internalType": "bool",
          "name": "",
          "type": "bool"
        }
      ],
      "stateMutability": "view",
      "type": "function"
    },
    {
      "inputs": [],
      "name": "lastChecked",
      "outputs": [
        {
          "internalType": "string",
          "name": "",
          "type": "string"
        }
      ],
      "stateMutability": "view",
      "type": "function"
    },
    {
      "inputs": [],
      "name": "lastTimeStamp",
      "outputs": [
        {
          "internalType": "uint256",
          "name": "",
          "type": "uint256"
        }
      ],
      "stateMutability": "view",
      "type": "function"
    },
    {
      "inputs": [],
      "name": "name",
      "outputs": [
        {
          "internalType": "string",
          "name": "",
          "type": "string"
        }
      ],
      "stateMutability": "view",
      "type": "function"
    },
    {
      "inputs": [],
      "name": "owner",
      "outputs": [
        {
          "internalType": "address",
          "name": "",
          "type": "address"
        }
      ],
      "stateMutability": "view",
      "type": "function"
    },
    {
      "inputs": [
        {
          "internalType": "uint256",
          "name": "tokenId",
          "type": "uint256"
        }
      ],
      "name": "ownerOf",
      "outputs": [
        {
          "internalType": "address",
          "name": "",
          "type": "address"
        }
      ],
      "stateMutability": "view",
      "type": "function"
    },
    {
      "inputs": [
        {
          "internalType": "bytes",
          "name": "",
          "type": "bytes"
        }
      ],
      "name": "performUpkeep",
      "outputs": [],
      "stateMutability": "nonpayable",
      "type": "function"
    },
    {
      "inputs": [
        {
          "internalType": "bytes32",
          "name": "role",
          "type": "bytes32"
        },
        {
          "internalType": "address",
          "name": "account",
          "type": "address"
        }
      ],
      "name": "renounceRole",
      "outputs": [],
      "stateMutability": "nonpayable",
      "type": "function"
    },
    {
      "inputs": [
        {
          "internalType": "address",
          "name": "_wallet",
          "type": "address"
        },
        {
          "internalType": "uint256",
          "name": "_gateId",
          "type": "uint256"
        }
      ],
      "name": "requestVolumeData",
      "outputs": [
        {
          "internalType": "bytes32",
          "name": "requestId",
          "type": "bytes32"
        }
      ],
      "stateMutability": "nonpayable",
      "type": "function"
    },
    {
      "inputs": [
        {
          "internalType": "bytes32",
          "name": "role",
          "type": "bytes32"
        },
        {
          "internalType": "address",
          "name": "account",
          "type": "address"
        }
      ],
      "name": "revokeRole",
      "outputs": [],
      "stateMutability": "nonpayable",
      "type": "function"
    },
    {
      "inputs": [
        {
          "internalType": "address",
          "name": "user",
          "type": "address"
        }
      ],
      "name": "safeMint",
      "outputs": [],
      "stateMutability": "nonpayable",
      "type": "function"
    },
    {
      "inputs": [
        {
          "internalType": "address",
          "name": "from",
          "type": "address"
        },
        {
          "internalType": "address",
          "name": "to",
          "type": "address"
        },
        {
          "internalType": "uint256",
          "name": "tokenId",
          "type": "uint256"
        }
      ],
      "name": "safeTransferFrom",
      "outputs": [],
      "stateMutability": "nonpayable",
      "type": "function"
    },
    {
      "inputs": [
        {
          "internalType": "address",
          "name": "from",
          "type": "address"
        },
        {
          "internalType": "address",
          "name": "to",
          "type": "address"
        },
        {
          "internalType": "uint256",
          "name": "tokenId",
          "type": "uint256"
        },
        {
          "internalType": "bytes",
          "name": "data",
          "type": "bytes"
        }
      ],
      "name": "safeTransferFrom",
      "outputs": [],
      "stateMutability": "nonpayable",
      "type": "function"
    },
    {
      "inputs": [
        {
          "internalType": "address",
          "name": "operator",
          "type": "address"
        },
        {
          "internalType": "bool",
          "name": "approved",
          "type": "bool"
        }
      ],
      "name": "setApprovalForAll",
      "outputs": [],
      "stateMutability": "nonpayable",
      "type": "function"
    },
    {
      "inputs": [
        {
          "internalType": "string",
          "name": "_newBaseURI",
          "type": "string"
        }
      ],
      "name": "setBaseURI",
      "outputs": [],
      "stateMutability": "nonpayable",
      "type": "function"
    },
    {
      "inputs": [
        {
          "internalType": "uint256",
          "name": "_gateId",
          "type": "uint256"
        }
      ],
      "name": "setGate",
      "outputs": [],
      "stateMutability": "nonpayable",
      "type": "function"
    },
    {
      "inputs": [
        {
          "internalType": "address",
          "name": "_newContract",
          "type": "address"
        }
      ],
      "name": "setMintingContract",
      "outputs": [],
      "stateMutability": "nonpayable",
      "type": "function"
    },
    {
      "inputs": [
        {
          "internalType": "bytes4",
          "name": "interfaceId",
          "type": "bytes4"
        }
      ],
      "name": "supportsInterface",
      "outputs": [
        {
          "internalType": "bool",
          "name": "",
          "type": "bool"
        }
      ],
      "stateMutability": "view",
      "type": "function"
    },
    {
      "inputs": [],
      "name": "symbol",
      "outputs": [
        {
          "internalType": "string",
          "name": "",
          "type": "string"
        }
      ],
      "stateMutability": "view",
      "type": "function"
    },
    {
      "inputs": [
        {
          "internalType": "uint256",
          "name": "tokenId",
          "type": "uint256"
        }
      ],
      "name": "tokenURI",
      "outputs": [
        {
          "internalType": "string",
          "name": "",
          "type": "string"
        }
      ],
      "stateMutability": "view",
      "type": "function"
    },
    {
      "inputs": [
        {
          "internalType": "address",
          "name": "from",
          "type": "address"
        },
        {
          "internalType": "address",
          "name": "to",
          "type": "address"
        },
        {
          "internalType": "uint256",
          "name": "tokenId",
          "type": "uint256"
        }
      ],
      "name": "transferFrom",
      "outputs": [],
      "stateMutability": "nonpayable",
      "type": "function"
    },
    {
      "inputs": [
        {
          "internalType": "address",
          "name": "to",
          "type": "address"
        }
      ],
      "name": "transferOwnership",
      "outputs": [],
      "stateMutability": "nonpayable",
      "type": "function"
    },
    {
      "inputs": [
        {
          "internalType": "uint256",
          "name": "_value",
          "type": "uint256"
        }
      ],
      "name": "uintToString",
      "outputs": [
        {
          "internalType": "string",
          "name": "",
          "type": "string"
        }
      ],
      "stateMutability": "pure",
      "type": "function"
    },
    {
      "inputs": [],
      "name": "volume",
      "outputs": [
        {
          "internalType": "uint256",
          "name": "",
          "type": "uint256"
        }
      ],
      "stateMutability": "view",
      "type": "function"
    },
    {
      "inputs": [],
      "name": "withdrawAll",
      "outputs": [],
      "stateMutability": "nonpayable",
      "type": "function"
    },
    {
      "inputs": [],
      "name": "withdrawLink",
      "outputs": [],
      "stateMutability": "nonpayable",
      "type": "function"
    }
  ],
  "transactionHash": "0x8cfbd84379340d5fa3e3748cb47aa0d54d7d4ab428e7a989d173d850c4abd9aa",
  "args": [
    4,
    "https://gateway.pinata.cloud/ipfs/QmfK4jMsx5qZ3fBiixfYawRQsrCGrGjgMXKbYzkovF7Qwg/",
    60000
  ],
  "numDeployments": 1,
  "solcInputHash": "9e243e960067fc8905e8298b43c9f97b",
  "bytecode": "0x60a06040526001600b55735cb675e6e9e947a1c40b3f83b673c6a8f803f3b7601360016101000a81548173ffffffffffffffffffffffffffffffffffffffff021916908373ffffffffffffffffffffffffffffffffffffffff16021790555060186019553480156200007057600080fd5b5060405162006773380380620067738339818101604052810190620000969190620008d2565b8281338060006040518060400160405280600981526020017f41726269676174657300000000000000000000000000000000000000000000008152506040518060400160405280600481526020017f41475453000000000000000000000000000000000000000000000000000000008152508160009080519060200190620001209291906200064a565b508060019080519060200190620001399291906200064a565b505050600073ffffffffffffffffffffffffffffffffffffffff168273ffffffffffffffffffffffffffffffffffffffff1603620001ae576040517f08c379a0000000000000000000000000000000000000000000000000000000008152600401620001a590620009ae565b60405180910390fd5b81600d60006101000a81548173ffffffffffffffffffffffffffffffffffffffff021916908373ffffffffffffffffffffffffffffffffffffffff160217905550600073ffffffffffffffffffffffffffffffffffffffff168173ffffffffffffffffffffffffffffffffffffffff1614620002365762000235816200032c60201b60201c565b5b5050506200025e73326c977e6efc84e512bb9c30f76e30c160ed06fb6200045d60201b60201c565b6200028373cc79157eb46f5624204f47ab42b3906caa40eab7620004a160201b60201c565b7f6331633565393238383038393465623662323764336361653139363730616133601081905550600a670de0b6b3a76400006001620002c39190620009ff565b620002cf919062000a8f565b601181905550806080818152505042601581905550816012819055506000601481905550505081601a90805190602001906200030d9291906200064a565b50620003236000801b33620004e560201b60201c565b50505062000b9d565b3373ffffffffffffffffffffffffffffffffffffffff168173ffffffffffffffffffffffffffffffffffffffff16036200039d576040517f08c379a0000000000000000000000000000000000000000000000000000000008152600401620003949062000b17565b60405180910390fd5b80600e60006101000a81548173ffffffffffffffffffffffffffffffffffffffff021916908373ffffffffffffffffffffffffffffffffffffffff1602179055508073ffffffffffffffffffffffffffffffffffffffff16600d60009054906101000a900473ffffffffffffffffffffffffffffffffffffffff1673ffffffffffffffffffffffffffffffffffffffff167fed8889f560326eb138920d842192f0eb3dd22b4f139c87a2c57538e05bae127860405160405180910390a350565b80600960006101000a81548173ffffffffffffffffffffffffffffffffffffffff021916908373ffffffffffffffffffffffffffffffffffffffff16021790555050565b80600a60006101000a81548173ffffffffffffffffffffffffffffffffffffffff021916908373ffffffffffffffffffffffffffffffffffffffff16021790555050565b620004f78282620005d760201b60201c565b620005d35760016006600084815260200190815260200160002060000160008373ffffffffffffffffffffffffffffffffffffffff1673ffffffffffffffffffffffffffffffffffffffff16815260200190815260200160002060006101000a81548160ff021916908315150217905550620005786200064260201b60201c565b73ffffffffffffffffffffffffffffffffffffffff168173ffffffffffffffffffffffffffffffffffffffff16837f2f8788117e7eff1d82e926ec794901d17c78024a50270940304540a733656f0d60405160405180910390a45b5050565b60006006600084815260200190815260200160002060000160008373ffffffffffffffffffffffffffffffffffffffff1673ffffffffffffffffffffffffffffffffffffffff16815260200190815260200160002060009054906101000a900460ff16905092915050565b600033905090565b828054620006589062000b68565b90600052602060002090601f0160209004810192826200067c5760008555620006c8565b82601f106200069757805160ff1916838001178555620006c8565b82800160010185558215620006c8579182015b82811115620006c7578251825591602001919060010190620006aa565b5b509050620006d79190620006db565b5090565b5b80821115620006f6576000816000905550600101620006dc565b5090565b6000604051905090565b600080fd5b600080fd5b6000819050919050565b62000723816200070e565b81146200072f57600080fd5b50565b600081519050620007438162000718565b92915050565b600080fd5b600080fd5b6000601f19601f8301169050919050565b7f4e487b7100000000000000000000000000000000000000000000000000000000600052604160045260246000fd5b6200079e8262000753565b810181811067ffffffffffffffff82111715620007c057620007bf62000764565b5b80604052505050565b6000620007d5620006fa565b9050620007e3828262000793565b919050565b600067ffffffffffffffff82111562000806576200080562000764565b5b620008118262000753565b9050602081019050919050565b60005b838110156200083e57808201518184015260208101905062000821565b838111156200084e576000848401525b50505050565b60006200086b6200086584620007e8565b620007c9565b9050828152602081018484840111156200088a57620008896200074e565b5b620008978482856200081e565b509392505050565b600082601f830112620008b757620008b662000749565b5b8151620008c984826020860162000854565b91505092915050565b600080600060608486031215620008ee57620008ed62000704565b5b6000620008fe8682870162000732565b935050602084015167ffffffffffffffff81111562000922576200092162000709565b5b62000930868287016200089f565b9250506040620009438682870162000732565b9150509250925092565b600082825260208201905092915050565b7f43616e6e6f7420736574206f776e657220746f207a65726f0000000000000000600082015250565b6000620009966018836200094d565b9150620009a3826200095e565b602082019050919050565b60006020820190508181036000830152620009c98162000987565b9050919050565b7f4e487b7100000000000000000000000000000000000000000000000000000000600052601160045260246000fd5b600062000a0c826200070e565b915062000a19836200070e565b9250817fffffffffffffffffffffffffffffffffffffffffffffffffffffffffffffffff048311821515161562000a555762000a54620009d0565b5b828202905092915050565b7f4e487b7100000000000000000000000000000000000000000000000000000000600052601260045260246000fd5b600062000a9c826200070e565b915062000aa9836200070e565b92508262000abc5762000abb62000a60565b5b828204905092915050565b7f43616e6e6f74207472616e7366657220746f2073656c66000000000000000000600082015250565b600062000aff6017836200094d565b915062000b0c8262000ac7565b602082019050919050565b6000602082019050818103600083015262000b328162000af0565b9050919050565b7f4e487b7100000000000000000000000000000000000000000000000000000000600052602260045260246000fd5b6000600282049050600182168062000b8157607f821691505b60208210810362000b975762000b9662000b39565b5b50919050565b608051615bac62000bc760003960008181610df401528181610f6701526114200152615bac6000f3fe608060405234801561001057600080fd5b50600436106102745760003560e01c806379ba509711610151578063c618a1e4116100c3578063e985e9c511610087578063e985e9c51461074a578063f2fde38b1461077a578063f47c84c514610796578063f5ea9ad0146107b4578063f84c183e146107e4578063fd68990a1461080057610274565b8063c618a1e414610692578063c87b56dd146106b0578063d547741f146106e0578063e5ada13e146106fc578063e93956791461071a57610274565b8063947a36fb11610115578063947a36fb146105e457806395d89b4114610602578063a217fddf14610620578063a22cb4651461063e578063b88d4fde1461065a578063c56e13751461067657610274565b806379ba509714610578578063853828b6146105825780638da5cb5b1461058c5780638dc654a2146105aa57806391d14854146105b457610274565b806338eada1c116101ea5780635475e90b116101ae5780635475e90b1461047d57806355f804b3146104ad57806361bc221a146104c95780636352211e146104e75780636e04ff0d1461051757806370a082311461054857610274565b806338eada1c146103ef5780633f3b3b271461040b57806340d097c31461042957806342842e0e146104455780634585e33b1461046157610274565b806319d40b081161023c57806319d40b081461031d5780632002a0c01461033b57806323b872dd1461036b578063248a9ca3146103875780632f2ff15d146103b757806336568abe146103d357610274565b806301ffc9a71461027957806306fdde03146102a9578063081812fc146102c7578063095ea7b3146102f75780630f6cee4914610313575b600080fd5b610293600480360381019061028e9190613dfa565b61081c565b6040516102a09190613e42565b60405180910390f35b6102b161082e565b6040516102be9190613ef6565b60405180910390f35b6102e160048036038101906102dc9190613f4e565b6108c0565b6040516102ee9190613fbc565b60405180910390f35b610311600480360381019061030c9190614003565b610906565b005b61031b610a1d565b005b610325610a94565b6040516103329190613e42565b60405180910390f35b61035560048036038101906103509190613f4e565b610aa7565b6040516103629190613fbc565b60405180910390f35b61038560048036038101906103809190614043565b610ae6565b005b6103a1600480360381019061039c91906140cc565b610b46565b6040516103ae9190614108565b60405180910390f35b6103d160048036038101906103cc9190614123565b610b66565b005b6103ed60048036038101906103e89190614123565b610b87565b005b61040960048036038101906104049190614163565b610c0a565b005b610413610c70565b604051610420919061419f565b60405180910390f35b610443600480360381019061043e9190614163565b610c76565b005b61045f600480360381019061045a9190614043565b610dd2565b005b61047b6004803603810190610476919061421f565b610df2565b005b61049760048036038101906104929190614003565b610e50565b6040516104a49190613ef6565b60405180910390f35b6104c760048036038101906104c291906142c2565b610e8c565b005b6104d1610eaa565b6040516104de919061419f565b60405180910390f35b61050160048036038101906104fc9190613f4e565b610eb0565b60405161050e9190613fbc565b60405180910390f35b610531600480360381019061052c919061421f565b610f61565b60405161053f929190614364565b60405180910390f35b610562600480360381019061055d9190614163565b610f9e565b60405161056f919061419f565b60405180910390f35b610580611055565b005b61058a6111ec565b005b61059461123c565b6040516105a19190613fbc565b60405180910390f35b6105b2611266565b005b6105ce60048036038101906105c99190614123565b6113b3565b6040516105db9190613e42565b60405180910390f35b6105ec61141e565b6040516105f9919061419f565b60405180910390f35b61060a611442565b6040516106179190613ef6565b60405180910390f35b6106286114d4565b6040516106359190614108565b60405180910390f35b610658600480360381019061065391906143c0565b6114db565b005b610674600480360381019061066f9190614530565b6114f1565b005b610690600480360381019061068b9190614163565b611553565b005b61069a61159f565b6040516106a7919061419f565b60405180910390f35b6106ca60048036038101906106c59190613f4e565b6115a5565b6040516106d79190613ef6565b60405180910390f35b6106fa60048036038101906106f59190614123565b61160d565b005b61070461162e565b6040516107119190613ef6565b60405180910390f35b610734600480360381019061072f9190613f4e565b6116bc565b6040516107419190613ef6565b60405180910390f35b610764600480360381019061075f91906145b3565b6119b1565b6040516107719190613e42565b60405180910390f35b610794600480360381019061078f9190614163565b611a45565b005b61079e611a59565b6040516107ab919061419f565b60405180910390f35b6107ce60048036038101906107c99190614003565b611a5f565b6040516107db9190614108565b60405180910390f35b6107fe60048036038101906107f99190613f4e565b611bbd565b005b61081a600480360381019061081591906145f3565b611bcf565b005b600061082782611d61565b9050919050565b60606000805461083d90614662565b80601f016020809104026020016040519081016040528092919081815260200182805461086990614662565b80156108b65780601f1061088b576101008083540402835291602001916108b6565b820191906000526020600020905b81548152906001019060200180831161089957829003601f168201915b5050505050905090565b60006108cb82611ddb565b6004600083815260200190815260200160002060009054906101000a900473ffffffffffffffffffffffffffffffffffffffff169050919050565b600061091182610eb0565b90508073ffffffffffffffffffffffffffffffffffffffff168373ffffffffffffffffffffffffffffffffffffffff1603610981576040517f08c379a000000000000000000000000000000000000000000000000000000000815260040161097890614705565b60405180910390fd5b8073ffffffffffffffffffffffffffffffffffffffff166109a0611e26565b73ffffffffffffffffffffffffffffffffffffffff1614806109cf57506109ce816109c9611e26565b6119b1565b5b610a0e576040517f08c379a0000000000000000000000000000000000000000000000000000000008152600401610a0590614797565b60405180910390fd5b610a188383611e2e565b505050565b60005b601680549050811015610a9157600060168281548110610a4357610a426147b7565b5b9060005260206000200160009054906101000a900473ffffffffffffffffffffffffffffffffffffffff169050610a7c81601254611a5f565b50508080610a8990614815565b915050610a20565b50565b601360009054906101000a900460ff1681565b60168181548110610ab757600080fd5b906000526020600020016000915054906101000a900473ffffffffffffffffffffffffffffffffffffffff1681565b610af7610af1611e26565b82611ee7565b610b36576040517f08c379a0000000000000000000000000000000000000000000000000000000008152600401610b2d906148cf565b60405180910390fd5b610b41838383611f7c565b505050565b600060066000838152602001908152602001600020600101549050919050565b610b6f82610b46565b610b78816121e2565b610b8283836121f6565b505050565b610b8f611e26565b73ffffffffffffffffffffffffffffffffffffffff168173ffffffffffffffffffffffffffffffffffffffff1614610bfc576040517f08c379a0000000000000000000000000000000000000000000000000000000008152600401610bf390614961565b60405180910390fd5b610c0682826122d7565b5050565b6016819080600181540180825580915050600190039060005260206000200160009091909190916101000a81548173ffffffffffffffffffffffffffffffffffffffff021916908373ffffffffffffffffffffffffffffffffffffffff16021790555050565b60155481565b601b60008273ffffffffffffffffffffffffffffffffffffffff1673ffffffffffffffffffffffffffffffffffffffff16815260200190815260200160002060009054906101000a900460ff1615610d03576040517f08c379a0000000000000000000000000000000000000000000000000000000008152600401610cfa906149cd565b60405180910390fd5b6000610d0f601c6123b9565b9050601954600182610d2191906149ed565b1115610d62576040517f08c379a0000000000000000000000000000000000000000000000000000000008152600401610d5990614ab5565b60405180910390fd5b610d6c82826123c7565b610d76601c6123e5565b6001601b60008473ffffffffffffffffffffffffffffffffffffffff1673ffffffffffffffffffffffffffffffffffffffff16815260200190815260200160002060006101000a81548160ff0219169083151502179055505050565b610ded838383604051806020016040528060008152506114f1565b505050565b7f000000000000000000000000000000000000000000000000000000000000000060155442610e219190614ad5565b1115610e4c57426015819055506001601454610e3d91906149ed565b601481905550610e4b610a1d565b5b5050565b6060610e5b836123fb565b610e64836125be565b604051602001610e75929190614bdd565b604051602081830303815290604052905092915050565b610e9461271e565b8181601a9190610ea5929190613c64565b505050565b60145481565b6000806002600084815260200190815260200160002060009054906101000a900473ffffffffffffffffffffffffffffffffffffffff169050600073ffffffffffffffffffffffffffffffffffffffff168173ffffffffffffffffffffffffffffffffffffffff1603610f58576040517f08c379a0000000000000000000000000000000000000000000000000000000008152600401610f4f90614c67565b60405180910390fd5b80915050919050565b600060607f000000000000000000000000000000000000000000000000000000000000000060155442610f949190614ad5565b1191509250929050565b60008073ffffffffffffffffffffffffffffffffffffffff168273ffffffffffffffffffffffffffffffffffffffff160361100e576040517f08c379a000000000000000000000000000000000000000000000000000000000815260040161100590614cf9565b60405180910390fd5b600360008373ffffffffffffffffffffffffffffffffffffffff1673ffffffffffffffffffffffffffffffffffffffff168152602001908152602001600020549050919050565b600e60009054906101000a900473ffffffffffffffffffffffffffffffffffffffff1673ffffffffffffffffffffffffffffffffffffffff163373ffffffffffffffffffffffffffffffffffffffff16146110e5576040517f08c379a00000000000000000000000000000000000000000000000000000000081526004016110dc90614d65565b60405180910390fd5b6000600d60009054906101000a900473ffffffffffffffffffffffffffffffffffffffff16905033600d60006101000a81548173ffffffffffffffffffffffffffffffffffffffff021916908373ffffffffffffffffffffffffffffffffffffffff1602179055506000600e60006101000a81548173ffffffffffffffffffffffffffffffffffffffff021916908373ffffffffffffffffffffffffffffffffffffffff1602179055503373ffffffffffffffffffffffffffffffffffffffff168173ffffffffffffffffffffffffffffffffffffffff167f8be0079c531659141344cd1fd0a4f28419497f9722a3daafe3b4186f6b6457e060405160405180910390a350565b6111f461123c565b73ffffffffffffffffffffffffffffffffffffffff166108fc479081150290604051600060405180830381858888f19350505050158015611239573d6000803e3d6000fd5b50565b6000600d60009054906101000a900473ffffffffffffffffffffffffffffffffffffffff16905090565b61126e61271e565b60006112786127b0565b90508073ffffffffffffffffffffffffffffffffffffffff1663a9059cbb338373ffffffffffffffffffffffffffffffffffffffff166370a08231306040518263ffffffff1660e01b81526004016112d09190613fbc565b602060405180830381865afa1580156112ed573d6000803e3d6000fd5b505050506040513d601f19601f820116820180604052508101906113119190614d9a565b6040518363ffffffff1660e01b815260040161132e929190614dc7565b6020604051808303816000875af115801561134d573d6000803e3d6000fd5b505050506040513d601f19601f820116820180604052508101906113719190614e05565b6113b0576040517f08c379a00000000000000000000000000000000000000000000000000000000081526004016113a790614e7e565b60405180910390fd5b50565b60006006600084815260200190815260200160002060000160008373ffffffffffffffffffffffffffffffffffffffff1673ffffffffffffffffffffffffffffffffffffffff16815260200190815260200160002060009054906101000a900460ff16905092915050565b7f000000000000000000000000000000000000000000000000000000000000000081565b60606001805461145190614662565b80601f016020809104026020016040519081016040528092919081815260200182805461147d90614662565b80156114ca5780601f1061149f576101008083540402835291602001916114ca565b820191906000526020600020905b8154815290600101906020018083116114ad57829003601f168201915b5050505050905090565b6000801b81565b6114ed6114e6611e26565b83836127da565b5050565b6115026114fc611e26565b83611ee7565b611541576040517f08c379a0000000000000000000000000000000000000000000000000000000008152600401611538906148cf565b60405180910390fd5b61154d84848484612946565b50505050565b61155b61271e565b80601360016101000a81548173ffffffffffffffffffffffffffffffffffffffff021916908373ffffffffffffffffffffffffffffffffffffffff16021790555050565b600f5481565b60606115b082611ddb565b60006115ba6129a2565b905060008151116115da5760405180602001604052806000815250611605565b806115e4846125be565b6040516020016115f5929190614e9e565b6040516020818303038152906040525b915050919050565b61161682610b46565b61161f816121e2565b61162983836122d7565b505050565b6018805461163b90614662565b80601f016020809104026020016040519081016040528092919081815260200182805461166790614662565b80156116b45780601f10611689576101008083540402835291602001916116b4565b820191906000526020600020905b81548152906001019060200180831161169757829003601f168201915b505050505081565b606060008260001b905060006040518060400160405280601081526020017f303132333435363738396162636465660000000000000000000000000000000081525090506000602a67ffffffffffffffff81111561171d5761171c614405565b5b6040519080825280601f01601f19166020018201604052801561174f5781602001600182028036833780820191505090505b5090507f300000000000000000000000000000000000000000000000000000000000000081600081518110611787576117866147b7565b5b60200101907effffffffffffffffffffffffffffffffffffffffffffffffffffffffffffff1916908160001a9053507f7800000000000000000000000000000000000000000000000000000000000000816001815181106117eb576117ea6147b7565b5b60200101907effffffffffffffffffffffffffffffffffffffffffffffffffffffffffffff1916908160001a90535060005b60148110156119a55782600485600c8461183791906149ed565b60208110611848576118476147b7565b5b1a60f81b7effffffffffffffffffffffffffffffffffffffffffffffffffffffffffffff1916901c60f81c60ff1681518110611887576118866147b7565b5b602001015160f81c60f81b826002836118a09190614ec2565b60026118ac91906149ed565b815181106118bd576118bc6147b7565b5b60200101907effffffffffffffffffffffffffffffffffffffffffffffffffffffffffffff1916908160001a90535082600f60f81b85600c8461190091906149ed565b60208110611911576119106147b7565b5b1a60f81b1660f81c60ff168151811061192d5761192c6147b7565b5b602001015160f81c60f81b826002836119469190614ec2565b600361195291906149ed565b81518110611963576119626147b7565b5b60200101907effffffffffffffffffffffffffffffffffffffffffffffffffffffffffffff1916908160001a905350808061199d90614815565b91505061181d565b50809350505050919050565b6000600560008473ffffffffffffffffffffffffffffffffffffffff1673ffffffffffffffffffffffffffffffffffffffff16815260200190815260200160002060008373ffffffffffffffffffffffffffffffffffffffff1673ffffffffffffffffffffffffffffffffffffffff16815260200190815260200160002060009054906101000a900460ff16905092915050565b611a4d61271e565b611a5681612a34565b50565b60195481565b600080611a766010543063fd68990a60e01b612b62565b90506000611a848585610e50565b9050611ad06040518060400160405280600381526020017f67657400000000000000000000000000000000000000000000000000000000008152508284612b939092919063ffffffff16565b611b4f6040518060400160405280600481526020017f70617468000000000000000000000000000000000000000000000000000000008152506040518060400160405280600781526020017f737563636573730000000000000000000000000000000000000000000000000081525084612b939092919063ffffffff16565b6000611b5d83601154612bc6565b9050856017600083815260200190815260200160002060006101000a81548173ffffffffffffffffffffffffffffffffffffffff021916908373ffffffffffffffffffffffffffffffffffffffff16021790555080935050505092915050565b611bc561271e565b8060128190555050565b81600c600082815260200190815260200160002060009054906101000a900473ffffffffffffffffffffffffffffffffffffffff1673ffffffffffffffffffffffffffffffffffffffff163373ffffffffffffffffffffffffffffffffffffffff1614611c71576040517f08c379a0000000000000000000000000000000000000000000000000000000008152600401611c6890614f8e565b60405180910390fd5b600c600082815260200190815260200160002060006101000a81549073ffffffffffffffffffffffffffffffffffffffff0219169055807f7cc135e0cebb02c3480ae5d74d377283180a2601f8f644edf7987b009316c63a60405160405180910390a260006017600085815260200190815260200160002060009054906101000a900473ffffffffffffffffffffffffffffffffffffffff169050600192508215611d2057611d1f81612bfd565b5b837f2a59adc454390ac082968c8c50e27a9901b5266815783beaea3e73e7cf992d4f846018604051611d53929190615043565b60405180910390a250505050565b60007f7965db0b000000000000000000000000000000000000000000000000000000007bffffffffffffffffffffffffffffffffffffffffffffffffffffffff1916827bffffffffffffffffffffffffffffffffffffffffffffffffffffffff19161480611dd45750611dd382612c09565b5b9050919050565b611de481612ceb565b611e23576040517f08c379a0000000000000000000000000000000000000000000000000000000008152600401611e1a90614c67565b60405180910390fd5b50565b600033905090565b816004600083815260200190815260200160002060006101000a81548173ffffffffffffffffffffffffffffffffffffffff021916908373ffffffffffffffffffffffffffffffffffffffff160217905550808273ffffffffffffffffffffffffffffffffffffffff16611ea183610eb0565b73ffffffffffffffffffffffffffffffffffffffff167f8c5be1e5ebec7d5bd14f71427d1e84f3dd0314c0f7b2291e5b200ac8c7c3b92560405160405180910390a45050565b600080611ef383610eb0565b90508073ffffffffffffffffffffffffffffffffffffffff168473ffffffffffffffffffffffffffffffffffffffff161480611f355750611f3481856119b1565b5b80611f7357508373ffffffffffffffffffffffffffffffffffffffff16611f5b846108c0565b73ffffffffffffffffffffffffffffffffffffffff16145b91505092915050565b8273ffffffffffffffffffffffffffffffffffffffff16611f9c82610eb0565b73ffffffffffffffffffffffffffffffffffffffff1614611ff2576040517f08c379a0000000000000000000000000000000000000000000000000000000008152600401611fe9906150e5565b60405180910390fd5b600073ffffffffffffffffffffffffffffffffffffffff168273ffffffffffffffffffffffffffffffffffffffff1603612061576040517f08c379a000000000000000000000000000000000000000000000000000000000815260040161205890615177565b60405180910390fd5b61206c838383612d57565b612077600082611e2e565b6001600360008573ffffffffffffffffffffffffffffffffffffffff1673ffffffffffffffffffffffffffffffffffffffff16815260200190815260200160002060008282546120c79190614ad5565b925050819055506001600360008473ffffffffffffffffffffffffffffffffffffffff1673ffffffffffffffffffffffffffffffffffffffff168152602001908152602001600020600082825461211e91906149ed565b92505081905550816002600083815260200190815260200160002060006101000a81548173ffffffffffffffffffffffffffffffffffffffff021916908373ffffffffffffffffffffffffffffffffffffffff160217905550808273ffffffffffffffffffffffffffffffffffffffff168473ffffffffffffffffffffffffffffffffffffffff167fddf252ad1be2c89b69c2b068fc378daa952ba7f163c4a11628f55a4df523b3ef60405160405180910390a46121dd838383612d5c565b505050565b6121f3816121ee611e26565b612d61565b50565b61220082826113b3565b6122d35760016006600084815260200190815260200160002060000160008373ffffffffffffffffffffffffffffffffffffffff1673ffffffffffffffffffffffffffffffffffffffff16815260200190815260200160002060006101000a81548160ff021916908315150217905550612278611e26565b73ffffffffffffffffffffffffffffffffffffffff168173ffffffffffffffffffffffffffffffffffffffff16837f2f8788117e7eff1d82e926ec794901d17c78024a50270940304540a733656f0d60405160405180910390a45b5050565b6122e182826113b3565b156123b55760006006600084815260200190815260200160002060000160008373ffffffffffffffffffffffffffffffffffffffff1673ffffffffffffffffffffffffffffffffffffffff16815260200190815260200160002060006101000a81548160ff02191690831515021790555061235a611e26565b73ffffffffffffffffffffffffffffffffffffffff168173ffffffffffffffffffffffffffffffffffffffff16837ff6391f5c32d9c69d2a47ea670b442974b53935d1edc7fd64eb21e047a839171b60405160405180910390a45b5050565b600081600001549050919050565b6123e1828260405180602001604052806000815250612dfe565b5050565b6001816000016000828254019250508190555050565b60606000602867ffffffffffffffff81111561241a57612419614405565b5b6040519080825280601f01601f19166020018201604052801561244c5781602001600182028036833780820191505090505b50905060005b60148110156125b457600081601361246a9190614ad5565b60086124769190614ec2565b600261248291906152ca565b8573ffffffffffffffffffffffffffffffffffffffff166124a39190615344565b60f81b9050600060108260f81c6124ba9190615382565b60f81b905060008160f81c60106124d191906153b3565b8360f81c6124df91906153ee565b60f81b90506124ed82612e59565b858560026124fb9190614ec2565b8151811061250c5761250b6147b7565b5b60200101907effffffffffffffffffffffffffffffffffffffffffffffffffffffffffffff1916908160001a90535061254481612e59565b8560018660026125549190614ec2565b61255e91906149ed565b8151811061256f5761256e6147b7565b5b60200101907effffffffffffffffffffffffffffffffffffffffffffffffffffffffffffff1916908160001a90535050505080806125ac90614815565b915050612452565b5080915050919050565b606060008203612605576040518060400160405280600181526020017f30000000000000000000000000000000000000000000000000000000000000008152509050612719565b600082905060005b6000821461263757808061262090614815565b915050600a826126309190615344565b915061260d565b60008167ffffffffffffffff81111561265357612652614405565b5b6040519080825280601f01601f1916602001820160405280156126855781602001600182028036833780820191505090505b5090505b600085146127125760018261269e9190614ad5565b9150600a856126ad9190615422565b60306126b991906149ed565b60f81b8183815181106126cf576126ce6147b7565b5b60200101907effffffffffffffffffffffffffffffffffffffffffffffffffffffffffffff1916908160001a905350600a8561270b9190615344565b9450612689565b8093505050505b919050565b600d60009054906101000a900473ffffffffffffffffffffffffffffffffffffffff1673ffffffffffffffffffffffffffffffffffffffff163373ffffffffffffffffffffffffffffffffffffffff16146127ae576040517f08c379a00000000000000000000000000000000000000000000000000000000081526004016127a59061549f565b60405180910390fd5b565b6000600960009054906101000a900473ffffffffffffffffffffffffffffffffffffffff16905090565b8173ffffffffffffffffffffffffffffffffffffffff168373ffffffffffffffffffffffffffffffffffffffff1603612848576040517f08c379a000000000000000000000000000000000000000000000000000000000815260040161283f9061550b565b60405180910390fd5b80600560008573ffffffffffffffffffffffffffffffffffffffff1673ffffffffffffffffffffffffffffffffffffffff16815260200190815260200160002060008473ffffffffffffffffffffffffffffffffffffffff1673ffffffffffffffffffffffffffffffffffffffff16815260200190815260200160002060006101000a81548160ff0219169083151502179055508173ffffffffffffffffffffffffffffffffffffffff168373ffffffffffffffffffffffffffffffffffffffff167f17307eab39ab6107e8899845ad3d59bd9653f200f220920489ca2b5937696c31836040516129399190613e42565b60405180910390a3505050565b612951848484611f7c565b61295d84848484612e9f565b61299c576040517f08c379a00000000000000000000000000000000000000000000000000000000081526004016129939061559d565b60405180910390fd5b50505050565b6060601a80546129b190614662565b80601f01602080910402602001604051908101604052809291908181526020018280546129dd90614662565b8015612a2a5780601f106129ff57610100808354040283529160200191612a2a565b820191906000526020600020905b815481529060010190602001808311612a0d57829003601f168201915b5050505050905090565b3373ffffffffffffffffffffffffffffffffffffffff168173ffffffffffffffffffffffffffffffffffffffff1603612aa2576040517f08c379a0000000000000000000000000000000000000000000000000000000008152600401612a9990615609565b60405180910390fd5b80600e60006101000a81548173ffffffffffffffffffffffffffffffffffffffff021916908373ffffffffffffffffffffffffffffffffffffffff1602179055508073ffffffffffffffffffffffffffffffffffffffff16600d60009054906101000a900473ffffffffffffffffffffffffffffffffffffffff1673ffffffffffffffffffffffffffffffffffffffff167fed8889f560326eb138920d842192f0eb3dd22b4f139c87a2c57538e05bae127860405160405180910390a350565b612b6a613cea565b612b72613cea565b612b8985858584613026909392919063ffffffff16565b9150509392505050565b612baa8284608001516130d690919063ffffffff16565b612bc18184608001516130d690919063ffffffff16565b505050565b6000612bf5600a60009054906101000a900473ffffffffffffffffffffffffffffffffffffffff1684846130fb565b905092915050565b612c0681610c76565b50565b60007f80ac58cd000000000000000000000000000000000000000000000000000000007bffffffffffffffffffffffffffffffffffffffffffffffffffffffff1916827bffffffffffffffffffffffffffffffffffffffffffffffffffffffff19161480612cd457507f5b5e139f000000000000000000000000000000000000000000000000000000007bffffffffffffffffffffffffffffffffffffffffffffffffffffffff1916827bffffffffffffffffffffffffffffffffffffffffffffffffffffffff1916145b80612ce45750612ce3826131c7565b5b9050919050565b60008073ffffffffffffffffffffffffffffffffffffffff166002600084815260200190815260200160002060009054906101000a900473ffffffffffffffffffffffffffffffffffffffff1673ffffffffffffffffffffffffffffffffffffffff1614159050919050565b505050565b505050565b612d6b82826113b3565b612dfa57612d908173ffffffffffffffffffffffffffffffffffffffff166014613231565b612d9e8360001c6020613231565b604051602001612daf9291906156c1565b6040516020818303038152906040526040517f08c379a0000000000000000000000000000000000000000000000000000000008152600401612df19190613ef6565b60405180910390fd5b5050565b612e08838361346d565b612e156000848484612e9f565b612e54576040517f08c379a0000000000000000000000000000000000000000000000000000000008152600401612e4b9061559d565b60405180910390fd5b505050565b6000600a8260f81c60ff161015612e845760308260f81c612e7a91906156fb565b60f81b9050612e9a565b60578260f81c612e9491906156fb565b60f81b90505b919050565b6000612ec08473ffffffffffffffffffffffffffffffffffffffff16613646565b15613019578373ffffffffffffffffffffffffffffffffffffffff1663150b7a02612ee9611e26565b8786866040518563ffffffff1660e01b8152600401612f0b9493929190615732565b6020604051808303816000875af1925050508015612f4757506040513d601f19601f82011682018060405250810190612f449190615793565b60015b612fc9573d8060008114612f77576040519150601f19603f3d011682016040523d82523d6000602084013e612f7c565b606091505b506000815103612fc1576040517f08c379a0000000000000000000000000000000000000000000000000000000008152600401612fb89061559d565b60405180910390fd5b805181602001fd5b63150b7a0260e01b7bffffffffffffffffffffffffffffffffffffffffffffffffffffffff1916817bffffffffffffffffffffffffffffffffffffffffffffffffffffffff19161491505061301e565b600190505b949350505050565b61302e613cea565b61303e8560800151610100613669565b508385600001818152505082856020019073ffffffffffffffffffffffffffffffffffffffff16908173ffffffffffffffffffffffffffffffffffffffff16815250508185604001907bffffffffffffffffffffffffffffffffffffffffffffffffffffffff191690817bffffffffffffffffffffffffffffffffffffffffffffffffffffffff191681525050849050949350505050565b6130e382600383516136d3565b6130f6818361385890919063ffffffff16565b505050565b600080600b54905060018161311091906149ed565b600b819055506000634042994660e01b60008087600001513089604001518760018c60800151600001516040516024016131519897969594939291906157cf565b604051602081830303815290604052907bffffffffffffffffffffffffffffffffffffffffffffffffffffffff19166020820180517bffffffffffffffffffffffffffffffffffffffffffffffffffffffff838183161783525050505090506131bc8683868461387a565b925050509392505050565b60007f01ffc9a7000000000000000000000000000000000000000000000000000000007bffffffffffffffffffffffffffffffffffffffffffffffffffffffff1916827bffffffffffffffffffffffffffffffffffffffffffffffffffffffff1916149050919050565b6060600060028360026132449190614ec2565b61324e91906149ed565b67ffffffffffffffff81111561326757613266614405565b5b6040519080825280601f01601f1916602001820160405280156132995781602001600182028036833780820191505090505b5090507f3000000000000000000000000000000000000000000000000000000000000000816000815181106132d1576132d06147b7565b5b60200101907effffffffffffffffffffffffffffffffffffffffffffffffffffffffffffff1916908160001a9053507f780000000000000000000000000000000000000000000000000000000000000081600181518110613335576133346147b7565b5b60200101907effffffffffffffffffffffffffffffffffffffffffffffffffffffffffffff1916908160001a905350600060018460026133759190614ec2565b61337f91906149ed565b90505b600181111561341f577f3031323334353637383961626364656600000000000000000000000000000000600f8616601081106133c1576133c06147b7565b5b1a60f81b8282815181106133d8576133d76147b7565b5b60200101907effffffffffffffffffffffffffffffffffffffffffffffffffffffffffffff1916908160001a905350600485901c94508061341890615854565b9050613382565b5060008414613463576040517f08c379a000000000000000000000000000000000000000000000000000000000815260040161345a906158c9565b60405180910390fd5b8091505092915050565b600073ffffffffffffffffffffffffffffffffffffffff168273ffffffffffffffffffffffffffffffffffffffff16036134dc576040517f08c379a00000000000000000000000000000000000000000000000000000000081526004016134d390615935565b60405180910390fd5b6134e581612ceb565b15613525576040517f08c379a000000000000000000000000000000000000000000000000000000000815260040161351c906159a1565b60405180910390fd5b61353160008383612d57565b6001600360008473ffffffffffffffffffffffffffffffffffffffff1673ffffffffffffffffffffffffffffffffffffffff168152602001908152602001600020600082825461358191906149ed565b92505081905550816002600083815260200190815260200160002060006101000a81548173ffffffffffffffffffffffffffffffffffffffff021916908373ffffffffffffffffffffffffffffffffffffffff160217905550808273ffffffffffffffffffffffffffffffffffffffff16600073ffffffffffffffffffffffffffffffffffffffff167fddf252ad1be2c89b69c2b068fc378daa952ba7f163c4a11628f55a4df523b3ef60405160405180910390a461364260008383612d5c565b5050565b6000808273ffffffffffffffffffffffffffffffffffffffff163b119050919050565b613671613d57565b60006020836136809190615422565b146136ac576020826136929190615422565b602061369e9190614ad5565b826136a991906149ed565b91505b81836020018181525050604051808452600081528281016020016040525082905092915050565b60178167ffffffffffffffff161161370a576137048160058460ff16901b60ff161784613a0f90919063ffffffff16565b50613853565b60ff8167ffffffffffffffff161161376057613739601860058460ff16901b1784613a0f90919063ffffffff16565b5061375a8167ffffffffffffffff16600185613a2f9092919063ffffffff16565b50613852565b61ffff8167ffffffffffffffff16116137b757613790601960058460ff16901b1784613a0f90919063ffffffff16565b506137b18167ffffffffffffffff16600285613a2f9092919063ffffffff16565b50613851565b63ffffffff8167ffffffffffffffff1611613810576137e9601a60058460ff16901b1784613a0f90919063ffffffff16565b5061380a8167ffffffffffffffff16600485613a2f9092919063ffffffff16565b50613850565b61382d601b60058460ff16901b1784613a0f90919063ffffffff16565b5061384e8167ffffffffffffffff16600885613a2f9092919063ffffffff16565b505b5b5b5b505050565b613860613d57565b61387283846000015151848551613a51565b905092915050565b6000308460405160200161388f929190615a7a565b60405160208183030381529060405280519060200120905084600c600083815260200190815260200160002060006101000a81548173ffffffffffffffffffffffffffffffffffffffff021916908373ffffffffffffffffffffffffffffffffffffffff160217905550807fb5e6e01e79f91267dc17b4e6314d5d4d03593d2ceee0fbb452b750bd70ea5af960405160405180910390a2600960009054906101000a900473ffffffffffffffffffffffffffffffffffffffff1673ffffffffffffffffffffffffffffffffffffffff16634000aea08685856040518463ffffffff1660e01b815260040161398593929190615aa6565b6020604051808303816000875af11580156139a4573d6000803e3d6000fd5b505050506040513d601f19601f820116820180604052508101906139c89190614e05565b613a07576040517f08c379a00000000000000000000000000000000000000000000000000000000081526004016139fe90615b56565b60405180910390fd5b949350505050565b613a17613d57565b613a278384600001515184613b40565b905092915050565b613a37613d57565b613a48848560000151518585613b96565b90509392505050565b613a59613d57565b8251821115613a6757600080fd5b84602001518285613a7891906149ed565b1115613aad57613aac856002613a9d88602001518887613a9891906149ed565b613c24565b613aa79190614ec2565b613c40565b5b600080865180518760208301019350808887011115613acc5787860182525b60208701925050505b60208410613b135780518252602082613aee91906149ed565b9150602081613afd91906149ed565b9050602084613b0c9190614ad5565b9350613ad5565b60006001856020036101000a03905080198251168184511681811785525050508692505050949350505050565b613b48613d57565b83602001518310613b6e57613b6d8460028660200151613b689190614ec2565b613c40565b5b83518051602085830101848153818603613b89576001820183525b5050508390509392505050565b613b9e613d57565b84602001518483613baf91906149ed565b1115613bd757613bd68560028685613bc791906149ed565b613bd19190614ec2565b613c40565b5b6000600183610100613be991906152ca565b613bf39190614ad5565b90508551838682010185831982511617815281518588011115613c165784870182525b505085915050949350505050565b600081831115613c3657829050613c3a565b8190505b92915050565b600082600001519050613c538383613669565b50613c5e8382613858565b50505050565b828054613c7090614662565b90600052602060002090601f016020900481019282613c925760008555613cd9565b82601f10613cab57803560ff1916838001178555613cd9565b82800160010185558215613cd9579182015b82811115613cd8578235825591602001919060010190613cbd565b5b509050613ce69190613d71565b5090565b6040518060a0016040528060008019168152602001600073ffffffffffffffffffffffffffffffffffffffff16815260200160007bffffffffffffffffffffffffffffffffffffffffffffffffffffffff1916815260200160008152602001613d51613d57565b81525090565b604051806040016040528060608152602001600081525090565b5b80821115613d8a576000816000905550600101613d72565b5090565b6000604051905090565b600080fd5b600080fd5b60007fffffffff0000000000000000000000000000000000000000000000000000000082169050919050565b613dd781613da2565b8114613de257600080fd5b50565b600081359050613df481613dce565b92915050565b600060208284031215613e1057613e0f613d98565b5b6000613e1e84828501613de5565b91505092915050565b60008115159050919050565b613e3c81613e27565b82525050565b6000602082019050613e576000830184613e33565b92915050565b600081519050919050565b600082825260208201905092915050565b60005b83811015613e97578082015181840152602081019050613e7c565b83811115613ea6576000848401525b50505050565b6000601f19601f8301169050919050565b6000613ec882613e5d565b613ed28185613e68565b9350613ee2818560208601613e79565b613eeb81613eac565b840191505092915050565b60006020820190508181036000830152613f108184613ebd565b905092915050565b6000819050919050565b613f2b81613f18565b8114613f3657600080fd5b50565b600081359050613f4881613f22565b92915050565b600060208284031215613f6457613f63613d98565b5b6000613f7284828501613f39565b91505092915050565b600073ffffffffffffffffffffffffffffffffffffffff82169050919050565b6000613fa682613f7b565b9050919050565b613fb681613f9b565b82525050565b6000602082019050613fd16000830184613fad565b92915050565b613fe081613f9b565b8114613feb57600080fd5b50565b600081359050613ffd81613fd7565b92915050565b6000806040838503121561401a57614019613d98565b5b600061402885828601613fee565b925050602061403985828601613f39565b9150509250929050565b60008060006060848603121561405c5761405b613d98565b5b600061406a86828701613fee565b935050602061407b86828701613fee565b925050604061408c86828701613f39565b9150509250925092565b6000819050919050565b6140a981614096565b81146140b457600080fd5b50565b6000813590506140c6816140a0565b92915050565b6000602082840312156140e2576140e1613d98565b5b60006140f0848285016140b7565b91505092915050565b61410281614096565b82525050565b600060208201905061411d60008301846140f9565b92915050565b6000806040838503121561413a57614139613d98565b5b6000614148858286016140b7565b925050602061415985828601613fee565b9150509250929050565b60006020828403121561417957614178613d98565b5b600061418784828501613fee565b91505092915050565b61419981613f18565b82525050565b60006020820190506141b46000830184614190565b92915050565b600080fd5b600080fd5b600080fd5b60008083601f8401126141df576141de6141ba565b5b8235905067ffffffffffffffff8111156141fc576141fb6141bf565b5b602083019150836001820283011115614218576142176141c4565b5b9250929050565b6000806020838503121561423657614235613d98565b5b600083013567ffffffffffffffff81111561425457614253613d9d565b5b614260858286016141c9565b92509250509250929050565b60008083601f840112614282576142816141ba565b5b8235905067ffffffffffffffff81111561429f5761429e6141bf565b5b6020830191508360018202830111156142bb576142ba6141c4565b5b9250929050565b600080602083850312156142d9576142d8613d98565b5b600083013567ffffffffffffffff8111156142f7576142f6613d9d565b5b6143038582860161426c565b92509250509250929050565b600081519050919050565b600082825260208201905092915050565b60006143368261430f565b614340818561431a565b9350614350818560208601613e79565b61435981613eac565b840191505092915050565b60006040820190506143796000830185613e33565b818103602083015261438b818461432b565b90509392505050565b61439d81613e27565b81146143a857600080fd5b50565b6000813590506143ba81614394565b92915050565b600080604083850312156143d7576143d6613d98565b5b60006143e585828601613fee565b92505060206143f6858286016143ab565b9150509250929050565b600080fd5b7f4e487b7100000000000000000000000000000000000000000000000000000000600052604160045260246000fd5b61443d82613eac565b810181811067ffffffffffffffff8211171561445c5761445b614405565b5b80604052505050565b600061446f613d8e565b905061447b8282614434565b919050565b600067ffffffffffffffff82111561449b5761449a614405565b5b6144a482613eac565b9050602081019050919050565b82818337600083830152505050565b60006144d36144ce84614480565b614465565b9050828152602081018484840111156144ef576144ee614400565b5b6144fa8482856144b1565b509392505050565b600082601f830112614517576145166141ba565b5b81356145278482602086016144c0565b91505092915050565b6000806000806080858703121561454a57614549613d98565b5b600061455887828801613fee565b945050602061456987828801613fee565b935050604061457a87828801613f39565b925050606085013567ffffffffffffffff81111561459b5761459a613d9d565b5b6145a787828801614502565b91505092959194509250565b600080604083850312156145ca576145c9613d98565b5b60006145d885828601613fee565b92505060206145e985828601613fee565b9150509250929050565b6000806040838503121561460a57614609613d98565b5b6000614618858286016140b7565b9250506020614629858286016143ab565b9150509250929050565b7f4e487b7100000000000000000000000000000000000000000000000000000000600052602260045260246000fd5b6000600282049050600182168061467a57607f821691505b60208210810361468d5761468c614633565b5b50919050565b7f4552433732313a20617070726f76616c20746f2063757272656e74206f776e6560008201527f7200000000000000000000000000000000000000000000000000000000000000602082015250565b60006146ef602183613e68565b91506146fa82614693565b604082019050919050565b6000602082019050818103600083015261471e816146e2565b9050919050565b7f4552433732313a20617070726f76652063616c6c6572206973206e6f7420746f60008201527f6b656e206f776e6572206e6f7220617070726f76656420666f7220616c6c0000602082015250565b6000614781603e83613e68565b915061478c82614725565b604082019050919050565b600060208201905081810360008301526147b081614774565b9050919050565b7f4e487b7100000000000000000000000000000000000000000000000000000000600052603260045260246000fd5b7f4e487b7100000000000000000000000000000000000000000000000000000000600052601160045260246000fd5b600061482082613f18565b91507fffffffffffffffffffffffffffffffffffffffffffffffffffffffffffffffff8203614852576148516147e6565b5b600182019050919050565b7f4552433732313a2063616c6c6572206973206e6f7420746f6b656e206f776e6560008201527f72206e6f7220617070726f766564000000000000000000000000000000000000602082015250565b60006148b9602e83613e68565b91506148c48261485d565b604082019050919050565b600060208201905081810360008301526148e8816148ac565b9050919050565b7f416363657373436f6e74726f6c3a2063616e206f6e6c792072656e6f756e636560008201527f20726f6c657320666f722073656c660000000000000000000000000000000000602082015250565b600061494b602f83613e68565b9150614956826148ef565b604082019050919050565b6000602082019050818103600083015261497a8161493e565b9050919050565b7f5573657220616c7265616479206d696e74656400000000000000000000000000600082015250565b60006149b7601383613e68565b91506149c282614981565b602082019050919050565b600060208201905081810360008301526149e6816149aa565b9050919050565b60006149f882613f18565b9150614a0383613f18565b9250827fffffffffffffffffffffffffffffffffffffffffffffffffffffffffffffffff03821115614a3857614a376147e6565b5b828201905092915050565b7f507572636861736520776f756c6420657863656564206d617820737570706c7960008201527f206f6620746f6b656e7300000000000000000000000000000000000000000000602082015250565b6000614a9f602a83613e68565b9150614aaa82614a43565b604082019050919050565b60006020820190508181036000830152614ace81614a92565b9050919050565b6000614ae082613f18565b9150614aeb83613f18565b925082821015614afe57614afd6147e6565b5b828203905092915050565b600081905092915050565b7f68747470733a2f2f67617465732d38343639366d6173682d6a6f6e746775732e60008201527f76657263656c2e6170702f6170692f7665726966793f616464726573733d0000602082015250565b6000614b70603e83614b09565b9150614b7b82614b14565b603e82019050919050565b6000614b9182613e5d565b614b9b8185614b09565b9350614bab818560208601613e79565b80840191505092915050565b7f266761746549643d000000000000000000000000000000000000000000000000815250565b6000614be882614b63565b9150614bf48285614b86565b9150614bff82614bb7565b600882019150614c0f8284614b86565b91508190509392505050565b7f4552433732313a20696e76616c696420746f6b656e2049440000000000000000600082015250565b6000614c51601883613e68565b9150614c5c82614c1b565b602082019050919050565b60006020820190508181036000830152614c8081614c44565b9050919050565b7f4552433732313a2061646472657373207a65726f206973206e6f74206120766160008201527f6c6964206f776e65720000000000000000000000000000000000000000000000602082015250565b6000614ce3602983613e68565b9150614cee82614c87565b604082019050919050565b60006020820190508181036000830152614d1281614cd6565b9050919050565b7f4d7573742062652070726f706f736564206f776e657200000000000000000000600082015250565b6000614d4f601683613e68565b9150614d5a82614d19565b602082019050919050565b60006020820190508181036000830152614d7e81614d42565b9050919050565b600081519050614d9481613f22565b92915050565b600060208284031215614db057614daf613d98565b5b6000614dbe84828501614d85565b91505092915050565b6000604082019050614ddc6000830185613fad565b614de96020830184614190565b9392505050565b600081519050614dff81614394565b92915050565b600060208284031215614e1b57614e1a613d98565b5b6000614e2984828501614df0565b91505092915050565b7f556e61626c6520746f207472616e736665720000000000000000000000000000600082015250565b6000614e68601283613e68565b9150614e7382614e32565b602082019050919050565b60006020820190508181036000830152614e9781614e5b565b9050919050565b6000614eaa8285614b86565b9150614eb68284614b86565b91508190509392505050565b6000614ecd82613f18565b9150614ed883613f18565b9250817fffffffffffffffffffffffffffffffffffffffffffffffffffffffffffffffff0483118215151615614f1157614f106147e6565b5b828202905092915050565b7f536f75726365206d75737420626520746865206f7261636c65206f662074686560008201527f2072657175657374000000000000000000000000000000000000000000000000602082015250565b6000614f78602883613e68565b9150614f8382614f1c565b604082019050919050565b60006020820190508181036000830152614fa781614f6b565b9050919050565b60008190508160005260206000209050919050565b60008154614fd081614662565b614fda8186613e68565b94506001821660008114614ff557600181146150075761503a565b60ff198316865260208601935061503a565b61501085614fae565b60005b8381101561503257815481890152600182019150602081019050615013565b808801955050505b50505092915050565b60006040820190506150586000830185613e33565b818103602083015261506a8184614fc3565b90509392505050565b7f4552433732313a207472616e736665722066726f6d20696e636f72726563742060008201527f6f776e6572000000000000000000000000000000000000000000000000000000602082015250565b60006150cf602583613e68565b91506150da82615073565b604082019050919050565b600060208201905081810360008301526150fe816150c2565b9050919050565b7f4552433732313a207472616e7366657220746f20746865207a65726f2061646460008201527f7265737300000000000000000000000000000000000000000000000000000000602082015250565b6000615161602483613e68565b915061516c82615105565b604082019050919050565b6000602082019050818103600083015261519081615154565b9050919050565b60008160011c9050919050565b6000808291508390505b60018511156151ee578086048111156151ca576151c96147e6565b5b60018516156151d95780820291505b80810290506151e785615197565b94506151ae565b94509492505050565b60008261520757600190506152c3565b8161521557600090506152c3565b816001811461522b576002811461523557615264565b60019150506152c3565b60ff841115615247576152466147e6565b5b8360020a91508482111561525e5761525d6147e6565b5b506152c3565b5060208310610133831016604e8410600b84101617156152995782820a905083811115615294576152936147e6565b5b6152c3565b6152a684848460016151a4565b925090508184048111156152bd576152bc6147e6565b5b81810290505b9392505050565b60006152d582613f18565b91506152e083613f18565b925061530d7fffffffffffffffffffffffffffffffffffffffffffffffffffffffffffffffff84846151f7565b905092915050565b7f4e487b7100000000000000000000000000000000000000000000000000000000600052601260045260246000fd5b600061534f82613f18565b915061535a83613f18565b92508261536a57615369615315565b5b828204905092915050565b600060ff82169050919050565b600061538d82615375565b915061539883615375565b9250826153a8576153a7615315565b5b828204905092915050565b60006153be82615375565b91506153c983615375565b92508160ff04831182151516156153e3576153e26147e6565b5b828202905092915050565b60006153f982615375565b915061540483615375565b925082821015615417576154166147e6565b5b828203905092915050565b600061542d82613f18565b915061543883613f18565b92508261544857615447615315565b5b828206905092915050565b7f4f6e6c792063616c6c61626c65206279206f776e657200000000000000000000600082015250565b6000615489601683613e68565b915061549482615453565b602082019050919050565b600060208201905081810360008301526154b88161547c565b9050919050565b7f4552433732313a20617070726f766520746f2063616c6c657200000000000000600082015250565b60006154f5601983613e68565b9150615500826154bf565b602082019050919050565b60006020820190508181036000830152615524816154e8565b9050919050565b7f4552433732313a207472616e7366657220746f206e6f6e20455243373231526560008201527f63656976657220696d706c656d656e7465720000000000000000000000000000602082015250565b6000615587603283613e68565b91506155928261552b565b604082019050919050565b600060208201905081810360008301526155b68161557a565b9050919050565b7f43616e6e6f74207472616e7366657220746f2073656c66000000000000000000600082015250565b60006155f3601783613e68565b91506155fe826155bd565b602082019050919050565b60006020820190508181036000830152615622816155e6565b9050919050565b7f416363657373436f6e74726f6c3a206163636f756e7420000000000000000000600082015250565b600061565f601783614b09565b915061566a82615629565b601782019050919050565b7f206973206d697373696e6720726f6c6520000000000000000000000000000000600082015250565b60006156ab601183614b09565b91506156b682615675565b601182019050919050565b60006156cc82615652565b91506156d88285614b86565b91506156e38261569e565b91506156ef8284614b86565b91508190509392505050565b600061570682615375565b915061571183615375565b92508260ff03821115615727576157266147e6565b5b828201905092915050565b60006080820190506157476000830187613fad565b6157546020830186613fad565b6157616040830185614190565b8181036060830152615773818461432b565b905095945050505050565b60008151905061578d81613dce565b92915050565b6000602082840312156157a9576157a8613d98565b5b60006157b78482850161577e565b91505092915050565b6157c981613da2565b82525050565b6000610100820190506157e5600083018b613fad565b6157f2602083018a614190565b6157ff60408301896140f9565b61580c6060830188613fad565b61581960808301876157c0565b61582660a0830186614190565b61583360c0830185614190565b81810360e0830152615845818461432b565b90509998505050505050505050565b600061585f82613f18565b915060008203615872576158716147e6565b5b600182039050919050565b7f537472696e67733a20686578206c656e67746820696e73756666696369656e74600082015250565b60006158b3602083613e68565b91506158be8261587d565b602082019050919050565b600060208201905081810360008301526158e2816158a6565b9050919050565b7f4552433732313a206d696e7420746f20746865207a65726f2061646472657373600082015250565b600061591f602083613e68565b915061592a826158e9565b602082019050919050565b6000602082019050818103600083015261594e81615912565b9050919050565b7f4552433732313a20746f6b656e20616c7265616479206d696e74656400000000600082015250565b600061598b601c83613e68565b915061599682615955565b602082019050919050565b600060208201905081810360008301526159ba8161597e565b9050919050565b6000819050919050565b60006159e66159e16159dc84613f7b565b6159c1565b613f7b565b9050919050565b60006159f8826159cb565b9050919050565b6000615a0a826159ed565b9050919050565b60008160601b9050919050565b6000615a2982615a11565b9050919050565b6000615a3b82615a1e565b9050919050565b615a53615a4e826159ff565b615a30565b82525050565b6000819050919050565b615a74615a6f82613f18565b615a59565b82525050565b6000615a868285615a42565b601482019150615a968284615a63565b6020820191508190509392505050565b6000606082019050615abb6000830186613fad565b615ac86020830185614190565b8181036040830152615ada818461432b565b9050949350505050565b7f756e61626c6520746f207472616e73666572416e6443616c6c20746f206f726160008201527f636c650000000000000000000000000000000000000000000000000000000000602082015250565b6000615b40602383613e68565b9150615b4b82615ae4565b604082019050919050565b60006020820190508181036000830152615b6f81615b33565b905091905056fea2646970667358221220783d5838d7749bac7ee9acda378ff86b5f609bcfa41a198f22772c9e32c6028264736f6c634300080e0033",
  "devdoc": {
    "kind": "dev",
    "methods": {
      "approve(address,uint256)": {
        "details": "See {IERC721-approve}."
      },
      "balanceOf(address)": {
        "details": "See {IERC721-balanceOf}."
      },
      "getApproved(uint256)": {
        "details": "See {IERC721-getApproved}."
      },
      "getRoleAdmin(bytes32)": {
        "details": "Returns the admin role that controls `role`. See {grantRole} and {revokeRole}. To change a role's admin, use {_setRoleAdmin}."
      },
      "grantRole(bytes32,address)": {
        "details": "Grants `role` to `account`. If `account` had not been already granted `role`, emits a {RoleGranted} event. Requirements: - the caller must have ``role``'s admin role. May emit a {RoleGranted} event."
      },
      "hasRole(bytes32,address)": {
        "details": "Returns `true` if `account` has been granted `role`."
      },
      "isApprovedForAll(address,address)": {
        "details": "See {IERC721-isApprovedForAll}."
      },
      "name()": {
        "details": "See {IERC721Metadata-name}."
      },
      "ownerOf(uint256)": {
        "details": "See {IERC721-ownerOf}."
      },
      "renounceRole(bytes32,address)": {
        "details": "Revokes `role` from the calling account. Roles are often managed via {grantRole} and {revokeRole}: this function's purpose is to provide a mechanism for accounts to lose their privileges if they are compromised (such as when a trusted device is misplaced). If the calling account had been revoked `role`, emits a {RoleRevoked} event. Requirements: - the caller must be `account`. May emit a {RoleRevoked} event."
      },
      "revokeRole(bytes32,address)": {
        "details": "Revokes `role` from `account`. If `account` had been granted `role`, emits a {RoleRevoked} event. Requirements: - the caller must have ``role``'s admin role. May emit a {RoleRevoked} event."
      },
      "safeTransferFrom(address,address,uint256)": {
        "details": "See {IERC721-safeTransferFrom}."
      },
      "safeTransferFrom(address,address,uint256,bytes)": {
        "details": "See {IERC721-safeTransferFrom}."
      },
      "setApprovalForAll(address,bool)": {
        "details": "See {IERC721-setApprovalForAll}."
      },
      "symbol()": {
        "details": "See {IERC721Metadata-symbol}."
      },
      "tokenURI(uint256)": {
        "details": "See {IERC721Metadata-tokenURI}."
      },
      "transferFrom(address,address,uint256)": {
        "details": "See {IERC721-transferFrom}."
      }
    },
    "version": 1
  },
  "userdoc": {
    "kind": "user",
    "methods": {
      "acceptOwnership()": {
        "notice": "Allows an ownership transfer to be completed by the recipient."
      },
      "interval()": {
        "notice": "Use an interval in seconds and a timestamp to slow execution of Upkeep"
      },
      "owner()": {
        "notice": "Get the current owner"
      },
      "transferOwnership(address)": {
        "notice": "Allows an owner to begin transferring ownership to a new address, pending."
      },
      "withdrawLink()": {
        "notice": "Allow withdraw of Link tokens from the contract"
      }
    },
    "version": 1
  },
  "storageLayout": {
    "storage": [
      {
        "astId": 2963,
        "contract": "contracts/ArbiGates.sol:ArbiGates",
        "label": "_name",
        "offset": 0,
        "slot": "0",
        "type": "t_string_storage"
      },
      {
        "astId": 2965,
        "contract": "contracts/ArbiGates.sol:ArbiGates",
        "label": "_symbol",
        "offset": 0,
        "slot": "1",
        "type": "t_string_storage"
      },
      {
        "astId": 2969,
        "contract": "contracts/ArbiGates.sol:ArbiGates",
        "label": "_owners",
        "offset": 0,
        "slot": "2",
        "type": "t_mapping(t_uint256,t_address)"
      },
      {
        "astId": 2973,
        "contract": "contracts/ArbiGates.sol:ArbiGates",
        "label": "_balances",
        "offset": 0,
        "slot": "3",
        "type": "t_mapping(t_address,t_uint256)"
      },
      {
        "astId": 2977,
        "contract": "contracts/ArbiGates.sol:ArbiGates",
        "label": "_tokenApprovals",
        "offset": 0,
        "slot": "4",
        "type": "t_mapping(t_uint256,t_address)"
      },
      {
        "astId": 2983,
        "contract": "contracts/ArbiGates.sol:ArbiGates",
        "label": "_operatorApprovals",
        "offset": 0,
        "slot": "5",
        "type": "t_mapping(t_address,t_mapping(t_address,t_bool))"
      },
      {
        "astId": 2456,
        "contract": "contracts/ArbiGates.sol:ArbiGates",
        "label": "_roles",
        "offset": 0,
        "slot": "6",
        "type": "t_mapping(t_bytes32,t_struct(RoleData)2451_storage)"
      },
      {
        "astId": 358,
        "contract": "contracts/ArbiGates.sol:ArbiGates",
        "label": "s_ens",
        "offset": 0,
        "slot": "7",
        "type": "t_contract(ENSInterface)1214"
      },
      {
        "astId": 360,
        "contract": "contracts/ArbiGates.sol:ArbiGates",
        "label": "s_ensNode",
        "offset": 0,
        "slot": "8",
        "type": "t_bytes32"
      },
      {
        "astId": 363,
        "contract": "contracts/ArbiGates.sol:ArbiGates",
        "label": "s_link",
        "offset": 0,
        "slot": "9",
        "type": "t_contract(LinkTokenInterface)1309"
      },
      {
        "astId": 366,
        "contract": "contracts/ArbiGates.sol:ArbiGates",
        "label": "s_oracle",
        "offset": 0,
        "slot": "10",
        "type": "t_contract(OperatorInterface)1389"
      },
      {
        "astId": 369,
        "contract": "contracts/ArbiGates.sol:ArbiGates",
        "label": "s_requestCount",
        "offset": 0,
        "slot": "11",
        "type": "t_uint256"
      },
      {
        "astId": 373,
        "contract": "contracts/ArbiGates.sol:ArbiGates",
        "label": "s_pendingRequests",
        "offset": 0,
        "slot": "12",
        "type": "t_mapping(t_bytes32,t_address)"
      },
      {
        "astId": 928,
        "contract": "contracts/ArbiGates.sol:ArbiGates",
        "label": "s_owner",
        "offset": 0,
        "slot": "13",
        "type": "t_address"
      },
      {
        "astId": 930,
        "contract": "contracts/ArbiGates.sol:ArbiGates",
        "label": "s_pendingOwner",
        "offset": 0,
        "slot": "14",
        "type": "t_address"
      },
      {
        "astId": 4813,
        "contract": "contracts/ArbiGates.sol:ArbiGates",
        "label": "volume",
        "offset": 0,
        "slot": "15",
        "type": "t_uint256"
      },
      {
        "astId": 4815,
        "contract": "contracts/ArbiGates.sol:ArbiGates",
        "label": "jobId",
        "offset": 0,
        "slot": "16",
        "type": "t_bytes32"
      },
      {
        "astId": 4817,
        "contract": "contracts/ArbiGates.sol:ArbiGates",
        "label": "fee",
        "offset": 0,
        "slot": "17",
        "type": "t_uint256"
      },
      {
        "astId": 4819,
        "contract": "contracts/ArbiGates.sol:ArbiGates",
        "label": "gateID",
        "offset": 0,
        "slot": "18",
        "type": "t_uint256"
      },
      {
        "astId": 4821,
        "contract": "contracts/ArbiGates.sol:ArbiGates",
        "label": "approved",
        "offset": 0,
        "slot": "19",
        "type": "t_bool"
      },
      {
        "astId": 4832,
        "contract": "contracts/ArbiGates.sol:ArbiGates",
        "label": "MintingContractAddress",
        "offset": 1,
        "slot": "19",
        "type": "t_address"
      },
      {
        "astId": 4834,
        "contract": "contracts/ArbiGates.sol:ArbiGates",
        "label": "counter",
        "offset": 0,
        "slot": "20",
        "type": "t_uint256"
      },
      {
        "astId": 4839,
        "contract": "contracts/ArbiGates.sol:ArbiGates",
        "label": "lastTimeStamp",
        "offset": 0,
        "slot": "21",
        "type": "t_uint256"
      },
      {
        "astId": 4842,
        "contract": "contracts/ArbiGates.sol:ArbiGates",
        "label": "addressesToVerify",
        "offset": 0,
        "slot": "22",
        "type": "t_array(t_address)dyn_storage"
      },
      {
        "astId": 4846,
        "contract": "contracts/ArbiGates.sol:ArbiGates",
        "label": "responseID",
        "offset": 0,
        "slot": "23",
        "type": "t_mapping(t_bytes32,t_address)"
      },
      {
        "astId": 4985,
        "contract": "contracts/ArbiGates.sol:ArbiGates",
        "label": "lastChecked",
        "offset": 0,
        "slot": "24",
        "type": "t_string_storage"
      },
      {
        "astId": 4634,
        "contract": "contracts/ArbiGates.sol:ArbiGates",
        "label": "MAX_TOKENS",
        "offset": 0,
        "slot": "25",
        "type": "t_uint256"
      },
      {
        "astId": 4636,
        "contract": "contracts/ArbiGates.sol:ArbiGates",
        "label": "baseTokenURI",
        "offset": 0,
        "slot": "26",
        "type": "t_string_storage"
      },
      {
        "astId": 4640,
        "contract": "contracts/ArbiGates.sol:ArbiGates",
        "label": "minted",
        "offset": 0,
        "slot": "27",
        "type": "t_mapping(t_address,t_bool)"
      },
      {
        "astId": 4647,
        "contract": "contracts/ArbiGates.sol:ArbiGates",
        "label": "_tokenIdCounter",
        "offset": 0,
        "slot": "28",
        "type": "t_struct(Counter)4288_storage"
      }
    ],
    "types": {
      "t_address": {
        "encoding": "inplace",
        "label": "address",
        "numberOfBytes": "20"
      },
      "t_array(t_address)dyn_storage": {
        "base": "t_address",
        "encoding": "dynamic_array",
        "label": "address[]",
        "numberOfBytes": "32"
      },
      "t_bool": {
        "encoding": "inplace",
        "label": "bool",
        "numberOfBytes": "1"
      },
      "t_bytes32": {
        "encoding": "inplace",
        "label": "bytes32",
        "numberOfBytes": "32"
      },
      "t_contract(ENSInterface)1214": {
        "encoding": "inplace",
        "label": "contract ENSInterface",
        "numberOfBytes": "20"
      },
      "t_contract(LinkTokenInterface)1309": {
        "encoding": "inplace",
        "label": "contract LinkTokenInterface",
        "numberOfBytes": "20"
      },
      "t_contract(OperatorInterface)1389": {
        "encoding": "inplace",
        "label": "contract OperatorInterface",
        "numberOfBytes": "20"
      },
      "t_mapping(t_address,t_bool)": {
        "encoding": "mapping",
        "key": "t_address",
        "label": "mapping(address => bool)",
        "numberOfBytes": "32",
        "value": "t_bool"
      },
      "t_mapping(t_address,t_mapping(t_address,t_bool))": {
        "encoding": "mapping",
        "key": "t_address",
        "label": "mapping(address => mapping(address => bool))",
        "numberOfBytes": "32",
        "value": "t_mapping(t_address,t_bool)"
      },
      "t_mapping(t_address,t_uint256)": {
        "encoding": "mapping",
        "key": "t_address",
        "label": "mapping(address => uint256)",
        "numberOfBytes": "32",
        "value": "t_uint256"
      },
      "t_mapping(t_bytes32,t_address)": {
        "encoding": "mapping",
        "key": "t_bytes32",
        "label": "mapping(bytes32 => address)",
        "numberOfBytes": "32",
        "value": "t_address"
      },
      "t_mapping(t_bytes32,t_struct(RoleData)2451_storage)": {
        "encoding": "mapping",
        "key": "t_bytes32",
        "label": "mapping(bytes32 => struct AccessControl.RoleData)",
        "numberOfBytes": "32",
        "value": "t_struct(RoleData)2451_storage"
      },
      "t_mapping(t_uint256,t_address)": {
        "encoding": "mapping",
        "key": "t_uint256",
        "label": "mapping(uint256 => address)",
        "numberOfBytes": "32",
        "value": "t_address"
      },
      "t_string_storage": {
        "encoding": "bytes",
        "label": "string",
        "numberOfBytes": "32"
      },
      "t_struct(Counter)4288_storage": {
        "encoding": "inplace",
        "label": "struct Counters.Counter",
        "members": [
          {
            "astId": 4287,
            "contract": "contracts/ArbiGates.sol:ArbiGates",
            "label": "_value",
            "offset": 0,
            "slot": "0",
            "type": "t_uint256"
          }
        ],
        "numberOfBytes": "32"
      },
      "t_struct(RoleData)2451_storage": {
        "encoding": "inplace",
        "label": "struct AccessControl.RoleData",
        "members": [
          {
            "astId": 2448,
            "contract": "contracts/ArbiGates.sol:ArbiGates",
            "label": "members",
            "offset": 0,
            "slot": "0",
            "type": "t_mapping(t_address,t_bool)"
          },
          {
            "astId": 2450,
            "contract": "contracts/ArbiGates.sol:ArbiGates",
            "label": "adminRole",
            "offset": 0,
            "slot": "1",
            "type": "t_bytes32"
          }
        ],
        "numberOfBytes": "64"
      },
      "t_uint256": {
        "encoding": "inplace",
        "label": "uint256",
        "numberOfBytes": "32"
      }
    }
  }
}