{
  "address": "0xD3e5179dAF72594c991c2e165F581f7E1464888D",
  "abi": [
    {
      "inputs": [
        {
          "internalType": "uint256",
          "name": "_gateId",
          "type": "uint256"
        },
        {
          "internalType": "string",
          "name": "_baseUri",
          "type": "string"
        },
        {
          "internalType": "uint256",
          "name": "updateInterval",
          "type": "uint256"
        }
      ],
      "stateMutability": "nonpayable",
      "type": "constructor"
    },
    {
      "anonymous": false,
      "inputs": [
        {
          "indexed": true,
          "internalType": "address",
          "name": "owner",
          "type": "address"
        },
        {
          "indexed": true,
          "internalType": "address",
          "name": "approved",
          "type": "address"
        },
        {
          "indexed": true,
          "internalType": "uint256",
          "name": "tokenId",
          "type": "uint256"
        }
      ],
      "name": "Approval",
      "type": "event"
    },
    {
      "anonymous": false,
      "inputs": [
        {
          "indexed": true,
          "internalType": "address",
          "name": "owner",
          "type": "address"
        },
        {
          "indexed": true,
          "internalType": "address",
          "name": "operator",
          "type": "address"
        },
        {
          "indexed": false,
          "internalType": "bool",
          "name": "approved",
          "type": "bool"
        }
      ],
      "name": "ApprovalForAll",
      "type": "event"
    },
    {
      "anonymous": false,
      "inputs": [
        {
          "indexed": true,
          "internalType": "bytes32",
          "name": "id",
          "type": "bytes32"
        }
      ],
      "name": "ChainlinkCancelled",
      "type": "event"
    },
    {
      "anonymous": false,
      "inputs": [
        {
          "indexed": true,
          "internalType": "bytes32",
          "name": "id",
          "type": "bytes32"
        }
      ],
      "name": "ChainlinkFulfilled",
      "type": "event"
    },
    {
      "anonymous": false,
      "inputs": [
        {
          "indexed": true,
          "internalType": "bytes32",
          "name": "id",
          "type": "bytes32"
        }
      ],
      "name": "ChainlinkRequested",
      "type": "event"
    },
    {
      "anonymous": false,
      "inputs": [
        {
          "indexed": true,
          "internalType": "address",
          "name": "from",
          "type": "address"
        },
        {
          "indexed": true,
          "internalType": "address",
          "name": "to",
          "type": "address"
        }
      ],
      "name": "OwnershipTransferRequested",
      "type": "event"
    },
    {
      "anonymous": false,
      "inputs": [
        {
          "indexed": true,
          "internalType": "address",
          "name": "from",
          "type": "address"
        },
        {
          "indexed": true,
          "internalType": "address",
          "name": "to",
          "type": "address"
        }
      ],
      "name": "OwnershipTransferred",
      "type": "event"
    },
    {
      "anonymous": false,
      "inputs": [
        {
          "indexed": true,
          "internalType": "bytes32",
          "name": "requestId",
          "type": "bytes32"
        },
        {
          "indexed": false,
          "internalType": "bool",
          "name": "approved",
          "type": "bool"
        },
        {
          "indexed": false,
          "internalType": "string",
          "name": "lastChecked",
          "type": "string"
        }
      ],
      "name": "RequestVolume",
      "type": "event"
    },
    {
      "anonymous": false,
      "inputs": [
        {
          "indexed": true,
          "internalType": "bytes32",
          "name": "role",
          "type": "bytes32"
        },
        {
          "indexed": true,
          "internalType": "bytes32",
          "name": "previousAdminRole",
          "type": "bytes32"
        },
        {
          "indexed": true,
          "internalType": "bytes32",
          "name": "newAdminRole",
          "type": "bytes32"
        }
      ],
      "name": "RoleAdminChanged",
      "type": "event"
    },
    {
      "anonymous": false,
      "inputs": [
        {
          "indexed": true,
          "internalType": "bytes32",
          "name": "role",
          "type": "bytes32"
        },
        {
          "indexed": true,
          "internalType": "address",
          "name": "account",
          "type": "address"
        },
        {
          "indexed": true,
          "internalType": "address",
          "name": "sender",
          "type": "address"
        }
      ],
      "name": "RoleGranted",
      "type": "event"
    },
    {
      "anonymous": false,
      "inputs": [
        {
          "indexed": true,
          "internalType": "bytes32",
          "name": "role",
          "type": "bytes32"
        },
        {
          "indexed": true,
          "internalType": "address",
          "name": "account",
          "type": "address"
        },
        {
          "indexed": true,
          "internalType": "address",
          "name": "sender",
          "type": "address"
        }
      ],
      "name": "RoleRevoked",
      "type": "event"
    },
    {
      "anonymous": false,
      "inputs": [
        {
          "indexed": true,
          "internalType": "address",
          "name": "from",
          "type": "address"
        },
        {
          "indexed": true,
          "internalType": "address",
          "name": "to",
          "type": "address"
        },
        {
          "indexed": true,
          "internalType": "uint256",
          "name": "tokenId",
          "type": "uint256"
        }
      ],
      "name": "Transfer",
      "type": "event"
    },
    {
      "inputs": [],
      "name": "DEFAULT_ADMIN_ROLE",
      "outputs": [
        {
          "internalType": "bytes32",
          "name": "",
          "type": "bytes32"
        }
      ],
      "stateMutability": "view",
      "type": "function"
    },
    {
      "inputs": [],
      "name": "MAX_TOKENS",
      "outputs": [
        {
          "internalType": "uint256",
          "name": "",
          "type": "uint256"
        }
      ],
      "stateMutability": "view",
      "type": "function"
    },
    {
      "inputs": [],
      "name": "acceptOwnership",
      "outputs": [],
      "stateMutability": "nonpayable",
      "type": "function"
    },
    {
      "inputs": [
        {
          "internalType": "address",
          "name": "_newAddress",
          "type": "address"
        }
      ],
      "name": "addAddress",
      "outputs": [],
      "stateMutability": "nonpayable",
      "type": "function"
    },
    {
      "inputs": [
        {
          "internalType": "uint256",
          "name": "",
          "type": "uint256"
        }
      ],
      "name": "addressesToVerify",
      "outputs": [
        {
          "internalType": "address",
          "name": "",
          "type": "address"
        }
      ],
      "stateMutability": "view",
      "type": "function"
    },
    {
      "inputs": [
        {
          "internalType": "address",
          "name": "to",
          "type": "address"
        },
        {
          "internalType": "uint256",
          "name": "tokenId",
          "type": "uint256"
        }
      ],
      "name": "approve",
      "outputs": [],
      "stateMutability": "nonpayable",
      "type": "function"
    },
    {
      "inputs": [],
      "name": "approved",
      "outputs": [
        {
          "internalType": "bool",
          "name": "",
          "type": "bool"
        }
      ],
      "stateMutability": "view",
      "type": "function"
    },
    {
      "inputs": [
        {
          "internalType": "address",
          "name": "owner",
          "type": "address"
        }
      ],
      "name": "balanceOf",
      "outputs": [
        {
          "internalType": "uint256",
          "name": "",
          "type": "uint256"
        }
      ],
      "stateMutability": "view",
      "type": "function"
    },
    {
      "inputs": [],
      "name": "batchVerify",
      "outputs": [],
      "stateMutability": "nonpayable",
      "type": "function"
    },
    {
      "inputs": [
        {
          "internalType": "bytes",
          "name": "",
          "type": "bytes"
        }
      ],
      "name": "checkUpkeep",
      "outputs": [
        {
          "internalType": "bool",
          "name": "upkeepNeeded",
          "type": "bool"
        },
        {
          "internalType": "bytes",
          "name": "",
          "type": "bytes"
        }
      ],
      "stateMutability": "view",
      "type": "function"
    },
    {
      "inputs": [],
      "name": "counter",
      "outputs": [
        {
          "internalType": "uint256",
          "name": "",
          "type": "uint256"
        }
      ],
      "stateMutability": "view",
      "type": "function"
    },
    {
      "inputs": [
        {
          "internalType": "bytes32",
          "name": "_requestId",
          "type": "bytes32"
        },
        {
          "internalType": "bool",
          "name": "_approved",
          "type": "bool"
        }
      ],
      "name": "fulfill",
      "outputs": [],
      "stateMutability": "nonpayable",
      "type": "function"
    },
    {
      "inputs": [
        {
          "internalType": "address",
          "name": "_newMemb",
          "type": "address"
        }
      ],
      "name": "gainAccess",
      "outputs": [],
      "stateMutability": "nonpayable",
      "type": "function"
    },
    {
      "inputs": [
        {
          "internalType": "uint256",
          "name": "tokenId",
          "type": "uint256"
        }
      ],
      "name": "getApproved",
      "outputs": [
        {
          "internalType": "address",
          "name": "",
          "type": "address"
        }
      ],
      "stateMutability": "view",
      "type": "function"
    },
    {
      "inputs": [
        {
          "internalType": "bytes32",
          "name": "role",
          "type": "bytes32"
        }
      ],
      "name": "getRoleAdmin",
      "outputs": [
        {
          "internalType": "bytes32",
          "name": "",
          "type": "bytes32"
        }
      ],
      "stateMutability": "view",
      "type": "function"
    },
    {
      "inputs": [
        {
          "internalType": "bytes32",
          "name": "role",
          "type": "bytes32"
        },
        {
          "internalType": "address",
          "name": "account",
          "type": "address"
        }
      ],
      "name": "grantRole",
      "outputs": [],
      "stateMutability": "nonpayable",
      "type": "function"
    },
    {
      "inputs": [
        {
          "internalType": "bytes32",
          "name": "role",
          "type": "bytes32"
        },
        {
          "internalType": "address",
          "name": "account",
          "type": "address"
        }
      ],
      "name": "hasRole",
      "outputs": [
        {
          "internalType": "bool",
          "name": "",
          "type": "bool"
        }
      ],
      "stateMutability": "view",
      "type": "function"
    },
    {
      "inputs": [],
      "name": "interval",
      "outputs": [
        {
          "internalType": "uint256",
          "name": "",
          "type": "uint256"
        }
      ],
      "stateMutability": "view",
      "type": "function"
    },
    {
      "inputs": [
        {
          "internalType": "address",
          "name": "owner",
          "type": "address"
        },
        {
          "internalType": "address",
          "name": "operator",
          "type": "address"
        }
      ],
      "name": "isApprovedForAll",
      "outputs": [
        {
          "internalType": "bool",
          "name": "",
          "type": "bool"
        }
      ],
      "stateMutability": "view",
      "type": "function"
    },
    {
      "inputs": [],
      "name": "lastChecked",
      "outputs": [
        {
          "internalType": "string",
          "name": "",
          "type": "string"
        }
      ],
      "stateMutability": "view",
      "type": "function"
    },
    {
      "inputs": [],
      "name": "lastTimeStamp",
      "outputs": [
        {
          "internalType": "uint256",
          "name": "",
          "type": "uint256"
        }
      ],
      "stateMutability": "view",
      "type": "function"
    },
    {
      "inputs": [],
      "name": "name",
      "outputs": [
        {
          "internalType": "string",
          "name": "",
          "type": "string"
        }
      ],
      "stateMutability": "view",
      "type": "function"
    },
    {
      "inputs": [],
      "name": "owner",
      "outputs": [
        {
          "internalType": "address",
          "name": "",
          "type": "address"
        }
      ],
      "stateMutability": "view",
      "type": "function"
    },
    {
      "inputs": [
        {
          "internalType": "uint256",
          "name": "tokenId",
          "type": "uint256"
        }
      ],
      "name": "ownerOf",
      "outputs": [
        {
          "internalType": "address",
          "name": "",
          "type": "address"
        }
      ],
      "stateMutability": "view",
      "type": "function"
    },
    {
      "inputs": [
        {
          "internalType": "bytes",
          "name": "",
          "type": "bytes"
        }
      ],
      "name": "performUpkeep",
      "outputs": [],
      "stateMutability": "nonpayable",
      "type": "function"
    },
    {
      "inputs": [
        {
          "internalType": "bytes32",
          "name": "role",
          "type": "bytes32"
        },
        {
          "internalType": "address",
          "name": "account",
          "type": "address"
        }
      ],
      "name": "renounceRole",
      "outputs": [],
      "stateMutability": "nonpayable",
      "type": "function"
    },
    {
      "inputs": [
        {
          "internalType": "address",
          "name": "_wallet",
          "type": "address"
        },
        {
          "internalType": "uint256",
          "name": "_gateId",
          "type": "uint256"
        }
      ],
      "name": "requestVolumeData",
      "outputs": [
        {
          "internalType": "bytes32",
          "name": "requestId",
          "type": "bytes32"
        }
      ],
      "stateMutability": "nonpayable",
      "type": "function"
    },
    {
      "inputs": [
        {
          "internalType": "bytes32",
          "name": "role",
          "type": "bytes32"
        },
        {
          "internalType": "address",
          "name": "account",
          "type": "address"
        }
      ],
      "name": "revokeRole",
      "outputs": [],
      "stateMutability": "nonpayable",
      "type": "function"
    },
    {
      "inputs": [
        {
          "internalType": "address",
          "name": "user",
          "type": "address"
        }
      ],
      "name": "safeMint",
      "outputs": [],
      "stateMutability": "nonpayable",
      "type": "function"
    },
    {
      "inputs": [
        {
          "internalType": "address",
          "name": "from",
          "type": "address"
        },
        {
          "internalType": "address",
          "name": "to",
          "type": "address"
        },
        {
          "internalType": "uint256",
          "name": "tokenId",
          "type": "uint256"
        }
      ],
      "name": "safeTransferFrom",
      "outputs": [],
      "stateMutability": "nonpayable",
      "type": "function"
    },
    {
      "inputs": [
        {
          "internalType": "address",
          "name": "from",
          "type": "address"
        },
        {
          "internalType": "address",
          "name": "to",
          "type": "address"
        },
        {
          "internalType": "uint256",
          "name": "tokenId",
          "type": "uint256"
        },
        {
          "internalType": "bytes",
          "name": "data",
          "type": "bytes"
        }
      ],
      "name": "safeTransferFrom",
      "outputs": [],
      "stateMutability": "nonpayable",
      "type": "function"
    },
    {
      "inputs": [
        {
          "internalType": "address",
          "name": "operator",
          "type": "address"
        },
        {
          "internalType": "bool",
          "name": "approved",
          "type": "bool"
        }
      ],
      "name": "setApprovalForAll",
      "outputs": [],
      "stateMutability": "nonpayable",
      "type": "function"
    },
    {
      "inputs": [
        {
          "internalType": "string",
          "name": "_newBaseURI",
          "type": "string"
        }
      ],
      "name": "setBaseURI",
      "outputs": [],
      "stateMutability": "nonpayable",
      "type": "function"
    },
    {
      "inputs": [
        {
          "internalType": "uint256",
          "name": "_gateId",
          "type": "uint256"
        }
      ],
      "name": "setGate",
      "outputs": [],
      "stateMutability": "nonpayable",
      "type": "function"
    },
    {
      "inputs": [
        {
          "internalType": "address",
          "name": "_newContract",
          "type": "address"
        }
      ],
      "name": "setMintingContract",
      "outputs": [],
      "stateMutability": "nonpayable",
      "type": "function"
    },
    {
      "inputs": [
        {
          "internalType": "bytes4",
          "name": "interfaceId",
          "type": "bytes4"
        }
      ],
      "name": "supportsInterface",
      "outputs": [
        {
          "internalType": "bool",
          "name": "",
          "type": "bool"
        }
      ],
      "stateMutability": "view",
      "type": "function"
    },
    {
      "inputs": [],
      "name": "symbol",
      "outputs": [
        {
          "internalType": "string",
          "name": "",
          "type": "string"
        }
      ],
      "stateMutability": "view",
      "type": "function"
    },
    {
      "inputs": [
        {
          "internalType": "uint256",
          "name": "tokenId",
          "type": "uint256"
        }
      ],
      "name": "tokenURI",
      "outputs": [
        {
          "internalType": "string",
          "name": "",
          "type": "string"
        }
      ],
      "stateMutability": "view",
      "type": "function"
    },
    {
      "inputs": [
        {
          "internalType": "address",
          "name": "from",
          "type": "address"
        },
        {
          "internalType": "address",
          "name": "to",
          "type": "address"
        },
        {
          "internalType": "uint256",
          "name": "tokenId",
          "type": "uint256"
        }
      ],
      "name": "transferFrom",
      "outputs": [],
      "stateMutability": "nonpayable",
      "type": "function"
    },
    {
      "inputs": [
        {
          "internalType": "address",
          "name": "to",
          "type": "address"
        }
      ],
      "name": "transferOwnership",
      "outputs": [],
      "stateMutability": "nonpayable",
      "type": "function"
    },
    {
      "inputs": [],
      "name": "volume",
      "outputs": [
        {
          "internalType": "uint256",
          "name": "",
          "type": "uint256"
        }
      ],
      "stateMutability": "view",
      "type": "function"
    },
    {
      "inputs": [],
      "name": "withdrawAll",
      "outputs": [],
      "stateMutability": "nonpayable",
      "type": "function"
    },
    {
      "inputs": [],
      "name": "withdrawLink",
      "outputs": [],
      "stateMutability": "nonpayable",
      "type": "function"
    }
  ],
  "transactionHash": "0x03a4aa18a47947e20e8053633653954e89aee7492182f1afb80eaf814be34ce3",
  "args": [
    4,
    "http://metadata.anotherblock.io/",
    60000
  ],
  "numDeployments": 1,
  "solcInputHash": "48a254d7aeb5823ce2c927a2155d9b99",
  "bytecode": "0x60a06040526001600b55735cb675e6e9e947a1c40b3f83b673c6a8f803f3b7601360016101000a81548173ffffffffffffffffffffffffffffffffffffffff021916908373ffffffffffffffffffffffffffffffffffffffff1602179055506018601a553480156200007057600080fd5b50604051620062f0380380620062f08339818101604052810190620000969190620008d2565b8281338060006040518060400160405280600981526020017f41726269676174657300000000000000000000000000000000000000000000008152506040518060400160405280600481526020017f41475453000000000000000000000000000000000000000000000000000000008152508160009080519060200190620001209291906200064a565b508060019080519060200190620001399291906200064a565b505050600073ffffffffffffffffffffffffffffffffffffffff168273ffffffffffffffffffffffffffffffffffffffff1603620001ae576040517f08c379a0000000000000000000000000000000000000000000000000000000008152600401620001a590620009ae565b60405180910390fd5b81600d60006101000a81548173ffffffffffffffffffffffffffffffffffffffff021916908373ffffffffffffffffffffffffffffffffffffffff160217905550600073ffffffffffffffffffffffffffffffffffffffff168173ffffffffffffffffffffffffffffffffffffffff1614620002365762000235816200032c60201b60201c565b5b5050506200025e73326c977e6efc84e512bb9c30f76e30c160ed06fb6200045d60201b60201c565b6200028373cc79157eb46f5624204f47ab42b3906caa40eab7620004a160201b60201c565b7f6331633565393238383038393465623662323764336361653139363730616133601081905550600a670de0b6b3a76400006001620002c39190620009ff565b620002cf919062000a8f565b601181905550806080818152505042601581905550816012819055506000601481905550505081601990805190602001906200030d9291906200064a565b50620003236000801b33620004e560201b60201c565b50505062000b9d565b3373ffffffffffffffffffffffffffffffffffffffff168173ffffffffffffffffffffffffffffffffffffffff16036200039d576040517f08c379a0000000000000000000000000000000000000000000000000000000008152600401620003949062000b17565b60405180910390fd5b80600e60006101000a81548173ffffffffffffffffffffffffffffffffffffffff021916908373ffffffffffffffffffffffffffffffffffffffff1602179055508073ffffffffffffffffffffffffffffffffffffffff16600d60009054906101000a900473ffffffffffffffffffffffffffffffffffffffff1673ffffffffffffffffffffffffffffffffffffffff167fed8889f560326eb138920d842192f0eb3dd22b4f139c87a2c57538e05bae127860405160405180910390a350565b80600960006101000a81548173ffffffffffffffffffffffffffffffffffffffff021916908373ffffffffffffffffffffffffffffffffffffffff16021790555050565b80600a60006101000a81548173ffffffffffffffffffffffffffffffffffffffff021916908373ffffffffffffffffffffffffffffffffffffffff16021790555050565b620004f78282620005d760201b60201c565b620005d35760016006600084815260200190815260200160002060000160008373ffffffffffffffffffffffffffffffffffffffff1673ffffffffffffffffffffffffffffffffffffffff16815260200190815260200160002060006101000a81548160ff021916908315150217905550620005786200064260201b60201c565b73ffffffffffffffffffffffffffffffffffffffff168173ffffffffffffffffffffffffffffffffffffffff16837f2f8788117e7eff1d82e926ec794901d17c78024a50270940304540a733656f0d60405160405180910390a45b5050565b60006006600084815260200190815260200160002060000160008373ffffffffffffffffffffffffffffffffffffffff1673ffffffffffffffffffffffffffffffffffffffff16815260200190815260200160002060009054906101000a900460ff16905092915050565b600033905090565b828054620006589062000b68565b90600052602060002090601f0160209004810192826200067c5760008555620006c8565b82601f106200069757805160ff1916838001178555620006c8565b82800160010185558215620006c8579182015b82811115620006c7578251825591602001919060010190620006aa565b5b509050620006d79190620006db565b5090565b5b80821115620006f6576000816000905550600101620006dc565b5090565b6000604051905090565b600080fd5b600080fd5b6000819050919050565b62000723816200070e565b81146200072f57600080fd5b50565b600081519050620007438162000718565b92915050565b600080fd5b600080fd5b6000601f19601f8301169050919050565b7f4e487b7100000000000000000000000000000000000000000000000000000000600052604160045260246000fd5b6200079e8262000753565b810181811067ffffffffffffffff82111715620007c057620007bf62000764565b5b80604052505050565b6000620007d5620006fa565b9050620007e3828262000793565b919050565b600067ffffffffffffffff82111562000806576200080562000764565b5b620008118262000753565b9050602081019050919050565b60005b838110156200083e57808201518184015260208101905062000821565b838111156200084e576000848401525b50505050565b60006200086b6200086584620007e8565b620007c9565b9050828152602081018484840111156200088a57620008896200074e565b5b620008978482856200081e565b509392505050565b600082601f830112620008b757620008b662000749565b5b8151620008c984826020860162000854565b91505092915050565b600080600060608486031215620008ee57620008ed62000704565b5b6000620008fe8682870162000732565b935050602084015167ffffffffffffffff81111562000922576200092162000709565b5b62000930868287016200089f565b9250506040620009438682870162000732565b9150509250925092565b600082825260208201905092915050565b7f43616e6e6f7420736574206f776e657220746f207a65726f0000000000000000600082015250565b6000620009966018836200094d565b9150620009a3826200095e565b602082019050919050565b60006020820190508181036000830152620009c98162000987565b9050919050565b7f4e487b7100000000000000000000000000000000000000000000000000000000600052601160045260246000fd5b600062000a0c826200070e565b915062000a19836200070e565b9250817fffffffffffffffffffffffffffffffffffffffffffffffffffffffffffffffff048311821515161562000a555762000a54620009d0565b5b828202905092915050565b7f4e487b7100000000000000000000000000000000000000000000000000000000600052601260045260246000fd5b600062000a9c826200070e565b915062000aa9836200070e565b92508262000abc5762000abb62000a60565b5b828204905092915050565b7f43616e6e6f74207472616e7366657220746f2073656c66000000000000000000600082015250565b600062000aff6017836200094d565b915062000b0c8262000ac7565b602082019050919050565b6000602082019050818103600083015262000b328162000af0565b9050919050565b7f4e487b7100000000000000000000000000000000000000000000000000000000600052602260045260246000fd5b6000600282049050600182168062000b8157607f821691505b60208210810362000b975762000b9662000b39565b5b50919050565b60805161572962000bc760003960008181610dae01528181610ee5015261139e01526157296000f3fe608060405234801561001057600080fd5b50600436106102695760003560e01c806379ba509711610151578063c56e1375116100c3578063e985e9c511610087578063e985e9c5146106fb578063f2fde38b1461072b578063f47c84c514610747578063f5ea9ad014610765578063f84c183e14610795578063fd68990a146107b157610269565b8063c56e137514610657578063c618a1e414610673578063c87b56dd14610691578063d547741f146106c1578063e5ada13e146106dd57610269565b8063947a36fb11610115578063947a36fb146105a957806395d89b41146105c75780639b63a11a146105e5578063a217fddf14610601578063a22cb4651461061f578063b88d4fde1461063b57610269565b806379ba50971461053d578063853828b6146105475780638da5cb5b146105515780638dc654a21461056f57806391d148541461057957610269565b806336568abe116101ea5780634585e33b116101ae5780634585e33b1461045657806355f804b31461047257806361bc221a1461048e5780636352211e146104ac5780636e04ff0d146104dc57806370a082311461050d57610269565b806336568abe146103c857806338eada1c146103e45780633f3b3b271461040057806340d097c31461041e57806342842e0e1461043a57610269565b806319d40b081161023157806319d40b08146103125780632002a0c01461033057806323b872dd14610360578063248a9ca31461037c5780632f2ff15d146103ac57610269565b806301ffc9a71461026e57806306fdde031461029e578063081812fc146102bc578063095ea7b3146102ec5780630f6cee4914610308575b600080fd5b610288600480360381019061028391906138f1565b6107cd565b6040516102959190613939565b60405180910390f35b6102a66107df565b6040516102b391906139ed565b60405180910390f35b6102d660048036038101906102d19190613a45565b610871565b6040516102e39190613ab3565b60405180910390f35b61030660048036038101906103019190613afa565b6108b7565b005b6103106109ce565b005b61031a610a45565b6040516103279190613939565b60405180910390f35b61034a60048036038101906103459190613a45565b610a58565b6040516103579190613ab3565b60405180910390f35b61037a60048036038101906103759190613b3a565b610a97565b005b61039660048036038101906103919190613bc3565b610af7565b6040516103a39190613bff565b60405180910390f35b6103c660048036038101906103c19190613c1a565b610b17565b005b6103e260048036038101906103dd9190613c1a565b610b38565b005b6103fe60048036038101906103f99190613c5a565b610bbb565b005b610408610c21565b6040516104159190613c96565b60405180910390f35b61043860048036038101906104339190613c5a565b610c27565b005b610454600480360381019061044f9190613b3a565b610d8c565b005b610470600480360381019061046b9190613d16565b610dac565b005b61048c60048036038101906104879190613db9565b610e0a565b005b610496610e28565b6040516104a39190613c96565b60405180910390f35b6104c660048036038101906104c19190613a45565b610e2e565b6040516104d39190613ab3565b60405180910390f35b6104f660048036038101906104f19190613d16565b610edf565b604051610504929190613e5b565b60405180910390f35b61052760048036038101906105229190613c5a565b610f1c565b6040516105349190613c96565b60405180910390f35b610545610fd3565b005b61054f61116a565b005b6105596111ba565b6040516105669190613ab3565b60405180910390f35b6105776111e4565b005b610593600480360381019061058e9190613c1a565b611331565b6040516105a09190613939565b60405180910390f35b6105b161139c565b6040516105be9190613c96565b60405180910390f35b6105cf6113c0565b6040516105dc91906139ed565b60405180910390f35b6105ff60048036038101906105fa9190613c5a565b611452565b005b6106096114e2565b6040516106169190613bff565b60405180910390f35b61063960048036038101906106349190613eb7565b6114e9565b005b61065560048036038101906106509190614027565b6114ff565b005b610671600480360381019061066c9190613c5a565b611561565b005b61067b6115ad565b6040516106889190613c96565b60405180910390f35b6106ab60048036038101906106a69190613a45565b6115b3565b6040516106b891906139ed565b60405180910390f35b6106db60048036038101906106d69190613c1a565b61161b565b005b6106e561163c565b6040516106f291906139ed565b60405180910390f35b610715600480360381019061071091906140aa565b6116ca565b6040516107229190613939565b60405180910390f35b61074560048036038101906107409190613c5a565b61175e565b005b61074f611772565b60405161075c9190613c96565b60405180910390f35b61077f600480360381019061077a9190613afa565b611778565b60405161078c9190613bff565b60405180910390f35b6107af60048036038101906107aa9190613a45565b611938565b005b6107cb60048036038101906107c691906140ea565b61194a565b005b60006107d882611adc565b9050919050565b6060600080546107ee90614159565b80601f016020809104026020016040519081016040528092919081815260200182805461081a90614159565b80156108675780601f1061083c57610100808354040283529160200191610867565b820191906000526020600020905b81548152906001019060200180831161084a57829003601f168201915b5050505050905090565b600061087c82611b56565b6004600083815260200190815260200160002060009054906101000a900473ffffffffffffffffffffffffffffffffffffffff169050919050565b60006108c282610e2e565b90508073ffffffffffffffffffffffffffffffffffffffff168373ffffffffffffffffffffffffffffffffffffffff1603610932576040517f08c379a0000000000000000000000000000000000000000000000000000000008152600401610929906141fc565b60405180910390fd5b8073ffffffffffffffffffffffffffffffffffffffff16610951611ba1565b73ffffffffffffffffffffffffffffffffffffffff161480610980575061097f8161097a611ba1565b6116ca565b5b6109bf576040517f08c379a00000000000000000000000000000000000000000000000000000000081526004016109b69061428e565b60405180910390fd5b6109c98383611ba9565b505050565b60005b601680549050811015610a42576000601682815481106109f4576109f36142ae565b5b9060005260206000200160009054906101000a900473ffffffffffffffffffffffffffffffffffffffff169050610a2d81601254611778565b50508080610a3a9061430c565b9150506109d1565b50565b601360009054906101000a900460ff1681565b60168181548110610a6857600080fd5b906000526020600020016000915054906101000a900473ffffffffffffffffffffffffffffffffffffffff1681565b610aa8610aa2611ba1565b82611c62565b610ae7576040517f08c379a0000000000000000000000000000000000000000000000000000000008152600401610ade906143c6565b60405180910390fd5b610af2838383611cf7565b505050565b600060066000838152602001908152602001600020600101549050919050565b610b2082610af7565b610b2981611f5d565b610b338383611f71565b505050565b610b40611ba1565b73ffffffffffffffffffffffffffffffffffffffff168173ffffffffffffffffffffffffffffffffffffffff1614610bad576040517f08c379a0000000000000000000000000000000000000000000000000000000008152600401610ba490614458565b60405180910390fd5b610bb78282612052565b5050565b6016819080600181540180825580915050600190039060005260206000200160009091909190916101000a81548173ffffffffffffffffffffffffffffffffffffffff021916908373ffffffffffffffffffffffffffffffffffffffff16021790555050565b60155481565b601b60008273ffffffffffffffffffffffffffffffffffffffff1673ffffffffffffffffffffffffffffffffffffffff16815260200190815260200160002060009054906101000a900460ff1615610cb4576040517f08c379a0000000000000000000000000000000000000000000000000000000008152600401610cab906144c4565b60405180910390fd5b6000610cc0601c612134565b9050601a54600182610cd291906144e4565b1115610d13576040517f08c379a0000000000000000000000000000000000000000000000000000000008152600401610d0a906145ac565b60405180910390fd5b610d1d601c612142565b610d3082610d2b601c612134565b612158565b6001601b60008473ffffffffffffffffffffffffffffffffffffffff1673ffffffffffffffffffffffffffffffffffffffff16815260200190815260200160002060006101000a81548160ff0219169083151502179055505050565b610da7838383604051806020016040528060008152506114ff565b505050565b7f000000000000000000000000000000000000000000000000000000000000000060155442610ddb91906145cc565b1115610e0657426015819055506001601454610df791906144e4565b601481905550610e056109ce565b5b5050565b610e12612176565b818160199190610e2392919061375b565b505050565b60145481565b6000806002600084815260200190815260200160002060009054906101000a900473ffffffffffffffffffffffffffffffffffffffff169050600073ffffffffffffffffffffffffffffffffffffffff168173ffffffffffffffffffffffffffffffffffffffff1603610ed6576040517f08c379a0000000000000000000000000000000000000000000000000000000008152600401610ecd9061464c565b60405180910390fd5b80915050919050565b600060607f000000000000000000000000000000000000000000000000000000000000000060155442610f1291906145cc565b1191509250929050565b60008073ffffffffffffffffffffffffffffffffffffffff168273ffffffffffffffffffffffffffffffffffffffff1603610f8c576040517f08c379a0000000000000000000000000000000000000000000000000000000008152600401610f83906146de565b60405180910390fd5b600360008373ffffffffffffffffffffffffffffffffffffffff1673ffffffffffffffffffffffffffffffffffffffff168152602001908152602001600020549050919050565b600e60009054906101000a900473ffffffffffffffffffffffffffffffffffffffff1673ffffffffffffffffffffffffffffffffffffffff163373ffffffffffffffffffffffffffffffffffffffff1614611063576040517f08c379a000000000000000000000000000000000000000000000000000000000815260040161105a9061474a565b60405180910390fd5b6000600d60009054906101000a900473ffffffffffffffffffffffffffffffffffffffff16905033600d60006101000a81548173ffffffffffffffffffffffffffffffffffffffff021916908373ffffffffffffffffffffffffffffffffffffffff1602179055506000600e60006101000a81548173ffffffffffffffffffffffffffffffffffffffff021916908373ffffffffffffffffffffffffffffffffffffffff1602179055503373ffffffffffffffffffffffffffffffffffffffff168173ffffffffffffffffffffffffffffffffffffffff167f8be0079c531659141344cd1fd0a4f28419497f9722a3daafe3b4186f6b6457e060405160405180910390a350565b6111726111ba565b73ffffffffffffffffffffffffffffffffffffffff166108fc479081150290604051600060405180830381858888f193505050501580156111b7573d6000803e3d6000fd5b50565b6000600d60009054906101000a900473ffffffffffffffffffffffffffffffffffffffff16905090565b6111ec612176565b60006111f6612208565b90508073ffffffffffffffffffffffffffffffffffffffff1663a9059cbb338373ffffffffffffffffffffffffffffffffffffffff166370a08231306040518263ffffffff1660e01b815260040161124e9190613ab3565b602060405180830381865afa15801561126b573d6000803e3d6000fd5b505050506040513d601f19601f8201168201806040525081019061128f919061477f565b6040518363ffffffff1660e01b81526004016112ac9291906147ac565b6020604051808303816000875af11580156112cb573d6000803e3d6000fd5b505050506040513d601f19601f820116820180604052508101906112ef91906147ea565b61132e576040517f08c379a000000000000000000000000000000000000000000000000000000000815260040161132590614863565b60405180910390fd5b50565b60006006600084815260200190815260200160002060000160008373ffffffffffffffffffffffffffffffffffffffff1673ffffffffffffffffffffffffffffffffffffffff16815260200190815260200160002060009054906101000a900460ff16905092915050565b7f000000000000000000000000000000000000000000000000000000000000000081565b6060600180546113cf90614159565b80601f01602080910402602001604051908101604052809291908181526020018280546113fb90614159565b80156114485780601f1061141d57610100808354040283529160200191611448565b820191906000526020600020905b81548152906001019060200180831161142b57829003601f168201915b5050505050905090565b601360019054906101000a900473ffffffffffffffffffffffffffffffffffffffff1673ffffffffffffffffffffffffffffffffffffffff1663d204c45e826040518263ffffffff1660e01b81526004016114ad919061498d565b600060405180830381600087803b1580156114c757600080fd5b505af11580156114db573d6000803e3d6000fd5b5050505050565b6000801b81565b6114fb6114f4611ba1565b8383612232565b5050565b61151061150a611ba1565b83611c62565b61154f576040517f08c379a0000000000000000000000000000000000000000000000000000000008152600401611546906143c6565b60405180910390fd5b61155b8484848461239e565b50505050565b611569612176565b80601360016101000a81548173ffffffffffffffffffffffffffffffffffffffff021916908373ffffffffffffffffffffffffffffffffffffffff16021790555050565b600f5481565b60606115be82611b56565b60006115c86123fa565b905060008151116115e85760405180602001604052806000815250611613565b806115f284612411565b6040516020016116039291906149f7565b6040516020818303038152906040525b915050919050565b61162482610af7565b61162d81611f5d565b6116378383612052565b505050565b6018805461164990614159565b80601f016020809104026020016040519081016040528092919081815260200182805461167590614159565b80156116c25780601f10611697576101008083540402835291602001916116c2565b820191906000526020600020905b8154815290600101906020018083116116a557829003601f168201915b505050505081565b6000600560008473ffffffffffffffffffffffffffffffffffffffff1673ffffffffffffffffffffffffffffffffffffffff16815260200190815260200160002060008373ffffffffffffffffffffffffffffffffffffffff1673ffffffffffffffffffffffffffffffffffffffff16815260200190815260200160002060009054906101000a900460ff16905092915050565b611766612176565b61176f81612571565b50565b601a5481565b60008061178f6010543063fd68990a60e01b61269f565b90506000846040516020016117a49190614a63565b60405160208183030381529060405290506000846040516020016117c89190613c96565b6040516020818303038152906040529050600082826040516020016117ee929190614b16565b60405160208183030381529060405290506118496040518060400160405280600381526020017f676574000000000000000000000000000000000000000000000000000000000081525082866126d09092919063ffffffff16565b6118c86040518060400160405280600481526020017f70617468000000000000000000000000000000000000000000000000000000008152506040518060400160405280600781526020017f7375636365737300000000000000000000000000000000000000000000000000815250866126d09092919063ffffffff16565b60006118d685601154612703565b9050876017600083815260200190815260200160002060006101000a81548173ffffffffffffffffffffffffffffffffffffffff021916908373ffffffffffffffffffffffffffffffffffffffff160217905550809550505050505092915050565b611940612176565b8060128190555050565b81600c600082815260200190815260200160002060009054906101000a900473ffffffffffffffffffffffffffffffffffffffff1673ffffffffffffffffffffffffffffffffffffffff163373ffffffffffffffffffffffffffffffffffffffff16146119ec576040517f08c379a00000000000000000000000000000000000000000000000000000000081526004016119e390614bc6565b60405180910390fd5b600c600082815260200190815260200160002060006101000a81549073ffffffffffffffffffffffffffffffffffffffff0219169055807f7cc135e0cebb02c3480ae5d74d377283180a2601f8f644edf7987b009316c63a60405160405180910390a260006017600085815260200190815260200160002060009054906101000a900473ffffffffffffffffffffffffffffffffffffffff169050600192508215611a9b57611a9a8161273a565b5b837f2a59adc454390ac082968c8c50e27a9901b5266815783beaea3e73e7cf992d4f846018604051611ace929190614c7b565b60405180910390a250505050565b60007f7965db0b000000000000000000000000000000000000000000000000000000007bffffffffffffffffffffffffffffffffffffffffffffffffffffffff1916827bffffffffffffffffffffffffffffffffffffffffffffffffffffffff19161480611b4f5750611b4e82612746565b5b9050919050565b611b5f81612828565b611b9e576040517f08c379a0000000000000000000000000000000000000000000000000000000008152600401611b959061464c565b60405180910390fd5b50565b600033905090565b816004600083815260200190815260200160002060006101000a81548173ffffffffffffffffffffffffffffffffffffffff021916908373ffffffffffffffffffffffffffffffffffffffff160217905550808273ffffffffffffffffffffffffffffffffffffffff16611c1c83610e2e565b73ffffffffffffffffffffffffffffffffffffffff167f8c5be1e5ebec7d5bd14f71427d1e84f3dd0314c0f7b2291e5b200ac8c7c3b92560405160405180910390a45050565b600080611c6e83610e2e565b90508073ffffffffffffffffffffffffffffffffffffffff168473ffffffffffffffffffffffffffffffffffffffff161480611cb05750611caf81856116ca565b5b80611cee57508373ffffffffffffffffffffffffffffffffffffffff16611cd684610871565b73ffffffffffffffffffffffffffffffffffffffff16145b91505092915050565b8273ffffffffffffffffffffffffffffffffffffffff16611d1782610e2e565b73ffffffffffffffffffffffffffffffffffffffff1614611d6d576040517f08c379a0000000000000000000000000000000000000000000000000000000008152600401611d6490614d1d565b60405180910390fd5b600073ffffffffffffffffffffffffffffffffffffffff168273ffffffffffffffffffffffffffffffffffffffff1603611ddc576040517f08c379a0000000000000000000000000000000000000000000000000000000008152600401611dd390614daf565b60405180910390fd5b611de7838383612894565b611df2600082611ba9565b6001600360008573ffffffffffffffffffffffffffffffffffffffff1673ffffffffffffffffffffffffffffffffffffffff1681526020019081526020016000206000828254611e4291906145cc565b925050819055506001600360008473ffffffffffffffffffffffffffffffffffffffff1673ffffffffffffffffffffffffffffffffffffffff1681526020019081526020016000206000828254611e9991906144e4565b92505081905550816002600083815260200190815260200160002060006101000a81548173ffffffffffffffffffffffffffffffffffffffff021916908373ffffffffffffffffffffffffffffffffffffffff160217905550808273ffffffffffffffffffffffffffffffffffffffff168473ffffffffffffffffffffffffffffffffffffffff167fddf252ad1be2c89b69c2b068fc378daa952ba7f163c4a11628f55a4df523b3ef60405160405180910390a4611f58838383612899565b505050565b611f6e81611f69611ba1565b61289e565b50565b611f7b8282611331565b61204e5760016006600084815260200190815260200160002060000160008373ffffffffffffffffffffffffffffffffffffffff1673ffffffffffffffffffffffffffffffffffffffff16815260200190815260200160002060006101000a81548160ff021916908315150217905550611ff3611ba1565b73ffffffffffffffffffffffffffffffffffffffff168173ffffffffffffffffffffffffffffffffffffffff16837f2f8788117e7eff1d82e926ec794901d17c78024a50270940304540a733656f0d60405160405180910390a45b5050565b61205c8282611331565b156121305760006006600084815260200190815260200160002060000160008373ffffffffffffffffffffffffffffffffffffffff1673ffffffffffffffffffffffffffffffffffffffff16815260200190815260200160002060006101000a81548160ff0219169083151502179055506120d5611ba1565b73ffffffffffffffffffffffffffffffffffffffff168173ffffffffffffffffffffffffffffffffffffffff16837ff6391f5c32d9c69d2a47ea670b442974b53935d1edc7fd64eb21e047a839171b60405160405180910390a45b5050565b600081600001549050919050565b6001816000016000828254019250508190555050565b61217282826040518060200160405280600081525061293b565b5050565b600d60009054906101000a900473ffffffffffffffffffffffffffffffffffffffff1673ffffffffffffffffffffffffffffffffffffffff163373ffffffffffffffffffffffffffffffffffffffff1614612206576040517f08c379a00000000000000000000000000000000000000000000000000000000081526004016121fd90614e1b565b60405180910390fd5b565b6000600960009054906101000a900473ffffffffffffffffffffffffffffffffffffffff16905090565b8173ffffffffffffffffffffffffffffffffffffffff168373ffffffffffffffffffffffffffffffffffffffff16036122a0576040517f08c379a000000000000000000000000000000000000000000000000000000000815260040161229790614e87565b60405180910390fd5b80600560008573ffffffffffffffffffffffffffffffffffffffff1673ffffffffffffffffffffffffffffffffffffffff16815260200190815260200160002060008473ffffffffffffffffffffffffffffffffffffffff1673ffffffffffffffffffffffffffffffffffffffff16815260200190815260200160002060006101000a81548160ff0219169083151502179055508173ffffffffffffffffffffffffffffffffffffffff168373ffffffffffffffffffffffffffffffffffffffff167f17307eab39ab6107e8899845ad3d59bd9653f200f220920489ca2b5937696c31836040516123919190613939565b60405180910390a3505050565b6123a9848484611cf7565b6123b584848484612996565b6123f4576040517f08c379a00000000000000000000000000000000000000000000000000000000081526004016123eb90614f19565b60405180910390fd5b50505050565b606060405180602001604052806000815250905090565b606060008203612458576040518060400160405280600181526020017f3000000000000000000000000000000000000000000000000000000000000000815250905061256c565b600082905060005b6000821461248a5780806124739061430c565b915050600a826124839190614f68565b9150612460565b60008167ffffffffffffffff8111156124a6576124a5613efc565b5b6040519080825280601f01601f1916602001820160405280156124d85781602001600182028036833780820191505090505b5090505b60008514612565576001826124f191906145cc565b9150600a856125009190614f99565b603061250c91906144e4565b60f81b818381518110612522576125216142ae565b5b60200101907effffffffffffffffffffffffffffffffffffffffffffffffffffffffffffff1916908160001a905350600a8561255e9190614f68565b94506124dc565b8093505050505b919050565b3373ffffffffffffffffffffffffffffffffffffffff168173ffffffffffffffffffffffffffffffffffffffff16036125df576040517f08c379a00000000000000000000000000000000000000000000000000000000081526004016125d690615016565b60405180910390fd5b80600e60006101000a81548173ffffffffffffffffffffffffffffffffffffffff021916908373ffffffffffffffffffffffffffffffffffffffff1602179055508073ffffffffffffffffffffffffffffffffffffffff16600d60009054906101000a900473ffffffffffffffffffffffffffffffffffffffff1673ffffffffffffffffffffffffffffffffffffffff167fed8889f560326eb138920d842192f0eb3dd22b4f139c87a2c57538e05bae127860405160405180910390a350565b6126a76137e1565b6126af6137e1565b6126c685858584612b1d909392919063ffffffff16565b9150509392505050565b6126e7828460800151612bcd90919063ffffffff16565b6126fe818460800151612bcd90919063ffffffff16565b505050565b6000612732600a60009054906101000a900473ffffffffffffffffffffffffffffffffffffffff168484612bf2565b905092915050565b61274381611452565b50565b60007f80ac58cd000000000000000000000000000000000000000000000000000000007bffffffffffffffffffffffffffffffffffffffffffffffffffffffff1916827bffffffffffffffffffffffffffffffffffffffffffffffffffffffff1916148061281157507f5b5e139f000000000000000000000000000000000000000000000000000000007bffffffffffffffffffffffffffffffffffffffffffffffffffffffff1916827bffffffffffffffffffffffffffffffffffffffffffffffffffffffff1916145b80612821575061282082612cbe565b5b9050919050565b60008073ffffffffffffffffffffffffffffffffffffffff166002600084815260200190815260200160002060009054906101000a900473ffffffffffffffffffffffffffffffffffffffff1673ffffffffffffffffffffffffffffffffffffffff1614159050919050565b505050565b505050565b6128a88282611331565b612937576128cd8173ffffffffffffffffffffffffffffffffffffffff166014612d28565b6128db8360001c6020612d28565b6040516020016128ec9291906150ce565b6040516020818303038152906040526040517f08c379a000000000000000000000000000000000000000000000000000000000815260040161292e91906139ed565b60405180910390fd5b5050565b6129458383612f64565b6129526000848484612996565b612991576040517f08c379a000000000000000000000000000000000000000000000000000000000815260040161298890614f19565b60405180910390fd5b505050565b60006129b78473ffffffffffffffffffffffffffffffffffffffff1661313d565b15612b10578373ffffffffffffffffffffffffffffffffffffffff1663150b7a026129e0611ba1565b8786866040518563ffffffff1660e01b8152600401612a029493929190615108565b6020604051808303816000875af1925050508015612a3e57506040513d601f19601f82011682018060405250810190612a3b9190615169565b60015b612ac0573d8060008114612a6e576040519150601f19603f3d011682016040523d82523d6000602084013e612a73565b606091505b506000815103612ab8576040517f08c379a0000000000000000000000000000000000000000000000000000000008152600401612aaf90614f19565b60405180910390fd5b805181602001fd5b63150b7a0260e01b7bffffffffffffffffffffffffffffffffffffffffffffffffffffffff1916817bffffffffffffffffffffffffffffffffffffffffffffffffffffffff191614915050612b15565b600190505b949350505050565b612b256137e1565b612b358560800151610100613160565b508385600001818152505082856020019073ffffffffffffffffffffffffffffffffffffffff16908173ffffffffffffffffffffffffffffffffffffffff16815250508185604001907bffffffffffffffffffffffffffffffffffffffffffffffffffffffff191690817bffffffffffffffffffffffffffffffffffffffffffffffffffffffff191681525050849050949350505050565b612bda82600383516131ca565b612bed818361334f90919063ffffffff16565b505050565b600080600b549050600181612c0791906144e4565b600b819055506000634042994660e01b60008087600001513089604001518760018c6080015160000151604051602401612c489897969594939291906151a5565b604051602081830303815290604052907bffffffffffffffffffffffffffffffffffffffffffffffffffffffff19166020820180517bffffffffffffffffffffffffffffffffffffffffffffffffffffffff83818316178352505050509050612cb386838684613371565b925050509392505050565b60007f01ffc9a7000000000000000000000000000000000000000000000000000000007bffffffffffffffffffffffffffffffffffffffffffffffffffffffff1916827bffffffffffffffffffffffffffffffffffffffffffffffffffffffff1916149050919050565b606060006002836002612d3b919061522a565b612d4591906144e4565b67ffffffffffffffff811115612d5e57612d5d613efc565b5b6040519080825280601f01601f191660200182016040528015612d905781602001600182028036833780820191505090505b5090507f300000000000000000000000000000000000000000000000000000000000000081600081518110612dc857612dc76142ae565b5b60200101907effffffffffffffffffffffffffffffffffffffffffffffffffffffffffffff1916908160001a9053507f780000000000000000000000000000000000000000000000000000000000000081600181518110612e2c57612e2b6142ae565b5b60200101907effffffffffffffffffffffffffffffffffffffffffffffffffffffffffffff1916908160001a90535060006001846002612e6c919061522a565b612e7691906144e4565b90505b6001811115612f16577f3031323334353637383961626364656600000000000000000000000000000000600f861660108110612eb857612eb76142ae565b5b1a60f81b828281518110612ecf57612ece6142ae565b5b60200101907effffffffffffffffffffffffffffffffffffffffffffffffffffffffffffff1916908160001a905350600485901c945080612f0f90615284565b9050612e79565b5060008414612f5a576040517f08c379a0000000000000000000000000000000000000000000000000000000008152600401612f51906152f9565b60405180910390fd5b8091505092915050565b600073ffffffffffffffffffffffffffffffffffffffff168273ffffffffffffffffffffffffffffffffffffffff1603612fd3576040517f08c379a0000000000000000000000000000000000000000000000000000000008152600401612fca90615365565b60405180910390fd5b612fdc81612828565b1561301c576040517f08c379a0000000000000000000000000000000000000000000000000000000008152600401613013906153d1565b60405180910390fd5b61302860008383612894565b6001600360008473ffffffffffffffffffffffffffffffffffffffff1673ffffffffffffffffffffffffffffffffffffffff168152602001908152602001600020600082825461307891906144e4565b92505081905550816002600083815260200190815260200160002060006101000a81548173ffffffffffffffffffffffffffffffffffffffff021916908373ffffffffffffffffffffffffffffffffffffffff160217905550808273ffffffffffffffffffffffffffffffffffffffff16600073ffffffffffffffffffffffffffffffffffffffff167fddf252ad1be2c89b69c2b068fc378daa952ba7f163c4a11628f55a4df523b3ef60405160405180910390a461313960008383612899565b5050565b6000808273ffffffffffffffffffffffffffffffffffffffff163b119050919050565b61316861384e565b60006020836131779190614f99565b146131a3576020826131899190614f99565b602061319591906145cc565b826131a091906144e4565b91505b81836020018181525050604051808452600081528281016020016040525082905092915050565b60178167ffffffffffffffff1611613201576131fb8160058460ff16901b60ff16178461350690919063ffffffff16565b5061334a565b60ff8167ffffffffffffffff161161325757613230601860058460ff16901b178461350690919063ffffffff16565b506132518167ffffffffffffffff166001856135269092919063ffffffff16565b50613349565b61ffff8167ffffffffffffffff16116132ae57613287601960058460ff16901b178461350690919063ffffffff16565b506132a88167ffffffffffffffff166002856135269092919063ffffffff16565b50613348565b63ffffffff8167ffffffffffffffff1611613307576132e0601a60058460ff16901b178461350690919063ffffffff16565b506133018167ffffffffffffffff166004856135269092919063ffffffff16565b50613347565b613324601b60058460ff16901b178461350690919063ffffffff16565b506133458167ffffffffffffffff166008856135269092919063ffffffff16565b505b5b5b5b505050565b61335761384e565b61336983846000015151848551613548565b905092915050565b60003084604051602001613386929190615479565b60405160208183030381529060405280519060200120905084600c600083815260200190815260200160002060006101000a81548173ffffffffffffffffffffffffffffffffffffffff021916908373ffffffffffffffffffffffffffffffffffffffff160217905550807fb5e6e01e79f91267dc17b4e6314d5d4d03593d2ceee0fbb452b750bd70ea5af960405160405180910390a2600960009054906101000a900473ffffffffffffffffffffffffffffffffffffffff1673ffffffffffffffffffffffffffffffffffffffff16634000aea08685856040518463ffffffff1660e01b815260040161347c939291906154a5565b6020604051808303816000875af115801561349b573d6000803e3d6000fd5b505050506040513d601f19601f820116820180604052508101906134bf91906147ea565b6134fe576040517f08c379a00000000000000000000000000000000000000000000000000000000081526004016134f590615555565b60405180910390fd5b949350505050565b61350e61384e565b61351e8384600001515184613637565b905092915050565b61352e61384e565b61353f84856000015151858561368d565b90509392505050565b61355061384e565b825182111561355e57600080fd5b8460200151828561356f91906144e4565b11156135a4576135a38560026135948860200151888761358f91906144e4565b61371b565b61359e919061522a565b613737565b5b6000808651805187602083010193508088870111156135c35787860182525b60208701925050505b6020841061360a57805182526020826135e591906144e4565b91506020816135f491906144e4565b905060208461360391906145cc565b93506135cc565b60006001856020036101000a03905080198251168184511681811785525050508692505050949350505050565b61363f61384e565b8360200151831061366557613664846002866020015161365f919061522a565b613737565b5b83518051602085830101848153818603613680576001820183525b5050508390509392505050565b61369561384e565b846020015184836136a691906144e4565b11156136ce576136cd85600286856136be91906144e4565b6136c8919061522a565b613737565b5b60006001836101006136e091906156a8565b6136ea91906145cc565b9050855183868201018583198251161781528151858801111561370d5784870182525b505085915050949350505050565b60008183111561372d57829050613731565b8190505b92915050565b60008260000151905061374a8383613160565b50613755838261334f565b50505050565b82805461376790614159565b90600052602060002090601f01602090048101928261378957600085556137d0565b82601f106137a257803560ff19168380011785556137d0565b828001600101855582156137d0579182015b828111156137cf5782358255916020019190600101906137b4565b5b5090506137dd9190613868565b5090565b6040518060a0016040528060008019168152602001600073ffffffffffffffffffffffffffffffffffffffff16815260200160007bffffffffffffffffffffffffffffffffffffffffffffffffffffffff191681526020016000815260200161384861384e565b81525090565b604051806040016040528060608152602001600081525090565b5b80821115613881576000816000905550600101613869565b5090565b6000604051905090565b600080fd5b600080fd5b60007fffffffff0000000000000000000000000000000000000000000000000000000082169050919050565b6138ce81613899565b81146138d957600080fd5b50565b6000813590506138eb816138c5565b92915050565b6000602082840312156139075761390661388f565b5b6000613915848285016138dc565b91505092915050565b60008115159050919050565b6139338161391e565b82525050565b600060208201905061394e600083018461392a565b92915050565b600081519050919050565b600082825260208201905092915050565b60005b8381101561398e578082015181840152602081019050613973565b8381111561399d576000848401525b50505050565b6000601f19601f8301169050919050565b60006139bf82613954565b6139c9818561395f565b93506139d9818560208601613970565b6139e2816139a3565b840191505092915050565b60006020820190508181036000830152613a0781846139b4565b905092915050565b6000819050919050565b613a2281613a0f565b8114613a2d57600080fd5b50565b600081359050613a3f81613a19565b92915050565b600060208284031215613a5b57613a5a61388f565b5b6000613a6984828501613a30565b91505092915050565b600073ffffffffffffffffffffffffffffffffffffffff82169050919050565b6000613a9d82613a72565b9050919050565b613aad81613a92565b82525050565b6000602082019050613ac86000830184613aa4565b92915050565b613ad781613a92565b8114613ae257600080fd5b50565b600081359050613af481613ace565b92915050565b60008060408385031215613b1157613b1061388f565b5b6000613b1f85828601613ae5565b9250506020613b3085828601613a30565b9150509250929050565b600080600060608486031215613b5357613b5261388f565b5b6000613b6186828701613ae5565b9350506020613b7286828701613ae5565b9250506040613b8386828701613a30565b9150509250925092565b6000819050919050565b613ba081613b8d565b8114613bab57600080fd5b50565b600081359050613bbd81613b97565b92915050565b600060208284031215613bd957613bd861388f565b5b6000613be784828501613bae565b91505092915050565b613bf981613b8d565b82525050565b6000602082019050613c146000830184613bf0565b92915050565b60008060408385031215613c3157613c3061388f565b5b6000613c3f85828601613bae565b9250506020613c5085828601613ae5565b9150509250929050565b600060208284031215613c7057613c6f61388f565b5b6000613c7e84828501613ae5565b91505092915050565b613c9081613a0f565b82525050565b6000602082019050613cab6000830184613c87565b92915050565b600080fd5b600080fd5b600080fd5b60008083601f840112613cd657613cd5613cb1565b5b8235905067ffffffffffffffff811115613cf357613cf2613cb6565b5b602083019150836001820283011115613d0f57613d0e613cbb565b5b9250929050565b60008060208385031215613d2d57613d2c61388f565b5b600083013567ffffffffffffffff811115613d4b57613d4a613894565b5b613d5785828601613cc0565b92509250509250929050565b60008083601f840112613d7957613d78613cb1565b5b8235905067ffffffffffffffff811115613d9657613d95613cb6565b5b602083019150836001820283011115613db257613db1613cbb565b5b9250929050565b60008060208385031215613dd057613dcf61388f565b5b600083013567ffffffffffffffff811115613dee57613ded613894565b5b613dfa85828601613d63565b92509250509250929050565b600081519050919050565b600082825260208201905092915050565b6000613e2d82613e06565b613e378185613e11565b9350613e47818560208601613970565b613e50816139a3565b840191505092915050565b6000604082019050613e70600083018561392a565b8181036020830152613e828184613e22565b90509392505050565b613e948161391e565b8114613e9f57600080fd5b50565b600081359050613eb181613e8b565b92915050565b60008060408385031215613ece57613ecd61388f565b5b6000613edc85828601613ae5565b9250506020613eed85828601613ea2565b9150509250929050565b600080fd5b7f4e487b7100000000000000000000000000000000000000000000000000000000600052604160045260246000fd5b613f34826139a3565b810181811067ffffffffffffffff82111715613f5357613f52613efc565b5b80604052505050565b6000613f66613885565b9050613f728282613f2b565b919050565b600067ffffffffffffffff821115613f9257613f91613efc565b5b613f9b826139a3565b9050602081019050919050565b82818337600083830152505050565b6000613fca613fc584613f77565b613f5c565b905082815260208101848484011115613fe657613fe5613ef7565b5b613ff1848285613fa8565b509392505050565b600082601f83011261400e5761400d613cb1565b5b813561401e848260208601613fb7565b91505092915050565b600080600080608085870312156140415761404061388f565b5b600061404f87828801613ae5565b945050602061406087828801613ae5565b935050604061407187828801613a30565b925050606085013567ffffffffffffffff81111561409257614091613894565b5b61409e87828801613ff9565b91505092959194509250565b600080604083850312156140c1576140c061388f565b5b60006140cf85828601613ae5565b92505060206140e085828601613ae5565b9150509250929050565b600080604083850312156141015761410061388f565b5b600061410f85828601613bae565b925050602061412085828601613ea2565b9150509250929050565b7f4e487b7100000000000000000000000000000000000000000000000000000000600052602260045260246000fd5b6000600282049050600182168061417157607f821691505b6020821081036141845761418361412a565b5b50919050565b7f4552433732313a20617070726f76616c20746f2063757272656e74206f776e6560008201527f7200000000000000000000000000000000000000000000000000000000000000602082015250565b60006141e660218361395f565b91506141f18261418a565b604082019050919050565b60006020820190508181036000830152614215816141d9565b9050919050565b7f4552433732313a20617070726f76652063616c6c6572206973206e6f7420746f60008201527f6b656e206f776e6572206e6f7220617070726f76656420666f7220616c6c0000602082015250565b6000614278603e8361395f565b91506142838261421c565b604082019050919050565b600060208201905081810360008301526142a78161426b565b9050919050565b7f4e487b7100000000000000000000000000000000000000000000000000000000600052603260045260246000fd5b7f4e487b7100000000000000000000000000000000000000000000000000000000600052601160045260246000fd5b600061431782613a0f565b91507fffffffffffffffffffffffffffffffffffffffffffffffffffffffffffffffff8203614349576143486142dd565b5b600182019050919050565b7f4552433732313a2063616c6c6572206973206e6f7420746f6b656e206f776e6560008201527f72206e6f7220617070726f766564000000000000000000000000000000000000602082015250565b60006143b0602e8361395f565b91506143bb82614354565b604082019050919050565b600060208201905081810360008301526143df816143a3565b9050919050565b7f416363657373436f6e74726f6c3a2063616e206f6e6c792072656e6f756e636560008201527f20726f6c657320666f722073656c660000000000000000000000000000000000602082015250565b6000614442602f8361395f565b915061444d826143e6565b604082019050919050565b6000602082019050818103600083015261447181614435565b9050919050565b7f5573657220616c7265616479206d696e74656400000000000000000000000000600082015250565b60006144ae60138361395f565b91506144b982614478565b602082019050919050565b600060208201905081810360008301526144dd816144a1565b9050919050565b60006144ef82613a0f565b91506144fa83613a0f565b9250827fffffffffffffffffffffffffffffffffffffffffffffffffffffffffffffffff0382111561452f5761452e6142dd565b5b828201905092915050565b7f507572636861736520776f756c6420657863656564206d617820737570706c7960008201527f206f6620746f6b656e7300000000000000000000000000000000000000000000602082015250565b6000614596602a8361395f565b91506145a18261453a565b604082019050919050565b600060208201905081810360008301526145c581614589565b9050919050565b60006145d782613a0f565b91506145e283613a0f565b9250828210156145f5576145f46142dd565b5b828203905092915050565b7f4552433732313a20696e76616c696420746f6b656e2049440000000000000000600082015250565b600061463660188361395f565b915061464182614600565b602082019050919050565b6000602082019050818103600083015261466581614629565b9050919050565b7f4552433732313a2061646472657373207a65726f206973206e6f74206120766160008201527f6c6964206f776e65720000000000000000000000000000000000000000000000602082015250565b60006146c860298361395f565b91506146d38261466c565b604082019050919050565b600060208201905081810360008301526146f7816146bb565b9050919050565b7f4d7573742062652070726f706f736564206f776e657200000000000000000000600082015250565b600061473460168361395f565b915061473f826146fe565b602082019050919050565b6000602082019050818103600083015261476381614727565b9050919050565b60008151905061477981613a19565b92915050565b6000602082840312156147955761479461388f565b5b60006147a38482850161476a565b91505092915050565b60006040820190506147c16000830185613aa4565b6147ce6020830184613c87565b9392505050565b6000815190506147e481613e8b565b92915050565b600060208284031215614800576147ff61388f565b5b600061480e848285016147d5565b91505092915050565b7f556e61626c6520746f207472616e736665720000000000000000000000000000600082015250565b600061484d60128361395f565b915061485882614817565b602082019050919050565b6000602082019050818103600083015261487c81614840565b9050919050565b7f68747470733a2f2f6d656469612e6973746f636b70686f746f2e636f6d2f706860008201527f6f746f732f79656c6c6f772d7275626265722d6475636b2d666f722d6261746860208201527f2d74696d652d706963747572652d69643138353539303936353f6b3d3230266d60408201527f3d31383535393039363526733d3631327836313226773d3026683d745844694e60608201527f3737767a647647794375494e3374443849366b556a4132664e712d644b61566d60808201527f6f64587554413d0000000000000000000000000000000000000000000000000060a082015250565b600061497760a78361395f565b915061498282614883565b60c082019050919050565b60006040820190506149a26000830184613aa4565b81810360208301526149b38161496a565b905092915050565b600081905092915050565b60006149d182613954565b6149db81856149bb565b93506149eb818560208601613970565b80840191505092915050565b6000614a0382856149c6565b9150614a0f82846149c6565b91508190509392505050565b60008160601b9050919050565b6000614a3382614a1b565b9050919050565b6000614a4582614a28565b9050919050565b614a5d614a5882613a92565b614a3a565b82525050565b6000614a6f8284614a4c565b60148201915081905092915050565b7f68747470733a2f2f67617465732e7774662f6170692f7665726966793f61646460008201527f726573733d000000000000000000000000000000000000000000000000000000602082015250565b6000614ada6025836149bb565b9150614ae582614a7e565b602582019050919050565b7f266761746549643d000000000000000000000000000000000000000000000000815250565b6000614b2182614acd565b9150614b2d82856149c6565b9150614b3882614af0565b600882019150614b4882846149c6565b91508190509392505050565b7f536f75726365206d75737420626520746865206f7261636c65206f662074686560008201527f2072657175657374000000000000000000000000000000000000000000000000602082015250565b6000614bb060288361395f565b9150614bbb82614b54565b604082019050919050565b60006020820190508181036000830152614bdf81614ba3565b9050919050565b60008190508160005260206000209050919050565b60008154614c0881614159565b614c12818661395f565b94506001821660008114614c2d5760018114614c3f57614c72565b60ff1983168652602086019350614c72565b614c4885614be6565b60005b83811015614c6a57815481890152600182019150602081019050614c4b565b808801955050505b50505092915050565b6000604082019050614c90600083018561392a565b8181036020830152614ca28184614bfb565b90509392505050565b7f4552433732313a207472616e736665722066726f6d20696e636f72726563742060008201527f6f776e6572000000000000000000000000000000000000000000000000000000602082015250565b6000614d0760258361395f565b9150614d1282614cab565b604082019050919050565b60006020820190508181036000830152614d3681614cfa565b9050919050565b7f4552433732313a207472616e7366657220746f20746865207a65726f2061646460008201527f7265737300000000000000000000000000000000000000000000000000000000602082015250565b6000614d9960248361395f565b9150614da482614d3d565b604082019050919050565b60006020820190508181036000830152614dc881614d8c565b9050919050565b7f4f6e6c792063616c6c61626c65206279206f776e657200000000000000000000600082015250565b6000614e0560168361395f565b9150614e1082614dcf565b602082019050919050565b60006020820190508181036000830152614e3481614df8565b9050919050565b7f4552433732313a20617070726f766520746f2063616c6c657200000000000000600082015250565b6000614e7160198361395f565b9150614e7c82614e3b565b602082019050919050565b60006020820190508181036000830152614ea081614e64565b9050919050565b7f4552433732313a207472616e7366657220746f206e6f6e20455243373231526560008201527f63656976657220696d706c656d656e7465720000000000000000000000000000602082015250565b6000614f0360328361395f565b9150614f0e82614ea7565b604082019050919050565b60006020820190508181036000830152614f3281614ef6565b9050919050565b7f4e487b7100000000000000000000000000000000000000000000000000000000600052601260045260246000fd5b6000614f7382613a0f565b9150614f7e83613a0f565b925082614f8e57614f8d614f39565b5b828204905092915050565b6000614fa482613a0f565b9150614faf83613a0f565b925082614fbf57614fbe614f39565b5b828206905092915050565b7f43616e6e6f74207472616e7366657220746f2073656c66000000000000000000600082015250565b600061500060178361395f565b915061500b82614fca565b602082019050919050565b6000602082019050818103600083015261502f81614ff3565b9050919050565b7f416363657373436f6e74726f6c3a206163636f756e7420000000000000000000600082015250565b600061506c6017836149bb565b915061507782615036565b601782019050919050565b7f206973206d697373696e6720726f6c6520000000000000000000000000000000600082015250565b60006150b86011836149bb565b91506150c382615082565b601182019050919050565b60006150d98261505f565b91506150e582856149c6565b91506150f0826150ab565b91506150fc82846149c6565b91508190509392505050565b600060808201905061511d6000830187613aa4565b61512a6020830186613aa4565b6151376040830185613c87565b81810360608301526151498184613e22565b905095945050505050565b600081519050615163816138c5565b92915050565b60006020828403121561517f5761517e61388f565b5b600061518d84828501615154565b91505092915050565b61519f81613899565b82525050565b6000610100820190506151bb600083018b613aa4565b6151c8602083018a613c87565b6151d56040830189613bf0565b6151e26060830188613aa4565b6151ef6080830187615196565b6151fc60a0830186613c87565b61520960c0830185613c87565b81810360e083015261521b8184613e22565b90509998505050505050505050565b600061523582613a0f565b915061524083613a0f565b9250817fffffffffffffffffffffffffffffffffffffffffffffffffffffffffffffffff0483118215151615615279576152786142dd565b5b828202905092915050565b600061528f82613a0f565b9150600082036152a2576152a16142dd565b5b600182039050919050565b7f537472696e67733a20686578206c656e67746820696e73756666696369656e74600082015250565b60006152e360208361395f565b91506152ee826152ad565b602082019050919050565b60006020820190508181036000830152615312816152d6565b9050919050565b7f4552433732313a206d696e7420746f20746865207a65726f2061646472657373600082015250565b600061534f60208361395f565b915061535a82615319565b602082019050919050565b6000602082019050818103600083015261537e81615342565b9050919050565b7f4552433732313a20746f6b656e20616c7265616479206d696e74656400000000600082015250565b60006153bb601c8361395f565b91506153c682615385565b602082019050919050565b600060208201905081810360008301526153ea816153ae565b9050919050565b6000819050919050565b600061541661541161540c84613a72565b6153f1565b613a72565b9050919050565b6000615428826153fb565b9050919050565b600061543a8261541d565b9050919050565b61545261544d8261542f565b614a3a565b82525050565b6000819050919050565b61547361546e82613a0f565b615458565b82525050565b60006154858285615441565b6014820191506154958284615462565b6020820191508190509392505050565b60006060820190506154ba6000830186613aa4565b6154c76020830185613c87565b81810360408301526154d98184613e22565b9050949350505050565b7f756e61626c6520746f207472616e73666572416e6443616c6c20746f206f726160008201527f636c650000000000000000000000000000000000000000000000000000000000602082015250565b600061553f60238361395f565b915061554a826154e3565b604082019050919050565b6000602082019050818103600083015261556e81615532565b9050919050565b60008160011c9050919050565b6000808291508390505b60018511156155cc578086048111156155a8576155a76142dd565b5b60018516156155b75780820291505b80810290506155c585615575565b945061558c565b94509492505050565b6000826155e557600190506156a1565b816155f357600090506156a1565b8160018114615609576002811461561357615642565b60019150506156a1565b60ff841115615625576156246142dd565b5b8360020a91508482111561563c5761563b6142dd565b5b506156a1565b5060208310610133831016604e8410600b84101617156156775782820a905083811115615672576156716142dd565b5b6156a1565b6156848484846001615582565b9250905081840481111561569b5761569a6142dd565b5b81810290505b9392505050565b60006156b382613a0f565b91506156be83613a0f565b92506156eb7fffffffffffffffffffffffffffffffffffffffffffffffffffffffffffffffff84846155d5565b90509291505056fea2646970667358221220960ffb02e453f85c3ec0bb1dc28256a263944cb85665ad72e6d83130eb1c30b864736f6c634300080e0033",
  "devdoc": {
    "kind": "dev",
    "methods": {
      "approve(address,uint256)": {
        "details": "See {IERC721-approve}."
      },
      "balanceOf(address)": {
        "details": "See {IERC721-balanceOf}."
      },
      "getApproved(uint256)": {
        "details": "See {IERC721-getApproved}."
      },
      "getRoleAdmin(bytes32)": {
        "details": "Returns the admin role that controls `role`. See {grantRole} and {revokeRole}. To change a role's admin, use {_setRoleAdmin}."
      },
      "grantRole(bytes32,address)": {
        "details": "Grants `role` to `account`. If `account` had not been already granted `role`, emits a {RoleGranted} event. Requirements: - the caller must have ``role``'s admin role. May emit a {RoleGranted} event."
      },
      "hasRole(bytes32,address)": {
        "details": "Returns `true` if `account` has been granted `role`."
      },
      "isApprovedForAll(address,address)": {
        "details": "See {IERC721-isApprovedForAll}."
      },
      "name()": {
        "details": "See {IERC721Metadata-name}."
      },
      "ownerOf(uint256)": {
        "details": "See {IERC721-ownerOf}."
      },
      "renounceRole(bytes32,address)": {
        "details": "Revokes `role` from the calling account. Roles are often managed via {grantRole} and {revokeRole}: this function's purpose is to provide a mechanism for accounts to lose their privileges if they are compromised (such as when a trusted device is misplaced). If the calling account had been revoked `role`, emits a {RoleRevoked} event. Requirements: - the caller must be `account`. May emit a {RoleRevoked} event."
      },
      "revokeRole(bytes32,address)": {
        "details": "Revokes `role` from `account`. If `account` had been granted `role`, emits a {RoleRevoked} event. Requirements: - the caller must have ``role``'s admin role. May emit a {RoleRevoked} event."
      },
      "safeTransferFrom(address,address,uint256)": {
        "details": "See {IERC721-safeTransferFrom}."
      },
      "safeTransferFrom(address,address,uint256,bytes)": {
        "details": "See {IERC721-safeTransferFrom}."
      },
      "setApprovalForAll(address,bool)": {
        "details": "See {IERC721-setApprovalForAll}."
      },
      "symbol()": {
        "details": "See {IERC721Metadata-symbol}."
      },
      "tokenURI(uint256)": {
        "details": "See {IERC721Metadata-tokenURI}."
      },
      "transferFrom(address,address,uint256)": {
        "details": "See {IERC721-transferFrom}."
      }
    },
    "version": 1
  },
  "userdoc": {
    "kind": "user",
    "methods": {
      "acceptOwnership()": {
        "notice": "Allows an ownership transfer to be completed by the recipient."
      },
      "interval()": {
        "notice": "Use an interval in seconds and a timestamp to slow execution of Upkeep"
      },
      "owner()": {
        "notice": "Get the current owner"
      },
      "transferOwnership(address)": {
        "notice": "Allows an owner to begin transferring ownership to a new address, pending."
      },
      "withdrawLink()": {
        "notice": "Allow withdraw of Link tokens from the contract"
      }
    },
    "version": 1
  },
  "storageLayout": {
    "storage": [
      {
        "astId": 2963,
        "contract": "contracts/Arbigates.sol:Arbigates",
        "label": "_name",
        "offset": 0,
        "slot": "0",
        "type": "t_string_storage"
      },
      {
        "astId": 2965,
        "contract": "contracts/Arbigates.sol:Arbigates",
        "label": "_symbol",
        "offset": 0,
        "slot": "1",
        "type": "t_string_storage"
      },
      {
        "astId": 2969,
        "contract": "contracts/Arbigates.sol:Arbigates",
        "label": "_owners",
        "offset": 0,
        "slot": "2",
        "type": "t_mapping(t_uint256,t_address)"
      },
      {
        "astId": 2973,
        "contract": "contracts/Arbigates.sol:Arbigates",
        "label": "_balances",
        "offset": 0,
        "slot": "3",
        "type": "t_mapping(t_address,t_uint256)"
      },
      {
        "astId": 2977,
        "contract": "contracts/Arbigates.sol:Arbigates",
        "label": "_tokenApprovals",
        "offset": 0,
        "slot": "4",
        "type": "t_mapping(t_uint256,t_address)"
      },
      {
        "astId": 2983,
        "contract": "contracts/Arbigates.sol:Arbigates",
        "label": "_operatorApprovals",
        "offset": 0,
        "slot": "5",
        "type": "t_mapping(t_address,t_mapping(t_address,t_bool))"
      },
      {
        "astId": 2456,
        "contract": "contracts/Arbigates.sol:Arbigates",
        "label": "_roles",
        "offset": 0,
        "slot": "6",
        "type": "t_mapping(t_bytes32,t_struct(RoleData)2451_storage)"
      },
      {
        "astId": 358,
        "contract": "contracts/Arbigates.sol:Arbigates",
        "label": "s_ens",
        "offset": 0,
        "slot": "7",
        "type": "t_contract(ENSInterface)1214"
      },
      {
        "astId": 360,
        "contract": "contracts/Arbigates.sol:Arbigates",
        "label": "s_ensNode",
        "offset": 0,
        "slot": "8",
        "type": "t_bytes32"
      },
      {
        "astId": 363,
        "contract": "contracts/Arbigates.sol:Arbigates",
        "label": "s_link",
        "offset": 0,
        "slot": "9",
        "type": "t_contract(LinkTokenInterface)1309"
      },
      {
        "astId": 366,
        "contract": "contracts/Arbigates.sol:Arbigates",
        "label": "s_oracle",
        "offset": 0,
        "slot": "10",
        "type": "t_contract(OperatorInterface)1389"
      },
      {
        "astId": 369,
        "contract": "contracts/Arbigates.sol:Arbigates",
        "label": "s_requestCount",
        "offset": 0,
        "slot": "11",
        "type": "t_uint256"
      },
      {
        "astId": 373,
        "contract": "contracts/Arbigates.sol:Arbigates",
        "label": "s_pendingRequests",
        "offset": 0,
        "slot": "12",
        "type": "t_mapping(t_bytes32,t_address)"
      },
      {
        "astId": 928,
        "contract": "contracts/Arbigates.sol:Arbigates",
        "label": "s_owner",
        "offset": 0,
        "slot": "13",
        "type": "t_address"
      },
      {
        "astId": 930,
        "contract": "contracts/Arbigates.sol:Arbigates",
        "label": "s_pendingOwner",
        "offset": 0,
        "slot": "14",
        "type": "t_address"
      },
      {
        "astId": 4794,
        "contract": "contracts/Arbigates.sol:Arbigates",
        "label": "volume",
        "offset": 0,
        "slot": "15",
        "type": "t_uint256"
      },
      {
        "astId": 4796,
        "contract": "contracts/Arbigates.sol:Arbigates",
        "label": "jobId",
        "offset": 0,
        "slot": "16",
        "type": "t_bytes32"
      },
      {
        "astId": 4798,
        "contract": "contracts/Arbigates.sol:Arbigates",
        "label": "fee",
        "offset": 0,
        "slot": "17",
        "type": "t_uint256"
      },
      {
        "astId": 4800,
        "contract": "contracts/Arbigates.sol:Arbigates",
        "label": "gateID",
        "offset": 0,
        "slot": "18",
        "type": "t_uint256"
      },
      {
        "astId": 4802,
        "contract": "contracts/Arbigates.sol:Arbigates",
        "label": "approved",
        "offset": 0,
        "slot": "19",
        "type": "t_bool"
      },
      {
        "astId": 4813,
        "contract": "contracts/Arbigates.sol:Arbigates",
        "label": "MintingContractAddress",
        "offset": 1,
        "slot": "19",
        "type": "t_address"
      },
      {
        "astId": 4815,
        "contract": "contracts/Arbigates.sol:Arbigates",
        "label": "counter",
        "offset": 0,
        "slot": "20",
        "type": "t_uint256"
      },
      {
        "astId": 4820,
        "contract": "contracts/Arbigates.sol:Arbigates",
        "label": "lastTimeStamp",
        "offset": 0,
        "slot": "21",
        "type": "t_uint256"
      },
      {
        "astId": 4823,
        "contract": "contracts/Arbigates.sol:Arbigates",
        "label": "addressesToVerify",
        "offset": 0,
        "slot": "22",
        "type": "t_array(t_address)dyn_storage"
      },
      {
        "astId": 4827,
        "contract": "contracts/Arbigates.sol:Arbigates",
        "label": "responseID",
        "offset": 0,
        "slot": "23",
        "type": "t_mapping(t_bytes32,t_address)"
      },
      {
        "astId": 4966,
        "contract": "contracts/Arbigates.sol:Arbigates",
        "label": "lastChecked",
        "offset": 0,
        "slot": "24",
        "type": "t_string_storage"
      },
      {
        "astId": 4633,
        "contract": "contracts/Arbigates.sol:Arbigates",
        "label": "baseTokenURI",
        "offset": 0,
        "slot": "25",
        "type": "t_string_storage"
      },
      {
        "astId": 4636,
        "contract": "contracts/Arbigates.sol:Arbigates",
        "label": "MAX_TOKENS",
        "offset": 0,
        "slot": "26",
        "type": "t_uint256"
      },
      {
        "astId": 4640,
        "contract": "contracts/Arbigates.sol:Arbigates",
        "label": "minted",
        "offset": 0,
        "slot": "27",
        "type": "t_mapping(t_address,t_bool)"
      },
      {
        "astId": 4647,
        "contract": "contracts/Arbigates.sol:Arbigates",
        "label": "_tokenIdCounter",
        "offset": 0,
        "slot": "28",
        "type": "t_struct(Counter)4288_storage"
      }
    ],
    "types": {
      "t_address": {
        "encoding": "inplace",
        "label": "address",
        "numberOfBytes": "20"
      },
      "t_array(t_address)dyn_storage": {
        "base": "t_address",
        "encoding": "dynamic_array",
        "label": "address[]",
        "numberOfBytes": "32"
      },
      "t_bool": {
        "encoding": "inplace",
        "label": "bool",
        "numberOfBytes": "1"
      },
      "t_bytes32": {
        "encoding": "inplace",
        "label": "bytes32",
        "numberOfBytes": "32"
      },
      "t_contract(ENSInterface)1214": {
        "encoding": "inplace",
        "label": "contract ENSInterface",
        "numberOfBytes": "20"
      },
      "t_contract(LinkTokenInterface)1309": {
        "encoding": "inplace",
        "label": "contract LinkTokenInterface",
        "numberOfBytes": "20"
      },
      "t_contract(OperatorInterface)1389": {
        "encoding": "inplace",
        "label": "contract OperatorInterface",
        "numberOfBytes": "20"
      },
      "t_mapping(t_address,t_bool)": {
        "encoding": "mapping",
        "key": "t_address",
        "label": "mapping(address => bool)",
        "numberOfBytes": "32",
        "value": "t_bool"
      },
      "t_mapping(t_address,t_mapping(t_address,t_bool))": {
        "encoding": "mapping",
        "key": "t_address",
        "label": "mapping(address => mapping(address => bool))",
        "numberOfBytes": "32",
        "value": "t_mapping(t_address,t_bool)"
      },
      "t_mapping(t_address,t_uint256)": {
        "encoding": "mapping",
        "key": "t_address",
        "label": "mapping(address => uint256)",
        "numberOfBytes": "32",
        "value": "t_uint256"
      },
      "t_mapping(t_bytes32,t_address)": {
        "encoding": "mapping",
        "key": "t_bytes32",
        "label": "mapping(bytes32 => address)",
        "numberOfBytes": "32",
        "value": "t_address"
      },
      "t_mapping(t_bytes32,t_struct(RoleData)2451_storage)": {
        "encoding": "mapping",
        "key": "t_bytes32",
        "label": "mapping(bytes32 => struct AccessControl.RoleData)",
        "numberOfBytes": "32",
        "value": "t_struct(RoleData)2451_storage"
      },
      "t_mapping(t_uint256,t_address)": {
        "encoding": "mapping",
        "key": "t_uint256",
        "label": "mapping(uint256 => address)",
        "numberOfBytes": "32",
        "value": "t_address"
      },
      "t_string_storage": {
        "encoding": "bytes",
        "label": "string",
        "numberOfBytes": "32"
      },
      "t_struct(Counter)4288_storage": {
        "encoding": "inplace",
        "label": "struct Counters.Counter",
        "members": [
          {
            "astId": 4287,
            "contract": "contracts/Arbigates.sol:Arbigates",
            "label": "_value",
            "offset": 0,
            "slot": "0",
            "type": "t_uint256"
          }
        ],
        "numberOfBytes": "32"
      },
      "t_struct(RoleData)2451_storage": {
        "encoding": "inplace",
        "label": "struct AccessControl.RoleData",
        "members": [
          {
            "astId": 2448,
            "contract": "contracts/Arbigates.sol:Arbigates",
            "label": "members",
            "offset": 0,
            "slot": "0",
            "type": "t_mapping(t_address,t_bool)"
          },
          {
            "astId": 2450,
            "contract": "contracts/Arbigates.sol:Arbigates",
            "label": "adminRole",
            "offset": 0,
            "slot": "1",
            "type": "t_bytes32"
          }
        ],
        "numberOfBytes": "64"
      },
      "t_uint256": {
        "encoding": "inplace",
        "label": "uint256",
        "numberOfBytes": "32"
      }
    }
  }
}