{
  "address": "0x2655bA85BF90170Cd89DfeF6d9f679C3B5E49efA",
  "abi": [
    {
      "inputs": [
        {
          "internalType": "uint256",
          "name": "_gateId",
          "type": "uint256"
        },
        {
          "internalType": "string",
          "name": "_baseUri",
          "type": "string"
        },
        {
          "internalType": "uint256",
          "name": "updateInterval",
          "type": "uint256"
        },
        {
          "internalType": "address",
          "name": "chainLinkToken",
          "type": "address"
        },
        {
          "internalType": "address",
          "name": "chainLinkOracle",
          "type": "address"
        }
      ],
      "stateMutability": "nonpayable",
      "type": "constructor"
    },
    {
      "anonymous": false,
      "inputs": [
        {
          "indexed": true,
          "internalType": "address",
          "name": "owner",
          "type": "address"
        },
        {
          "indexed": true,
          "internalType": "address",
          "name": "approved",
          "type": "address"
        },
        {
          "indexed": true,
          "internalType": "uint256",
          "name": "tokenId",
          "type": "uint256"
        }
      ],
      "name": "Approval",
      "type": "event"
    },
    {
      "anonymous": false,
      "inputs": [
        {
          "indexed": true,
          "internalType": "address",
          "name": "owner",
          "type": "address"
        },
        {
          "indexed": true,
          "internalType": "address",
          "name": "operator",
          "type": "address"
        },
        {
          "indexed": false,
          "internalType": "bool",
          "name": "approved",
          "type": "bool"
        }
      ],
      "name": "ApprovalForAll",
      "type": "event"
    },
    {
      "anonymous": false,
      "inputs": [
        {
          "indexed": true,
          "internalType": "bytes32",
          "name": "id",
          "type": "bytes32"
        }
      ],
      "name": "ChainlinkCancelled",
      "type": "event"
    },
    {
      "anonymous": false,
      "inputs": [
        {
          "indexed": true,
          "internalType": "bytes32",
          "name": "id",
          "type": "bytes32"
        }
      ],
      "name": "ChainlinkFulfilled",
      "type": "event"
    },
    {
      "anonymous": false,
      "inputs": [
        {
          "indexed": true,
          "internalType": "bytes32",
          "name": "id",
          "type": "bytes32"
        }
      ],
      "name": "ChainlinkRequested",
      "type": "event"
    },
    {
      "anonymous": false,
      "inputs": [
        {
          "indexed": true,
          "internalType": "address",
          "name": "from",
          "type": "address"
        },
        {
          "indexed": true,
          "internalType": "address",
          "name": "to",
          "type": "address"
        }
      ],
      "name": "OwnershipTransferRequested",
      "type": "event"
    },
    {
      "anonymous": false,
      "inputs": [
        {
          "indexed": true,
          "internalType": "address",
          "name": "from",
          "type": "address"
        },
        {
          "indexed": true,
          "internalType": "address",
          "name": "to",
          "type": "address"
        }
      ],
      "name": "OwnershipTransferred",
      "type": "event"
    },
    {
      "anonymous": false,
      "inputs": [
        {
          "indexed": true,
          "internalType": "bytes32",
          "name": "requestId",
          "type": "bytes32"
        },
        {
          "indexed": false,
          "internalType": "bool",
          "name": "approved",
          "type": "bool"
        },
        {
          "indexed": false,
          "internalType": "string",
          "name": "lastChecked",
          "type": "string"
        }
      ],
      "name": "RequestVolume",
      "type": "event"
    },
    {
      "anonymous": false,
      "inputs": [
        {
          "indexed": true,
          "internalType": "bytes32",
          "name": "role",
          "type": "bytes32"
        },
        {
          "indexed": true,
          "internalType": "bytes32",
          "name": "previousAdminRole",
          "type": "bytes32"
        },
        {
          "indexed": true,
          "internalType": "bytes32",
          "name": "newAdminRole",
          "type": "bytes32"
        }
      ],
      "name": "RoleAdminChanged",
      "type": "event"
    },
    {
      "anonymous": false,
      "inputs": [
        {
          "indexed": true,
          "internalType": "bytes32",
          "name": "role",
          "type": "bytes32"
        },
        {
          "indexed": true,
          "internalType": "address",
          "name": "account",
          "type": "address"
        },
        {
          "indexed": true,
          "internalType": "address",
          "name": "sender",
          "type": "address"
        }
      ],
      "name": "RoleGranted",
      "type": "event"
    },
    {
      "anonymous": false,
      "inputs": [
        {
          "indexed": true,
          "internalType": "bytes32",
          "name": "role",
          "type": "bytes32"
        },
        {
          "indexed": true,
          "internalType": "address",
          "name": "account",
          "type": "address"
        },
        {
          "indexed": true,
          "internalType": "address",
          "name": "sender",
          "type": "address"
        }
      ],
      "name": "RoleRevoked",
      "type": "event"
    },
    {
      "anonymous": false,
      "inputs": [
        {
          "indexed": true,
          "internalType": "address",
          "name": "from",
          "type": "address"
        },
        {
          "indexed": true,
          "internalType": "address",
          "name": "to",
          "type": "address"
        },
        {
          "indexed": true,
          "internalType": "uint256",
          "name": "tokenId",
          "type": "uint256"
        }
      ],
      "name": "Transfer",
      "type": "event"
    },
    {
      "inputs": [],
      "name": "DEFAULT_ADMIN_ROLE",
      "outputs": [
        {
          "internalType": "bytes32",
          "name": "",
          "type": "bytes32"
        }
      ],
      "stateMutability": "view",
      "type": "function"
    },
    {
      "inputs": [],
      "name": "MAX_TOKENS",
      "outputs": [
        {
          "internalType": "uint256",
          "name": "",
          "type": "uint256"
        }
      ],
      "stateMutability": "view",
      "type": "function"
    },
    {
      "inputs": [],
      "name": "acceptOwnership",
      "outputs": [],
      "stateMutability": "nonpayable",
      "type": "function"
    },
    {
      "inputs": [
        {
          "internalType": "address",
          "name": "_newAddress",
          "type": "address"
        }
      ],
      "name": "addAddress",
      "outputs": [],
      "stateMutability": "nonpayable",
      "type": "function"
    },
    {
      "inputs": [
        {
          "internalType": "uint256",
          "name": "",
          "type": "uint256"
        }
      ],
      "name": "addressesToVerify",
      "outputs": [
        {
          "internalType": "address",
          "name": "",
          "type": "address"
        }
      ],
      "stateMutability": "view",
      "type": "function"
    },
    {
      "inputs": [
        {
          "internalType": "address",
          "name": "to",
          "type": "address"
        },
        {
          "internalType": "uint256",
          "name": "tokenId",
          "type": "uint256"
        }
      ],
      "name": "approve",
      "outputs": [],
      "stateMutability": "nonpayable",
      "type": "function"
    },
    {
      "inputs": [],
      "name": "approved",
      "outputs": [
        {
          "internalType": "bool",
          "name": "",
          "type": "bool"
        }
      ],
      "stateMutability": "view",
      "type": "function"
    },
    {
      "inputs": [
        {
          "internalType": "address",
          "name": "owner",
          "type": "address"
        }
      ],
      "name": "balanceOf",
      "outputs": [
        {
          "internalType": "uint256",
          "name": "",
          "type": "uint256"
        }
      ],
      "stateMutability": "view",
      "type": "function"
    },
    {
      "inputs": [],
      "name": "batchVerify",
      "outputs": [],
      "stateMutability": "nonpayable",
      "type": "function"
    },
    {
      "inputs": [
        {
          "internalType": "bytes",
          "name": "",
          "type": "bytes"
        }
      ],
      "name": "checkUpkeep",
      "outputs": [
        {
          "internalType": "bool",
          "name": "upkeepNeeded",
          "type": "bool"
        },
        {
          "internalType": "bytes",
          "name": "",
          "type": "bytes"
        }
      ],
      "stateMutability": "view",
      "type": "function"
    },
    {
      "inputs": [],
      "name": "clearAddresses",
      "outputs": [],
      "stateMutability": "nonpayable",
      "type": "function"
    },
    {
      "inputs": [],
      "name": "counter",
      "outputs": [
        {
          "internalType": "uint256",
          "name": "",
          "type": "uint256"
        }
      ],
      "stateMutability": "view",
      "type": "function"
    },
    {
      "inputs": [
        {
          "internalType": "bytes32",
          "name": "_requestId",
          "type": "bytes32"
        },
        {
          "internalType": "bool",
          "name": "_approved",
          "type": "bool"
        }
      ],
      "name": "fulfill",
      "outputs": [],
      "stateMutability": "nonpayable",
      "type": "function"
    },
    {
      "inputs": [
        {
          "internalType": "uint256",
          "name": "tokenId",
          "type": "uint256"
        }
      ],
      "name": "getApproved",
      "outputs": [
        {
          "internalType": "address",
          "name": "",
          "type": "address"
        }
      ],
      "stateMutability": "view",
      "type": "function"
    },
    {
      "inputs": [
        {
          "internalType": "bytes32",
          "name": "role",
          "type": "bytes32"
        }
      ],
      "name": "getRoleAdmin",
      "outputs": [
        {
          "internalType": "bytes32",
          "name": "",
          "type": "bytes32"
        }
      ],
      "stateMutability": "view",
      "type": "function"
    },
    {
      "inputs": [
        {
          "internalType": "bytes32",
          "name": "role",
          "type": "bytes32"
        },
        {
          "internalType": "address",
          "name": "account",
          "type": "address"
        }
      ],
      "name": "grantRole",
      "outputs": [],
      "stateMutability": "nonpayable",
      "type": "function"
    },
    {
      "inputs": [
        {
          "internalType": "bytes32",
          "name": "role",
          "type": "bytes32"
        },
        {
          "internalType": "address",
          "name": "account",
          "type": "address"
        }
      ],
      "name": "hasRole",
      "outputs": [
        {
          "internalType": "bool",
          "name": "",
          "type": "bool"
        }
      ],
      "stateMutability": "view",
      "type": "function"
    },
    {
      "inputs": [],
      "name": "interval",
      "outputs": [
        {
          "internalType": "uint256",
          "name": "",
          "type": "uint256"
        }
      ],
      "stateMutability": "view",
      "type": "function"
    },
    {
      "inputs": [
        {
          "internalType": "address",
          "name": "owner",
          "type": "address"
        },
        {
          "internalType": "address",
          "name": "operator",
          "type": "address"
        }
      ],
      "name": "isApprovedForAll",
      "outputs": [
        {
          "internalType": "bool",
          "name": "",
          "type": "bool"
        }
      ],
      "stateMutability": "view",
      "type": "function"
    },
    {
      "inputs": [],
      "name": "lastChecked",
      "outputs": [
        {
          "internalType": "string",
          "name": "",
          "type": "string"
        }
      ],
      "stateMutability": "view",
      "type": "function"
    },
    {
      "inputs": [],
      "name": "lastTimeStamp",
      "outputs": [
        {
          "internalType": "uint256",
          "name": "",
          "type": "uint256"
        }
      ],
      "stateMutability": "view",
      "type": "function"
    },
    {
      "inputs": [],
      "name": "name",
      "outputs": [
        {
          "internalType": "string",
          "name": "",
          "type": "string"
        }
      ],
      "stateMutability": "view",
      "type": "function"
    },
    {
      "inputs": [],
      "name": "owner",
      "outputs": [
        {
          "internalType": "address",
          "name": "",
          "type": "address"
        }
      ],
      "stateMutability": "view",
      "type": "function"
    },
    {
      "inputs": [
        {
          "internalType": "uint256",
          "name": "tokenId",
          "type": "uint256"
        }
      ],
      "name": "ownerOf",
      "outputs": [
        {
          "internalType": "address",
          "name": "",
          "type": "address"
        }
      ],
      "stateMutability": "view",
      "type": "function"
    },
    {
      "inputs": [
        {
          "internalType": "bytes",
          "name": "",
          "type": "bytes"
        }
      ],
      "name": "performUpkeep",
      "outputs": [],
      "stateMutability": "nonpayable",
      "type": "function"
    },
    {
      "inputs": [
        {
          "internalType": "bytes32",
          "name": "role",
          "type": "bytes32"
        },
        {
          "internalType": "address",
          "name": "account",
          "type": "address"
        }
      ],
      "name": "renounceRole",
      "outputs": [],
      "stateMutability": "nonpayable",
      "type": "function"
    },
    {
      "inputs": [
        {
          "internalType": "address",
          "name": "_wallet",
          "type": "address"
        },
        {
          "internalType": "uint256",
          "name": "_gateId",
          "type": "uint256"
        }
      ],
      "name": "requestVolumeData",
      "outputs": [
        {
          "internalType": "bytes32",
          "name": "requestId",
          "type": "bytes32"
        }
      ],
      "stateMutability": "nonpayable",
      "type": "function"
    },
    {
      "inputs": [
        {
          "internalType": "bytes32",
          "name": "role",
          "type": "bytes32"
        },
        {
          "internalType": "address",
          "name": "account",
          "type": "address"
        }
      ],
      "name": "revokeRole",
      "outputs": [],
      "stateMutability": "nonpayable",
      "type": "function"
    },
    {
      "inputs": [
        {
          "internalType": "address",
          "name": "user",
          "type": "address"
        }
      ],
      "name": "safeMint",
      "outputs": [],
      "stateMutability": "nonpayable",
      "type": "function"
    },
    {
      "inputs": [
        {
          "internalType": "address",
          "name": "from",
          "type": "address"
        },
        {
          "internalType": "address",
          "name": "to",
          "type": "address"
        },
        {
          "internalType": "uint256",
          "name": "tokenId",
          "type": "uint256"
        }
      ],
      "name": "safeTransferFrom",
      "outputs": [],
      "stateMutability": "nonpayable",
      "type": "function"
    },
    {
      "inputs": [
        {
          "internalType": "address",
          "name": "from",
          "type": "address"
        },
        {
          "internalType": "address",
          "name": "to",
          "type": "address"
        },
        {
          "internalType": "uint256",
          "name": "tokenId",
          "type": "uint256"
        },
        {
          "internalType": "bytes",
          "name": "data",
          "type": "bytes"
        }
      ],
      "name": "safeTransferFrom",
      "outputs": [],
      "stateMutability": "nonpayable",
      "type": "function"
    },
    {
      "inputs": [
        {
          "internalType": "address",
          "name": "operator",
          "type": "address"
        },
        {
          "internalType": "bool",
          "name": "approved",
          "type": "bool"
        }
      ],
      "name": "setApprovalForAll",
      "outputs": [],
      "stateMutability": "nonpayable",
      "type": "function"
    },
    {
      "inputs": [
        {
          "internalType": "string",
          "name": "_newBaseURI",
          "type": "string"
        }
      ],
      "name": "setBaseURI",
      "outputs": [],
      "stateMutability": "nonpayable",
      "type": "function"
    },
    {
      "inputs": [
        {
          "internalType": "uint256",
          "name": "_gateId",
          "type": "uint256"
        }
      ],
      "name": "setGate",
      "outputs": [],
      "stateMutability": "nonpayable",
      "type": "function"
    },
    {
      "inputs": [
        {
          "internalType": "bytes4",
          "name": "interfaceId",
          "type": "bytes4"
        }
      ],
      "name": "supportsInterface",
      "outputs": [
        {
          "internalType": "bool",
          "name": "",
          "type": "bool"
        }
      ],
      "stateMutability": "view",
      "type": "function"
    },
    {
      "inputs": [],
      "name": "symbol",
      "outputs": [
        {
          "internalType": "string",
          "name": "",
          "type": "string"
        }
      ],
      "stateMutability": "view",
      "type": "function"
    },
    {
      "inputs": [
        {
          "internalType": "uint256",
          "name": "tokenId",
          "type": "uint256"
        }
      ],
      "name": "tokenURI",
      "outputs": [
        {
          "internalType": "string",
          "name": "",
          "type": "string"
        }
      ],
      "stateMutability": "view",
      "type": "function"
    },
    {
      "inputs": [
        {
          "internalType": "address",
          "name": "from",
          "type": "address"
        },
        {
          "internalType": "address",
          "name": "to",
          "type": "address"
        },
        {
          "internalType": "uint256",
          "name": "tokenId",
          "type": "uint256"
        }
      ],
      "name": "transferFrom",
      "outputs": [],
      "stateMutability": "nonpayable",
      "type": "function"
    },
    {
      "inputs": [
        {
          "internalType": "address",
          "name": "to",
          "type": "address"
        }
      ],
      "name": "transferOwnership",
      "outputs": [],
      "stateMutability": "nonpayable",
      "type": "function"
    },
    {
      "inputs": [
        {
          "internalType": "uint256",
          "name": "_value",
          "type": "uint256"
        }
      ],
      "name": "uintToString",
      "outputs": [
        {
          "internalType": "string",
          "name": "",
          "type": "string"
        }
      ],
      "stateMutability": "pure",
      "type": "function"
    },
    {
      "inputs": [
        {
          "internalType": "address",
          "name": "_tokenAddress",
          "type": "address"
        }
      ],
      "name": "updateChainlinkOracle",
      "outputs": [],
      "stateMutability": "nonpayable",
      "type": "function"
    },
    {
      "inputs": [
        {
          "internalType": "address",
          "name": "_tokenAddress",
          "type": "address"
        }
      ],
      "name": "updateChainlinkToken",
      "outputs": [],
      "stateMutability": "nonpayable",
      "type": "function"
    },
    {
      "inputs": [],
      "name": "volume",
      "outputs": [
        {
          "internalType": "uint256",
          "name": "",
          "type": "uint256"
        }
      ],
      "stateMutability": "view",
      "type": "function"
    },
    {
      "inputs": [],
      "name": "withdrawAll",
      "outputs": [],
      "stateMutability": "nonpayable",
      "type": "function"
    },
    {
      "inputs": [],
      "name": "withdrawLink",
      "outputs": [],
      "stateMutability": "nonpayable",
      "type": "function"
    }
  ],
  "transactionHash": "0xbaa6d5617ce2be477ce801999649fa13b387980d1ae6f057554dccb2061bf612",
  "args": [
    4,
    "https://gateway.pinata.cloud/ipfs/QmfK4jMsx5qZ3fBiixfYawRQsrCGrGjgMXKbYzkovF7Qwg/",
    60000,
    "0x326C977E6efc84E512bB9C30f76E30c160eD06FB",
    "0xCC79157eb46F5624204f47AB42b3906cAA40eaB7"
  ],
  "numDeployments": 1,
  "solcInputHash": "8cefebd6b2594ee8b8e6e0a5aa7fdbc9",
  "bytecode": "0x60a06040526001600b5560186019553480156200001b57600080fd5b5060405162006833380380620068338339818101604052810190620000419190620008c0565b84838383338060006040518060400160405280600981526020017f41726269676174657300000000000000000000000000000000000000000000008152506040518060400160405280600481526020017f41475453000000000000000000000000000000000000000000000000000000008152508160009080519060200190620000cd929190620005d3565b508060019080519060200190620000e6929190620005d3565b505050600073ffffffffffffffffffffffffffffffffffffffff168273ffffffffffffffffffffffffffffffffffffffff16036200015b576040517f08c379a00000000000000000000000000000000000000000000000000000000081526004016200015290620009c8565b60405180910390fd5b81600d60006101000a81548173ffffffffffffffffffffffffffffffffffffffff021916908373ffffffffffffffffffffffffffffffffffffffff160217905550600073ffffffffffffffffffffffffffffffffffffffff168173ffffffffffffffffffffffffffffffffffffffff1614620001e357620001e281620002b560201b60201c565b5b505050620001f782620003e660201b60201c565b62000208816200042a60201b60201c565b7f6331633565393238383038393465623662323764336361653139363730616133601081905550600a670de0b6b3a7640000600162000248919062000a19565b62000254919062000aa9565b6011819055508260808181525050426015819055508360128190555060006014819055505050505083601a908051906020019062000294929190620005d3565b50620002aa6000801b336200046e60201b60201c565b505050505062000bb7565b3373ffffffffffffffffffffffffffffffffffffffff168173ffffffffffffffffffffffffffffffffffffffff160362000326576040517f08c379a00000000000000000000000000000000000000000000000000000000081526004016200031d9062000b31565b60405180910390fd5b80600e60006101000a81548173ffffffffffffffffffffffffffffffffffffffff021916908373ffffffffffffffffffffffffffffffffffffffff1602179055508073ffffffffffffffffffffffffffffffffffffffff16600d60009054906101000a900473ffffffffffffffffffffffffffffffffffffffff1673ffffffffffffffffffffffffffffffffffffffff167fed8889f560326eb138920d842192f0eb3dd22b4f139c87a2c57538e05bae127860405160405180910390a350565b80600960006101000a81548173ffffffffffffffffffffffffffffffffffffffff021916908373ffffffffffffffffffffffffffffffffffffffff16021790555050565b80600a60006101000a81548173ffffffffffffffffffffffffffffffffffffffff021916908373ffffffffffffffffffffffffffffffffffffffff16021790555050565b6200048082826200056060201b60201c565b6200055c5760016006600084815260200190815260200160002060000160008373ffffffffffffffffffffffffffffffffffffffff1673ffffffffffffffffffffffffffffffffffffffff16815260200190815260200160002060006101000a81548160ff02191690831515021790555062000501620005cb60201b60201c565b73ffffffffffffffffffffffffffffffffffffffff168173ffffffffffffffffffffffffffffffffffffffff16837f2f8788117e7eff1d82e926ec794901d17c78024a50270940304540a733656f0d60405160405180910390a45b5050565b60006006600084815260200190815260200160002060000160008373ffffffffffffffffffffffffffffffffffffffff1673ffffffffffffffffffffffffffffffffffffffff16815260200190815260200160002060009054906101000a900460ff16905092915050565b600033905090565b828054620005e19062000b82565b90600052602060002090601f01602090048101928262000605576000855562000651565b82601f106200062057805160ff191683800117855562000651565b8280016001018555821562000651579182015b828111156200065057825182559160200191906001019062000633565b5b50905062000660919062000664565b5090565b5b808211156200067f57600081600090555060010162000665565b5090565b6000604051905090565b600080fd5b600080fd5b6000819050919050565b620006ac8162000697565b8114620006b857600080fd5b50565b600081519050620006cc81620006a1565b92915050565b600080fd5b600080fd5b6000601f19601f8301169050919050565b7f4e487b7100000000000000000000000000000000000000000000000000000000600052604160045260246000fd5b6200072782620006dc565b810181811067ffffffffffffffff82111715620007495762000748620006ed565b5b80604052505050565b60006200075e62000683565b90506200076c82826200071c565b919050565b600067ffffffffffffffff8211156200078f576200078e620006ed565b5b6200079a82620006dc565b9050602081019050919050565b60005b83811015620007c7578082015181840152602081019050620007aa565b83811115620007d7576000848401525b50505050565b6000620007f4620007ee8462000771565b62000752565b905082815260208101848484011115620008135762000812620006d7565b5b62000820848285620007a7565b509392505050565b600082601f83011262000840576200083f620006d2565b5b815162000852848260208601620007dd565b91505092915050565b600073ffffffffffffffffffffffffffffffffffffffff82169050919050565b600062000888826200085b565b9050919050565b6200089a816200087b565b8114620008a657600080fd5b50565b600081519050620008ba816200088f565b92915050565b600080600080600060a08688031215620008df57620008de6200068d565b5b6000620008ef88828901620006bb565b955050602086015167ffffffffffffffff81111562000913576200091262000692565b5b620009218882890162000828565b94505060406200093488828901620006bb565b93505060606200094788828901620008a9565b92505060806200095a88828901620008a9565b9150509295509295909350565b600082825260208201905092915050565b7f43616e6e6f7420736574206f776e657220746f207a65726f0000000000000000600082015250565b6000620009b060188362000967565b9150620009bd8262000978565b602082019050919050565b60006020820190508181036000830152620009e381620009a1565b9050919050565b7f4e487b7100000000000000000000000000000000000000000000000000000000600052601160045260246000fd5b600062000a268262000697565b915062000a338362000697565b9250817fffffffffffffffffffffffffffffffffffffffffffffffffffffffffffffffff048311821515161562000a6f5762000a6e620009ea565b5b828202905092915050565b7f4e487b7100000000000000000000000000000000000000000000000000000000600052601260045260246000fd5b600062000ab68262000697565b915062000ac38362000697565b92508262000ad65762000ad562000a7a565b5b828204905092915050565b7f43616e6e6f74207472616e7366657220746f2073656c66000000000000000000600082015250565b600062000b1960178362000967565b915062000b268262000ae1565b602082019050919050565b6000602082019050818103600083015262000b4c8162000b0a565b9050919050565b7f4e487b7100000000000000000000000000000000000000000000000000000000600052602260045260246000fd5b6000600282049050600182168062000b9b57607f821691505b60208210810362000bb15762000bb062000b53565b5b50919050565b608051615c5262000be160003960008181610e0d01528181610f4401526114050152615c526000f3fe608060405234801561001057600080fd5b506004361061027f5760003560e01c806379ba50971161015c578063c87b56dd116100ce578063e985e9c511610087578063e985e9c51461074b578063f2fde38b1461077b578063f47c84c514610797578063f5ea9ad0146107b5578063f84c183e146107e5578063fd68990a146108015761027f565b8063c87b56dd14610679578063d4bd4993146106a9578063d547741f146106c5578063e5ada13e146106e1578063e6870be5146106ff578063e93956791461071b5761027f565b8063947a36fb11610120578063947a36fb146105c957806395d89b41146105e7578063a217fddf14610605578063a22cb46514610623578063b88d4fde1461063f578063c618a1e41461065b5761027f565b806379ba50971461055d578063853828b6146105675780638da5cb5b146105715780638dc654a21461058f57806391d14854146105995761027f565b806336568abe116101f55780634585e33b116101b95780634585e33b1461047657806355f804b31461049257806361bc221a146104ae5780636352211e146104cc5780636e04ff0d146104fc57806370a082311461052d5761027f565b806336568abe146103e857806338eada1c146104045780633f3b3b271461042057806340d097c31461043e57806342842e0e1461045a5761027f565b80630f6cee49116102475780630f6cee491461032857806319d40b08146103325780632002a0c01461035057806323b872dd14610380578063248a9ca31461039c5780632f2ff15d146103cc5761027f565b806301326c341461028457806301ffc9a71461028e57806306fdde03146102be578063081812fc146102dc578063095ea7b31461030c575b600080fd5b61028c61081d565b005b6102a860048036038101906102a39190613ea0565b610835565b6040516102b59190613ee8565b60405180910390f35b6102c6610847565b6040516102d39190613f9c565b60405180910390f35b6102f660048036038101906102f19190613ff4565b6108d9565b6040516103039190614062565b60405180910390f35b610326600480360381019061032191906140a9565b61091f565b005b610330610a36565b005b61033a610aad565b6040516103479190613ee8565b60405180910390f35b61036a60048036038101906103659190613ff4565b610ac0565b6040516103779190614062565b60405180910390f35b61039a600480360381019061039591906140e9565b610aff565b005b6103b660048036038101906103b19190614172565b610b5f565b6040516103c391906141ae565b60405180910390f35b6103e660048036038101906103e191906141c9565b610b7f565b005b61040260048036038101906103fd91906141c9565b610ba0565b005b61041e60048036038101906104199190614209565b610c23565b005b610428610c89565b6040516104359190614245565b60405180910390f35b61045860048036038101906104539190614209565b610c8f565b005b610474600480360381019061046f91906140e9565b610deb565b005b610490600480360381019061048b91906142c5565b610e0b565b005b6104ac60048036038101906104a79190614368565b610e69565b005b6104b6610e87565b6040516104c39190614245565b60405180910390f35b6104e660048036038101906104e19190613ff4565b610e8d565b6040516104f39190614062565b60405180910390f35b610516600480360381019061051191906142c5565b610f3e565b60405161052492919061440a565b60405180910390f35b61054760048036038101906105429190614209565b610f7b565b6040516105549190614245565b60405180910390f35b610565611032565b005b61056f6111c9565b005b610579611221565b6040516105869190614062565b60405180910390f35b61059761124b565b005b6105b360048036038101906105ae91906141c9565b611398565b6040516105c09190613ee8565b60405180910390f35b6105d1611403565b6040516105de9190614245565b60405180910390f35b6105ef611427565b6040516105fc9190613f9c565b60405180910390f35b61060d6114b9565b60405161061a91906141ae565b60405180910390f35b61063d60048036038101906106389190614466565b6114c0565b005b610659600480360381019061065491906145d6565b6114d6565b005b610663611538565b6040516106709190614245565b60405180910390f35b610693600480360381019061068e9190613ff4565b61153e565b6040516106a09190613f9c565b60405180910390f35b6106c360048036038101906106be9190614209565b6115a6565b005b6106df60048036038101906106da91906141c9565b6115ba565b005b6106e96115db565b6040516106f69190613f9c565b60405180910390f35b61071960048036038101906107149190614209565b611669565b005b61073560048036038101906107309190613ff4565b61167d565b6040516107429190613f9c565b60405180910390f35b61076560048036038101906107609190614659565b611972565b6040516107729190613ee8565b60405180910390f35b61079560048036038101906107909190614209565b611a06565b005b61079f611a1a565b6040516107ac9190614245565b60405180910390f35b6107cf60048036038101906107ca91906140a9565b611a20565b6040516107dc91906141ae565b60405180910390f35b6107ff60048036038101906107fa9190613ff4565b611b7e565b005b61081b60048036038101906108169190614699565b611b90565b005b610825611d22565b601660006108339190613ce9565b565b600061084082611db4565b9050919050565b60606000805461085690614708565b80601f016020809104026020016040519081016040528092919081815260200182805461088290614708565b80156108cf5780601f106108a4576101008083540402835291602001916108cf565b820191906000526020600020905b8154815290600101906020018083116108b257829003601f168201915b5050505050905090565b60006108e482611e2e565b6004600083815260200190815260200160002060009054906101000a900473ffffffffffffffffffffffffffffffffffffffff169050919050565b600061092a82610e8d565b90508073ffffffffffffffffffffffffffffffffffffffff168373ffffffffffffffffffffffffffffffffffffffff160361099a576040517f08c379a0000000000000000000000000000000000000000000000000000000008152600401610991906147ab565b60405180910390fd5b8073ffffffffffffffffffffffffffffffffffffffff166109b9611e79565b73ffffffffffffffffffffffffffffffffffffffff1614806109e857506109e7816109e2611e79565b611972565b5b610a27576040517f08c379a0000000000000000000000000000000000000000000000000000000008152600401610a1e9061483d565b60405180910390fd5b610a318383611e81565b505050565b60005b601680549050811015610aaa57600060168281548110610a5c57610a5b61485d565b5b9060005260206000200160009054906101000a900473ffffffffffffffffffffffffffffffffffffffff169050610a9581601254611a20565b50508080610aa2906148bb565b915050610a39565b50565b601360009054906101000a900460ff1681565b60168181548110610ad057600080fd5b906000526020600020016000915054906101000a900473ffffffffffffffffffffffffffffffffffffffff1681565b610b10610b0a611e79565b82611f3a565b610b4f576040517f08c379a0000000000000000000000000000000000000000000000000000000008152600401610b4690614975565b60405180910390fd5b610b5a838383611fcf565b505050565b600060066000838152602001908152602001600020600101549050919050565b610b8882610b5f565b610b9181612235565b610b9b8383612249565b505050565b610ba8611e79565b73ffffffffffffffffffffffffffffffffffffffff168173ffffffffffffffffffffffffffffffffffffffff1614610c15576040517f08c379a0000000000000000000000000000000000000000000000000000000008152600401610c0c90614a07565b60405180910390fd5b610c1f828261232a565b5050565b6016819080600181540180825580915050600190039060005260206000200160009091909190916101000a81548173ffffffffffffffffffffffffffffffffffffffff021916908373ffffffffffffffffffffffffffffffffffffffff16021790555050565b60155481565b601b60008273ffffffffffffffffffffffffffffffffffffffff1673ffffffffffffffffffffffffffffffffffffffff16815260200190815260200160002060009054906101000a900460ff1615610d1c576040517f08c379a0000000000000000000000000000000000000000000000000000000008152600401610d1390614a73565b60405180910390fd5b6000610d28601c61240c565b9050601954600182610d3a9190614a93565b1115610d7b576040517f08c379a0000000000000000000000000000000000000000000000000000000008152600401610d7290614b5b565b60405180910390fd5b610d85828261241a565b610d8f601c612438565b6001601b60008473ffffffffffffffffffffffffffffffffffffffff1673ffffffffffffffffffffffffffffffffffffffff16815260200190815260200160002060006101000a81548160ff0219169083151502179055505050565b610e06838383604051806020016040528060008152506114d6565b505050565b7f000000000000000000000000000000000000000000000000000000000000000060155442610e3a9190614b7b565b1115610e6557426015819055506001601454610e569190614a93565b601481905550610e64610a36565b5b5050565b610e71611d22565b8181601a9190610e82929190613d0a565b505050565b60145481565b6000806002600084815260200190815260200160002060009054906101000a900473ffffffffffffffffffffffffffffffffffffffff169050600073ffffffffffffffffffffffffffffffffffffffff168173ffffffffffffffffffffffffffffffffffffffff1603610f35576040517f08c379a0000000000000000000000000000000000000000000000000000000008152600401610f2c90614bfb565b60405180910390fd5b80915050919050565b600060607f000000000000000000000000000000000000000000000000000000000000000060155442610f719190614b7b565b1191509250929050565b60008073ffffffffffffffffffffffffffffffffffffffff168273ffffffffffffffffffffffffffffffffffffffff1603610feb576040517f08c379a0000000000000000000000000000000000000000000000000000000008152600401610fe290614c8d565b60405180910390fd5b600360008373ffffffffffffffffffffffffffffffffffffffff1673ffffffffffffffffffffffffffffffffffffffff168152602001908152602001600020549050919050565b600e60009054906101000a900473ffffffffffffffffffffffffffffffffffffffff1673ffffffffffffffffffffffffffffffffffffffff163373ffffffffffffffffffffffffffffffffffffffff16146110c2576040517f08c379a00000000000000000000000000000000000000000000000000000000081526004016110b990614cf9565b60405180910390fd5b6000600d60009054906101000a900473ffffffffffffffffffffffffffffffffffffffff16905033600d60006101000a81548173ffffffffffffffffffffffffffffffffffffffff021916908373ffffffffffffffffffffffffffffffffffffffff1602179055506000600e60006101000a81548173ffffffffffffffffffffffffffffffffffffffff021916908373ffffffffffffffffffffffffffffffffffffffff1602179055503373ffffffffffffffffffffffffffffffffffffffff168173ffffffffffffffffffffffffffffffffffffffff167f8be0079c531659141344cd1fd0a4f28419497f9722a3daafe3b4186f6b6457e060405160405180910390a350565b6111d1611d22565b6111d9611221565b73ffffffffffffffffffffffffffffffffffffffff166108fc479081150290604051600060405180830381858888f1935050505015801561121e573d6000803e3d6000fd5b50565b6000600d60009054906101000a900473ffffffffffffffffffffffffffffffffffffffff16905090565b611253611d22565b600061125d61244e565b90508073ffffffffffffffffffffffffffffffffffffffff1663a9059cbb338373ffffffffffffffffffffffffffffffffffffffff166370a08231306040518263ffffffff1660e01b81526004016112b59190614062565b602060405180830381865afa1580156112d2573d6000803e3d6000fd5b505050506040513d601f19601f820116820180604052508101906112f69190614d2e565b6040518363ffffffff1660e01b8152600401611313929190614d5b565b6020604051808303816000875af1158015611332573d6000803e3d6000fd5b505050506040513d601f19601f820116820180604052508101906113569190614d99565b611395576040517f08c379a000000000000000000000000000000000000000000000000000000000815260040161138c90614e12565b60405180910390fd5b50565b60006006600084815260200190815260200160002060000160008373ffffffffffffffffffffffffffffffffffffffff1673ffffffffffffffffffffffffffffffffffffffff16815260200190815260200160002060009054906101000a900460ff16905092915050565b7f000000000000000000000000000000000000000000000000000000000000000081565b60606001805461143690614708565b80601f016020809104026020016040519081016040528092919081815260200182805461146290614708565b80156114af5780601f10611484576101008083540402835291602001916114af565b820191906000526020600020905b81548152906001019060200180831161149257829003601f168201915b5050505050905090565b6000801b81565b6114d26114cb611e79565b8383612478565b5050565b6114e76114e1611e79565b83611f3a565b611526576040517f08c379a000000000000000000000000000000000000000000000000000000000815260040161151d90614975565b60405180910390fd5b611532848484846125e4565b50505050565b600f5481565b606061154982611e2e565b6000611553612640565b90506000815111611573576040518060200160405280600081525061159e565b8061157d846126d2565b60405160200161158e929190614e6e565b6040516020818303038152906040525b915050919050565b6115ae611d22565b6115b781612832565b50565b6115c382610b5f565b6115cc81612235565b6115d6838361232a565b505050565b601880546115e890614708565b80601f016020809104026020016040519081016040528092919081815260200182805461161490614708565b80156116615780601f1061163657610100808354040283529160200191611661565b820191906000526020600020905b81548152906001019060200180831161164457829003601f168201915b505050505081565b611671611d22565b61167a81612876565b50565b606060008260001b905060006040518060400160405280601081526020017f303132333435363738396162636465660000000000000000000000000000000081525090506000602a67ffffffffffffffff8111156116de576116dd6144ab565b5b6040519080825280601f01601f1916602001820160405280156117105781602001600182028036833780820191505090505b5090507f3000000000000000000000000000000000000000000000000000000000000000816000815181106117485761174761485d565b5b60200101907effffffffffffffffffffffffffffffffffffffffffffffffffffffffffffff1916908160001a9053507f7800000000000000000000000000000000000000000000000000000000000000816001815181106117ac576117ab61485d565b5b60200101907effffffffffffffffffffffffffffffffffffffffffffffffffffffffffffff1916908160001a90535060005b60148110156119665782600485600c846117f89190614a93565b602081106118095761180861485d565b5b1a60f81b7effffffffffffffffffffffffffffffffffffffffffffffffffffffffffffff1916901c60f81c60ff16815181106118485761184761485d565b5b602001015160f81c60f81b826002836118619190614e92565b600261186d9190614a93565b8151811061187e5761187d61485d565b5b60200101907effffffffffffffffffffffffffffffffffffffffffffffffffffffffffffff1916908160001a90535082600f60f81b85600c846118c19190614a93565b602081106118d2576118d161485d565b5b1a60f81b1660f81c60ff16815181106118ee576118ed61485d565b5b602001015160f81c60f81b826002836119079190614e92565b60036119139190614a93565b815181106119245761192361485d565b5b60200101907effffffffffffffffffffffffffffffffffffffffffffffffffffffffffffff1916908160001a905350808061195e906148bb565b9150506117de565b50809350505050919050565b6000600560008473ffffffffffffffffffffffffffffffffffffffff1673ffffffffffffffffffffffffffffffffffffffff16815260200190815260200160002060008373ffffffffffffffffffffffffffffffffffffffff1673ffffffffffffffffffffffffffffffffffffffff16815260200190815260200160002060009054906101000a900460ff16905092915050565b611a0e611d22565b611a17816128ba565b50565b60195481565b600080611a376010543063fd68990a60e01b6129e8565b90506000611a458585612a19565b9050611a916040518060400160405280600381526020017f67657400000000000000000000000000000000000000000000000000000000008152508284612a559092919063ffffffff16565b611b106040518060400160405280600481526020017f70617468000000000000000000000000000000000000000000000000000000008152506040518060400160405280600781526020017f737563636573730000000000000000000000000000000000000000000000000081525084612a559092919063ffffffff16565b6000611b1e83601154612a88565b9050856017600083815260200190815260200160002060006101000a81548173ffffffffffffffffffffffffffffffffffffffff021916908373ffffffffffffffffffffffffffffffffffffffff16021790555080935050505092915050565b611b86611d22565b8060128190555050565b81600c600082815260200190815260200160002060009054906101000a900473ffffffffffffffffffffffffffffffffffffffff1673ffffffffffffffffffffffffffffffffffffffff163373ffffffffffffffffffffffffffffffffffffffff1614611c32576040517f08c379a0000000000000000000000000000000000000000000000000000000008152600401611c2990614f5e565b60405180910390fd5b600c600082815260200190815260200160002060006101000a81549073ffffffffffffffffffffffffffffffffffffffff0219169055807f7cc135e0cebb02c3480ae5d74d377283180a2601f8f644edf7987b009316c63a60405160405180910390a260006017600085815260200190815260200160002060009054906101000a900473ffffffffffffffffffffffffffffffffffffffff169050600192508215611ce157611ce081612abf565b5b837f2a59adc454390ac082968c8c50e27a9901b5266815783beaea3e73e7cf992d4f846018604051611d14929190615013565b60405180910390a250505050565b600d60009054906101000a900473ffffffffffffffffffffffffffffffffffffffff1673ffffffffffffffffffffffffffffffffffffffff163373ffffffffffffffffffffffffffffffffffffffff1614611db2576040517f08c379a0000000000000000000000000000000000000000000000000000000008152600401611da99061508f565b60405180910390fd5b565b60007f7965db0b000000000000000000000000000000000000000000000000000000007bffffffffffffffffffffffffffffffffffffffffffffffffffffffff1916827bffffffffffffffffffffffffffffffffffffffffffffffffffffffff19161480611e275750611e2682612acb565b5b9050919050565b611e3781612bad565b611e76576040517f08c379a0000000000000000000000000000000000000000000000000000000008152600401611e6d90614bfb565b60405180910390fd5b50565b600033905090565b816004600083815260200190815260200160002060006101000a81548173ffffffffffffffffffffffffffffffffffffffff021916908373ffffffffffffffffffffffffffffffffffffffff160217905550808273ffffffffffffffffffffffffffffffffffffffff16611ef483610e8d565b73ffffffffffffffffffffffffffffffffffffffff167f8c5be1e5ebec7d5bd14f71427d1e84f3dd0314c0f7b2291e5b200ac8c7c3b92560405160405180910390a45050565b600080611f4683610e8d565b90508073ffffffffffffffffffffffffffffffffffffffff168473ffffffffffffffffffffffffffffffffffffffff161480611f885750611f878185611972565b5b80611fc657508373ffffffffffffffffffffffffffffffffffffffff16611fae846108d9565b73ffffffffffffffffffffffffffffffffffffffff16145b91505092915050565b8273ffffffffffffffffffffffffffffffffffffffff16611fef82610e8d565b73ffffffffffffffffffffffffffffffffffffffff1614612045576040517f08c379a000000000000000000000000000000000000000000000000000000000815260040161203c90615121565b60405180910390fd5b600073ffffffffffffffffffffffffffffffffffffffff168273ffffffffffffffffffffffffffffffffffffffff16036120b4576040517f08c379a00000000000000000000000000000000000000000000000000000000081526004016120ab906151b3565b60405180910390fd5b6120bf838383612c19565b6120ca600082611e81565b6001600360008573ffffffffffffffffffffffffffffffffffffffff1673ffffffffffffffffffffffffffffffffffffffff168152602001908152602001600020600082825461211a9190614b7b565b925050819055506001600360008473ffffffffffffffffffffffffffffffffffffffff1673ffffffffffffffffffffffffffffffffffffffff16815260200190815260200160002060008282546121719190614a93565b92505081905550816002600083815260200190815260200160002060006101000a81548173ffffffffffffffffffffffffffffffffffffffff021916908373ffffffffffffffffffffffffffffffffffffffff160217905550808273ffffffffffffffffffffffffffffffffffffffff168473ffffffffffffffffffffffffffffffffffffffff167fddf252ad1be2c89b69c2b068fc378daa952ba7f163c4a11628f55a4df523b3ef60405160405180910390a4612230838383612c1e565b505050565b61224681612241611e79565b612c23565b50565b6122538282611398565b6123265760016006600084815260200190815260200160002060000160008373ffffffffffffffffffffffffffffffffffffffff1673ffffffffffffffffffffffffffffffffffffffff16815260200190815260200160002060006101000a81548160ff0219169083151502179055506122cb611e79565b73ffffffffffffffffffffffffffffffffffffffff168173ffffffffffffffffffffffffffffffffffffffff16837f2f8788117e7eff1d82e926ec794901d17c78024a50270940304540a733656f0d60405160405180910390a45b5050565b6123348282611398565b156124085760006006600084815260200190815260200160002060000160008373ffffffffffffffffffffffffffffffffffffffff1673ffffffffffffffffffffffffffffffffffffffff16815260200190815260200160002060006101000a81548160ff0219169083151502179055506123ad611e79565b73ffffffffffffffffffffffffffffffffffffffff168173ffffffffffffffffffffffffffffffffffffffff16837ff6391f5c32d9c69d2a47ea670b442974b53935d1edc7fd64eb21e047a839171b60405160405180910390a45b5050565b600081600001549050919050565b612434828260405180602001604052806000815250612cc0565b5050565b6001816000016000828254019250508190555050565b6000600960009054906101000a900473ffffffffffffffffffffffffffffffffffffffff16905090565b8173ffffffffffffffffffffffffffffffffffffffff168373ffffffffffffffffffffffffffffffffffffffff16036124e6576040517f08c379a00000000000000000000000000000000000000000000000000000000081526004016124dd9061521f565b60405180910390fd5b80600560008573ffffffffffffffffffffffffffffffffffffffff1673ffffffffffffffffffffffffffffffffffffffff16815260200190815260200160002060008473ffffffffffffffffffffffffffffffffffffffff1673ffffffffffffffffffffffffffffffffffffffff16815260200190815260200160002060006101000a81548160ff0219169083151502179055508173ffffffffffffffffffffffffffffffffffffffff168373ffffffffffffffffffffffffffffffffffffffff167f17307eab39ab6107e8899845ad3d59bd9653f200f220920489ca2b5937696c31836040516125d79190613ee8565b60405180910390a3505050565b6125ef848484611fcf565b6125fb84848484612d1b565b61263a576040517f08c379a0000000000000000000000000000000000000000000000000000000008152600401612631906152b1565b60405180910390fd5b50505050565b6060601a805461264f90614708565b80601f016020809104026020016040519081016040528092919081815260200182805461267b90614708565b80156126c85780601f1061269d576101008083540402835291602001916126c8565b820191906000526020600020905b8154815290600101906020018083116126ab57829003601f168201915b5050505050905090565b606060008203612719576040518060400160405280600181526020017f3000000000000000000000000000000000000000000000000000000000000000815250905061282d565b600082905060005b6000821461274b578080612734906148bb565b915050600a826127449190615300565b9150612721565b60008167ffffffffffffffff811115612767576127666144ab565b5b6040519080825280601f01601f1916602001820160405280156127995781602001600182028036833780820191505090505b5090505b60008514612826576001826127b29190614b7b565b9150600a856127c19190615331565b60306127cd9190614a93565b60f81b8183815181106127e3576127e261485d565b5b60200101907effffffffffffffffffffffffffffffffffffffffffffffffffffffffffffff1916908160001a905350600a8561281f9190615300565b945061279d565b8093505050505b919050565b80600a60006101000a81548173ffffffffffffffffffffffffffffffffffffffff021916908373ffffffffffffffffffffffffffffffffffffffff16021790555050565b80600960006101000a81548173ffffffffffffffffffffffffffffffffffffffff021916908373ffffffffffffffffffffffffffffffffffffffff16021790555050565b3373ffffffffffffffffffffffffffffffffffffffff168173ffffffffffffffffffffffffffffffffffffffff1603612928576040517f08c379a000000000000000000000000000000000000000000000000000000000815260040161291f906153ae565b60405180910390fd5b80600e60006101000a81548173ffffffffffffffffffffffffffffffffffffffff021916908373ffffffffffffffffffffffffffffffffffffffff1602179055508073ffffffffffffffffffffffffffffffffffffffff16600d60009054906101000a900473ffffffffffffffffffffffffffffffffffffffff1673ffffffffffffffffffffffffffffffffffffffff167fed8889f560326eb138920d842192f0eb3dd22b4f139c87a2c57538e05bae127860405160405180910390a350565b6129f0613d90565b6129f8613d90565b612a0f85858584612ea2909392919063ffffffff16565b9150509392505050565b6060612a2483612f52565b612a2d836126d2565b604051602001612a3e929190615466565b604051602081830303815290604052905092915050565b612a6c82846080015161311590919063ffffffff16565b612a8381846080015161311590919063ffffffff16565b505050565b6000612ab7600a60009054906101000a900473ffffffffffffffffffffffffffffffffffffffff16848461313a565b905092915050565b612ac881610c8f565b50565b60007f80ac58cd000000000000000000000000000000000000000000000000000000007bffffffffffffffffffffffffffffffffffffffffffffffffffffffff1916827bffffffffffffffffffffffffffffffffffffffffffffffffffffffff19161480612b9657507f5b5e139f000000000000000000000000000000000000000000000000000000007bffffffffffffffffffffffffffffffffffffffffffffffffffffffff1916827bffffffffffffffffffffffffffffffffffffffffffffffffffffffff1916145b80612ba65750612ba582613206565b5b9050919050565b60008073ffffffffffffffffffffffffffffffffffffffff166002600084815260200190815260200160002060009054906101000a900473ffffffffffffffffffffffffffffffffffffffff1673ffffffffffffffffffffffffffffffffffffffff1614159050919050565b505050565b505050565b612c2d8282611398565b612cbc57612c528173ffffffffffffffffffffffffffffffffffffffff166014613270565b612c608360001c6020613270565b604051602001612c7192919061553c565b6040516020818303038152906040526040517f08c379a0000000000000000000000000000000000000000000000000000000008152600401612cb39190613f9c565b60405180910390fd5b5050565b612cca83836134ac565b612cd76000848484612d1b565b612d16576040517f08c379a0000000000000000000000000000000000000000000000000000000008152600401612d0d906152b1565b60405180910390fd5b505050565b6000612d3c8473ffffffffffffffffffffffffffffffffffffffff16613685565b15612e95578373ffffffffffffffffffffffffffffffffffffffff1663150b7a02612d65611e79565b8786866040518563ffffffff1660e01b8152600401612d879493929190615576565b6020604051808303816000875af1925050508015612dc357506040513d601f19601f82011682018060405250810190612dc091906155d7565b60015b612e45573d8060008114612df3576040519150601f19603f3d011682016040523d82523d6000602084013e612df8565b606091505b506000815103612e3d576040517f08c379a0000000000000000000000000000000000000000000000000000000008152600401612e34906152b1565b60405180910390fd5b805181602001fd5b63150b7a0260e01b7bffffffffffffffffffffffffffffffffffffffffffffffffffffffff1916817bffffffffffffffffffffffffffffffffffffffffffffffffffffffff191614915050612e9a565b600190505b949350505050565b612eaa613d90565b612eba85608001516101006136a8565b508385600001818152505082856020019073ffffffffffffffffffffffffffffffffffffffff16908173ffffffffffffffffffffffffffffffffffffffff16815250508185604001907bffffffffffffffffffffffffffffffffffffffffffffffffffffffff191690817bffffffffffffffffffffffffffffffffffffffffffffffffffffffff191681525050849050949350505050565b60606000602867ffffffffffffffff811115612f7157612f706144ab565b5b6040519080825280601f01601f191660200182016040528015612fa35781602001600182028036833780820191505090505b50905060005b601481101561310b576000816013612fc19190614b7b565b6008612fcd9190614e92565b6002612fd99190615737565b8573ffffffffffffffffffffffffffffffffffffffff16612ffa9190615300565b60f81b9050600060108260f81c613011919061578f565b60f81b905060008160f81c601061302891906157c0565b8360f81c61303691906157fb565b60f81b905061304482613712565b858560026130529190614e92565b815181106130635761306261485d565b5b60200101907effffffffffffffffffffffffffffffffffffffffffffffffffffffffffffff1916908160001a90535061309b81613712565b8560018660026130ab9190614e92565b6130b59190614a93565b815181106130c6576130c561485d565b5b60200101907effffffffffffffffffffffffffffffffffffffffffffffffffffffffffffff1916908160001a9053505050508080613103906148bb565b915050612fa9565b5080915050919050565b6131228260038351613758565b61313581836138dd90919063ffffffff16565b505050565b600080600b54905060018161314f9190614a93565b600b819055506000634042994660e01b60008087600001513089604001518760018c608001516000015160405160240161319098979695949392919061583e565b604051602081830303815290604052907bffffffffffffffffffffffffffffffffffffffffffffffffffffffff19166020820180517bffffffffffffffffffffffffffffffffffffffffffffffffffffffff838183161783525050505090506131fb868386846138ff565b925050509392505050565b60007f01ffc9a7000000000000000000000000000000000000000000000000000000007bffffffffffffffffffffffffffffffffffffffffffffffffffffffff1916827bffffffffffffffffffffffffffffffffffffffffffffffffffffffff1916149050919050565b6060600060028360026132839190614e92565b61328d9190614a93565b67ffffffffffffffff8111156132a6576132a56144ab565b5b6040519080825280601f01601f1916602001820160405280156132d85781602001600182028036833780820191505090505b5090507f3000000000000000000000000000000000000000000000000000000000000000816000815181106133105761330f61485d565b5b60200101907effffffffffffffffffffffffffffffffffffffffffffffffffffffffffffff1916908160001a9053507f7800000000000000000000000000000000000000000000000000000000000000816001815181106133745761337361485d565b5b60200101907effffffffffffffffffffffffffffffffffffffffffffffffffffffffffffff1916908160001a905350600060018460026133b49190614e92565b6133be9190614a93565b90505b600181111561345e577f3031323334353637383961626364656600000000000000000000000000000000600f861660108110613400576133ff61485d565b5b1a60f81b8282815181106134175761341661485d565b5b60200101907effffffffffffffffffffffffffffffffffffffffffffffffffffffffffffff1916908160001a905350600485901c945080613457906158c3565b90506133c1565b50600084146134a2576040517f08c379a000000000000000000000000000000000000000000000000000000000815260040161349990615938565b60405180910390fd5b8091505092915050565b600073ffffffffffffffffffffffffffffffffffffffff168273ffffffffffffffffffffffffffffffffffffffff160361351b576040517f08c379a0000000000000000000000000000000000000000000000000000000008152600401613512906159a4565b60405180910390fd5b61352481612bad565b15613564576040517f08c379a000000000000000000000000000000000000000000000000000000000815260040161355b90615a10565b60405180910390fd5b61357060008383612c19565b6001600360008473ffffffffffffffffffffffffffffffffffffffff1673ffffffffffffffffffffffffffffffffffffffff16815260200190815260200160002060008282546135c09190614a93565b92505081905550816002600083815260200190815260200160002060006101000a81548173ffffffffffffffffffffffffffffffffffffffff021916908373ffffffffffffffffffffffffffffffffffffffff160217905550808273ffffffffffffffffffffffffffffffffffffffff16600073ffffffffffffffffffffffffffffffffffffffff167fddf252ad1be2c89b69c2b068fc378daa952ba7f163c4a11628f55a4df523b3ef60405160405180910390a461368160008383612c1e565b5050565b6000808273ffffffffffffffffffffffffffffffffffffffff163b119050919050565b6136b0613dfd565b60006020836136bf9190615331565b146136eb576020826136d19190615331565b60206136dd9190614b7b565b826136e89190614a93565b91505b81836020018181525050604051808452600081528281016020016040525082905092915050565b6000600a8260f81c60ff16101561373d5760308260f81c6137339190615a30565b60f81b9050613753565b60578260f81c61374d9190615a30565b60f81b90505b919050565b60178167ffffffffffffffff161161378f576137898160058460ff16901b60ff161784613a9490919063ffffffff16565b506138d8565b60ff8167ffffffffffffffff16116137e5576137be601860058460ff16901b1784613a9490919063ffffffff16565b506137df8167ffffffffffffffff16600185613ab49092919063ffffffff16565b506138d7565b61ffff8167ffffffffffffffff161161383c57613815601960058460ff16901b1784613a9490919063ffffffff16565b506138368167ffffffffffffffff16600285613ab49092919063ffffffff16565b506138d6565b63ffffffff8167ffffffffffffffff16116138955761386e601a60058460ff16901b1784613a9490919063ffffffff16565b5061388f8167ffffffffffffffff16600485613ab49092919063ffffffff16565b506138d5565b6138b2601b60058460ff16901b1784613a9490919063ffffffff16565b506138d38167ffffffffffffffff16600885613ab49092919063ffffffff16565b505b5b5b5b505050565b6138e5613dfd565b6138f783846000015151848551613ad6565b905092915050565b60003084604051602001613914929190615b20565b60405160208183030381529060405280519060200120905084600c600083815260200190815260200160002060006101000a81548173ffffffffffffffffffffffffffffffffffffffff021916908373ffffffffffffffffffffffffffffffffffffffff160217905550807fb5e6e01e79f91267dc17b4e6314d5d4d03593d2ceee0fbb452b750bd70ea5af960405160405180910390a2600960009054906101000a900473ffffffffffffffffffffffffffffffffffffffff1673ffffffffffffffffffffffffffffffffffffffff16634000aea08685856040518463ffffffff1660e01b8152600401613a0a93929190615b4c565b6020604051808303816000875af1158015613a29573d6000803e3d6000fd5b505050506040513d601f19601f82011682018060405250810190613a4d9190614d99565b613a8c576040517f08c379a0000000000000000000000000000000000000000000000000000000008152600401613a8390615bfc565b60405180910390fd5b949350505050565b613a9c613dfd565b613aac8384600001515184613bc5565b905092915050565b613abc613dfd565b613acd848560000151518585613c1b565b90509392505050565b613ade613dfd565b8251821115613aec57600080fd5b84602001518285613afd9190614a93565b1115613b3257613b31856002613b2288602001518887613b1d9190614a93565b613ca9565b613b2c9190614e92565b613cc5565b5b600080865180518760208301019350808887011115613b515787860182525b60208701925050505b60208410613b985780518252602082613b739190614a93565b9150602081613b829190614a93565b9050602084613b919190614b7b565b9350613b5a565b60006001856020036101000a03905080198251168184511681811785525050508692505050949350505050565b613bcd613dfd565b83602001518310613bf357613bf28460028660200151613bed9190614e92565b613cc5565b5b83518051602085830101848153818603613c0e576001820183525b5050508390509392505050565b613c23613dfd565b84602001518483613c349190614a93565b1115613c5c57613c5b8560028685613c4c9190614a93565b613c569190614e92565b613cc5565b5b6000600183610100613c6e9190615737565b613c789190614b7b565b90508551838682010185831982511617815281518588011115613c9b5784870182525b505085915050949350505050565b600081831115613cbb57829050613cbf565b8190505b92915050565b600082600001519050613cd883836136a8565b50613ce383826138dd565b50505050565b5080546000825590600052602060002090810190613d079190613e17565b50565b828054613d1690614708565b90600052602060002090601f016020900481019282613d385760008555613d7f565b82601f10613d5157803560ff1916838001178555613d7f565b82800160010185558215613d7f579182015b82811115613d7e578235825591602001919060010190613d63565b5b509050613d8c9190613e17565b5090565b6040518060a0016040528060008019168152602001600073ffffffffffffffffffffffffffffffffffffffff16815260200160007bffffffffffffffffffffffffffffffffffffffffffffffffffffffff1916815260200160008152602001613df7613dfd565b81525090565b604051806040016040528060608152602001600081525090565b5b80821115613e30576000816000905550600101613e18565b5090565b6000604051905090565b600080fd5b600080fd5b60007fffffffff0000000000000000000000000000000000000000000000000000000082169050919050565b613e7d81613e48565b8114613e8857600080fd5b50565b600081359050613e9a81613e74565b92915050565b600060208284031215613eb657613eb5613e3e565b5b6000613ec484828501613e8b565b91505092915050565b60008115159050919050565b613ee281613ecd565b82525050565b6000602082019050613efd6000830184613ed9565b92915050565b600081519050919050565b600082825260208201905092915050565b60005b83811015613f3d578082015181840152602081019050613f22565b83811115613f4c576000848401525b50505050565b6000601f19601f8301169050919050565b6000613f6e82613f03565b613f788185613f0e565b9350613f88818560208601613f1f565b613f9181613f52565b840191505092915050565b60006020820190508181036000830152613fb68184613f63565b905092915050565b6000819050919050565b613fd181613fbe565b8114613fdc57600080fd5b50565b600081359050613fee81613fc8565b92915050565b60006020828403121561400a57614009613e3e565b5b600061401884828501613fdf565b91505092915050565b600073ffffffffffffffffffffffffffffffffffffffff82169050919050565b600061404c82614021565b9050919050565b61405c81614041565b82525050565b60006020820190506140776000830184614053565b92915050565b61408681614041565b811461409157600080fd5b50565b6000813590506140a38161407d565b92915050565b600080604083850312156140c0576140bf613e3e565b5b60006140ce85828601614094565b92505060206140df85828601613fdf565b9150509250929050565b60008060006060848603121561410257614101613e3e565b5b600061411086828701614094565b935050602061412186828701614094565b925050604061413286828701613fdf565b9150509250925092565b6000819050919050565b61414f8161413c565b811461415a57600080fd5b50565b60008135905061416c81614146565b92915050565b60006020828403121561418857614187613e3e565b5b60006141968482850161415d565b91505092915050565b6141a88161413c565b82525050565b60006020820190506141c3600083018461419f565b92915050565b600080604083850312156141e0576141df613e3e565b5b60006141ee8582860161415d565b92505060206141ff85828601614094565b9150509250929050565b60006020828403121561421f5761421e613e3e565b5b600061422d84828501614094565b91505092915050565b61423f81613fbe565b82525050565b600060208201905061425a6000830184614236565b92915050565b600080fd5b600080fd5b600080fd5b60008083601f84011261428557614284614260565b5b8235905067ffffffffffffffff8111156142a2576142a1614265565b5b6020830191508360018202830111156142be576142bd61426a565b5b9250929050565b600080602083850312156142dc576142db613e3e565b5b600083013567ffffffffffffffff8111156142fa576142f9613e43565b5b6143068582860161426f565b92509250509250929050565b60008083601f84011261432857614327614260565b5b8235905067ffffffffffffffff81111561434557614344614265565b5b6020830191508360018202830111156143615761436061426a565b5b9250929050565b6000806020838503121561437f5761437e613e3e565b5b600083013567ffffffffffffffff81111561439d5761439c613e43565b5b6143a985828601614312565b92509250509250929050565b600081519050919050565b600082825260208201905092915050565b60006143dc826143b5565b6143e681856143c0565b93506143f6818560208601613f1f565b6143ff81613f52565b840191505092915050565b600060408201905061441f6000830185613ed9565b818103602083015261443181846143d1565b90509392505050565b61444381613ecd565b811461444e57600080fd5b50565b6000813590506144608161443a565b92915050565b6000806040838503121561447d5761447c613e3e565b5b600061448b85828601614094565b925050602061449c85828601614451565b9150509250929050565b600080fd5b7f4e487b7100000000000000000000000000000000000000000000000000000000600052604160045260246000fd5b6144e382613f52565b810181811067ffffffffffffffff82111715614502576145016144ab565b5b80604052505050565b6000614515613e34565b905061452182826144da565b919050565b600067ffffffffffffffff821115614541576145406144ab565b5b61454a82613f52565b9050602081019050919050565b82818337600083830152505050565b600061457961457484614526565b61450b565b905082815260208101848484011115614595576145946144a6565b5b6145a0848285614557565b509392505050565b600082601f8301126145bd576145bc614260565b5b81356145cd848260208601614566565b91505092915050565b600080600080608085870312156145f0576145ef613e3e565b5b60006145fe87828801614094565b945050602061460f87828801614094565b935050604061462087828801613fdf565b925050606085013567ffffffffffffffff81111561464157614640613e43565b5b61464d878288016145a8565b91505092959194509250565b600080604083850312156146705761466f613e3e565b5b600061467e85828601614094565b925050602061468f85828601614094565b9150509250929050565b600080604083850312156146b0576146af613e3e565b5b60006146be8582860161415d565b92505060206146cf85828601614451565b9150509250929050565b7f4e487b7100000000000000000000000000000000000000000000000000000000600052602260045260246000fd5b6000600282049050600182168061472057607f821691505b602082108103614733576147326146d9565b5b50919050565b7f4552433732313a20617070726f76616c20746f2063757272656e74206f776e6560008201527f7200000000000000000000000000000000000000000000000000000000000000602082015250565b6000614795602183613f0e565b91506147a082614739565b604082019050919050565b600060208201905081810360008301526147c481614788565b9050919050565b7f4552433732313a20617070726f76652063616c6c6572206973206e6f7420746f60008201527f6b656e206f776e6572206e6f7220617070726f76656420666f7220616c6c0000602082015250565b6000614827603e83613f0e565b9150614832826147cb565b604082019050919050565b600060208201905081810360008301526148568161481a565b9050919050565b7f4e487b7100000000000000000000000000000000000000000000000000000000600052603260045260246000fd5b7f4e487b7100000000000000000000000000000000000000000000000000000000600052601160045260246000fd5b60006148c682613fbe565b91507fffffffffffffffffffffffffffffffffffffffffffffffffffffffffffffffff82036148f8576148f761488c565b5b600182019050919050565b7f4552433732313a2063616c6c6572206973206e6f7420746f6b656e206f776e6560008201527f72206e6f7220617070726f766564000000000000000000000000000000000000602082015250565b600061495f602e83613f0e565b915061496a82614903565b604082019050919050565b6000602082019050818103600083015261498e81614952565b9050919050565b7f416363657373436f6e74726f6c3a2063616e206f6e6c792072656e6f756e636560008201527f20726f6c657320666f722073656c660000000000000000000000000000000000602082015250565b60006149f1602f83613f0e565b91506149fc82614995565b604082019050919050565b60006020820190508181036000830152614a20816149e4565b9050919050565b7f5573657220616c7265616479206d696e74656400000000000000000000000000600082015250565b6000614a5d601383613f0e565b9150614a6882614a27565b602082019050919050565b60006020820190508181036000830152614a8c81614a50565b9050919050565b6000614a9e82613fbe565b9150614aa983613fbe565b9250827fffffffffffffffffffffffffffffffffffffffffffffffffffffffffffffffff03821115614ade57614add61488c565b5b828201905092915050565b7f507572636861736520776f756c6420657863656564206d617820737570706c7960008201527f206f6620746f6b656e7300000000000000000000000000000000000000000000602082015250565b6000614b45602a83613f0e565b9150614b5082614ae9565b604082019050919050565b60006020820190508181036000830152614b7481614b38565b9050919050565b6000614b8682613fbe565b9150614b9183613fbe565b925082821015614ba457614ba361488c565b5b828203905092915050565b7f4552433732313a20696e76616c696420746f6b656e2049440000000000000000600082015250565b6000614be5601883613f0e565b9150614bf082614baf565b602082019050919050565b60006020820190508181036000830152614c1481614bd8565b9050919050565b7f4552433732313a2061646472657373207a65726f206973206e6f74206120766160008201527f6c6964206f776e65720000000000000000000000000000000000000000000000602082015250565b6000614c77602983613f0e565b9150614c8282614c1b565b604082019050919050565b60006020820190508181036000830152614ca681614c6a565b9050919050565b7f4d7573742062652070726f706f736564206f776e657200000000000000000000600082015250565b6000614ce3601683613f0e565b9150614cee82614cad565b602082019050919050565b60006020820190508181036000830152614d1281614cd6565b9050919050565b600081519050614d2881613fc8565b92915050565b600060208284031215614d4457614d43613e3e565b5b6000614d5284828501614d19565b91505092915050565b6000604082019050614d706000830185614053565b614d7d6020830184614236565b9392505050565b600081519050614d938161443a565b92915050565b600060208284031215614daf57614dae613e3e565b5b6000614dbd84828501614d84565b91505092915050565b7f556e61626c6520746f207472616e736665720000000000000000000000000000600082015250565b6000614dfc601283613f0e565b9150614e0782614dc6565b602082019050919050565b60006020820190508181036000830152614e2b81614def565b9050919050565b600081905092915050565b6000614e4882613f03565b614e528185614e32565b9350614e62818560208601613f1f565b80840191505092915050565b6000614e7a8285614e3d565b9150614e868284614e3d565b91508190509392505050565b6000614e9d82613fbe565b9150614ea883613fbe565b9250817fffffffffffffffffffffffffffffffffffffffffffffffffffffffffffffffff0483118215151615614ee157614ee061488c565b5b828202905092915050565b7f536f75726365206d75737420626520746865206f7261636c65206f662074686560008201527f2072657175657374000000000000000000000000000000000000000000000000602082015250565b6000614f48602883613f0e565b9150614f5382614eec565b604082019050919050565b60006020820190508181036000830152614f7781614f3b565b9050919050565b60008190508160005260206000209050919050565b60008154614fa081614708565b614faa8186613f0e565b94506001821660008114614fc55760018114614fd75761500a565b60ff198316865260208601935061500a565b614fe085614f7e565b60005b8381101561500257815481890152600182019150602081019050614fe3565b808801955050505b50505092915050565b60006040820190506150286000830185613ed9565b818103602083015261503a8184614f93565b90509392505050565b7f4f6e6c792063616c6c61626c65206279206f776e657200000000000000000000600082015250565b6000615079601683613f0e565b915061508482615043565b602082019050919050565b600060208201905081810360008301526150a88161506c565b9050919050565b7f4552433732313a207472616e736665722066726f6d20696e636f72726563742060008201527f6f776e6572000000000000000000000000000000000000000000000000000000602082015250565b600061510b602583613f0e565b9150615116826150af565b604082019050919050565b6000602082019050818103600083015261513a816150fe565b9050919050565b7f4552433732313a207472616e7366657220746f20746865207a65726f2061646460008201527f7265737300000000000000000000000000000000000000000000000000000000602082015250565b600061519d602483613f0e565b91506151a882615141565b604082019050919050565b600060208201905081810360008301526151cc81615190565b9050919050565b7f4552433732313a20617070726f766520746f2063616c6c657200000000000000600082015250565b6000615209601983613f0e565b9150615214826151d3565b602082019050919050565b60006020820190508181036000830152615238816151fc565b9050919050565b7f4552433732313a207472616e7366657220746f206e6f6e20455243373231526560008201527f63656976657220696d706c656d656e7465720000000000000000000000000000602082015250565b600061529b603283613f0e565b91506152a68261523f565b604082019050919050565b600060208201905081810360008301526152ca8161528e565b9050919050565b7f4e487b7100000000000000000000000000000000000000000000000000000000600052601260045260246000fd5b600061530b82613fbe565b915061531683613fbe565b925082615326576153256152d1565b5b828204905092915050565b600061533c82613fbe565b915061534783613fbe565b925082615357576153566152d1565b5b828206905092915050565b7f43616e6e6f74207472616e7366657220746f2073656c66000000000000000000600082015250565b6000615398601783613f0e565b91506153a382615362565b602082019050919050565b600060208201905081810360008301526153c78161538b565b9050919050565b7f68747470733a2f2f617262692e67617465732e7774662f6170692f766572696660008201527f793f616464726573733d00000000000000000000000000000000000000000000602082015250565b600061542a602a83614e32565b9150615435826153ce565b602a82019050919050565b7f266761746549643d000000000000000000000000000000000000000000000000815250565b60006154718261541d565b915061547d8285614e3d565b915061548882615440565b6008820191506154988284614e3d565b91508190509392505050565b7f416363657373436f6e74726f6c3a206163636f756e7420000000000000000000600082015250565b60006154da601783614e32565b91506154e5826154a4565b601782019050919050565b7f206973206d697373696e6720726f6c6520000000000000000000000000000000600082015250565b6000615526601183614e32565b9150615531826154f0565b601182019050919050565b6000615547826154cd565b91506155538285614e3d565b915061555e82615519565b915061556a8284614e3d565b91508190509392505050565b600060808201905061558b6000830187614053565b6155986020830186614053565b6155a56040830185614236565b81810360608301526155b781846143d1565b905095945050505050565b6000815190506155d181613e74565b92915050565b6000602082840312156155ed576155ec613e3e565b5b60006155fb848285016155c2565b91505092915050565b60008160011c9050919050565b6000808291508390505b600185111561565b578086048111156156375761563661488c565b5b60018516156156465780820291505b808102905061565485615604565b945061561b565b94509492505050565b6000826156745760019050615730565b816156825760009050615730565b816001811461569857600281146156a2576156d1565b6001915050615730565b60ff8411156156b4576156b361488c565b5b8360020a9150848211156156cb576156ca61488c565b5b50615730565b5060208310610133831016604e8410600b84101617156157065782820a9050838111156157015761570061488c565b5b615730565b6157138484846001615611565b9250905081840481111561572a5761572961488c565b5b81810290505b9392505050565b600061574282613fbe565b915061574d83613fbe565b925061577a7fffffffffffffffffffffffffffffffffffffffffffffffffffffffffffffffff8484615664565b905092915050565b600060ff82169050919050565b600061579a82615782565b91506157a583615782565b9250826157b5576157b46152d1565b5b828204905092915050565b60006157cb82615782565b91506157d683615782565b92508160ff04831182151516156157f0576157ef61488c565b5b828202905092915050565b600061580682615782565b915061581183615782565b9250828210156158245761582361488c565b5b828203905092915050565b61583881613e48565b82525050565b600061010082019050615854600083018b614053565b615861602083018a614236565b61586e604083018961419f565b61587b6060830188614053565b615888608083018761582f565b61589560a0830186614236565b6158a260c0830185614236565b81810360e08301526158b481846143d1565b90509998505050505050505050565b60006158ce82613fbe565b9150600082036158e1576158e061488c565b5b600182039050919050565b7f537472696e67733a20686578206c656e67746820696e73756666696369656e74600082015250565b6000615922602083613f0e565b915061592d826158ec565b602082019050919050565b6000602082019050818103600083015261595181615915565b9050919050565b7f4552433732313a206d696e7420746f20746865207a65726f2061646472657373600082015250565b600061598e602083613f0e565b915061599982615958565b602082019050919050565b600060208201905081810360008301526159bd81615981565b9050919050565b7f4552433732313a20746f6b656e20616c7265616479206d696e74656400000000600082015250565b60006159fa601c83613f0e565b9150615a05826159c4565b602082019050919050565b60006020820190508181036000830152615a29816159ed565b9050919050565b6000615a3b82615782565b9150615a4683615782565b92508260ff03821115615a5c57615a5b61488c565b5b828201905092915050565b6000819050919050565b6000615a8c615a87615a8284614021565b615a67565b614021565b9050919050565b6000615a9e82615a71565b9050919050565b6000615ab082615a93565b9050919050565b60008160601b9050919050565b6000615acf82615ab7565b9050919050565b6000615ae182615ac4565b9050919050565b615af9615af482615aa5565b615ad6565b82525050565b6000819050919050565b615b1a615b1582613fbe565b615aff565b82525050565b6000615b2c8285615ae8565b601482019150615b3c8284615b09565b6020820191508190509392505050565b6000606082019050615b616000830186614053565b615b6e6020830185614236565b8181036040830152615b8081846143d1565b9050949350505050565b7f756e61626c6520746f207472616e73666572416e6443616c6c20746f206f726160008201527f636c650000000000000000000000000000000000000000000000000000000000602082015250565b6000615be6602383613f0e565b9150615bf182615b8a565b604082019050919050565b60006020820190508181036000830152615c1581615bd9565b905091905056fea2646970667358221220404a4bc281f64e5612e331c75ba49a8b6b0aed996eab53b2c9eb7e7a9de77a0e64736f6c634300080e0033",
  "devdoc": {
    "kind": "dev",
    "methods": {
      "approve(address,uint256)": {
        "details": "See {IERC721-approve}."
      },
      "balanceOf(address)": {
        "details": "See {IERC721-balanceOf}."
      },
      "getApproved(uint256)": {
        "details": "See {IERC721-getApproved}."
      },
      "getRoleAdmin(bytes32)": {
        "details": "Returns the admin role that controls `role`. See {grantRole} and {revokeRole}. To change a role's admin, use {_setRoleAdmin}."
      },
      "grantRole(bytes32,address)": {
        "details": "Grants `role` to `account`. If `account` had not been already granted `role`, emits a {RoleGranted} event. Requirements: - the caller must have ``role``'s admin role. May emit a {RoleGranted} event."
      },
      "hasRole(bytes32,address)": {
        "details": "Returns `true` if `account` has been granted `role`."
      },
      "isApprovedForAll(address,address)": {
        "details": "See {IERC721-isApprovedForAll}."
      },
      "name()": {
        "details": "See {IERC721Metadata-name}."
      },
      "ownerOf(uint256)": {
        "details": "See {IERC721-ownerOf}."
      },
      "renounceRole(bytes32,address)": {
        "details": "Revokes `role` from the calling account. Roles are often managed via {grantRole} and {revokeRole}: this function's purpose is to provide a mechanism for accounts to lose their privileges if they are compromised (such as when a trusted device is misplaced). If the calling account had been revoked `role`, emits a {RoleRevoked} event. Requirements: - the caller must be `account`. May emit a {RoleRevoked} event."
      },
      "revokeRole(bytes32,address)": {
        "details": "Revokes `role` from `account`. If `account` had been granted `role`, emits a {RoleRevoked} event. Requirements: - the caller must have ``role``'s admin role. May emit a {RoleRevoked} event."
      },
      "safeTransferFrom(address,address,uint256)": {
        "details": "See {IERC721-safeTransferFrom}."
      },
      "safeTransferFrom(address,address,uint256,bytes)": {
        "details": "See {IERC721-safeTransferFrom}."
      },
      "setApprovalForAll(address,bool)": {
        "details": "See {IERC721-setApprovalForAll}."
      },
      "symbol()": {
        "details": "See {IERC721Metadata-symbol}."
      },
      "tokenURI(uint256)": {
        "details": "See {IERC721Metadata-tokenURI}."
      },
      "transferFrom(address,address,uint256)": {
        "details": "See {IERC721-transferFrom}."
      }
    },
    "version": 1
  },
  "userdoc": {
    "kind": "user",
    "methods": {
      "acceptOwnership()": {
        "notice": "Allows an ownership transfer to be completed by the recipient."
      },
      "interval()": {
        "notice": "Use an interval in seconds and a timestamp to slow execution of Upkeep"
      },
      "owner()": {
        "notice": "Get the current owner"
      },
      "transferOwnership(address)": {
        "notice": "Allows an owner to begin transferring ownership to a new address, pending."
      },
      "withdrawLink()": {
        "notice": "Allow withdraw of Link tokens from the contract"
      }
    },
    "version": 1
  },
  "storageLayout": {
    "storage": [
      {
        "astId": 2963,
        "contract": "contracts/ArbiGates.sol:ArbiGates",
        "label": "_name",
        "offset": 0,
        "slot": "0",
        "type": "t_string_storage"
      },
      {
        "astId": 2965,
        "contract": "contracts/ArbiGates.sol:ArbiGates",
        "label": "_symbol",
        "offset": 0,
        "slot": "1",
        "type": "t_string_storage"
      },
      {
        "astId": 2969,
        "contract": "contracts/ArbiGates.sol:ArbiGates",
        "label": "_owners",
        "offset": 0,
        "slot": "2",
        "type": "t_mapping(t_uint256,t_address)"
      },
      {
        "astId": 2973,
        "contract": "contracts/ArbiGates.sol:ArbiGates",
        "label": "_balances",
        "offset": 0,
        "slot": "3",
        "type": "t_mapping(t_address,t_uint256)"
      },
      {
        "astId": 2977,
        "contract": "contracts/ArbiGates.sol:ArbiGates",
        "label": "_tokenApprovals",
        "offset": 0,
        "slot": "4",
        "type": "t_mapping(t_uint256,t_address)"
      },
      {
        "astId": 2983,
        "contract": "contracts/ArbiGates.sol:ArbiGates",
        "label": "_operatorApprovals",
        "offset": 0,
        "slot": "5",
        "type": "t_mapping(t_address,t_mapping(t_address,t_bool))"
      },
      {
        "astId": 2456,
        "contract": "contracts/ArbiGates.sol:ArbiGates",
        "label": "_roles",
        "offset": 0,
        "slot": "6",
        "type": "t_mapping(t_bytes32,t_struct(RoleData)2451_storage)"
      },
      {
        "astId": 358,
        "contract": "contracts/ArbiGates.sol:ArbiGates",
        "label": "s_ens",
        "offset": 0,
        "slot": "7",
        "type": "t_contract(ENSInterface)1214"
      },
      {
        "astId": 360,
        "contract": "contracts/ArbiGates.sol:ArbiGates",
        "label": "s_ensNode",
        "offset": 0,
        "slot": "8",
        "type": "t_bytes32"
      },
      {
        "astId": 363,
        "contract": "contracts/ArbiGates.sol:ArbiGates",
        "label": "s_link",
        "offset": 0,
        "slot": "9",
        "type": "t_contract(LinkTokenInterface)1309"
      },
      {
        "astId": 366,
        "contract": "contracts/ArbiGates.sol:ArbiGates",
        "label": "s_oracle",
        "offset": 0,
        "slot": "10",
        "type": "t_contract(OperatorInterface)1389"
      },
      {
        "astId": 369,
        "contract": "contracts/ArbiGates.sol:ArbiGates",
        "label": "s_requestCount",
        "offset": 0,
        "slot": "11",
        "type": "t_uint256"
      },
      {
        "astId": 373,
        "contract": "contracts/ArbiGates.sol:ArbiGates",
        "label": "s_pendingRequests",
        "offset": 0,
        "slot": "12",
        "type": "t_mapping(t_bytes32,t_address)"
      },
      {
        "astId": 928,
        "contract": "contracts/ArbiGates.sol:ArbiGates",
        "label": "s_owner",
        "offset": 0,
        "slot": "13",
        "type": "t_address"
      },
      {
        "astId": 930,
        "contract": "contracts/ArbiGates.sol:ArbiGates",
        "label": "s_pendingOwner",
        "offset": 0,
        "slot": "14",
        "type": "t_address"
      },
      {
        "astId": 4812,
        "contract": "contracts/ArbiGates.sol:ArbiGates",
        "label": "volume",
        "offset": 0,
        "slot": "15",
        "type": "t_uint256"
      },
      {
        "astId": 4814,
        "contract": "contracts/ArbiGates.sol:ArbiGates",
        "label": "jobId",
        "offset": 0,
        "slot": "16",
        "type": "t_bytes32"
      },
      {
        "astId": 4816,
        "contract": "contracts/ArbiGates.sol:ArbiGates",
        "label": "fee",
        "offset": 0,
        "slot": "17",
        "type": "t_uint256"
      },
      {
        "astId": 4818,
        "contract": "contracts/ArbiGates.sol:ArbiGates",
        "label": "gateID",
        "offset": 0,
        "slot": "18",
        "type": "t_uint256"
      },
      {
        "astId": 4820,
        "contract": "contracts/ArbiGates.sol:ArbiGates",
        "label": "approved",
        "offset": 0,
        "slot": "19",
        "type": "t_bool"
      },
      {
        "astId": 4830,
        "contract": "contracts/ArbiGates.sol:ArbiGates",
        "label": "counter",
        "offset": 0,
        "slot": "20",
        "type": "t_uint256"
      },
      {
        "astId": 4835,
        "contract": "contracts/ArbiGates.sol:ArbiGates",
        "label": "lastTimeStamp",
        "offset": 0,
        "slot": "21",
        "type": "t_uint256"
      },
      {
        "astId": 4838,
        "contract": "contracts/ArbiGates.sol:ArbiGates",
        "label": "addressesToVerify",
        "offset": 0,
        "slot": "22",
        "type": "t_array(t_address)dyn_storage"
      },
      {
        "astId": 4842,
        "contract": "contracts/ArbiGates.sol:ArbiGates",
        "label": "responseID",
        "offset": 0,
        "slot": "23",
        "type": "t_mapping(t_bytes32,t_address)"
      },
      {
        "astId": 5006,
        "contract": "contracts/ArbiGates.sol:ArbiGates",
        "label": "lastChecked",
        "offset": 0,
        "slot": "24",
        "type": "t_string_storage"
      },
      {
        "astId": 4634,
        "contract": "contracts/ArbiGates.sol:ArbiGates",
        "label": "MAX_TOKENS",
        "offset": 0,
        "slot": "25",
        "type": "t_uint256"
      },
      {
        "astId": 4636,
        "contract": "contracts/ArbiGates.sol:ArbiGates",
        "label": "baseTokenURI",
        "offset": 0,
        "slot": "26",
        "type": "t_string_storage"
      },
      {
        "astId": 4640,
        "contract": "contracts/ArbiGates.sol:ArbiGates",
        "label": "minted",
        "offset": 0,
        "slot": "27",
        "type": "t_mapping(t_address,t_bool)"
      },
      {
        "astId": 4647,
        "contract": "contracts/ArbiGates.sol:ArbiGates",
        "label": "_tokenIdCounter",
        "offset": 0,
        "slot": "28",
        "type": "t_struct(Counter)4288_storage"
      }
    ],
    "types": {
      "t_address": {
        "encoding": "inplace",
        "label": "address",
        "numberOfBytes": "20"
      },
      "t_array(t_address)dyn_storage": {
        "base": "t_address",
        "encoding": "dynamic_array",
        "label": "address[]",
        "numberOfBytes": "32"
      },
      "t_bool": {
        "encoding": "inplace",
        "label": "bool",
        "numberOfBytes": "1"
      },
      "t_bytes32": {
        "encoding": "inplace",
        "label": "bytes32",
        "numberOfBytes": "32"
      },
      "t_contract(ENSInterface)1214": {
        "encoding": "inplace",
        "label": "contract ENSInterface",
        "numberOfBytes": "20"
      },
      "t_contract(LinkTokenInterface)1309": {
        "encoding": "inplace",
        "label": "contract LinkTokenInterface",
        "numberOfBytes": "20"
      },
      "t_contract(OperatorInterface)1389": {
        "encoding": "inplace",
        "label": "contract OperatorInterface",
        "numberOfBytes": "20"
      },
      "t_mapping(t_address,t_bool)": {
        "encoding": "mapping",
        "key": "t_address",
        "label": "mapping(address => bool)",
        "numberOfBytes": "32",
        "value": "t_bool"
      },
      "t_mapping(t_address,t_mapping(t_address,t_bool))": {
        "encoding": "mapping",
        "key": "t_address",
        "label": "mapping(address => mapping(address => bool))",
        "numberOfBytes": "32",
        "value": "t_mapping(t_address,t_bool)"
      },
      "t_mapping(t_address,t_uint256)": {
        "encoding": "mapping",
        "key": "t_address",
        "label": "mapping(address => uint256)",
        "numberOfBytes": "32",
        "value": "t_uint256"
      },
      "t_mapping(t_bytes32,t_address)": {
        "encoding": "mapping",
        "key": "t_bytes32",
        "label": "mapping(bytes32 => address)",
        "numberOfBytes": "32",
        "value": "t_address"
      },
      "t_mapping(t_bytes32,t_struct(RoleData)2451_storage)": {
        "encoding": "mapping",
        "key": "t_bytes32",
        "label": "mapping(bytes32 => struct AccessControl.RoleData)",
        "numberOfBytes": "32",
        "value": "t_struct(RoleData)2451_storage"
      },
      "t_mapping(t_uint256,t_address)": {
        "encoding": "mapping",
        "key": "t_uint256",
        "label": "mapping(uint256 => address)",
        "numberOfBytes": "32",
        "value": "t_address"
      },
      "t_string_storage": {
        "encoding": "bytes",
        "label": "string",
        "numberOfBytes": "32"
      },
      "t_struct(Counter)4288_storage": {
        "encoding": "inplace",
        "label": "struct Counters.Counter",
        "members": [
          {
            "astId": 4287,
            "contract": "contracts/ArbiGates.sol:ArbiGates",
            "label": "_value",
            "offset": 0,
            "slot": "0",
            "type": "t_uint256"
          }
        ],
        "numberOfBytes": "32"
      },
      "t_struct(RoleData)2451_storage": {
        "encoding": "inplace",
        "label": "struct AccessControl.RoleData",
        "members": [
          {
            "astId": 2448,
            "contract": "contracts/ArbiGates.sol:ArbiGates",
            "label": "members",
            "offset": 0,
            "slot": "0",
            "type": "t_mapping(t_address,t_bool)"
          },
          {
            "astId": 2450,
            "contract": "contracts/ArbiGates.sol:ArbiGates",
            "label": "adminRole",
            "offset": 0,
            "slot": "1",
            "type": "t_bytes32"
          }
        ],
        "numberOfBytes": "64"
      },
      "t_uint256": {
        "encoding": "inplace",
        "label": "uint256",
        "numberOfBytes": "32"
      }
    }
  }
}